:020000040020DA
:10000000503000208D022000AF822000AD82200001
:10001000AD822000AD822000AD82200000000000F3
:10002000000000000000000000000000AD82200081
:10003000AD82200000000000AD8220004D83200032
:100040006F832000758320007B8320008183200044
:10005000000000005383200059832000AD8220005F
:10006000AD82200000000000000000000000000041
:100070000000000000000000AD8220000000000031
:100080000000000000000000AD822000AD822000D2
:10009000AD822000AD822000AD822000AD82200024
:1000A000AD822000AD822000AD822000AD82200014
:1000B000AD822000AD822000AD822000AD82200004
:1000C000AD822000AD822000AD822000AD822000F4
:1000D000AD822000000000000000000000000000D1
:1000E0000000000000000000000000000000000010
:1000F000000000000000000035162000451620001A
:1001000000000000000000000000000000000000EF
:1001100000000000000000000000000000000000DF
:1001200000000000000000000000000000000000CF
:1001300000000000000000000000000000000000BF
:1001400000000000000000000000000000000000AF
:10015000000000000000000000000000000000009F
:10016000000000000000000000000000000000008F
:10017000000000000000000000000000000000007F
:10018000000000000000000000000000000000006F
:10019000000000000000000000000000000000005F
:1001A000000000000000000000000000000000004F
:1001B000000000000000000000000000000000003F
:1001C000000000000000000000000000000000002F
:1001D000000000000000000000000000000000001F
:1001E000000000000000000000000000000000000F
:1001F00000000000000000000000000000000000FF
:1002000000000000000000000000000000000000EE
:1002100000000000000000000000000000000000DE
:1002200000000000000000000000000000000000CE
:1002300000000000000000000000000000000000BE
:1002400000000000000000000000000000000000AE
:10025000000000000000000000000000000000009E
:10026000000000000000000000000000000000008E
:10027000AD822000251520003D152000850E2000B0
:10028000AD822000DD092000AD82200010B5094BB1
:10029000FF221A600848094A4824E3690849121AEB
:1002A00098470848084AA3690021121A984700F0A5
:1002B0008BF8FEE7B4200D4040000020FE01002036
:1002C00064982000000200204F2800202DE9F04112
:1002D000038807463BB1802B4FF000030DD003800D
:1002E0000320BDE8F08130484FF4F06108F0C7F812
:1002F00080233B800120BDE8F0812C4A2C491380EB
:1003000053809380D380138153819381D3814B8019
:100310003A238B71274B60201B79087001204870AD
:10032000CB7101F1180502F110060C4610685168F6
:100330002B4603C30832B2421D46F7D11E480025A2
:1003400000F1100102F0E4FA1C4B802293F80080C7
:10035000294608F12803E61808F12C00E25420444D
:100360000422757007F058FF08F13000DFF8548060
:10037000102298F80010204407F04EFF104B402246
:100380001A80182363712571758008F090F9C043B5
:10039000708004F019FC98F800300348013388F8A5
:1003A00000304FF4C071A1E710020020F4270020B4
:1003B00058200020DC1E002060200020C61D0020E8
:1003C00048200020901C0020F7B500F04DFC00F004
:1003D000F5FC00F091FC00F061FA01F0D1F908F0B1
:1003E0006FF800F0E3FC06F023FC022007F062FF48
:1003F00001F076FF00F024FC00F0E6F9002000F0A8
:1004000047FB012000F044FB4449002000F002FCBF
:1004100002F0C4F807F0A3FF042007F04BFF4048A8
:1004200007F0D3FF3F4807F0D0FF3F4801F0F2F953
:100430003E4B3F4D186807F0C8FF3E4801F0EAF90F
:100440003D4B0024186807F0C0FF3C4801F0E2F97A
:100450003B4B2E46186807F0B8FF002002F0C2F8A8
:1004600001F082F83748002101F0E0FF01F054FE6E
:100470006846082101F096F99DF807309DF806704E
:1004800043EA07276B4603CB28602F48696001F0D9
:10049000C1F9315D2D48013401F0BCF9072C244D20
:1004A000F7D12B4EE9792B4801F0B4F9F46A4AF6FA
:1004B000CD310220A04739460320A0471121012059
:1004C000A0476946736B08220920984705F040FD54
:1004D000214A2B6813606B68536005F04BFA1F4884
:1004E000002101F0A3FF00F08BFC00211C4801F06B
:1004F0009DFF07F0C3FF1B4807F0B6FF00F0A6FB07
:10050000082007F0D7FE00F0A7FB01F001FF10F074
:10051000FF0FF8D101F0CCF8F5E700BF5925200016
:10052000C2962000DC962000F4962000449620001D
:1005300047280020FB9620006096200002972000AC
:100540007C9620009C00002009972000279720001F
:100550007C9520002D972000502000202C010020A9
:1005600050000020BC94200070B505880446772D0B
:1005700030D07E2D40D0002D4ED101F0A9FE294B68
:100580001870294B1D601E463368284A264D52F8C4
:1005900023204AB126480021C154936880209847FF
:1005A0002A6801322A60EFE7224A1370772321E09C
:1005B0001F4AD256002A13DB1B4B1A6801321A60FD
:1005C000194B1C4A1B6812789342F1DB1A4B1B68CB
:1005D000002BEBD0184A00231360134A1360EFE797
:1005E000104A00201178114A52F8232001F0F2FE3F
:1005F00030B97E23238013E00A4B1B788B420FD146
:10060000094B0B4A1B68D15C01F07F01D1540A4BA6
:100610001A6801321A60CFE700230380032070BDFF
:10062000012070BD32280020200200206000002040
:1006300033280020911C002024020020094B1A7846
:100640000023934204DA084951F82310814207D16C
:10065000064A0748D15C61F07F01D15401F0FEBE2B
:100660000133EEE7911C00206000002033280020B9
:100670005000002008B50948082107F045FE032175
:100680000422002000F0A8FB002000F00BFB04482F
:100690000021032200F044FB012008BD00900D4022
:1006A0006507200008B50948102107F02DFE042138
:1006B0000A46022000F090FB022000F0F3FA044802
:1006C0000221042200F02CFB012008BD00B00D40E7
:1006D0006507200008B50948202107F015FE05210F
:1006E0000422022000F078FB022000F0DBFA04482C
:1006F0000221052200F014FB012008BD00B00D40CE
:100700006507200008B50948402107F0FDFD0621D6
:100710000422022000F060FB022000F0C3FA04482B
:100720000221062200F0FCFA012008BD00B00D40B5
:100730006507200008B50948802107F0E5FD07217D
:100740000422022000F048FB022000F0ABFA04482B
:100750000221072200F0E4FA012008BD00B00D409C
:100760006507200038B5054611480C4607F0B6FE6F
:10077000E8B10F48102107F0A5FE1DB9032C16D1D2
:100780000C4810E0022D12D1042C01D10A480AE0D5
:10079000052C01D1094806E0062C01D1084802E0E9
:1007A000072C04D10748BDE83840FFF747BF38BDE4
:1007B00028020020C4942000E4942000F494200037
:1007C000D4942000049520000148002107F07ABE4F
:1007D0002802002010B5074CFF2323604FF4FA6075
:1007E00000F09AF800213022062000F011FB0023CF
:1007F000236010BD00920D40802870B51ED1104EB0
:10080000104D3368002423F0800333602B682046AA
:1008100043F080032B600C4B07211C60224600F044
:10082000DBFA3368204623F0400333602B6806214F
:1008300023F040032B60012200F0CEFA002070BDAF
:1008400020940D4000940D4000920D40F8B500F04A
:1008500087F8104E0022D6E90045A042294638BF4D
:10086000691C0F46B64642EA0006CEE900670A490F
:10087000D1E90023121B63EB0503921943EB070335
:10088000C1E9002301F0E6FB18B1BDE8F84001F032
:1008900071BBF8BD0002002008020020114B124A73
:1008A0001A6053F8042C42F0050243F8042C53F864
:1008B000042C42F0020243F8042C0C4B1A6842F05C
:1008C00001021A60A3F52123A3F6FC7300221A602B
:1008D000042243F80C2C012243F8082C0F22DA6280
:1008E000704700BF14E000E047E8010008200D4019
:1008F000034BD3E90023100A40EA0360704700BFAE
:1009000000020020034BD3E90023D00B40EA434010
:10091000704700BF08020020054B18601C3B1A6896
:1009200042F001021A601A68D207FCD4704700BF77
:100930002800034010B5064C236823F00103236010
:10094000FFF784FF236843F00103236010BD00BF5D
:1009500010E000E0014B1868704700BF3002002033
:10096000064B1A68596808331B681B0443EA0123C5
:100970001343034A106843EA0060704740500D403B
:100980004C500D4010B50446114B1B68DB07FBD5DE
:1009900007F0E9FCFFF7E4FF231A062BD8BFC41DBC
:1009A0000C4B220E1A60C4F3074243F8042CC4F324
:1009B000072243F8082CE2B243F80C2C07F0CFFCD6
:1009C000054B91201C60BDE8104000F06BB900BFE2
:1009D00050500D404C500D403002002008B500F042
:1009E0004DFE064B002291201A6000F077F991200D
:1009F00000F066F9BDE8084001F04EBD300200206D
:100A00000023084A1068084A9958084205D01A4439
:100A1000D268906910F0800003D02C33582BF0D1AD
:100A20000120704728200D402495200038B5164B32
:100A30002C2202FB0033DC684FF6BF72236C626429
:100A40009BB213F0500205460DD0A369DB0609D412
:100A50000E4B53F825301BB12068C0B29847F4E71D
:100A60002368F2E738BD13F4D06F0BD04FF4407316
:100A70002363FF236360E36AE262E362236B43F074
:100A80000103236338BD00BF2495200034020020F9
:100A9000012870B500F2B1802C254543574E7419DA
:100AA00094F92030002BC0F2A88094F92230002B5A
:100AB000C0F2A380524800F053FE524B725919689D
:100AC00000260A431A60596862680A435A609968A6
:100AD000A2680A439A60E368C3F8C86F94F92010CB
:100AE00094F92120236902EBC1021A6094F82200D4
:100AF00094F82310227D00F079F994F8220094F8FC
:100B00002310082200F068F994F92300012101FA6A
:100B100000F094F922203C4B1203D5582843D050C2
:100B200094F9210094F9202001FA00F01203D5581D
:100B30002843D050E26850209063E2681D46906BD5
:100B400040F4D0609063E26802205063E2684FF4A2
:100B500040701063E268A0695062E268E0699062E8
:100B6000E2687020D06294F92420B2421ADB94F932
:100B7000253043EAC202254B1A6094F9250094F906
:100B8000243081401B035A5911435951324694F87D
:100B9000240094F8251000F01FF91D4B1A6842F448
:100BA00000421A6094F8260003061BD494F827101C
:100BB000012200F01BF994F92720012000FA02F22B
:100BC00094F926301B0359590A435A5194F82600C8
:100BD000082294F8271000F0FFF80D4B1A6842F431
:100BE00080421A60E3681A6B42F001021A6394F8BB
:100BF0002800BDE8704000F055B870BD2495200075
:100C0000010A200028200D4020940D4004410D4091
:100C100030D0004001289CBF014B43F820107047A2
:100C200034020020012808D8044B2C2202FB00309B
:100C3000C3689A699206FCD4196070472495200015
:100C4000014B00221A60704700500D40014B0822F2
:100C50001A60704700500D40024BA0221A605022CB
:100C60001A60704700500D40084A094B1A60094B42
:100C700080321A60084B80321A60084B80321A604A
:100C8000074B4FF400121A60704700BF00E100E00C
:100C9000480200203C0200204002002044020020C4
:100CA00008ED00E04209012100F01F0001FA00F008
:100CB000024B1B6843F82200704700BF4802002027
:100CC0004209012100F01F0001FA00F0024B1B68ED
:100CD00043F82200704700BF3C0200204209012176
:100CE00000F01F0001FA00F0024B1B6843F82200DD
:100CF000704700BF44020020054A064B1A60064BAD
:100D00001A68064B1340B3F1807FF8D1704700BFDB
:100D10000101020100200D4004200D4000000101EE
:100D2000024B02EBC10243F8220070474C02002044
:100D3000F8B50A4E07460D4606EB4116002447FA61
:100D400004F3DB07E1B204D556F824300BB1284692
:100D500098470134082CF2D1F8BD00BF4C020020A6
:100D60002DE9F047064635030F4F05F1804404F5A1
:100D7000592400F083FCD4F818A4EB594FEAC608B4
:100D800023FA08F94AEA0900C0B23146FFF7D0FF5A
:100D90005FFA89F95FFA8AF3C4F81C3409FA08F398
:100DA000EB51BDE8F08700BF18970D4002480021C5
:100DB000802207F031BA00BF4C020020034A044BE6
:100DC0001A60044B803A1A60704700BF80400D40A3
:100DD000D0020020CC020020034B01EBC0011B68B5
:100DE00043F82120704700BFD0020020034B01EBE5
:100DF000C0011B6843F82120704700BFCC020020CF
:100E0000024B1A6842F030021A60704700700D40C1
:100E10000E2870B50BD1154C236843F002052560F0
:100E2000134D2C6824F03F0646F001062E60114D4C
:100E30002E6826F0FF0632431143014329600E4A13
:100E400012681206FBD50D4A0D491268096802F0B6
:100E5000FC0242EA012292B20E2892B203D1044966
:100E60000C6002490B6010B270BD00BF3400014439
:100E7000F486084008700D4000700D400C700D4065
:100E800010700D4010B58F20064CFFF727FF8F2004
:100E9000FFF716FF206818B101F0E0FA0023236085
:100EA00010BD00BFD4020020084B93F90020002A97
:100EB00009DB074AED2111601160E32111601A7806
:100EC00062F07F021A700120704700BF921C002060
:100ED00038880840094B1B689B07FBD4084BED2260
:100EE0001A601A60074A12680AB1EF221A60064BAC
:100EF00001201A7802F07F021A7070474C86084071
:100F0000388808402C860840921C002038B5A0F193
:100F10000B05EBB20F2B044613D80B4B1B6813F0D9
:100F20003F0302D0FFF7D6FF012305EB8505074AF3
:100F30000B3515600BB1FFF7B7FF054BE0B21C7026
:100F400000E0FF2040B238BD488608403C8608409B
:100F5000FC01002010B50B4B1B68990603D1FFF76D
:100F6000A3FF012300E00023074A1268D207FBD544
:100F7000064A1468C4F300140BB1FFF7ABFF204618
:100F800010BD00BF48860840648608404C86084073
:100F9000044B186800F02200B0F120035842584179
:100FA000704700BF4C860840024B186800F04000B4
:100FB000704700BF4C86084038B50C4600296CD0FD
:100FC0000D286CD8DFE800F0070D181A216B3142AC
:100FD000476B5E606265334B1B68003318BF0123AB
:100FE00058E0314B05221B6803F07F030B3B93FB5A
:100FF000F2F30B33DBB24DE02C4B00E02C4B1A68C4
:10100000043B1B6843EA022344E00023294A0B60A7
:10101000126802F001020A602749086810F02000F7
:101020003ED042F00202226035E0244B19680023D2
:10103000C9B2234A02EBC3000079884202D852F8B1
:10104000333027E001330E2BF3D11FE01D4B1B681B
:101050005BB2493B1EE01C4B1B68990603D1FFF7AE
:1010600023FF012300E00023184A1268D207FBD5B2
:10107000174A1568493DEDB20BB1FFF72BFF6DB272
:10108000256008E00B2305E01A2303E06FF0170347
:1010900000E007232360002038BD022038BD012076
:1010A00038BD00BF2C8608403C860840CC850840EF
:1010B000D4850840008608402486084040860840C1
:1010C000B495200058860840488608406486084049
:1010D0006086084038B505460C46134B1B689B07D5
:1010E000FBD4124B93F90030002B01DBFFF7DCFE41
:1010F0000F4BEE221A60691E1A60A21C43F8102CD6
:101100002144022000F048FA013C0A49240121430D
:10111000022000F053FA022000F05AFA022000F0F8
:101120006FFA002038BD00BF4C860840921C00209A
:101130003888084002C001C0F8B51F4B93F9003051
:10114000002B0CDBFFF70CFC0446FFF7ADFEFFF7AE
:1011500007FC6FF009031B1BC342F8D401E0002613
:1011600000E00126FFF7F6FE10B3144D2B68990638
:101170001ED4134CE923236004272B689A0707D455
:10118000013F17F0FF0703D00620FFF7C5FBF4E788
:101190002B689B0704D4EE2323602360012403E023
:1011A0002C6814F00204FBD126B1FFF793FE01E096
:1011B0000220F8BD2046F8BD921C00204C86084055
:1011C00038880840044B1A6810B142F0010201E06F
:1011D00022F001021A6070470086084038B50C46BC
:1011E000072855D8DFE800F0040F1B1F26543B4F9B
:1011F000012902D1FFF758FE4EE000294AD1FFF73E
:1012000069FE204638BDA1F10B030F2B42D8C8B2AE
:10121000FFF77CFE013014BF0020032038BD8CB2E4
:10122000E2B21E4B02E08CB21D4BE2B2240A1A60FD
:101230005C6031E031F003052CD101F00100FFF7D3
:10124000C1FF184B14F002001A6804D042F02002CB
:101250001A60284638BD22F020021A6038BD01F11C
:1012600018031F2B16D80D230F4AD80052F833103D
:101270008C4204DC024412790C4B1A600CE013F12E
:10128000FF33F1D208E0CCB2094B49341C6003E0D3
:10129000012038BD022038BD002038BDC885084077
:1012A000D085084024860840B49520004086084038
:1012B0005886084009280CD1082A0CD159B1084B8E
:1012C000013953F8042D01F8012F064A9342F8D151
:1012D00003E001207047022070470020704700BFE4
:1012E000C8850840A885084009280CD1082A0CD1D7
:1012F00059B1084B083111F8012D43F8042F064A63
:101300009342F8D103E0012070470220704700208B
:10131000704700BFA4850840C485084070B52C4EB6
:10132000336813F0400342D02A4C2368DDB21B0619
:1013300039D4042D37D9023D8D4234DCEDB2032D72
:101340001BD041190139032000F02EF96B1E2249F0
:101350001B010320194300F031F9032000F038F994
:10136000032000F04DF9032000F056F90028FAD1CF
:1013700021682468200616D506E0236803702368D8
:10138000437023688370F3E7493949B289B2042076
:1013900004F0B4FD032004F07F0104F0AFFD3368D6
:1013A0005A0606D411E00D4BED221A601A60002097
:1013B00070BD074B1B681B0603D5094801F04EF8AA
:1013C00003E0064BED221A601A60284670BD00BF8C
:1013D0004C8608402888084002C0010C3888084024
:1013E00084000020F8B52B4D2E7816F001064ED162
:1013F000294B01241C605C609C60A3F59323A3F53A
:101400001473F8221A600922C3F890211522703350
:101410001A6003F59B230B2203F59E731A60A3F554
:101420009B23A3F5F07340221A601A687F2742F0CD
:1014300020021A60D52243F81C6CDF62DA61174B78
:101440001878FFF763FD164B8D201A6842F00402EE
:101450001A60FFF727FC134B8E201F60FFF722FC5A
:10146000022000F0C1F81049022000F09DF803208E
:1014700000F0BAF803200C4900F08EF80B48314612
:1014800000F0D4FF2B78204623432B70F8BD0020BA
:10149000F8BD00BF921C0020A8200D40FC010020D8
:1014A0008C860840948608402888084084000020E4
:1014B00038B503880446E3B140F2B932934203D011
:1014C00000230380032038BD822915D104F0B4FC29
:1014D00004F052FC8021FFF721FF002805DD80B2D7
:1014E00004F044FC0C4B1B6998470C4B1A785206CD
:1014F00004D440F2B9332380012038BD00221A7091
:10150000074B1D68FFF7E6FCFFF76CFFAB06F0D05A
:10151000FFF7CAFCEDE700BF7C962000921C00207C
:101520004886084008B5034800F098FF024B0022A7
:101530001A6008BD8400002034880840074B1A68F0
:10154000042A1A4604D0064B197841F0400119705C
:1015500000231360034800F081BF00BF2C880840BF
:10156000921C00208400002010B5094C0021204668
:10157000402206F051FE074B01221A602E205C60CB
:10158000FFF790FBBDE810402F20FFF78BBB00BF9B
:101590000000002004F00F40032802D8014B000196
:1015A0001950704700000020032803D8024B03EBBA
:1015B00000104160704700BF00000020032803D8DE
:1015C000024B03EB00108160704700BF0000002059
:1015D000032806D8012101FA00F0024B1A681043D3
:1015E0001860704728F00F40032806D8012101FA3F
:1015F00000F0024B1A6810431860704720F00F404B
:10160000032806D8012101FA00F0024B1A681043A2
:101610001860704714F00F40032806D8044B03EB02
:101620000010806800F0070070470020704700BF7E
:1016300000000020024B4FF0FF321A60704700BFDD
:1016400004F50F40014B01221A6070474CF00F4027
:10165000094B1A68194612F4801FF9D1043B1A6825
:1016600022F480321A600A68D203FCD41A6842F469
:1016700000321A60704700BF04200D4010B50A4BBD
:101680001A681C4612F0030F0CD0084A136859015F
:10169000FBD413685B01FCD5FFF74CF9FFF7D8FFCB
:1016A0000023236010BD00BF58200D4004200D40D2
:1016B00038B5254B1C6814F03F0413D1234BE35875
:1016C00023B1984770B104340C2CF7D1204B1A7811
:1016D0001D463AB1FFF73EF90446FFF741F9201ADB
:1016E000092801D830BF38BD002CFBD0194B1A682F
:1016F00022F400321A60184A1168C902FBD4196832
:1017000041F4803119601368DB03FCD5FFF728F939
:10171000201A092803D8BDE83840FFF799BF63288D
:101720000E4C02D92B78022B00D00123236000F04D
:1017300047FE20B1FFF78CFF0023236038BDFFF781
:1017400009F90028CED1F5E748860840D8020020E4
:10175000931C002000200D4004200D4058200D4017
:101760000023064A52F82310814206D011B942F8EC
:10177000230070470133032BF3D17047D8020020B8
:10178000054B00221A60054B1A6842F004021A60E9
:10179000034B01221A70704758200D4010ED00E0F5
:1017A000931C002030B5184B1B783BB9174A1278B0
:1017B000122A03D1164A12784B2A01D0002317E0CF
:1017C0004A08934207DA02F520142734E41A2478F1
:1017D000C4540133F5E70023934208DA01F52014DD
:1017E0002734E41A25788418E5540133F4E730BD32
:1017F0008B4207DA01F520122732D21A1278C2542E
:101800000133F5E730BD00BF2B0028002A00280077
:10181000290028000FB407B504AA52F8041B044895
:10182000019200F01FF803B05DF804EB04B07047BC
:101830009400002038B505460C46102C07D92B68BB
:10184000686807491022984748B9103CF5E72CB161
:101850002B68686802492246984738BD204638BD43
:10186000A59720002DE9F04F95B0074605910D9200
:101870004FF00008059C2378002B00F0538323468B
:101880001C4613F8012B1AB90598844203D10CE0C9
:10189000252AF5D1F8E705993B68651A78682A4644
:1018A0009847002840F02183A8442378002B00F0BB
:1018B00039836378002B00F03583013400262246FB
:1018C00014F8013B2B2B11D006D8202B11D0232B41
:1018D00012D146F00806F2E72D2B04D0302B0BD1A5
:1018E00046F01006EBE746F00106E8E746F006068C
:1018F000E5E746F00206E2E7A3F13101082910D836
:1019000013464FF0000C1A4613F8011BA1F13000EA
:10191000092815D84FF00A0A0AFB0C1CACF1300C50
:10192000F1E72A2B0AD10D9B0132191D1B680D917D
:10193000002BB8BF46F001069C4601E04FF0000CBA
:1019400013782E2B1FD15178531CA1F13000092898
:1019500010D819464FF000090A780B46A2F1300062
:10196000092801F1010111D80A2303FB0929A9F172
:101970003009F1E72A2907D1931C0D9A111D0D9109
:10198000D2F8009002E013464FF0FF391A786C2A23
:1019900009D15A786C2A02D146F080060AE0013358
:1019A00046F060060BE0682A09D15A78682A03D10C
:1019B00046F02006023302E0013346F040061A7872
:1019C000642A3CD01FD8462A48D00DD8252A5AD0A0
:1019D00003D8002A00F0A68257E0412A4AD0452ABF
:1019E00008BF46F4424650E0582A31D004D8472A6E
:1019F00008BF46F4A13648E0612A38D0632A08BF00
:101A000046F4A06641E06E2A3AD007D8662A22D072
:101A100027D3672A28D0692A11D036E0732A2CD020
:101A200006D86F2A11D0702A08BF46F440762CE001
:101A3000752A07D0782A08BF46F4C85625E046F430
:101A4000245622E046F410661FE046F488561CE057
:101A500046F4B24619E046F4007616E046F48446B1
:101A600013E046F4024610E046F481360DE046F4F9
:101A7000C1360AE046F4E13607E046F4806604E049
:101A800046F4E06601E046F4C0660133059306F4CF
:101A9000E063B3F5806F00F0A58114D8B3F5807FC3
:101AA00028D0B3F5407F7FF4E5AE0D9BA649A7484B
:101AB0001A1D16F4804F0D9218BF08461A680DF1D2
:101AC0004B010023B6E1B3F5C06F08D0B3F5E06F6A
:101AD00000F02182B3F5A06F7FF4CCAEEFE13B685C
:101AE00078689B4901229847002840F0FE8108F160
:101AF0000108BFE6B9F1000FACBF26F010064FF0A9
:101B0000010916F40054049406F0E00337D0402B8A
:101B100017D008D8DBB1202B2AD10D9B1A1D0D92AE
:101B200093F9002017E0602B11D0802B20D10D9B62
:101B3000073323F0070303F108020D92D3E90023D2
:101B40000AE00D9B1A1D0D92B3F9002003E00D9BD6
:101B50001A1D0D921A68D317002A73F1000009DAD2
:101B6000504263EB4301CDE902014FF0010A34E03A
:101B700000220023CDE902234FF0000A2DE0402B84
:101B800016D007D8D3B1202B21D10D9B1A1D0D9251
:101B9000187811E0602B11D0802B18D10D9B0733E2
:101BA00023F0070303F108020D92D3E900010BE0D3
:101BB0000D9B1A1D18880D92002105E00D9B1A1D22
:101BC0000D921B681846F7E7CDE90201D4E7002221
:101BD0000023CDE902234FF0000A06F4C053B3F509
:101BE000805F0BD0B3F5C05F3CD0B3F5006F5AD126
:101BF0000DF14E040C94DDE9024504E00DF14E01B7
:101C0000DDE902231CE054EA0501DDF830B045D0DF
:101C1000204629460A220023CDF804C005F00CFF17
:101C20000C98303200F8012D0C90294620460A22EB
:101C3000002305F001FFDDF804C004460D46E2E78D
:101C400052EA03008B4629D002F00700D408303056
:101C500001F8010D44EA4370DC0806900794DDE9C1
:101C60000623EDE7384B394816F4804F0DF14E014D
:101C700018BF1846DDE9022352EA03048B460DD053
:101C800002F00F04045D01F8014D140944EA0374E5
:101C900008941C090994DDE90823EDE70DF14E05D0
:101CA000CBEB050502E00DF14E0B002541F60803D4
:101CB000A94506EA030341F208028CBFC5EB0909F6
:101CC0004FF00009934204D1B9F1000F08BF4FF063
:101CD000010941F60802934209EB05010CD1DDE947
:101CE0000223134308D01B4B1B4A16F4804F4FF0BE
:101CF000020418BF1A4601E000242246049890B15D
:101D0000BAF1000F0DD106F00603022B06D0062B08
:101D1000124B08BF012408BF1A4604E00124104AF0
:101D200001E0104A012401EB040AD4458CBFCAEB40
:101D30000C0A4FF0000A16F0010302931DD1F106C0
:101D400012D5D1449A4618E0709720008197200060
:101D5000A397200095972000929720009A97200043
:101D60000097200098972000384651460192FFF7CF
:101D700061FD019A002840F0B8803CB111463B68F3
:101D8000786822469847002840F0AF804E46102ED3
:101D90003B6808D97868654910229847002840F0C8
:101DA000A480103EF3E736B1786860493246984720
:101DB000002840F09A803B68786859462A46984740
:101DC000002840F09280A8444444A144029C34B1CD
:101DD00038465146FFF72EFD002840F0868009EB7B
:101DE0000A0847E50D9B1D681A1D0D923DB12B4653
:101DF0001C4622780133002AFAD1641B01E04C4DC5
:101E00000624B9F1000F02DB4C4528BF4C46A4451F
:101E10008CBFC4EB0C0A4FF0000A16F0010605D186
:101E200038465146FFF706FD00285ED13B687868CA
:101E3000294638E052EA03040D460DD002F00F04A3
:101E4000045D01F8014D140944EA03740A941C0965
:101E50000B94DDE90A23EDE70DF14B04641A04D17C
:101E600030234D1E01F8013C012478230334A4459E
:101E700005F8013C4FF0300305F8023C88BFC4EB85
:101E80000C0A4FF0230398BF4FF0000A16F001062A
:101E900005F8033C04D138465146FFF7CBFC20BB84
:101EA0003B687868E91E22469847F0B9A044002EA6
:101EB0002FD038465146FFF7BDFC50B315E00D9BBF
:101EC000BCF1010F03F104021B688CBF0CF1FF3A57
:101ED0004FF0000A16F001060D928DF8383008D147
:101EE00038465146FFF7A6FC10B14FF0FF301AE01C
:101EF000D0443B6878680EA9012298470028F4D1A5
:101F00002EB138465146FFF795FC0028EDD10AF175
:101F1000010AD044AEE40D9B1A1D1B680D92C3F854
:101F20000080A7E4404615B0BDE8F08FB5972000CB
:101F30009C97200010B50D4C236813B90C4A136010
:101F400010BDFEF7D5FC236893E806000A44121A78
:101F50009B683BB193E812002144091A8A4228BFCA
:101F60000A46F5E7024B1044186010BDE402002059
:101F7000E8020020014800F071BA00BF9C00002078
:101F8000F8B5038805462BB1592B09D000230380EF
:101F90000320F8BD1E4A136059232B800120F8BD91
:101FA000872920D08229F7D1194F00263C68002CC0
:101FB000F2D0204606F092FA90B1E06888212246DD
:101FC00000F008FA50B9E060A3680EB1B36000E019
:101FD0003B600023A360FFF7ADFFE5E7FFF7CAFF13
:101FE0002646A468E3E70A490B680BB90B60D3E700
:101FF000D868904201D19B68F7E70B609968002987
:10200000CAD0C86890420ABF89680B469960F5E754
:10201000E402002010B50446FFF7ACFFE3680B4A6A
:102020004BB113683BB1A34203D1094A1268DA608D
:1020300007E09B68F6E7064B1B68E36013681460D3
:10204000A360BDE81040FFF775BF00BFE4020020A9
:10205000F8020020024B1868003018BF01207047BA
:10206000E402002010B50B4A04461368984206D1DA
:102070008368136008E09A68A24203D01346002BDD
:10208000F9D103E0A2689A60FFF754FF0023A36030
:10209000E36010BDE4020020F8B50388054616464B
:1020A0002BB14A2B15D0002303800320F8BD17481D
:1020B00006F025FA04462CB1201DA16806F0DFF9D0
:1020C0002468F8E7124B01221A704A232B80012062
:1020D000F8BD8829FBD10D4806F011FA0446002C02
:1020E000F3D0231D9E420ED10848214606F010FA77
:1020F000084B62691F681A60A2691E460AB1E0694E
:1021000090473760E1E72468E9E700BFEC02002070
:10211000941C0020F802002010B5064B002406484D
:102120001C7006F0E9F921460448BDE8104000F0B3
:102130007DB900BF941C0020EC020020AC00002000
:1021400070B504460A4DE3610A4B2E681B78666140
:10215000A26133B1084B201D2B6006F090F92E6070
:1021600000E0A16021460548BDE8704006F0E4B9F2
:10217000F8020020941C0020AC000020EC0200209B
:1021800070B5094B05461B783BB1084C084B2668D7
:102190000430236006F07CF9266029460548BDE836
:1021A000704006F0C9B900BF941C0020F80200205E
:1021B000AC000020EC02002010B5084B04461B7850
:1021C0001BB10430FFF74EFF01E0C36003612146FD
:1021D0000348BDE8104006F09BB900BF941C0020E6
:1021E000EC02002038B5836804460D469BB10A48CE
:1021F00004600220A07304F10C0098470238012803
:1022000001D9832D05D120462146BDE8384000F094
:1022100005B80123A37338BDF80200202DE9F84367
:102220001D4A1E4E15683768044689462B4690465F
:10223000A34204D00BB11B68FAE7BDE8F88344B3AE
:10224000A37BABB10023A37345B1AC4204D02846B5
:102250008721224606F02EF92D68F5E7A3683BB1E9
:102260004C4505D0346004F10C0083212A46984780
:10227000D8F800309C4209D12268074B00E0226860
:102280001A6005E01A68A242F9D01346002BF9D172
:102290003760BDE8F88300BFFC020020F802002090
:1022A00010B5094B00221A70084B1C685CB1E37B27
:1022B0003BB101230022A373E27320468221FFF782
:1022C00091FF2468F2E710BD971C0020FC0200205B
:1022D000024B1878421C1A70704700BF9A1C0020ED
:1022E000064B8A221A70064A00231370054A13709F
:1022F000054A1360054A1360704700BF9A1C00200E
:10230000951C0020961C0020FC020020F8020020F2
:102310002DE9F843214E33780BB1FFF7C1FF204D73
:102320002C78002C35D0DFF890C00C239CF800806E
:102330001C4A03FB08F3D018D15C1B4F42681B4BAF
:102340008068DFF8789008F1010808F01F08013C68
:102350008CF8008039701A60C9F800002C7098461B
:1023600088B9134C134B1B68236023688BB13378F7
:102370000BB1FFF795FF20683978D8F8002006F0F8
:1023800099F82368EFE7812904BF0123837306F0DE
:1023900091F8337828781844BDE8F883971C00201A
:1023A000961C002000030020981C002080040020C0
:1023B000F4020020FC020020951C0020F002002006
:1023C000024A034B10781B7818447047961C002073
:1023D000971C0020F0B50C4C2378202B11D00B4D0E
:1023E0000B4F2E780B4D1E4406F01F062E700C2549
:1023F0006E430133BD19B9552370A8606A6000208F
:10240000F0BD0120F0BD00BF961C0020951C0020EF
:1024100000030020991C002038B5034C256806F005
:1024200049F8256038BD00BFF802002030B50A4DDC
:102430000A462C68234683420DD00BB11B68FAE78D
:1024400048B1046001212860817383818121BDE846
:102450003040FFF7E1BF30BDFC02002038B1837B84
:10246000013B012B03D8024A0123C3731370704749
:10247000971C002010B50246064853600468029B72
:1024800011609360026014B90846FEF77BFA0020E1
:1024900010BD00BF8404002010B5084C206858B15E
:1024A00000232360816843689847236823B1186834
:1024B000BDE81040FEF766BA10BD00BF84040020DE
:1024C00038B505880446672D09D0792D2ED0002D0A
:1024D00032D1FFF7FDFE1B4B18701B4B1D601B48D4
:1024E00006F066F8431C01D167231DE00A28164B4D
:1024F00007D01A687E2AF2DC511C1960144B9854DC
:10250000EDE7196800254A1C1A60114A0D4B555415
:1025100028461978FFF75EFF0E4B852118682A467A
:10252000FFF758FF20B97923238009E0852907D1D7
:10253000054B00221A60D2E700230380032038BD38
:10254000012038BD3C280020880400208C04002095
:102550001C1D0020F80200200D2810B5014615D0E2
:102560000B4C23782BB90B4806F00FF848B9012320
:1025700006E00A2805D1074806F007F808B100234D
:1025800023700548FFF76AFF012010BD002010BD31
:102590001B1D00208C040020BC00002008B505484D
:1025A0000549802205F0EAFFBDE808400348002104
:1025B000FFF73CBF8C0400209B1C0020BC000020C7
:1025C000064B1A68143342F0040243F8142C044AF0
:1025D0001B68106843EA002080B2704700700D400D
:1025E00018700D40194B1A6822F00C021A60A3F5FE
:1025F0009E43583B01221A601A68012AFCD1144BF1
:1026000008221A60E322C3F8142203F50573194661
:10261000104B1B68DB07FBD500231A460E4801321E
:102620000068102A00F0010043EA00034FEA430368
:102630009BB2F3D1002BF0D0084A180A03F0FE0336
:1026400010601360EF230B60704700BF00700D40F7
:1026500024860840648608409C86084014700D401B
:102660002DE9F341144C064600910D4690461F4655
:102670000194124803212022334605F0A9FF0128C6
:1026800016D12368187021683046023106F1100314
:1026900050F8042B984241F8042BF9D12068089B8C
:1026A00085744361099B80F813800777836100E09C
:1026B000002002B0BDE8F08198040020D81F00205F
:1026C00070B50C4B0C4D06462B602C680B4B9C4296
:1026D0000BD2237833B1A27CA01C3146D20805F07E
:1026E0008BFC20B120342C60EFE7002070BD01206E
:1026F00070BD00BFD81F00209804002038200020A3
:1027000013B5084C80220346009201940648032129
:10271000202205F05DFF08B9206800E0002002B02B
:1027200010BD00BF9C040020F41E002010B50C4A10
:102730000C4B136013680C498B420DD2197849B1C8
:10274000411C02D0997C814204D15C8848F2FE0190
:102750008C4203D02033ECE7002010BD184610BD9A
:102760009C040020F41E0020541F002037B5104D9B
:10277000044680230093122201950E48052123462A
:1027800005F026FF01282A460ED12B6804F110011E
:1027900018702B682046023350F8044B884243F8E7
:1027A000044BF9D1106800E0002003B030BD00BF39
:1027B00094040020781F0020F7B5224D04468023A2
:1027C00000930E46174601951F48032120222346F9
:1027D00005F0FEFE012831D12B6804F110021870BB
:1027E00029682346023153F8040B934241F8040B45
:1027F000F9D12868C77416B90123037505E00023D1
:1028000003753146183006F0DCFD2B680F4A0120B5
:10281000987402235370FF210023D07211705380EB
:102820009380D380138193721173637B104653732B
:10283000E389D381FFF79AFF286800E0002003B006
:10284000F0BD00BF9C040020F41E0020DC16002018
:1028500013B5084C802203460092019406480521D6
:10286000122205F0B5FE08B9206800E0002002B091
:1028700010BD00BF94040020781F002038B5054625
:10288000C8B10D48022100244170FF22012144807B
:102890008480C48004818472C17202730270EA7BF6
:1028A00042732A8AC281FFF7D3FF044A106008B13D
:1028B00005F0B3FE2C7038BDDC1600209404002017
:1028C00010B50F4B0F4C236020680F4B98420ED26F
:1028D00003784BB1037D3BB9183004F0D3F918B13C
:1028E000084B1868FFF7CAFF23682033EBE700F0B6
:1028F000D7FA00F073FEBDE81040044805F0C8BDEB
:10290000F41E00209C040020541F002038200020CA
:102910002DE9F8430A8848F2FE039A4205460F461D
:1029200023D00B78FF2B20D01C4B1D4A00241A60AB
:10293000A1469846D8F800601A4B9E4219D23378C7
:102940007BB1B37C012B0CD1728848F2FE039A4212
:1029500007D03846B11C05F06DFE484524BF34460B
:1029600081462036C8F80060E4E70120FFF7DEFE6C
:1029700004464CB92C806C80AC80EC802C816C813E
:10298000AC81EC81BDE8F883A31C123453F8042B0E
:10299000A34245F8042BF9D1BDE8F8839C0400203C
:1029A000F41E0020541F002010B5FFF709FE044656
:1029B000FFF706FE054B22029B6892B21044B0FB63
:1029C000F3F203FB120000EB530010BDDC1E0020ED
:1029D00073B52F4C00F086FD00F08EF800216022C8
:1029E0002C4805F019FC00212046F82205F014FCC3
:1029F000294B20221A70294B18221A704FF4A06319
:102A00002360274B40262671A360FFF7CDFF0025EA
:102A100042F21073E06023612575224C48F2FE03F8
:102A2000238065802B46A580E5802A4631460095A7
:102A300001952046FFF714FE20461B4905F0F1FDE5
:102A4000294601222046FFF7B7FE40F2FF264FF449
:102A500080732046E38126806580A580E5802581FE
:102A60006581A581FFF782FE4FF400732046268022
:102A70006580A580E58025816581A581E381FFF7DB
:102A800075FE0A480C2102B0BDE8704005F0F7BCA5
:102A9000DC1E0020D81F0020D51F0020D41F0020DE
:102AA000C0270900DC16002050200020382000201C
:102AB0002DE9F04105460D480F46904605F01FFDF3
:102AC000044688B1012D04D8094805F04DFD0346A0
:102AD00001E0084B1B682846666839464246B04705
:102AE000204605F048FDEBE7BDE8F0814C090020E9
:102AF000E4040020E004002008B50A4806F068FC61
:102B0000094805F0F9FC0949094802F0F5FF0948B0
:102B100006F05EFC084805F0EFFCBDE808400748F9
:102B200005F0EABCE800002088050020738620003C
:102B3000D8000020CC000020E40400204C09002034
:102B400008B5034638B15968034806F006FBBDE8EE
:102B5000084005F0BCBD08BDD8000020014805F0C4
:102B6000CEBC00BF880500202DE9F0418046FFF76C
:102B7000F5FF0026044637469CB194F82450B54230
:102B80000AD3404604F10801EA0805F035FA18B9FD
:102B9000802D08D02E462746204605F066FD0446C7
:102BA000EAE73C4667B1084805F0A9FC844207D033
:102BB0000548214605F0ACFC0348214605F0CBFC56
:102BC0002046BDE8F08100BF8805002038B50446E6
:102BD00000283DD04368002B3AD01E48214605F01E
:102BE00097FC6368586805F08AFC054630B1436875
:102BF000A34207D0284605F0BEFCF6E704F1080022
:102C000001F07AFF63682946586805F081FC636823
:102C1000586805F074FC20B963680F48596803F0E0
:102C200025F821460D4806F0F7FB29460C4806F02A
:102C3000F3FB0C4B20461A68013A1A60FFF780FF3D
:102C400004F108010246BDE838400320FFF730BF19
:102C500038BD00BF88050020D8000020E800002013
:102C6000F4000020E004002010B5044678B140686C
:102C700068B105F044FC20B14068FFF7A7FF606829
:102C8000F7E721460248BDE8104002F0EFBF10BD53
:102C9000D80000202DE9F0470646104689469046A8
:102CA00005F017FD044610B90020BDE8F087304656
:102CB000FFF75AFF074660B1FFF742FF014628B110
:102CC0004046102205F098F900285AD03846FFF700
:102CD0007DFF2D4B1A689A46142A04D12B4805F023
:102CE00010FCFFF773FF2A48214606F01DFA05463F
:102CF00058B92748214602F02DFF05460028D3D0B9
:102D000000236860036005F0F7FB224806F070FBC3
:102D100004460028C8D01D48214605F01CFC1E486A
:102D200006F066FB074620B921461A4806F074FBF8
:102D300027E044603946686805F0FEFBDAF80030A9
:102D400065600133CAF8003004F10802334606F129
:102D5000100718685968154603C50833BB422A4650
:102D6000F7D184F8249004F1180000210C2205F01A
:102D700053FA022031464246FFF79AFE2046BDE84C
:102D8000F0873846BDE8F087E00400208805002081
:102D9000D8000020E8000020F400002038B50546E7
:102DA0000D4805F0ACFB0446A0B1AC420ED1214663
:102DB000094805F0ADFB2146084806F02DFB211D12
:102DC00001200A46BDE83840FFF772BE204605F0F4
:102DD000D2FBE8E738BD00BFE4040020CC000020AF
:102DE00038B50546084805F08AFB044648B1201D61
:102DF0002946102205F000F918B1204605F0BBFB6A
:102E0000F3E7204638BD00BFE4040020F8B50546CE
:102E10000F46FFF7E5FF044640B9134806F0E8FA0D
:102E20000446F0B11148214605F095FB2B46261DBE
:102E300005F1100E18685968324603C2083373450D
:102E40001646F7D137B104F11400394606F0B9FA45
:102E5000002300E001232377002029462A46FFF7BC
:102E600027FE2046F8BD00BFCC000020E40400206F
:102E700038B50A4805F043FB0025044664B1251D1A
:102E8000284600F071FB10B190F8223023B920469B
:102E900005F071FB0446F1E7284638BDE404002044
:102EA00010B50A4805F02BFB044670B1237F43B9E7
:102EB00004F1140003F0E6FE18B12046FFF76EFFA0
:102EC000EFE7204605F057FBEEE710BDE4040020D5
:102ED00037B5124B124C1D7823796279C5EB032369
:102EE00013449BB2ADF80630BDF8063004F108017A
:102EF0001844202280B205F0BEFBBDF8062005F183
:102F00002801214492B205F0B6FB10B140BA80B25C
:102F100001E04FF6FF7003B030BD00BFC61D0020BA
:102F200058200020F8B5264F264D3A7826492832F9
:102F3000531993F801C002234FEACC0C0CF1070C93
:102F40009C4539DBD0182E18285C1E4C01282ED049
:102F500002D3632802D011E001332BE018461A4D4A
:102F60000B7002F0EBFAC8B93A782B7828321A4481
:102F700014446278134402332B70F8BD00F0C00093
:102F8000802805D0C02805D0402810D10B7005E05E
:102F90000B7005E00B70217EFF2901D10120F8BDE7
:102FA000042002211A4403F08BFF0220F8BD707840
:102FB00002300344DBB2C3E70B700020F8BD00BF52
:102FC000C61D002058200020C81D002008B5FFF7AE
:102FD000FFFC04F061F800F04DFE084B4FF48062F6
:102FE0001A800023064A002102EB43120133DBB2B0
:102FF000092B1182F6D9034A137008BDEC16002084
:103000008C250020C91D00202DE9F041124E347896
:1030100004B3124F04F12703B7F80080434504DBE3
:10302000002333703B80BDE8F0810D4DA8F12802EC
:1030300004F12801121BC4EB0804A4B205F1280016
:10304000294405F083F83C80283C23122B7100238F
:103050006C713370BDE8F081C61D0020482000204F
:103060005820002004282DE9F84F944D00F0C78126
:103070009349944B944A05280B6013600F46904681
:1030800012D192480068008A002800F0F8810C3BB9
:1030900013600B608E4B002018808E4C8E4B0822E4
:1030A000206028801A70A8E113F83C2CA3F13C049E
:1030B00002F0F002602A40F0E28122796179120286
:1030C00028885618864200F3DA8128310A442A807B
:1030D000227AFF2A00F0D381804A363B1360804E6B
:1030E000804B002131701970A17992469946B9B987
:1030F000012389F80030FFF715FF012800F0BF8198
:1031000003D3022800F0B6810AE0327802F12803E6
:103110002344CAF800305B78083202EBC3023270F5
:103120007148FFF7EDFA002840F091806E48FFF7F4
:103130008FFB002840F08B80227E6C4BFF2A46D00C
:10314000198B48F2FE00814241D0198981423ED05C
:1031500071B9598961B9998951B9D98941B91B8A1C
:1031600033B9618A614B19B9998A09B9DB8A73B39A
:10317000218B5E4B79B9598B69B9998B59B9D98B28
:1031800049B9198C39B9598C29B9998C19B9DB8C81
:10319000B3F5807F1BD02B88B3F5A06F04D9022034
:1031A00000214FF4A06206E0E379504E012B05D8D0
:1031B000002103200A4603F083FE5BE102F00AFAD5
:1031C000002840F05C81F379013BF37152E12189E1
:1031D00048F2FE03994240F05281218B434B81B962
:1031E000598B71B9998B61B9D98B51B9198C41B986
:1031F000598C31B9998C21B9DB8CB3F5807F00F003
:103200003E81FF2A00F03B813748FFF759FA02461A
:10321000002840F0348101200221CCE71FD93B2B4C
:1032200000F02D813C2B22D199F800302D499807D0
:1032300035D5580679D443F040030B70FFF772FE82
:10324000012800F01C812DD3022800F01381DAF848
:103250000020DFF888B013782C2BDFD10FE1112B81
:1032600000F083802B2B43D0002B5ED102E03A2B61
:103270005BD15EE099F80030D90756D4194A43F083
:1032800001031370FFF74EFE012800F0F880DBD237
:10329000327802F128032344CBF8003008E043F0F1
:1032A0000203CAE7327802F128032344CAF8003047
:1032B0005B78083202EBC3023270C8E74820002076
:1032C00078250020942000204C2000207425002028
:1032D000882500207C2500206C25002070250020FA
:1032E000C61D0020C71D002070200020582000208F
:1032F00099F8003003F0040000F0FF01A8B9654A16
:1033000043F004031370327802F128032344D87881
:1033100010B104202A324EE7CBF800305B78083237
:1033200002EBC3025C4B1A7091E704200121121BCF
:1033300041E705F0BCF94FF6FF73984240F09F80DB
:1033400033782833E05C01F019FC33782833E21835
:10335000E05C517803F092FD012804BF00232B802C
:103360002B88002B00F08B8084E0FFF74DFE2B882C
:103370004A4E303B2B80E38D3E6063B9B4F82AA0FF
:10338000BAF1000F7BD0464B464A99461A60464A2E
:10339000B2F828B00BE005F08DF94FF6FF739842B4
:1033A0006DD1EBE7238A43B92034C9F80040D9F83E
:1033B00000403E4B9C42F5D361E09A45F4D1638ACC
:1033C0000BB19B45F0D123682BB963681BB9A36887
:1033D0000BB9E36833B136482146102204F00CFEE5
:1033E0000028E1D1334A00231360334A02211170CF
:1033F000324A3E60C8F80060138001F0E5FC2F4BB4
:103400001A88002A3BD002F13003274C9BB22B8054
:10341000283B19126371224B08321B6852BA217182
:10342000197DA2850022E2851A8AE17122855A8AD5
:1034300011216285A17104F118050FCB85E80F00F9
:1034400004F108002946FFF763FA1D4B04F13C0222
:103450001A6005F02FF9C04380B208B1E08502E0A0
:103460004FF6FF73E38502F0C7F960232370002352
:1034700063706380104B00221A70BDE8F88F064A13
:1034800000231370034A2B8013700B4A1370BDE89E
:10349000F88F00BFC71D0020C61D00208820002017
:1034A000742500208C25002058200020CC260020E8
:1034B000602000207C2500206C250020882500202D
:1034C0007825002010B5044640B102F013FA044BF1
:1034D00021461868BDE8104002F0C8BB10BD00BF0F
:1034E00000010020024B0349186802F005BB00BF31
:1034F00000010020C53420002DE9F8439946154B02
:1035000005461868904602F025FB0446F0B10746D0
:1035100005F11003286869683E4603C608359D42D8
:103520003746F7D104F11000002184F8218084F897
:10353000229005F046FF04F11800002105F041FF3C
:10354000002384F82030204602F0D4F92046BDE85C
:10355000F88300BF00010020024B0146186805F007
:10356000FCBD00BF0001002070B50C4E0546306860
:1035700002F0D6FA044665B9002070BD20462946FF
:10358000102204F039FD38B12146306805F0B5FD50
:103590000446002CF2D1EFE7204670BD0001002068
:1035A000024B0146186805F0BFBD00BF00010020B6
:1035B00070B5054610200C4602F0BAFC06490646D6
:1035C00005F0D6FD30B9304629462246BDE87040A8
:1035D00002F058B970BD00BF4398200070B5404D4F
:1035E000286802F09DFA2E460446002C77D094F805
:1035F0002230042B6DD8DFE803F01D036C3341004B
:1036000004F11005284603F03DFB002861D0204658
:10361000FFF7E6FB50B1032384F82230284605214A
:1036200005F0CFFE002384F8203052E0022384F816
:1036300022304EE094F82030022B2BD804F11805EC
:10364000284603F01FFB002843D0264B188800288B
:103650003FD194F820300146013384F820302CE02B
:1036600004F1100003F00EFB98B30423002184F84A
:10367000223084F8201004F1180028E094F820305B
:10368000022B0BD92046FFF7ABFB18B1037F0BB918
:10369000FFF784FB2046FFF715FF1AE004F1180539
:1036A000284603F0EFFAA0B10E4B188888B994F8B9
:1036B00020302146013384F82030224600F028FAD9
:1036C000094B284619694FF47A73B1FBF3F105F001
:1036D00078FE2146306805F010FD044685E770BD90
:1036E0000001002048200020DC1E00202DE9F74FBB
:1036F000674C684AE1791378FF2903F12C0707EB3F
:1037000004003E5DDFF8A88140F0B980234493F8BF
:103710002930002B40F0B3800379FF2B00F0AF80FD
:1037200006F0400303F0FF051BB1237EFF2B00F0E2
:10373000A680B8F80020DFF87CC1DFF86491019220
:1037400014230022DDF804A0F918514513DA04EB24
:10375000010B9BF801A0BAF1000F04D1C9F80020B9
:103760008CF800308BE0615C03EBCA03022908BFD0
:103770005A46DBB2E6E704308CF80030C9F8002086
:10378000FEF7BEFF444B1860002878D1414A434FF2
:103790001378BB46E0183030FFF7E6FE3860FFF7DD
:1037A000DBFE3C688146002C69D03D4B1F6837B179
:1037B000B81C4946082204F01FFCC0B200E038469D
:1037C00094F8223026F07F0A5FFA8AFAEBB9002FCC
:1037D00055D057F8022FC9F800207A68C9F804209C
:1037E0007DB184F820302F4B0122D9684FF47A73D1
:1037F00084F8222004F11000B1FBF3F105F0E1FDA3
:1038000039E0022384F8223035E0B20606D428B12C
:10381000012B34D1022384F8223030E0AFB33A4692
:1038200052F8023FC9F800305368C9F804306DB14E
:10383000012384F822301B4B04F11000D9684FF4A7
:103840007A73B1FBF3F105F0BCFD04E01FB110B1D8
:10385000022384F82230DBF8003093F8213053B192
:10386000BAF1000F07D11048FFF7BAFA0F4A1060FB
:1038700008B1FFF793FADBF8003083F821A00023AA
:10388000A8F8003003B0BDE8F08F002DE3D0CFE7FB
:1038900058200020C61D00207C0C0020740C002045
:1038A000780C0020DC1E002060200020700C00201E
:1038B00048200020CA1D00202DE9F84F884CDFF871
:1038C0004C92E379FF2B40F00681864A13789046AC
:1038D000E11891F83010FF2900F0FD80234493F89F
:1038E0002930002B40F0F7807F4E804D3360142349
:1038F0002B7098F800002A782C30B9F80030024478
:103900009A4250DAA1184878754B002800F0E380FD
:10391000A25C012A3DD11A8931607AB95A896AB903
:103920009A895AB9DA894AB91A8A3AB95A8A2AB99D
:103930009B8A1BB9E38A002B00F0CD806C48FFF70F
:1039400013FE6C4F0246386030B9316802230231F1
:103950006748FFF7D1FD1CE0FFF7FEFD33688246A4
:1039600003F1020B58465146082204F045FB48B1CA
:10397000DBF80030CAF80030DBF80430CAF8043055
:103980003B6803E03B6893F8222012B9022283F8D7
:10399000222098F800202B782C321A4422445278A6
:1039A00003EBC203A4E720440430FEF7A9FE524B08
:1039B0004B4D18609A46002800F08D802B8973B912
:1039C0006B8963B9AB8953B9EB8943B92B8A33B996
:1039D0006B8A23B9AB8A13B9EB8A002B7BD0444D99
:1039E0002846FEF78DFE2E46002874D1228B40F229
:1039F000FF239A42A5F1080705F1100E1BD16B8A2F
:103A0000CBB9AB8ABBB9EB8AABB92B8B9BB96B8BB0
:103A1000B3F5807F0FD12B7FFF2B0CD195E80F00E2
:103A20008EE80F0098F800301F44303797E80F00F9
:103A300085E80F0012E0314D2846FEF761FEDAF806
:103A40000030834247D196E80F0085E80F0098F8D0
:103A50000030234430330FCB86E80F006022227001
:103A6000282262713A22A271FF22E2718822002389
:103A700084F82820DAF8002088F80030637063802A
:103A8000237184F829301E4DE02384F82C3002F194
:103A90001206931C186859682A4603C20833B342B9
:103AA0001546F7D1174A022384F8403084F8413094
:103AB00013681548C4F84230536800214360062259
:103AC000083004F0A9FB0023638504F0F0FDC04337
:103AD0006085502300E00023A9F80030BDE8F88F8E
:103AE00058200020C61D0020780C0020CA1D002090
:103AF00060200020740C00207C0C0020702000202E
:103B000088200020502000209A20002048200020FB
:103B10002DE9F041524C534F00233B70637063809A
:103B20003A238046A3716020FF232070E37199B986
:103B30006183A183E183218484F822100220012182
:103B40002376607684F8231084F82430537B84F83D
:103B50002530D389E3840CE00D4604F1180601F109
:103B6000100E28686968334603C3083575451E463C
:103B7000F7D1872384F828303B4E002384F829307E
:103B8000E362154602F1100E28686968334603C3E4
:103B9000083575451E46F7D1002626711046304D72
:103BA000FEF7AEFD002842D1B8F1000F0CD043461D
:103BB000083508F11006186859682A4603C2083308
:103BC000B3421546F7D105E005F1080005F11801EB
:103BD000FEF79EFE2289224B244D82B95A8972B982
:103BE0009A8962B9DA8952B91A8A42B95A8A32B9BB
:103BF0009A8A22B9DB8A13B92B80BDE8F081282389
:103C000063713B7801224033E254194AE0180223E1
:103C1000437013680A3040F8083C5368002140F8AC
:103C2000043C062204F0F8FA50232B800CE0182301
:103C30006B710E4B40222E816E81AE81EE812E8201
:103C40006E82AE82EE821A803B7828331C440023B9
:103C5000638004F02CFDC0436080BDE8F08100BFAC
:103C600058200020C61D0020882000204820002069
:103C70005020002008B5044803F01CF9BDE80840B6
:103C8000024803F017B900BF1401002020010020F2
:103C900008B5064800F06CFF054B01221A7000229F
:103CA0005A70AA229A70DA7008BD00BF793E2000CF
:103CB000CC1D002010B50F4C0220A17902F01EF996
:103CC000A379112B01D0062B05D1238D618D99424B
:103CD000A8BF194608E03A2B05BF94F8281094F8BD
:103CE0002930002143EA01210120BDE8104002F003
:103CF00005B900BF5820002010B513780C7A83F066
:103D000002039C421DD14C7A53789C4219D18C7A83
:103D100093789C4215D1CC7AD3789C4211D10C7BFC
:103D200013799C420DD14C7B53799C4209D18C7BF9
:103D300093799C4205D1CC7BD3799C4201D103235A
:103D40001BE00A890F4B6AB94A89B2F57F4F09D146
:103D50008A89FE2A06D11A68C98922F8021B1A60CC
:103D600002230AE01A6851F8084F083242F8084C5A
:103D70004C6842F8044C1A60012303FA00F0C0B208
:103D800010BD00BF880C002010B5084C01462378F8
:103D9000012B08D1A01C082204F02EF900280CBF2A
:103DA0002046002010BD002010BD00BFCC1D00200B
:103DB00008B50146102002F0AFF8044B04489B6898
:103DC00000219847BDE80840FCF746BF9C962000BC
:103DD000D53D200010B508460C461146FFF7E8FB1C
:103DE000044B1B6813B19B6820469847024B1C602C
:103DF00010BD00BFB41100209C0C00202DE9F04143
:103E0000140902F00F050F2C08BF10240F2D0646D1
:103E10001F4608BF102514B1224604F021F962198B
:103E20000F2A05DC30190021C2F1100204F0F4F968
:103E3000BDB1DFF84080C5F11000D8F80070304403
:103E400039462A4604F00CF9022D434605D10A2CC6
:103E500003D8FF22F272FE2232733D441D60BDE89A
:103E6000F0812CB130463946BDE8F04104F0D9BBB1
:103E7000BDE8F081880C00202DE9F04F894F8A4E73
:103E8000002385B03B703370044601F0D5FF01F08C
:103E900073FF864D04212860092002F02FF8844B1F
:103EA000BB461B68A8460BB1FFF704FF02A80CB97C
:103EB000804900E0214605F056F97F4B7F4E1A8875
:103EC0003E2A40F2F4817848D8F8009090F800A09B
:103ED0007B4D09F102032B600AF1020A002309F865
:103EE0000A3006F11800FFF74FFF20B906F108006D
:103EF000FFF74AFF20B109F103032B60802400E0A3
:103F0000044673783078190941EA0011C9B28A0869
:103F100042EA8111C9B213F00F0FCAB2684F00F024
:103F20000F000CD1654E76884EB910B913F0F00F22
:103F30001FD03B68702603F8012B3B601AE078B96C
:103F400013F0F00F0CD12A6821F03F010B431370DE
:103F50005C4B03321B88682622F8023C2A6009E089
:103F600056492B6808686026186003F8042B2B60FC
:103F700000E07826514B9A79112A08BF46F00406D2
:103F8000730703D43B6803F8012B3B604B49CB79A3
:103F9000402B06D0FF2B07D0012B08D146F001069D
:103FA00009E046F0020606E046F0030603E03A6840
:103FB00002F8013B3A60414B1A898AB95A897AB9A9
:103FC0009A896AB9DA895AB91A8A4AB95A8A3AB9B7
:103FD0009A8A2AB9DB8A1BB944F04004E4B23BE078
:103FE0003948FFF7D1FE394B186070B1427819F8A3
:103FF0000A30042043EA021309F80A303249344AED
:10400000FFF77AFE60F03F0011E02C4948F2FE0312
:104010000A899A420DD14B8B5BB98B8B4BB9CB8BF9
:104020003BB9042008312A4AFFF766FE2043C4B298
:1040300012E0D7F800C0DFF890E06246734603CB89
:1040400010602448516083429E4602F10802F5D177
:104050001B4B0CF110021A6018490B7EFF2B40F02D
:1040600087804A7E44F0080E022A5FFA8EFE33D122
:104070004B8B8BBB8B8B7BBBCB8B6BBB0B8C5BBBAF
:104080004B8C4BBB8B8C3BBB91F8263023BB3B68E6
:1040900091F8272044F00B0403F8012BE4B23B60B5
:1040A000A1E000BFCB1D0020D61D0020940C0020F5
:1040B000B411002043982000482000205820002000
:1040C000880C00205A20002060200020800C002056
:1040D0005020002070200020984B588B1946002853
:1040E00031D1988B78BBD88B68BB188CA0B9588C11
:1040F00090B993F8240078B9296844F00A04084676
:1041000000F8012B33F8252F043121F8032C9B787C
:10411000E4B28370296066E00B8C88489BB990F804
:10412000223083B92B6844F00904194601F8012BA9
:10413000024652F8230F063343F8050C1279E4B215
:104140000A712B604FE07E4B7E4C1F6804F1100912
:104150003A469C46234603CB4B45106051601C46B3
:1041600002F10802F6D11037CCF8007074463AE03C
:1041700001F118000191FFF707FE734A10600199E1
:1041800050B1437819F80A2044F004041343E4B210
:1041900009F80A3000200AE00A8B48F2FE039A422E
:1041A0000CD14B8B53B98B8B43B9CB8B33B91831B3
:1041B00002AAFFF7A1FD2043C4B214E0604B614F97
:1041C000D3F800E007F1100972469C463B4603CB4A
:1041D0004B45106051601F4602F10802F6D10EF106
:1041E0001003CCF8003028238BF80030534B9A7919
:1041F000112A50D1198D4FF2B00249BA89B221F07B
:104200000F0080B2904215D15A8D52BA22F00F029F
:104210001204120C82420DD12A68F3211170598DBB
:104220001B8D090A1B0A01EB031303F5AA635370E4
:10423000023226E0414B5A8D52BA02F47F42B2F567
:10424000704F09D12A68F1211170198DA2F801105F
:104250005B8D1B0AD3700CE001F47F41B1F5704F08
:104260002A6808D1F2211170198D090A51705B8DED
:104270005380043205E0F0211170986A053242F84B
:10428000040C324B2A601A882B6823F8022B2B600F
:1042900030238BF800302E49D8F800300A789E542D
:1042A0001A445470264A1268D31A0B701BE0D8F8CF
:1042B000003041221A70264A06F128051478621C43
:1042C000D2B21A44334603CBAB42106051601E4653
:1042D00002F10802F6D11E4B29341C709BF8003005
:1042E00028338BF8003002A9102001F015FE194B7D
:1042F000DFF85C901B689847174B30EA200728BF0F
:1043000015275B699847C7F17D07144D3F1A48464A
:10431000B5F800A09BF800400678C4EB0A02BB1B6E
:104320009A4240F3C78001F033FB7823BAFBF3FADB
:104330000AF1010A504513DC0020CCE0582000208F
:10434000880C002070200020800C00208620002097
:10435000D61D0020509620009C962000482000206A
:10436000D8F8004099F8006021463246201D03F03D
:10437000EDFE2B88594A6FEA83436FEA9343C3F3F8
:10438000072323702B88043663701388F6B2E3701A
:10439000190A01331380524ADFF85CC1A170C6EBE1
:1043A000070A11784F4B2AF0070A61445246A019B8
:1043B000C3F800A089F800600193CDF800C003F0B5
:1043C0004FFE06EB0A0080B201F0D0FC01F0E6FAE5
:1043D000DDF800C0019B064664469A460028ABD033
:1043E00002A8FFF7E5FC304601F010FB30463E4ED8
:1043F00001F0F6FA3368012B9ED0043B012B9BD9C8
:10440000374B053F93F800B0DAF8003027F0070784
:104410005B441FFA83FB052389F80030334BCAF84D
:1044200000701A682B886FEAC3436FEAD343C3F363
:10443000072313702B8853702D4B1B889B4549D243
:10444000D8F800204FEADB011171DAF80020CBEB3D
:1044500003039342B8BF234A2648B8BF13600778C6
:10446000DAF80050D8F800002A4604EB0B01384473
:1044700003F0F6FD781980B201F078FC01F08EFAB5
:10448000054600283FF458AF02A8FFF791FC2846E4
:1044900001F0BCFA284601F0A3FA124B1B689B44BA
:1044A00033681FFA8BFB012B3FF446AF043B012B13
:1044B000C2D841E7D8F800000F493044214403F046
:1044C000CFFD2B881E44301B80B201F04FFC02A8A8
:1044D000FFF76EFC012005B0BDE8F08FF21600205A
:1044E000CB1D0020980C00209C0C0020940C002078
:1044F00048200020D61D0020582000202DE9F04F34
:10450000A54FA64C87B000263E70267001F034FC03
:10451000A34DB9462860042001F0F8FCA14B00B27D
:104520001860A14803F0DAFFDFF8A8B218B19F4B7A
:10453000ABF800601E809A490B681A785E7846EAEC
:10454000022602F0F802C02A1CD0E02A28D19A786C
:1045500093F804A0DB78BBF8008043EA02252378B7
:10456000C6F30A060533237001F01AFC2378404491
:10457000C3EB0008B045B4BF4FF000084FF001088E
:1045800000279BE29A78DB784FF0000843EA022587
:104590002378C6F30A06043323700127C2468DE24E
:1045A000824B4FF00008A3F80080ABF8008047462C
:1045B00045464346C2464646BBF80010A9B1002E08
:1045C00000F09182794B1B88B34240F08C82784B8B
:1045D0001B88AB4240F087820F2001F0A9FC014606
:1045E000744804F0C5FDD0B97DE2701E80B240F27F
:1045F0001351884213D813B1002F00F074826B4B13
:104600004FF480611E806A4B67481D8003F05AFF9B
:104610000F2001F08DFC0146664804F0A4FD94F8DB
:1046200000C0BCF1050F00F0D1815D4A116811F89E
:104630000C3003F0E002602A40F0AD810CF1020082
:104640000844614491F801B05B4A5FFA8BFC1CF0AE
:10465000800F10601CBF0130106013F0100FCDF8F8
:1046600008C003F00801554C2FD1D1B91168084694
:1046700030F8015FA4F801508078E07011F8040B65
:104680001160820802F00F0141F060012170617831
:1046900002F0300242EA801001F00F01084360701E
:1046A0002EE0106860212170014611F8015B033093
:1046B0004FEA950E0EF0300E05F00F054EEA050597
:1046C00065700988106061801AE001F0FF0591B9FA
:1046D00011680878C0F3830040F06000207011F882
:1046E000010B65804FEA900E0EF0300E4EEA8010FE
:1046F0006070116004E060222270002262706280AB
:1047000003F0040202F0FF0103912C4D2AB92A495B
:104710000A6812F8010BA8710A6013F0030303D0B2
:10472000274AD35CEB7105E0234A136813F8011B99
:10473000E97113601BF0400FCBF301134CD0DDF88F
:1047400008C01CF0800F07D014490A781449096882
:104750000A449078000900E0002003F0FF0183B1D3
:10476000184A1178012905D1517881420CBF1146B0
:10477000002100E00021144A1160002900F0268188
:104780000231124A0F20D25C8DE8060001F0D0FB06
:10479000009903460E4828E0CB1D0020D61D0020BE
:1047A000940C0020840C00208C0C0020F0160020BB
:1047B000EE1600203D280020880C0020A00C0020D0
:1047C000F0972000CC1D0020800C002009982000CC
:1047D000A80C0020F4160020A54A0F20D25C0192FC
:1047E00001F0A6FBA3490346A348019AFFF706FB85
:1047F0000BF008000BF0030300F0FF010BF00402C4
:10480000A8B1002A49D19D4A1288ADF814205A1E39
:10481000012A06D89A490A6812F8010B8DF815008A
:104820000A60984A9848D25C05A9002333E042B355
:10483000DDF808C01CF0800F07D094490A7894492D
:1048400009680A44917801F00F01924A1078012812
:1048500005D1507888420CBF1146002100E00021AC
:104860008D4A1160002900F0B1808C4A102012F8A6
:1048700003B0009101F05CFB0099034602318248CD
:1048800008E07B4A102012F803B001F051FB79498F
:1048900003467D485A46FFF7B1FA99F80010784A66
:1048A00001F1280389F80030039B002B56D01368D0
:1048B000187800F0F800F02850D11120A87118786D
:1048C00000F0040E00F0F300F0385FFA8EFE0328CB
:1048D0007CD8DFE800F0020A1622B3F801000533A5
:1048E000288533F8020C68852CE0B3F80100288590
:1048F000D878A0F5805080B2000240F0F0006885C2
:1049000009E05878A0F5805080B2000240F0F00035
:10491000288558886885043314E0587802330009E4
:10492000A0F5756080B2000240F0F000208513F819
:10493000010C00F00F00A0F5756080B2000240F09D
:10494000F00060851360BEF1000F04D1136833F8E6
:10495000020BE8851360303189F800104C4B126867
:104960001B684A49D31A0B704EB901F019FA474B2C
:1049700099F800201B78C01A8318283B01E0A6F1A3
:1049800028031A122A71AA796B71112A444B1DD17E
:104990009A889A851AE0412B40F0A5800CF101031A
:1049A000DBB20B443E4D03F1280E186859682A46C5
:1049B00003C2083373451546F7D199F800300CF15E
:1049C000290C283384F800C089F8003001F0E8F998
:1049D0002E4C2378834200F2868001F0E1F923789F
:1049E00099F800B02F4AC51A0BEBCA0A15600AEBFA
:1049F000050140F21452914275D8254A28481168A1
:104A0000504419442A4603F02BFBDFF8AC90264CA7
:104A10006EB11FB123889B44A4F800B0B8F1000F19
:104A200001D0268006E023881D44258002E05D44F5
:104A3000A9F8005023881BB1B9F800209A4252D13E
:104A4000B9F80050194816492A4603F009FB184BDB
:104A50001D8000232380174CA9F80030236823B160
:104A6000FFF728F923685B68984700F09BF83AE065
:104A7000F4972000F8972000A80C0020EE97200063
:104A8000880C0020FA972000B80C0020D61D0020CA
:104A9000940C0020CC1D0020800C002009982000E0
:104AA000A00C0020980C0020F416002058200020B4
:104AB00048200020B4110020F0160020BBF8003080
:104AC0007BB177B10F2001F033FA0146074804F0BB
:104AD0004FFB18B9064B1880064B188001273B4640
:104AE0006AE5012368E507B0BDE8F08F3D280020A6
:104AF000F0160020F4160020F8B5064620B9144838
:104B0000BDE8F840FCF786BE0024254673195B78A3
:104B1000775D03EB0727BFB24FB9002C0CDB01D048
:104B2000013411E00B48FCF775FE01240CE0002C69
:104B3000C8BF4FF0FF3403DC15B13A2003F02CFC62
:104B400005483946FCF766FE0235102DDED1F8BD6A
:104B50000D9820001C9820001F98200008B5034BDA
:104B60001B680BB1984708BD184608BDC811002046
:104B7000014B1860704700BFC811002007B5074BF4
:104B80008DF80700186828B1054B0DF10702197858
:104B9000FDF742FC03B05DF804FB00BF8025002058
:104BA0004628002008B5002204480221FDF734FC05
:104BB000034A00231380034A137008BD2C01002010
:104BC00048200020C61D0020F8B5424E3388002B37
:104BD0007ED0B3F5A06F71D83F4B1A8B72B95A8B48
:104BE00062B99A8B52B9DA8B42B91A8C32B95A8CA3
:104BF00022B99A8C12B9DA8C002A5FD01B7EFF2B67
:104C00005FD03648FDF75CFDC8B93448FDF7ACFF0E
:104C1000044620B9FEF72CF9054688B94EE0FDF7A9
:104C20008FFF054660B9E36923B11B6A93F88C00D6
:104C300003F006FF2046BDE8F840FDF7C7BF274D4B
:104C4000284600F063FD0746002837D12846FEF7C6
:104C50008BFC0446F8B92846214622462346FEF737
:104C60004BFC054650B31E48FDF74AFD014608B10E
:104C70001B4821462A46FEF74BFF1A4B05F1180048
:104C800019694FF47A73B1FBF3F104F09AFB012335
:104C900085F82030F8BD90F822307BB1022B08D186
:104CA000032380F822300521103004F08AFB84F8B9
:104CB00020702046FEF750FCFFF750FF00233380A2
:104CC000F8BD0020FFF74AFF074A00233380137026
:104CD000F8BD00BF48200020582000207020002090
:104CE00060200020DC1E0020C61D002038B503888F
:104CF000054614463BB140F23A32934218D00023A5
:104D00000380032038BDFDF7E3FA274B1870FDF749
:104D1000DFFA264B40211870254803F0B0FBFEF760
:104D200055F900F0FBFD40F23A332B80012038BDED
:104D300002290CD11F4C2388002BF4D00120FEF750
:104D400091F92388002BEED0FFF73EFFEBE709D85F
:104D50000129E8D1002CE6D0174B05201C60FEF796
:104D600081F9F1E7872912D08829DCD1104B9C42C8
:104D700002D1204603F095FB104B9C42D3D1204634
:104D800003F08FFB0028CED0FDF79AFDDCE70C4B3B
:104D90009A692033A24204BF002223F8102C094A4A
:104DA0009342F5D1BFE700BF4528002046280020E8
:104DB000B811002048200020742500203820002051
:104DC0008C250020CC260020074B1B680BB1283314
:104DD00002E0064B1B681833186820B1044A1178AA
:104DE0005A68FDF719BB70477C2500207425002008
:104DF0004528002070B50C46054658B18169A1428E
:104E000008D0054E306800F051FF3068214600F0B0
:104E100043FFAC6170BD00BF3C01002038B51022DB
:104E20000D460021044603F0F7F92A7D2946073292
:104E30002046D20803F014F920460249BDE8384064
:104E400003F0EFBB5020002008B5FEF78DFBFEF706
:104E500083FB034B01461868BDE8084004F064B9C1
:104E60003C01002008B5074B0146186804F075F9AD
:104E7000014628B1044B1868BDE8084004F054B955
:104E800008BD00BF3C01002000010020024B034987
:104E9000186800F031BE00BF3C010020F5892000F9
:104EA000024B0146186804F03FB900BF3C010020E6
:104EB00008B5044B0146186804F04FF9BDE80840F6
:104EC00003F005BC3C01002038B50B4C054694F8B6
:104ED0008D1071B94FF49272204603F09DF90123B1
:104EE000204684F88C5084F88D3000F0A5FA2046D6
:104EF00038BD002038BD00BFD026002070B5064662
:104F000010460D4603F0E5FB014608B9002413E006
:104F10000A4B186800F01EFE04460028F6D0FFF782
:104F2000A1FF66606B8A23816B7E237420B1838C22
:104F300013B94FF400738384204670BD3C010020F8
:104F4000F8B5194F0546386800F0EAFD002604461A
:104F5000BCB16368AB420ED122894FF6FF739A420F
:104F600009D03EB12B6A30469B6821469B68984722
:104F7000064600E026462146386804F0BEF804469E
:104F8000E6E75EB128463146FFF734FF2B6AA86991
:104F90009B6821461B699847A88302E04FF6FF7380
:104FA000AB833046F8BD00BF3C01002010B504467D
:104FB00003F0FCFC034B21461868BDE8104000F0EC
:104FC00055BE00BF3C01002070B5094D064628685B
:104FD00000F0A6FD044650B163689E4202D120460F
:104FE000FFF7E4FF2868214604F087F8F2E770BD78
:104FF0003C010020044B93F88D0020B1D868837DDC
:10500000002B08BF00207047D0260020064B93F8E5
:105010008D2032B193F88C2082420CBF18460020BC
:1050200070471046704700BFD0260020034B1A8BF4
:1050300082420CBF18460020704700BF500100207C
:105040002DE9F8438146087E0D4603F01DFD064616
:10505000002800F0828029464A46046AFFF74EFF86
:10506000074618B984F88D00BDE8F8836B7E037499
:10507000288AFFF7DBFF804630B93846FFF796FFF6
:1050800084F88D80BDE8F88395F851305B0604D52F
:10509000002005F13C0103F03FFB0123B375AB7D1C
:1050A00005F1100133752B7DF374EB7DB374C4F8F7
:1050B00008806B7DE66084F88F30F02384F88E30B2
:1050C0002B8CA4F898306B8CA4F89A30AB7E84F8C3
:1050D0009030EA7E134484F8912084F894302B7F3A
:1050E000324684F892306B7F84F89330EB8BA4F8CF
:1050F0009C302B4653F8040B8B4242F8040BF9D139
:1051000005F13C0306F12402543553F8041BAB426D
:1051100042F8041BF9D139463046FFF76BFEA3680D
:1051200020465B699847A36838461B690021984769
:105130000B4BB0831A68308202B91C60204603F022
:10514000C6FE2046494603F04AFB94F88F3023B14F
:105150002046BDE8F84303F0C8BEBDE8F88300BFB1
:10516000CC2600202DE9F041064628B300F11004BA
:105170000227637D43B9013F04F13C04F9D1304675
:10518000BDE8F04103F0A3BE4FF6FF73DFF82C80BB
:10519000A383D8F8000000F0C3FC05460028EAD03D
:1051A0006B689C4202D1284603F000FCD8F800004E
:1051B000294603F0A2FFF0E7BDE8F0813C010020A2
:1051C00038B50D4D286800F0ABFC044690B163681B
:1051D0005BB11A6A4AB1627CD10706D522F001029E
:1051E0006274186A214603F073FC2868214603F0B4
:1051F00084FFEAE738BD00BF3C010020024B0146B6
:10520000186800F049BD00BF3C01002070B590F85F
:105210009460012505FA06F64FF47A73F601B6FBA1
:10522000F3F6C0F8A0600446EE40FDF7C9F97043FC
:105230004FF6FF73B0FBF3F1D4F8A03031445B1AA2
:10524000C4F8A030002384F8963084F8955004F117
:10525000C4002346024ABDE87040FCF771BF00BF9E
:10526000D952200010B50B4C00F0DAFAFFF7A8FF76
:10527000238801332380FFF7BDFE28B922883B2A0B
:1052800002D9208002F058F8BDE810400248FCF72F
:1052900077BF00BFF61600205C13002010B504464F
:1052A00000F0B8FA012813D0B4F89C104FF6FF7341
:1052B00099420DD094F89330FF2B09D0594304F54F
:1052C000827023468901034ABDE81040FCF738BFCD
:1052D00010BD00BFAD53200070B51D4D04462B78A6
:1052E00053B90120FDF722FA10B101232B7003E01E
:1052F00004F1C400802114E094F89530BBB194F817
:1053000092303BB194F896209A4203D22046002175
:1053100002F03CF80023D4F8A01084F8953004F192
:10532000C40023460B4ABDE87040FCF709BF94F85F
:10533000911094F8902094F894300A449342BCBFA2
:10534000013384F894302046BDE87040FFF75EBF1B
:10535000D71D0020D952200070B505460C4600F03C
:1053600059FA01281ED005F1E806304603F09FF8EF
:10537000304603F096F8A8B144B1FDF721F9B0FB2F
:10538000F4F101FB140000EB540100E0214605F1AB
:10539000E4002B46044AFCF7D3FE2846BDE87040E3
:1053A000FFF77CBF70BD00BFAD53200070B5134B3D
:1053B00004461B7800F1E4055BB90120FDF7B6F95E
:1053C00038B92846234680210D4ABDE87040FCF7D5
:1053D000B7BEE368986918B194F8931002F068F9C1
:1053E0002846FCF7E9FE04F5847003F05AF820B172
:1053F0002046BDE87040FFF751BF70BDD71D0020AB
:10540000AD53200010B5FDF7DBF83C2358434FF6B1
:10541000FF72B0FBF2F3054A193313800448802170
:10542000044A0023BDE81040FCF78ABEF6160020AF
:105430005C1300206552200010B50446FDF7C0F84B
:105440004FF47053B0FBF3F101FB130081B223461C
:1054500004F1A40001F5F051024ABDE81040FCF748
:105460006FBE00BF695420002DE9F0478046C56833
:10547000FBF73EFAB0F5163F8CBFA0F59637012733
:1054800055B32B6A43B3AC6934B3E368BB4218D35A
:10549000FDF796F810F001060BD1DFF89CA04FF64F
:1054A000FF79DAF8000000F03BFB0446CCB9002E8F
:1054B0003FD1214E0024306800F032FB014641BB51
:1054C00054B12046FFF7F4FC30B12046FFF7F0FC62
:1054D0000146404601F05AFF4046BDE8F047FFF75D
:1054E000ABBF6368AB420DD1E368BB420AD22B6A03
:1054F00020469B6800211B6998470EB1484501D2A0
:10550000814626462146DAF8000003F0F6FD0446FF
:10551000CCE74B68AB4207D12CB1CA68E3689A422A
:1055200038BF0C4600E00C46306803F0E6FD01464B
:10553000C5E73446C5E700BF3C010020F8B5234F5E
:10554000234C3A780646283213195B78002B37D162
:1055500002441319125D632A32D15A78042A2FD1DA
:10556000D878FFF753FD054650B33A7828323244D5
:105570002244937803F0200101F0FF0639B104F1D1
:105580001800FDF7F1FAC0B1FDF720FB15E0C16886
:10559000887DA8B19088898B40BA80B2814294BF3F
:1055A00000200120190602D510B13046F8BD60B1C7
:1055B00003F0400101F0FF0021B1284603F087FC11
:1055C0000120F8BD43F040039370F8BDC61D0020D4
:1055D000582000202DE9F84F484C494D94F806A07A
:1055E0004FF000082E782F4685F80080BAF1000FA2
:1055F0001AD194F82980B8F1000F7AD194F82A30A2
:10560000632B76D194F82B30042B72D194F82D00B3
:10561000FFF7FCFC00286FD090F88D309BB3C26878
:10562000907D98BBBDE8F88FDFF8DCB040F20C53FA
:10563000BBF8009099455CDC04F12805A9F128022B
:1056400004F13000294602F081FD6323C4F828806C
:1056500084F82A30042384F82B30637909F108098F
:1056600003F10802D2B29A42C4F82C8084F828A030
:1056700084F80680ABF80090627102D2237901337E
:10568000237108363E700020BDE8F88F29782A3152
:105690000B19095D63292CD1928B04F1180052BAC1
:1056A0009A8093F90230002B15DAFDF75DFA002895
:1056B000E8D12B780F202A3323449A7842F0200235
:1056C0009A7000F035FCFFF7EBFBA0B10D4900220A
:1056D00001F07CFF0FE0FDF747FA2B782A332344D3
:1056E0009A7810B902F07F0201E062F07F029A70AE
:1056F000C8E72E70C7E70120BDE8F88F58200020CA
:10570000C61D00207020002048200020F8B51D4A4A
:105710001D4B9779002601461D46187814461E70C9
:105720005FBB92F829200AB1187026E094F82A305D
:10573000632B22D1E38D03BB144A13681646F3B1E1
:1057400093F88D20DAB1D868827DC2B103F068F891
:1057500018B143689B69984204D02B788022234477
:1057600083F82C202B782A331C44336893F88C2040
:10577000E270DB689B8B5BBAA3800020F8BD012040
:10578000F8BD00BF58200020C61D0020CC260020F8
:10579000F8B5174D174CA87900232678237010B15F
:1057A00026701846F8BD95F82A30632B1DD195F860
:1057B0002C3095F82D0023F07F0383F0800385F8CB
:1057C0002C30FFF723FCC3689F8B23783F022A33DA
:1057D0001D44E878FFF71AFCC368BFB29B8B2670A4
:1057E00047EA1327AF800820F8BD2670F8BD00BF38
:1057F00058200020C61D0020044B1B682BB1044B11
:105800001B7EFF2B01D0FFF7E5BE7047CC260020A2
:1058100058200020014B1878704700BFD81D002089
:105820007FB5FDF79BF930B183690BB1013B836113
:1058300002F01BFFF7E7FDF791F90446F4B1A66902
:10584000C6B904F108030FCB8DE80F002046FDF721
:10585000BDF9FDF783F90A4B04461A68D368B2F81C
:105860009A20998B9142E9D098696946324601F0B5
:10587000ADFE03E0204602F0F8FEDEE704B070BDA6
:10588000CC260020F0B548F2FE0385B00446184D42
:10589000ADF800300F46002368462146ADF80230CF
:1058A000ADF80430ADF80630ADF80830ADF80A3088
:1058B000ADF80C30ADF80E30164602F0B2FE95F899
:1058C0008D30012B12D12846694602F0B4FF044600
:1058D00060B1437C43F001034374AB685B682BB158
:1058E000394632469847FBF703F8E06005B0F0BD53
:1058F000D026002008B50146074890F88D20012ADF
:1059000009D102F098FF30B14FF6FF730381437C59
:1059100043F00103437408BDD02600201FB5134B8C
:1059200000241C60FFF7B2FAFFF76CFD02F01CF8D0
:1059300040F2FF23ADF8003068464FF4D053ADF885
:105940000E30ADF80240ADF80440ADF80640ADF8B9
:105950000840ADF80A40ADF80C40FCF707FF044BD7
:1059600020461B68984704B010BD00BFCC2600201D
:105970005001002008B5044803F02AFDBDE80840A6
:10598000024803F025BD00BF780100206C01002013
:10599000014803F065BD00BF6C01002038B50E481A
:1059A00003F026FD0546A8B10C4803F021FD04468E
:1059B000286028B92946084803F02EFD204638BD46
:1059C00000F098F904F1A001A4F8800004F182002D
:1059D00000F060FA284638BD6C01002078010020F4
:1059E00010B504462146074803F02CFD48B1216854
:1059F000054803F011FD21460248BDE8104003F0C0
:105A00000BBD10BD6C0100207801002010B50446CC
:105A10002146094803F016FD68B12468B4F88010E7
:105A2000204600F021FA04F1820004F1A001BDE853
:105A3000104000F049BA10BD6C01002030B1054B98
:105A40009B68C01A044B8010584370474FF0FF30DA
:105A5000704700BF84010020ABAAAAAA38B50D4D3B
:105A6000002818BF05460C4802F049FD044668B1FD
:105A70002846211D03F07CFB20B12046BDE83840BC
:105A8000FFF7DCBF204602F076FDEFE74FF0FF3076
:105A900038BD00BF439820009C13002080B161B145
:105AA000C3684268C91A91FBF2F14B1C07D0054B41
:105AB0000C209B6800FB01307047084670470020AF
:105AC000704700BF8401002090B171B1C368C91A4A
:105AD000436891FBF3F14B1C09D0064B5A5C0368F9
