:020000040020DA
:10000000943000208D0220006B8320006983200043
:1000100069832000698320006983200000000000BC
:1000200000000000000000000000000069832000C4
:100030006983200000000000698320001F842000E5
:1000400041842000478420004D84200053842000F8
:1000500000000000258420002B84200069832000FC
:100060006983200000000000000000000000000084
:100070000000000000000000698320000000000074
:100080000000000000000000698320006983200058
:100090006983200069832000698320006983200030
:1000A0006983200069832000698320006983200020
:1000B0006983200069832000698320006983200010
:1000C0006983200069832000698320006983200000
:1000D0006983200000000000000000000000000014
:1000E0000000000000000000000000000000000010
:1000F00000000000000000000D1720001D17200068
:1001000000000000000000000000000000000000EF
:1001100000000000000000000000000000000000DF
:1001200000000000000000000000000000000000CF
:1001300000000000000000000000000000000000BF
:1001400000000000000000000000000000000000AF
:10015000000000000000000000000000000000009F
:10016000000000000000000000000000000000008F
:10017000000000000000000000000000000000007F
:10018000000000000000000000000000000000006F
:10019000000000000000000000000000000000005F
:1001A000000000000000000000000000000000004F
:1001B000000000000000000000000000000000003F
:1001C000000000000000000000000000000000002F
:1001D000000000000000000000000000000000001F
:1001E000000000000000000000000000000000000F
:1001F00000000000000000000000000000000000FF
:1002000000000000000000000000000000000000EE
:1002100000000000000000000000000000000000DE
:1002200000000000000000000000000000000000CE
:1002300000000000000000000000000000000000BE
:1002400000000000000000000000000000000000AE
:10025000000000000000000000000000000000009E
:10026000000000000000000000000000000000008E
:1002700069832000FD152000151620005D0F200069
:1002800069832000B50A20006983200010B5094B5E
:10029000FF221A600848094A4824E3690849121AEB
:1002A00098470848084AA3690021121A984700F0A5
:1002B000F7F8FEE7B4200D4040000020FE010020CA
:1002C000549A2000000200209328002008B500F076
:1002D0002FFDBDE80840014801F0BEBF100200201C
:1002E00070B586B000F070FB1C4B642418600025CC
:1002F0001E4602F0D1F9013CC0F309000544F8D1D3
:100300006421B5FBF1F11648019101F0EFFA40F2DA
:10031000FF23ADF808304FF4807301A9ADF8163013
:10032000042202AB0F48ADF80A40ADF80C40ADF81E
:100330000E40ADF81040ADF81240ADF8144008F092
:10034000E4F900F041FB084A316803461060591A8D
:10035000064801F0CBFA06B070BD00BF30020020A5
:10036000089820004802002044020020169820002F
:1003700038B5058804462DB1832D26D0002303808F
:10038000032038BD284808F089F828484021284A29
:100390002B4601F041FF00F059F802F07DF940F2E0
:1003A0000973B0FBF3F505FB1305022000F058F8C4
:1003B0002946EA091F4801F099FA1F48294608F022
:1003C000C7F883232380012038BD1B4808F0D2F8EA
:1003D0000028F8D0194808F061F8022000F048F829
:1003E000012000F03DF800226421154801F07EFA5A
:1003F0006421144808F0CFF8FFF772FF114808F0A5
:10040000E4F80146104801F071FA0E4808F0CFF800
:1004100028B9022007F0F8FF00F08AFCF5E7012078
:1004200000F026F8B9E700BF29982000100200204C
:10043000CD02200036982000340200205E98200073
:10044000649820006C0200208C98200008B500F011
:1004500019F8024B00221A7008BD00BFE41C0020EE
:10046000024B1A781043187000F014B8E41C0020F6
:10047000034B1A7822EA0000187000F00BB800BF96
:10048000E41C0020024B1A6842F00F021A60704709
:1004900000B40D40014B1860704700BF3CB00D40E8
:1004A000F7B500F04DFC00F0F5FC00F091FC00F019
:1004B00061FA01F0D1F908F06CF800F0E3FCFFF705
:1004C000C5FF022007F054FF01F076FF00F024FC86
:1004D00000F0E6F9002000F047FB012000F044FBAB
:1004E0004449002000F002FC02F0C4F807F0A0FF2D
:1004F000042007F03DFF404807F0D0FF3F4807F0D9
:10050000CDFF3F4801F0F2F93E4B3F4D186807F030
:10051000C5FF3E4801F0EAF93D4B0024186807F09A
:10052000BDFF3C4801F0E2F93B4B2E46186807F04E
:10053000B5FF002002F0C2F801F082F83748002130
:1005400001F0E0FF01F054FE6846082101F096F941
:100550009DF807309DF8067043EA07276B4603CBEA
:1005600028602F48696001F0C1F9315D2D480134E0
:1005700001F0BCF9072C244DF7D12B4EE9792B481B
:1005800001F0B4F9F46A4AF6CD310220A0473946A9
:100590000320A04711210120A0476946736B082260
:1005A0000920984704F0C2FF214A2B6813606B684A
:1005B000536004F0CDFC1F48002101F0A3FF00F0C0
:1005C0008BFC00211C4801F09DFF07F0C0FF1B4879
:1005D00007F0B3FF00F0A6FB082007F0C9FE00F00B
:1005E000A7FB01F001FF10F0FF0FF8D101F0CCF8EC
:1005F000F5E700BF31262000B2982000CC982000FB
:10060000E4982000989720008B280020EB98200089
:10061000B4972000F2982000D09720009C00002082
:10062000F998200017992000D09620001D992000ED
:10063000301F0020E4000020500000201096200011
:1006400070B505880446772D30D07E2D40D0002D22
:100650004ED101F0A9FE294B1870294B1D601E4692
:100660003368284A264D52F823204AB126480021F3
:10067000C1549368802098472A6801322A60EFE7C6
:10068000224A1370772321E01F4AD256002A13DB37
:100690001B4B1A6801321A60194B1C4A1B681278EE
:1006A0009342F1DB1A4B1B68002BEBD0184A002356
:1006B0001360134A1360EFE7104A00201178114AC3
:1006C00052F8232001F0F2FE30B97E23238013E09C
:1006D0000A4B1B788B420FD1094B0B4A1B68D15C2C
:1006E00001F07F01D1540A4B1A6801321A60CFE73A
:1006F00000230380032070BD012070BD76280020F8
:10070000740200206000002077280020E51C0020F3
:1007100078020020094B1A780023934204DA084932
:1007200051F82310814207D1064A0748D15C61F095
:100730007F01D15401F0FEBE0133EEE7E51C00203D
:1007400060000020772800205000002008B50948EC
:10075000082107F037FE03210422002000F0A8FB47
:10076000002000F00BFB04480021032200F044FBB2
:10077000012008BD00900D403D08200008B5094843
:10078000102107F01FFE04210A46022000F090FB12
:10079000022000F0F3FA04480221042200F02CFBAE
:1007A000012008BD00B00D403D08200008B50948F3
:1007B000202107F007FE05210422022000F078FB2B
:1007C000022000F0DBFA04480221052200F014FBAD
:1007D000012008BD00B00D403D08200008B50948C3
:1007E000402107F0EFFD06210422022000F060FB0B
:1007F000022000F0C3FA04480221062200F0FCFAAD
:10080000012008BD00B00D403D08200008B5094892
:10081000802107F0D7FD07210422022000F048FBC9
:10082000022000F0ABFA04480221072200F0E4FAAB
:10083000012008BD00B00D403D08200038B5054638
:1008400011480C4607F0B3FEE8B10F48102107F03D
:10085000A2FE1DB9032C16D10C4810E0022D12D1B6
:10086000042C01D10A480AE0052C01D1094806E010
:10087000062C01D1084802E0072C04D10748BDE846
:100880003840FFF747BF38BD7C0200201896200093
:100890003896200048962000289620005896200080
:1008A0000148002107F077BE7C02002010B5074CFC
:1008B000FF2323604FF4FA6000F09AF80021302201
:1008C000062000F011FB0023236010BD00920D40B4
:1008D000802870B51ED1104E104D3368002423F0CF
:1008E000800333602B68204643F080032B600C4B61
:1008F00007211C60224600F0DBFA3368204623F013
:10090000400333602B68062123F040032B60012253
:1009100000F0CEFA002070BD20940D4000940D40F0
:1009200000920D40F8B500F087F8104E0022D6E98D
:100930000045A042294638BF691C0F46B64642EA28
:100940000006CEE900670A49D1E90023121B63EBD8
:100950000503921943EB0703C1E9002301F0E6FB0D
:1009600018B1BDE8F84001F071BBF8BD00020020ED
:1009700008020020114B124A1A6053F8042C42F06E
:10098000050243F8042C53F8042C42F0020243F809
:10099000042C0C4B1A6842F001021A60A3F52123C3
:1009A000A3F6FC7300221A60042243F80C2C0122E7
:1009B00043F8082C0F22DA62704700BF14E000E011
:1009C00047E8010008200D40034BD3E90023100A3B
:1009D00040EA0360704700BF00020020034BD3E9E8
:1009E0000023D00B40EA4340704700BF08020020BC
:1009F000054B18601C3B1A6842F001021A601A6825
:100A0000D207FCD4704700BF2800034010B5064C45
:100A1000236823F001032360FFF784FF236843F07A
:100A20000103236010BD00BF10E000E0014B186817
:100A3000704700BF84020020064B1A6859680833CB
:100A40001B681B0443EA01231343034A106843EA6B
:100A50000060704740500D404C500D4010B50446AA
:100A6000114B1B68DB07FBD507F0E6FCFFF7E4FF43
:100A7000231A062BD8BFC41D0C4B220E1A60C4F3D8
:100A8000074243F8042CC4F3072243F8082CE2B2CF
:100A900043F80C2C07F0CCFC054B91201C60BDE802
:100AA000104000F06BB900BF50500D404C500D404D
:100AB0008402002008B500F04DFE064B0022912074
:100AC0001A6000F077F9912000F066F9BDE808405F
:100AD00001F04EBD840200200023084A1068084A35
:100AE0009958084205D01A44D268906910F08000E5
:100AF00003D02C33582BF0D10120704728200D4013
:100B00007896200038B5164B2C2202FB0033DC68A7
:100B10004FF6BF72236C62649BB213F0500205461D
:100B20000DD0A369DB0609D40E4B53F825301BB159
:100B30002068C0B29847F4E72368F2E738BD13F4A1
:100B4000D06F0BD04FF440732363FF236360E36ADD
:100B5000E262E362236B43F00103236338BD00BF0D
:100B60007896200088020020012870B500F2B1803C
:100B70002C254543574E741994F92030002BC0F2B0
:100B8000A88094F92230002BC0F2A380524800F0D4
:100B900053FE524B7259196800260A431A6059686D
:100BA00062680A435A609968A2680A439A60E368D7
:100BB000C3F8C86F94F9201094F92120236902EB3F
:100BC000C1021A6094F8220094F82310227D00F0EC
:100BD00079F994F8220094F82310082200F068F9BB
:100BE00094F92300012101FA00F094F922203C4BF2
:100BF0001203D5582843D05094F9210094F92020AD
:100C000001FA00F01203D5582843D050E268502072
:100C10009063E2681D46906B40F4D0609063E26898
:100C200002205063E2684FF440701063E268A069EC
:100C30005062E268E0699062E2687020D06294F9E4
:100C40002420B2421ADB94F9253043EAC202254B34
:100C50001A6094F9250094F9243081401B035A59F5
:100C600011435951324694F8240094F8251000F0AD
:100C70001FF91D4B1A6842F400421A6094F82600CE
:100C800003061BD494F82710012200F01BF994F9F5
:100C90002720012000FA02F294F926301B0359594B
:100CA0000A435A5194F82600082294F8271000F0BD
:100CB000FFF80D4B1A6842F480421A60E3681A6B21
:100CC00042F001021A6394F82800BDE8704000F079
:100CD00055B870BD78962000D90A200028200D4014
:100CE00020940D4004410D4030D0004001289CBFAD
:100CF000014B43F82010704788020020012808D8D3
:100D0000044B2C2202FB0030C3689A699206FCD483
:100D10001960704778962000014B00221A607047D6
:100D200000500D40014B08221A60704700500D40E2
:100D3000024BA0221A6050221A60704700500D40EA
:100D4000084A094B1A60094B80321A60084B8032FE
:100D50001A60084B80321A60074B4FF400121A6079
:100D6000704700BF00E100E09C02002090020020DC
:100D7000940200209802002008ED00E042090121C1
:100D800000F01F0001FA00F0024B1B6843F822003C
:100D9000704700BF9C0200204209012100F01F00A3
:100DA00001FA00F0024B1B6843F82200704700BFB5
:100DB000900200204209012100F01F0001FA00F01A
:100DC000024B1B6843F82200704700BF98020020C6
:100DD000054A064B1A60064B1A68064B1340B3F1DE
:100DE000807FF8D1704700BF0101020100200D4053
:100DF00004200D4000000101024B02EBC10243F848
:100E000022007047A0020020F8B50A4E07460D46A2
:100E100006EB4116002447FA04F3DB07E1B204D5E0
:100E200056F824300BB1284698470134082CF2D1EB
:100E3000F8BD00BFA00200202DE9F04706463503AB
:100E40000F4F05F1804404F5592400F083FCD4F8D9
:100E500018A4EB594FEAC60823FA08F94AEA090030
:100E6000C0B23146FFF7D0FF5FFA89F95FFA8AF323
:100E7000C4F81C3409FA08F3EB51BDE8F08700BF51
:100E800018970D4002480021802207F023BA00BFC6
:100E9000A0020020034A044B1A60044B803A1A60F7
:100EA000704700BF80400D40240300202003002035
:100EB000034B01EBC0011B6843F82120704700BFC2
:100EC00024030020034B01EBC0011B6843F82120E1
:100ED000704700BF20030020024B1A6842F0300226
:100EE0001A60704700700D400E2870B50BD1154C7C
:100EF000236843F002052560134D2C6824F03F065B
:100F000046F001062E60114D2E6826F0FF06324392
:100F10001143014329600E4A12681206FBD50D4A9F
:100F20000D491268096802F0FC0242EA012292B2FD
:100F30000E2892B203D104490C6002490B6010B232
:100F400070BD00BF34000144F486084008700D40B5
:100F500000700D400C700D4010700D4010B58F20CA
:100F6000064CFFF727FF8F20FFF716FF206818B108
:100F700001F0E0FA0023236010BD00BF2803002029
:100F8000084B93F90020002A09DB074AED21116084
:100F90001160E32111601A7862F07F021A7001205B
:100FA000704700BFE61C002038880840094B1B68CA
:100FB0009B07FBD4084BED221A601A60074A12689F
:100FC0000AB1EF221A60064B01201A7802F07F0264
:100FD0001A7070474C860840388808402C860840B4
:100FE000E61C002038B5A0F10B05EBB20F2B044630
:100FF00013D80B4B1B6813F03F0302D0FFF7D6FF4B
:10100000012305EB8505074A0B3515600BB1FFF78A
:10101000B7FF054BE0B21C7000E0FF2040B238BDC6
:10102000488608403C860840FC01002010B50B4B68
:101030001B68990603D1FFF7A3FF012300E00023FB
:10104000074A1268D207FBD5064A1468C4F3001495
:101050000BB1FFF7ABFF204610BD00BF488608402C
:10106000648608404C860840044B186800F0220053
:10107000B0F1200358425841704700BF4C860840E9
:10108000024B186800F04000704700BF4C860840D3
:1010900038B50C4600296CD00D286CD8DFE800F07C
:1010A000070D181A216B3142476B5E606265334B46
:1010B0001B68003318BF012358E0314B05221B6821
:1010C00003F07F030B3B93FBF2F30B33DBB24DE0FA
:1010D0002C4B00E02C4B1A68043B1B6843EA0223AC
:1010E00044E00023294A0B60126802F001020A6002
:1010F0002749086810F020003ED042F0020222602A
:1011000035E0244B19680023C9B2234A02EBC3001F
:101110000079884202D852F8333027E001330E2B91
:10112000F3D11FE01D4B1B685BB2493B1EE01C4B1B
:101130001B68990603D1FFF723FF012300E000237A
:10114000184A1268D207FBD5174A1568493DEDB217
:101150000BB1FFF72BFF6DB2256008E00B2305E014
:101160001A2303E06FF0170300E007232360002039
:1011700038BD022038BD012038BD00BF2C86084094
:101180003C860840CC850840D4850840008608404D
:10119000248608404086084008972000588608406A
:1011A00048860840648608406086084038B5054691
:1011B0000C46134B1B689B07FBD4124B93F9003072
:1011C000002B01DBFFF7DCFE0F4BEE221A60691EDD
:1011D0001A60A21C43F8102C2144022000F048FAA7
:1011E000013C0A4924012143022000F053FA022065
:1011F00000F05AFA022000F06FFA002038BD00BF5C
:101200004C860840E61C00203888084002C001C017
:10121000F8B51F4B93F90030002B0CDBFFF70CFCEB
:101220000446FFF7ADFEFFF707FC6FF009031B1B39
:10123000C342F8D401E0002600E00126FFF7F6FEE5
:1012400010B3144D2B6899061ED4134CE923236068
:1012500004272B689A0707D4013F17F0FF0703D034
:101260000620FFF7C5FBF4E72B689B0704D4EE23A9
:1012700023602360012403E02C6814F00204FBD1F6
:1012800026B1FFF793FE01E00220F8BD2046F8BD2D
:10129000E61C00204C86084038880840044B1A6839
:1012A00010B142F0010201E022F001021A60704721
:1012B0000086084038B50C46072855D8DFE800F00E
:1012C000040F1B1F26543B4F012902D1FFF758FE84
:1012D0004EE000294AD1FFF769FE204638BDA1F152
:1012E0000B030F2B42D8C8B2FFF77CFE013014BFAE
:1012F0000020032038BD8CB2E2B21E4B02E08CB25B
:101300001D4BE2B2240A1A605C6031E031F0030543
:101310002CD101F00100FFF7C1FF184B14F00200BF
:101320001A6804D042F020021A60284638BD22F024
:1013300020021A6038BD01F118031F2B16D80D23A7
:101340000F4AD80052F833108C4204DC0244127960
:101350000C4B1A600CE013F1FF33F1D208E0CCB271
:10136000094B49341C6003E0012038BD022038BD20
:10137000002038BDC8850840D08508402486084034
:1013800008972000408608405886084009280CD15C
:10139000082A0CD159B1084B013953F8042D01F832
:1013A000012F064A9342F8D103E001207047022042
:1013B00070470020704700BFC8850840A8850840D6
:1013C00009280CD1082A0CD159B1084B083111F861
:1013D000012D43F8042F064A9342F8D103E001207F
:1013E0007047022070470020704700BFA485084066
:1013F000C485084070B52C4E336813F0400342D0CA
:101400002A4C2368DDB21B0639D4042D37D9023D9E
:101410008D4234DCEDB2032D1BD04119013903207C
:1014200000F02EF96B1E22491B010320194300F026
:1014300031F9032000F038F9032000F04DF90320C2
:1014400000F056F90028FAD121682468200616D544
:1014500006E0236803702368437023688370F3E712
:10146000493949B289B2042004F036F8032004F067
:101470007F0104F031F833685A0606D411E00D4BB1
:10148000ED221A601A60002070BD074B1B681B0616
:1014900003D5094801F04EF803E0064BED221A602F
:1014A0001A60284670BD00BF4C8608402888084056
:1014B00002C0010C3888084084000020F8B52B4D8C
:1014C0002E7816F001064ED1294B01241C605C6079
:1014D0009C60A3F59323A3F51473F8221A600922E4
:1014E000C3F89021152270331A6003F59B230B2259
:1014F00003F59E731A60A3F59B23A3F5F0734022B6
:101500001A601A687F2742F020021A60D52243F839
:101510001C6CDF62DA61174B1878FFF763FD164B1E
:101520008D201A6842F004021A60FFF727FC134B63
:101530008E201F60FFF722FC022000F0C1F8104946
:10154000022000F09DF8032000F0BAF803200C49B7
:1015500000F08EF80B48314600F0D4FF2B7820467F
:1015600023432B70F8BD0020F8BD00BFE61C00200F
:10157000A8200D40FC0100208C860840948608407D
:10158000288808408400002038B503880446E3B169
:1015900040F2B932934203D000230380032038BDC8
:1015A000822915D103F036FF03F0D4FE8021FFF726
:1015B00021FF002805DD80B203F0C6FE0C4B1B693D
:1015C00098470C4B1A78520604D440F2B933238062
:1015D000012038BD00221A70074B1D68FFF7E6FC9A
:1015E000FFF76CFFAB06F0D0FFF7CAFCEDE700BFDA
:1015F000D0972000E61C00204886084008B5034824
:1016000000F098FF024B00221A6008BD8400002001
:1016100034880840074B1A68042A1A4604D0064B3F
:10162000197841F04001197000231360034800F05D
:1016300081BF00BF2C880840E61C002084000020E9
:1016400010B5094C00212046402206F043FE074B0E
:1016500001221A602E205C60FFF790FBBDE810406D
:101660002F20FFF78BBB00BF0000002004F00F40CD
:10167000032802D8014B00011950704700000020D8
:10168000032803D8024B03EB00104160704700BFF2
:1016900000000020032803D8024B03EB00108160F8
:1016A000704700BF00000020032806D8012101FA7E
:1016B00000F0024B1A6810431860704728F00F4082
:1016C000032806D8012101FA00F0024B1A681043E2
:1016D0001860704720F00F40032806D8012101FA56
:1016E00000F0024B1A6810431860704714F00F4066
:1016F000032806D8044B03EB0010806800F00700B5
:1017000070470020704700BF00000020024B4FF0E0
:10171000FF321A60704700BF04F50F40014B0122F1
:101720001A6070474CF00F40094B1A68194612F4C2
:10173000801FF9D1043B1A6822F480321A600A68CB
:10174000D203FCD41A6842F400321A60704700BF1A
:1017500004200D4010B50A4B1A681C4612F0030F06
:101760000CD0084A13685901FBD413685B01FCD5FF
:10177000FFF74CF9FFF7D8FF0023236010BD00BF2F
:1017800058200D4004200D4038B5254B1C6814F03E
:101790003F0413D1234BE35823B1984770B104346D
:1017A0000C2CF7D1204B1A781D463AB1FFF73EF9C1
:1017B0000446FFF741F9201A092801D830BF38BD87
:1017C000002CFBD0194B1A6822F400321A60184A18
:1017D0001168C902FBD4196841F48031196013689B
:1017E000DB03FCD5FFF728F9201A092803D8BDE848
:1017F0003840FFF799BF63280E4C02D92B78022B93
:1018000000D00123236000F047FE20B1FFF78CFFDA
:101810000023236038BDFFF709F90028CED1F5E792
:10182000488608402C030020E71C002000200D40C3
:1018300004200D4058200D400023064A52F8231082
:10184000814206D011B942F8230070470133032BBF
:10185000F3D170472C030020054B00221A60054B82
:101860001A6842F004021A60034B01221A70704792
:1018700058200D4010ED00E0E71C002030B5184B5B
:101880001B783BB9174A1278122A03D1164A1278EC
:101890004B2A01D0002317E04A08934207DA02F5E9
:1018A00020142734E41A2478C4540133F5E70023C4
:1018B000934208DA01F520142734E41A25788418B5
:1018C000E5540133F4E730BD8B4207DA01F520120D
:1018D0002732D21A1278C2540133F5E730BD00BF67
:1018E0002B0028002A002800290028000FB407B583
:1018F00004AA52F8041B0448019200F01FF803B038
:101900005DF804EB04B070479400002038B505463C
:101910000C46102C07D92B68686807491022984795
:1019200048B9103CF5E72CB12B686868024922469B
:10193000984738BD204638BD959920002DE9F04FD5
:1019400095B0074605910D924FF00008059C23784D
:10195000002B00F0538323461C4613F8012B1AB9C1
:101960000598844203D10CE0252AF5D1F8E70599C2
:101970003B68651A78682A469847002840F021831A
:10198000A8442378002B00F039836378002B00F003
:10199000358301340026224614F8013B2B2B11D04D
:1019A00006D8202B11D0232B12D146F00806F2E7DF
:1019B0002D2B04D0302B0BD146F01006EBE746F070
:1019C0000106E8E746F00606E5E746F00206E2E72C
:1019D000A3F13101082910D813464FF0000C1A4624
:1019E00013F8011BA1F13000092815D84FF00A0A9D
:1019F0000AFB0C1CACF1300CF1E72A2B0AD10D9B31
:101A00000132191D1B680D91002BB8BF46F001066D
:101A10009C4601E04FF0000C13782E2B1FD151781B
:101A2000531CA1F13000092810D819464FF00009C5
:101A30000A780B46A2F13000092801F1010111D802
:101A40000A2303FB0929A9F13009F1E72A2907D163
:101A5000931C0D9A111D0D91D2F8009002E01346CF
:101A60004FF0FF391A786C2A09D15A786C2A02D1C2
:101A700046F080060AE0013346F060060BE0682A73
:101A800009D15A78682A03D146F02006023302E0D1
:101A9000013346F040061A78642A3CD01FD8462A03
:101AA00048D00DD8252A5AD003D8002A00F0A682A3
:101AB00057E0412A4AD0452A08BF46F4424650E042
:101AC000582A31D004D8472A08BF46F4A13648E046
:101AD000612A38D0632A08BF46F4A06641E06E2A26
:101AE0003AD007D8662A22D027D3672A28D0692A75
:101AF00011D036E0732A2CD006D86F2A11D0702A64
:101B000008BF46F440762CE0752A07D0782A08BF33
:101B100046F4C85625E046F4245622E046F4106602
:101B20001FE046F488561CE046F4B24619E046F43D
:101B3000007616E046F4844613E046F4024610E0D0
:101B400046F481360DE046F4C1360AE046F4E1364B
:101B500007E046F4806604E046F4E06601E046F4FF
:101B6000C0660133059306F4E063B3F5806F00F0BF
:101B7000A58114D8B3F5807F28D0B3F5407F7FF4DA
:101B8000E5AE0D9BA649A7481A1D16F4804F0D928D
:101B900018BF08461A680DF14B010023B6E1B3F5F2
:101BA000C06F08D0B3F5E06F00F02182B3F5A06FED
:101BB0007FF4CCAEEFE13B6878689B4901229847FF
:101BC000002840F0FE8108F10108BFE6B9F1000FDE
:101BD000ACBF26F010064FF0010916F4005404942F
:101BE00006F0E00337D0402B17D008D8DBB1202B0C
:101BF0002AD10D9B1A1D0D9293F9002017E0602B3E
:101C000011D0802B20D10D9B073323F0070303F164
:101C100008020D92D3E900230AE00D9B1A1D0D92D4
:101C2000B3F9002003E00D9B1A1D0D921A68D3171B
:101C3000002A73F1000009DA504263EB4301CDE959
:101C400002014FF0010A34E000220023CDE9022313
:101C50004FF0000A2DE0402B16D007D8D3B1202B2F
:101C600021D10D9B1A1D0D92187811E0602B11D017
:101C7000802B18D10D9B073323F0070303F10802D3
:101C80000D92D3E900010BE00D9B1A1D18880D92EF
:101C9000002105E00D9B1A1D0D921B681846F7E701
:101CA000CDE90201D4E700220023CDE902234FF061
:101CB000000A06F4C053B3F5805F0BD0B3F5C05FE4
:101CC0003CD0B3F5006F5AD10DF14E040C94DDE910
:101CD000024504E00DF14E01DDE902231CE054EA67
:101CE0000501DDF830B045D0204629460A22002300
:101CF000CDF804C005F0FEFE0C98303200F8012D3E
:101D00000C90294620460A22002305F0F3FEDDF858
:101D100004C004460D46E2E752EA03008B4629D090
:101D200002F00700D408303001F8010D44EA437096
:101D3000DC0806900794DDE90623EDE7384B3948C7
:101D400016F4804F0DF14E0118BF1846DDE902234D
:101D500052EA03048B460DD002F00F04045D01F833
:101D6000014D140944EA037408941C090994DDE93F
:101D70000823EDE70DF14E05CBEB050502E00DF173
:101D80004E0B002541F60803A94506EA030341F27C
:101D900008028CBFC5EB09094FF00009934204D13A
:101DA000B9F1000F08BF4FF0010941F60802934254
:101DB00009EB05010CD1DDE90223134308D01B4BCD
:101DC0001B4A16F4804F4FF0020418BF1A4601E078
:101DD00000242246049890B1BAF1000F0DD106F00C
:101DE0000603022B06D0062B124B08BF012408BFA6
:101DF0001A4604E00124104A01E0104A012401EBD4
:101E0000040AD4458CBFCAEB0C0A4FF0000A16F046
:101E1000010302931DD1F10612D5D1449A4618E070
:101E200060992000719920009399200085992000E5
:101E3000829920008A992000F0982000889920003B
:101E4000384651460192FFF761FD019A002840F0A3
:101E5000B8803CB111463B68786822469847002814
:101E600040F0AF804E46102E3B6808D9786865492F
:101E700010229847002840F0A480103EF3E736B1C6
:101E80007868604932469847002840F09A803B685D
:101E9000786859462A469847002840F09280A8441E
:101EA0004444A144029C34B138465146FFF72EFD0C
:101EB000002840F0868009EB0A0847E50D9B1D6865
:101EC0001A1D0D923DB12B461C4622780133002A83
:101ED000FAD1641B01E04C4D0624B9F1000F02DB7E
:101EE0004C4528BF4C46A4458CBFC4EB0C0A4FF0B0
:101EF000000A16F0010605D138465146FFF706FDE7
:101F000000285ED13B687868294638E052EA03042D
:101F10000D460DD002F00F04045D01F8014D1409C7
:101F200044EA03740A941C090B94DDE90A23EDE7E3
:101F30000DF14B04641A04D130234D1E01F8013C0D
:101F4000012478230334A44505F8013C4FF0300305
:101F500005F8023C88BFC4EB0C0A4FF0230398BF7E
:101F60004FF0000A16F0010605F8033C04D138468C
:101F70005146FFF7CBFC20BB3B687868E91E224640
:101F80009847F0B9A044002E2FD038465146FFF7AD
:101F9000BDFC50B315E00D9BBCF1010F03F1040231
:101FA0001B688CBF0CF1FF3A4FF0000A16F00106D7
:101FB0000D928DF8383008D138465146FFF7A6FC0F
:101FC00010B14FF0FF301AE0D0443B6878680EA99A
:101FD000012298470028F4D12EB138465146FFF728
:101FE00095FC0028EDD10AF1010AD044AEE40D9B26
:101FF0001A1D1B680D92C3F80080A7E4404615B077
:10200000BDE8F08FA59920008C99200010B50D4CEB
:10201000236813B90C4A136010BDFEF7D5FC236882
:1020200093E806000A44121A9B683BB193E8120039
:102030002144091A8A4228BF0A46F5E7024B104498
:10204000186010BD380300203C030020014800F058
:1020500071BA00BF9C000020F8B5038805462BB17B
:10206000592B09D0002303800320F8BD1E4A1360BA
:1020700059232B800120F8BD872920D08229F7D150
:10208000194F00263C68002CF2D0204606F08FFA4B
:1020900090B1E0688821224600F008FA50B9E0606B
:1020A000A3680EB1B36000E03B600023A360FFF7BC
:1020B000ADFFE5E7FFF7CAFF2646A468E3E70A4954
:1020C0000B680BB90B60D3E7D868904201D19B68CD
:1020D000F7E70B6099680029CAD0C86890420ABF28
:1020E00089680B469960F5E73803002010B504466F
:1020F000FFF7ACFFE3680B4A4BB113683BB1A34257
:1021000003D1094A1268DA6007E09B68F6E7064BDC
:102110001B68E36013681460A360BDE81040FFF71C
:1021200075BF00BF380300204C030020024B186825
:10213000003018BF012070473803002010B50B4A4B
:1021400004461368984206D18368136008E09A68D1
:10215000A24203D01346002BF9D103E0A2689A6093
:10216000FFF754FF0023A360E36010BD3803002095
:10217000F8B50388054616462BB14A2B15D0002327
:1021800003800320F8BD174806F02AFA04462CB154
:10219000201DA16806F0DCF92468F8E7124B012243
:1021A0001A704A232B800120F8BD8829FBD10D48E5
:1021B00006F016FA0446002CF3D0231D9E420ED1E1
:1021C0000848214606F015FA084B62691F681A6034
:1021D000A2691E460AB1E06990473760E1E72468CA
:1021E000E9E700BF40030020E81C00204C0300206A
:1021F00010B5064B002406481C7006F0EEF9214687
:102200000448BDE8104000F07DB900BFE81C002084
:1022100040030020AC00002070B504460A4DE36185
:102220000A4B2E681B786661A26133B1084B201DF2
:102230002B6006F08DF92E6000E0A1602146054874
:10224000BDE8704006F0E9B94C030020E81C00200E
:10225000AC0000204003002070B5094B05461B78F8
:102260003BB1084C084B26680430236006F079F92E
:10227000266029460548BDE8704006F0CEB900BF8B
:10228000E81C00204C030020AC000020400300208C
:1022900010B5084B04461B781BB10430FFF74EFF06
:1022A00001E0C360036121460348BDE8104006F029
:1022B000A0B900BFE81C00204003002038B58368A7
:1022C00004460D469BB10A4804600220A07304F145
:1022D0000C0098470238012801D9832D05D12046EA
:1022E0002146BDE8384000F005B80123A37338BD8E
:1022F0004C0300202DE9F8431D4A1E4E156837682F
:10230000044689462B469046A34204D00BB11B6875
:10231000FAE7BDE8F88344B3A37BABB10023A37312
:1023200045B1AC4204D028468721224606F02BF95D
:102330002D68F5E7A3683BB14C4505D0346004F146
:102340000C0083212A469847D8F800309C4209D1D6
:102350002268074B00E022681A6005E01A68A24272
:10236000F9D01346002BF9D13760BDE8F88300BFE0
:10237000500300204C03002010B5094B00221A70B6
:10238000084B1C685CB1E37B3BB101230022A373C3
:10239000E27320468221FFF791FF2468F2E710BD27
:1023A000EB1C002050030020024B1878421C1A70CE
:1023B000704700BFEE1C0020064B8A221A70064AA6
:1023C00000231370054A1370054A1360054A136011
:1023D000704700BFEE1C0020E91C0020EA1C002012
:1023E000500300204C0300202DE9F843214E3378A0
:1023F0000BB1FFF7C1FF204D2C78002C35D0DFF852
:1024000090C00C239CF800801C4A03FB08F3D018F2
:10241000D15C1B4F42681B4B8068DFF8789008F155
:10242000010808F01F08013C8CF8008039701A6020
:10243000C9F800002C70984688B9134C134B1B68E0
:10244000236023688BB133780BB1FFF795FF2068C9
:102450003978D8F8002006F096F82368EFE781294C
:1024600004BF0123837306F08EF83378287818446C
:10247000BDE8F883EB1C0020EA1C00205403002078
:10248000EC1C0020D404002048030020500300204E
:10249000E91C002044030020024A034B10781B78FB
:1024A00018447047EA1C0020EB1C0020F0B50C4CCF
:1024B0002378202B11D00B4D0B4F2E780B4D1E4443
:1024C00006F01F062E700C256E430133BD19B95559
:1024D0002370A8606A600020F0BD0120F0BD00BF3D
:1024E000EA1C0020E91C002054030020ED1C002001
:1024F00038B5034C256806F046F8256038BD00BFA6
:102500004C03002030B50A4D0A462C68234683420E
:102510000DD00BB11B68FAE748B1046001212860B7
:10252000817383818121BDE83040FFF7E1BF30BD79
:102530005003002038B1837B013B012B03D8024AB2
:102540000123C37313707047EB1C002010B50246C3
:10255000064853600468029B11609360026014B9DE
:102560000846FEF77BFA002010BD00BFD80400200B
:1025700010B5084C206858B1002323608168436877
:102580009847236823B11868BDE81040FEF766BA83
:1025900010BD00BFD804002038B505880446672D5B
:1025A00009D0792D2ED0002D32D1FFF7FDFE1B4B27
:1025B00018701B4B1D601B4806F06BF8431C01D1C3
:1025C00067231DE00A28164B07D01A687E2AF2DC22
:1025D000511C1960144B9854EDE7196800254A1CEA
:1025E0001A60114A0D4B555428461978FFF75EFFC3
:1025F0000E4B852118682A46FFF758FF20B979232A
:10260000238009E0852907D1054B00221A60D2E713
:1026100000230380032038BD012038BD802800201E
:10262000DC040020E0040020701D00204C0300208A
:102630000D2810B5014615D00B4C23782BB90B484B
:1026400006F014F848B9012306E00A2805D1074826
:1026500006F00CF808B1002323700548FFF76AFF65
:10266000012010BD002010BD6F1D0020E0040020DF
:10267000BC00002008B505480549802205F0EFFFA1
:10268000BDE8084003480021FFF73CBFE0040020FC
:10269000EF1C0020BC000020064B1A68143342F0E7
:1026A000040243F8142C044A1B68106843EA002013
:1026B00080B2704700700D4018700D40194B1A68B9
:1026C00022F00C021A60A3F59E43583B01221A60C7
:1026D0001A68012AFCD1144B08221A60E322C3F8BD
:1026E000142203F505731946104B1B68DB07FBD555
:1026F00000231A460E4801320068102A00F001003B
:1027000043EA00034FEA43039BB2F3D1002BF0D01E
:10271000084A180A03F0FE0310601360EF230B60F1
:10272000704700BF00700D40248608406486084052
:102730009C86084014700D4037B5124B124C1D7822
:1027400023796279C5EB032313449BB2ADF80630BD
:10275000BDF8063004F108011844202280B205F0CB
:10276000A8FFBDF8062005F12801214492B205F02A
:10277000A0FF10B140BA80B201E04FF6FF7003B085
:1027800030BD00BFF01D0020381F0020F8B5264FD7
:10279000264D3A7826492832531993F801C002236E
:1027A0004FEACC0C0CF1070C9C4539DBD0182E18E5
:1027B000285C1E4C01282ED002D3632802D011E0E1
:1027C00001332BE018461A4D0B7002F0A5F9C8B979
:1027D0003A782B7828321A4414446278134402332E
:1027E0002B70F8BD00F0C000802805D0C02805D0AF
:1027F000402810D10B7005E00B7005E00B70217EB6
:10280000FF2901D10120F8BD042002211A4403F060
:102810001BFE0220F8BD707802300344DBB2C3E730
:102820000B700020F8BD00BFF01D0020381F0020F5
:10283000F21D002008B504F0B9F803F0F1FE00F035
:1028400039FD084B4FF480621A800023064A0021AC
:1028500002EB43120133DBB2092B1182F6D9034A92
:10286000137008BD301700206C240020F31D0020D9
:102870002DE9F041124E347804B3124F04F12703CE
:10288000B7F80080434504DB002333703B80BDE88C
:10289000F0810D4DA8F1280204F12801121BC4EBB0
:1028A0000804A4B205F12800294405F0ADFC3C80E1
:1028B000283C23122B7100236C713370BDE8F0812A
:1028C000F01D0020281F0020381F002004282DE9BB
:1028D000F84F944D00F0C7819349944B944A0528D2
:1028E0000B6013600F46904612D192480068008A30
:1028F000002800F0F8810C3B13600B608E4B002029
:1029000018808E4C8E4B0822206028801A70A8E117
:1029100013F83C2CA3F13C0402F0F002602A40F0D2
:10292000E28122796179120228885618864200F3E2
:10293000DA8128310A442A80227AFF2A00F0D381E2
:10294000804A363B1360804E804B002131701970F5
:10295000A17992469946B9B9012389F80030FFF769
:1029600015FF012800F0BF8103D3022800F0B681D3
:102970000AE0327802F128032344CAF800305B7879
:10298000083202EBC3023270714803F0A7FE002840
:1029900040F091806E4803F049FF002840F08B80A2
:1029A000227E6C4BFF2A46D0198B48F2FE008142F2
:1029B00041D0198981423ED071B9598961B999894B
:1029C00051B9D98941B91B8A33B9618A614B19B9A7
:1029D000998A09B9DB8A73B3218B5E4B79B9598B1C
:1029E00069B9998B59B9D98B49B9198C39B9598CAD
:1029F00029B9998C19B9DB8CB3F5807F1BD02B8852
:102A0000B3F5A06F04D9022000214FF4A06206E0C4
:102A1000E379504E012B05D8002103200A4603F02C
:102A200013FD5BE102F0C4F8002840F05C81F3790B
:102A3000013BF37152E1218948F2FE03994240F0D3
:102A40005281218B434B81B9598B71B9998B61B9F3
:102A5000D98B51B9198C41B9598C31B9998C21B99B
:102A6000DB8CB3F5807F00F03E81FF2A00F03B81D4
:102A7000374803F013FE0246002840F0348101205D
:102A80000221CCE71FD93B2B00F02D813C2B22D11A
:102A900099F800302D49980735D5580679D443F078
:102AA00040030B70FFF772FE012800F01C812DD34C
:102AB000022800F01381DAF80020DFF888B01378DC
:102AC0002C2BDFD10FE1112B00F083802B2B43D077
:102AD000002B5ED102E03A2B5BD15EE099F800302A
:102AE000D90756D4194A43F001031370FFF74EFE7D
:102AF000012800F0F880DBD2327802F12803234469
:102B0000CBF8003008E043F00203CAE7327802F164
:102B100028032344CAF800305B78083202EBC30272
:102B20003270C8E7281F002058240020741F00209E
:102B30002C1F002054240020682400205C24002046
:102B40004C24002050240020F01D0020F11D002006
:102B5000501F0020381F002099F8003003F00400B7
:102B600000F0FF01A8B9654A43F0040313703278FE
:102B700002F128032344D87810B104202A324EE70A
:102B8000CBF800305B78083202EBC3025C4B1A7062
:102B900091E704200121121B41E705F0A6FD4FF645
:102BA000FF73984240F09F8033782833E05C01F057
:102BB000D3FA33782833E218E05C517803F022FC32
:102BC000012804BF00232B802B88002B00F08B8072
:102BD00084E0FFF74DFE2B884A4E303B2B80E38D7F
:102BE0003E6063B9B4F82AA0BAF1000F7BD0464B1F
:102BF000464A99461A60464AB2F828B00BE005F0FA
:102C000077FD4FF6FF7398426DD1EBE7238A43B906
:102C10002034C9F80040D9F800403E4B9C42F5D31F
:102C200061E09A45F4D1638A0BB19B45F0D12368EA
:102C30002BB963681BB9A3680BB9E36833B1364895
:102C40002146102205F036FA0028E1D1334A00234C
:102C50001360334A02211170324A3E60C8F80060A6
:102C6000138001F09FFB2F4B1A88002A3BD002F102
:102C70003003274C9BB22B80283B19126371224BE7
:102C800008321B6852BA2171197DA2850022E285A3
:102C90001A8AE17122855A8A11216285A17104F193
:102CA00018050FCB85E80F0004F10800294603F052
:102CB0001DFE1D4B04F13C021A6005F019FDC043D6
:102CC00080B208B1E08502E04FF6FF73E38502F0C1
:102CD00081F860232370002363706380104B00220F
:102CE0001A70BDE8F88F064A00231370034A2B8040
:102CF00013700B4A1370BDE8F88F00BFF11D002060
:102D0000F01D0020681F0020542400206C240020A7
:102D1000381F0020AC250020401F00205C2400202C
:102D20004C24002068240020582400202DE9F74F6F
:102D3000674C684AE1791378FF2903F12C0707EB08
:102D400004003E5DDFF8A88140F0B980234493F889
:102D50002930002B40F0B3800379FF2B00F0AF80C7
:102D600006F0400303F0FF051BB1237EFF2B00F0AC
:102D7000A680B8F80020DFF87CC1DFF864910192EA
:102D800014230022DDF804A0F918514513DA04EBEE
:102D9000010B9BF801A0BAF1000F04D1C9F8002083
:102DA0008CF800308BE0615C03EBCA03022908BF9A
:102DB0005A46DBB2E6E704308CF80030C9F8002050
:102DC00003F08CFC444B1860002878D1414A434FF3
:102DD0001378BB46E018303004F0BAF8386004F0DD
:102DE000AFF83C688146002C69D03D4B1F6837B175
:102DF000B81C4946082205F05DF9C0B200E038462B
:102E000094F8223026F07F0A5FFA8AFAEBB9002F95
:102E100055D057F8022FC9F800207A68C9F8042065
:102E20007DB184F820302F4B0122D9684FF47A739A
:102E300084F8222004F11000B1FBF3F106F0E1FA6E
:102E400039E0022384F8223035E0B20606D428B1F6
:102E5000012B34D1022384F8223030E0AFB33A465C
:102E600052F8023FC9F800305368C9F804306DB118
:102E7000012384F822301B4B04F11000D9684FF471
:102E80007A73B1FBF3F106F0BCFA04E01FB110B1A4
:102E9000022384F82230DBF8003093F8213053B15C
:102EA000BAF1000F07D1104803F088FF0F4A1060F5
:102EB00008B103F061FFDBF8003083F821A00023A4
:102EC000A8F8003003B0BDE8F08F002DE3D0CFE7C5
:102ED000381F0020F01D0020F4040020EC04002026
:102EE000F0040020DC260020401F0020E804002021
:102EF000281F0020F41D00202DE9F84F884CDFF832
:102F00004C92E379FF2B40F00681864A1378904675
:102F1000E11891F83010FF2900F0FD80234493F868
:102F20002930002B40F0F7807F4E804D3360142312
:102F30002B7098F800002A782C30B9F80030024441
:102F40009A4250DAA1184878754B002800F0E380C7
:102F5000A25C012A3DD11A8931607AB95A896AB9CD
:102F60009A895AB9DA894AB91A8A3AB95A8A2AB967
:102F70009B8A1BB9E38A002B00F0CD806C4803F0DC
:102F8000E7FF6C4F0246386030B9316802230231E6
:102F9000674803F0A5FF1CE003F0D2FF33688246C8
:102FA00003F1020B58465146082205F083F848B158
:102FB000DBF80030CAF80030DBF80430CAF804301F
:102FC0003B6803E03B6893F8222012B9022283F8A1
:102FD000222098F800202B782C321A442244527870
:102FE00003EBC203A4E72044043003F077FB524B09
:102FF0004B4D18609A46002800F08D802B8973B9DC
:103000006B8963B9AB8953B9EB8943B92B8A33B95F
:103010006B8A23B9AB8A13B9EB8A002B7BD0444D62
:10302000284603F05BFB2E46002874D1228B40F229
:10303000FF239A42A5F1080705F1100E1BD16B8AF8
:10304000CBB9AB8ABBB9EB8AABB92B8B9BB96B8B7A
:10305000B3F5807F0FD12B7FFF2B0CD195E80F00AC
:103060008EE80F0098F800301F44303797E80F00C3
:1030700085E80F0012E0314D284603F02FFBDAF807
:103080000030834247D196E80F0085E80F0098F89A
:103090000030234430330FCB86E80F0060222270CB
:1030A000282262713A22A271FF22E2718822002353
:1030B00084F82820DAF8002088F8003063706380F4
:1030C000237184F829301E4DE02384F82C3002F15E
:1030D0001206931C186859682A4603C20833B34283
:1030E0001546F7D1174A022384F8403084F841305E
:1030F00013681548C4F84230536800214360062223
:10310000083005F0E7F80023638505F0EEFAC043C8
:103110006085502300E00023A9F80030BDE8F88F57
:10312000381F0020F01D0020F0040020F41D0020B6
:10313000401F0020EC040020F4040020501F002059
:10314000681F0020301F00207A1F0020281F002049
:103150002DE9F041524C534F00233B706370638064
:103160003A238046A3716020FF232070E37199B950
:103170006183A183E183218484F82210022001214C
:103180002376607684F8231084F82430537B84F807
:103190002530D389E3840CE00D4604F1180601F1D3
:1031A000100E28686968334603C3083575451E4606
:1031B000F7D1872384F828303B4E002384F8293048
:1031C000E362154602F1100E28686968334603C3AE
:1031D000083575451E46F7D1002626711046304D3C
:1031E00003F07CFA002842D1B8F1000F0CD043461E
:1031F000083508F11006186859682A4603C20833D2
:10320000B3421546F7D105E005F1080005F11801B4
:1032100003F06CFB2289224B244D82B95A8972B982
:103220009A8962B9DA8952B91A8A42B95A8A32B984
:103230009A8A22B9DB8A13B92B80BDE8F081282352
:1032400063713B7801224033E254194AE0180223AB
:10325000437013680A3040F8083C5368002140F876
:10326000043C062205F036F850232B800CE018238E
:103270006B710E4B40222E816E81AE81EE812E82CB
:103280006E82AE82EE821A803B7828331C44002383
:10329000638005F02AFAC0436080BDE8F08100BF7A
:1032A000381F0020F01D0020681F0020281F00206C
:1032B000301F002008B5044803F0C0F8BDE80840FE
:1032C000024803F0BBB800BFCC000020D8000020AB
:1032D00008B5064800F03AFF054B01221A7000229B
:1032E0005A70AA229A70DA7008BD00BFB934200063
:1032F000F61D002010B50F4C0220A17902F0ECF869
:10330000A379112B01D0062B05D1238D618D994214
:10331000A8BF194608E03A2B05BF94F8281094F886
:103320002930002143EA01210120BDE8104002F0CC
:10333000D3B800BF381F002010B513780C7A83F083
:1033400002039C421DD14C7A53789C4219D18C7A4D
:1033500093789C4215D1CC7AD3789C4211D10C7BC6
:1033600013799C420DD14C7B53799C4209D18C7BC3
:1033700093799C4205D1CC7BD3799C4201D1032324
:103380001BE00A890F4B6AB94A89B2F57F4F09D110
:103390008A89FE2A06D11A68C98922F8021B1A6096
:1033A00002230AE01A6851F8084F083242F8084C24
:1033B0004C6842F8044C1A60012303FA00F0C0B2D2
:1033C00010BD00BF0005002010B5084C0146237851
:1033D000012B08D1A01C082204F06CFE00280CBFB1
:1033E0002046002010BD002010BD00BFF61D0020AB
:1033F00008B50146102002F07DF8044B04489B6894
:1034000000219847BDE80840FDF792BCF0972000E6
:103410001534200010B508460C46114603F0BCFDDB
:10342000044B1B6813B19B6820469847024B1C60F5
:1034300010BD00BF2C0A0020140500202DE9F0412A
:10344000140902F00F050F2C08BF10240F2D06469B
:103450001F4608BF102514B1224604F05FFE621912
:103460000F2A05DC30190021C2F1100204F032FFEE
:10347000BDB1DFF84080C5F11000D8F800703044CD
:1034800039462A4604F04AFE022D434605D10A2C4D
:1034900003D8FF22F272FE2232733D441D60BDE864
:1034A000F0812CB130463946BDE8F04106F02FB826
:1034B000BDE8F081000500202DE9F04F894F8A4ECC
:1034C000002385B03B703370044601F0A3FF01F088
:1034D00041FF864D04212860092001F0FDFF844B47
:1034E000BB461B68A8460BB1FFF704FF02A80CB946
:1034F000804900E0214605F056FE7F4B7F4E1A883A
:103500003E2A40F2F4817848D8F8009090F800A064
:103510007B4D09F102032B600AF1020A002309F82E
:103520000A3006F11800FFF74FFF20B906F1080036
:10353000FFF74AFF20B109F103032B60802400E06C
:10354000044673783078190941EA0011C9B28A0833
:1035500042EA8111C9B213F00F0FCAB2684F00F0EE
:103560000F000CD1654E76884EB910B913F0F00FEC
:103570001FD03B68702603F8012B3B601AE078B936
:1035800013F0F00F0CD12A6821F03F010B431370A8
:103590005C4B03321B88682622F8023C2A6009E053
:1035A00056492B6808686026186003F8042B2B60C6
:1035B00000E07826514B9A79112A08BF46F004069C
:1035C000730703D43B6803F8012B3B604B49CB796D
:1035D000402B06D0FF2B07D0012B08D146F0010667
:1035E00009E046F0020606E046F0030603E03A680A
:1035F00002F8013B3A60414B1A898AB95A897AB973
:103600009A896AB9DA895AB91A8A4AB95A8A3AB980
:103610009A8A2AB9DB8A1BB944F04004E4B23BE041
:103620003948FFF7D1FE394B186070B1427819F86C
:103630000A30042043EA021309F80A303249344AB6
:10364000FFF77AFE60F03F0011E02C4948F2FE03DC
:103650000A899A420DD14B8B5BB98B8B4BB9CB8BC3
:103660003BB9042008312A4AFFF766FE2043C4B262
:1036700012E0D7F800C0DFF890E06246734603CB53
:1036800010602448516083429E4602F10802F5D141
:103690001B4B0CF110021A6018490B7EFF2B40F0F7
:1036A00087804A7E44F0080E022A5FFA8EFE33D1EC
:1036B0004B8B8BBB8B8B7BBBCB8B6BBB0B8C5BBB79
:1036C0004B8C4BBB8B8C3BBB91F8263023BB3B68B0
:1036D00091F8272044F00B0403F8012BE4B23B607F
:1036E000A1E000BFF51D0020001E00200C050020F9
:1036F0002C0A00200A9A2000281F0020381F0020D2
:10370000000500203A1F0020401F0020F804002080
:10371000301F0020501F0020984B588B194600285E
:1037200031D1988B78BBD88B68BB188CA0B9588CDA
:1037300090B993F8240078B9296844F00A0408463F
:1037400000F8012B33F8252F043121F8032C9B7846
:10375000E4B28370296066E00B8C88489BB990F8CE
:10376000223083B92B6844F00904194601F8012B73
:10377000024652F8230F063343F8050C1279E4B2DF
:103780000A712B604FE07E4B7E4C1F6804F11009DC
:103790003A469C46234603CB4B45106051601C467D
:1037A00002F10802F6D11037CCF8007074463AE006
:1037B00001F118000191FFF707FE734A10600199AB
:1037C00050B1437819F80A2044F004041343E4B2DA
:1037D00009F80A3000200AE00A8B48F2FE039A42F8
:1037E0000CD14B8B53B98B8B43B9CB8B33B918317D
:1037F00002AAFFF7A1FD2043C4B214E0604B614F61
:10380000D3F800E007F1100972469C463B4603CB13
:103810004B45106051601F4602F10802F6D10EF1CF
:103820001003CCF8003028238BF80030534B9A79E2
:10383000112A50D1198D4FF2B00249BA89B221F044
:103840000F0080B2904215D15A8D52BA22F00F0269
:103850001204120C82420DD12A68F3211170598D85
:103860001B8D090A1B0A01EB031303F5AA635370AE
:10387000023226E0414B5A8D52BA02F47F42B2F531
:10388000704F09D12A68F1211170198DA2F8011029
:103890005B8D1B0AD3700CE001F47F41B1F5704FD2
:1038A0002A6808D1F2211170198D090A51705B8DB7
:1038B0005380043205E0F0211170986A053242F815
:1038C000040C324B2A601A882B6823F8022B2B60D9
:1038D00030238BF800302E49D8F800300A789E54F7
:1038E0001A445470264A1268D31A0B701BE0D8F899
:1038F000003041221A70264A06F128051478621C0D
:10390000D2B21A44334603CBAB42106051601E461C
:1039100002F10802F6D11E4B29341C709BF80030CE
:1039200028338BF8003002A9102001F0E3FD194B79
:10393000DFF85C901B689847174B30EA200728BFD8
:1039400015275B699847C7F17D07144D3F1A484614
:10395000B5F800A09BF800400678C4EB0A02BB1B38
:103960009A4240F3C78001F001FB7823BAFBF3FAD7
:103970000AF1010A504513DC0020CCE0381F00207A
:1039800000050020501F0020F8040020661F0020C2
:10399000001E0020A4972000F0972000281F002080
:1039A000D8F8004099F8006021463246201D04F006
:1039B0002BFC2B88594A6FEA83436FEA9343C3F386
:1039C000072323702B88043663701388F6B2E370E4
:1039D000190A01331380524ADFF85CC1A170C6EBAB
:1039E000070A11784F4B2AF0070A61445246A01982
:1039F000C3F800A089F800600193CDF800C004F07E
:103A00008DFB06EB0A0080B201F09EFC01F0B4FAD7
:103A1000DDF800C0019B064664469A460028ABD0FC
:103A200002A8FFF7E5FC304601F0DEFA30463E4ED4
:103A300001F0C4FA3368012B9ED0043B012B9BD9C3
:103A4000374B053F93F800B0DAF8003027F007074E
:103A50005B441FFA83FB052389F80030334BCAF817
:103A600000701A682B886FEAC3436FEAD343C3F32D
:103A7000072313702B8853702D4B1B889B4549D20D
:103A8000D8F800204FEADB011171DAF80020CBEB07
:103A900003039342B8BF234A2648B8BF1360077890
:103AA000DAF80050D8F800002A4604EB0B0138443D
:103AB00004F034FB781980B201F046FC01F05CFAA6
:103AC000054600283FF458AF02A8FFF791FC2846AE
:103AD00001F08AFA284601F071FA124B1B689B44E8
:103AE00033681FFA8BFB012B3FF446AF043B012BDD
:103AF000C2D841E7D8F800000F493044214404F00F
:103B00000DFB2B881E44301B80B201F01DFC02A867
:103B1000FFF76EFC012005B0BDE8F08F36170020DE
:103B2000F51D002010050020140500200C050020C4
:103B3000281F0020001E0020381F00202DE9F04F14
:103B4000A54FA64C87B000263E70267001F002FCFF
:103B5000A34DB9462860042001F0C6FCA14B00B279
:103B60001860A14804F023FDDFF8A8B218B19F4BFC
:103B7000ABF800601E809A490B681A785E7846EAB6
:103B8000022602F0F802C02A1CD0E02A28D19A7836
:103B900093F804A0DB78BBF8008043EA0225237881
:103BA000C6F30A060533237001F0E8FB237840448E
:103BB000C3EB0008B045B4BF4FF000084FF0010858
:103BC00000279BE29A78DB784FF0000843EA022551
:103BD0002378C6F30A06043323700127C2468DE218
:103BE000824B4FF00008A3F80080ABF800804746F6
:103BF00045464346C2464646BBF80010A9B1002ED2
:103C000000F09182794B1B88B34240F08C82784B54
:103C10001B88AB4240F087820F2001F077FC014601
:103C2000744805F0C5FAD0B97DE2701E80B240F24A
:103C30001351884213D813B1002F00F074826B4BDC
:103C40004FF480611E806A4B67481D8004F0A3FC1E
:103C50000F2001F05BFC0146664805F0A4FA94F8D9
:103C600000C0BCF1050F00F0D1815D4A116811F868
:103C70000C3003F0E002602A40F0AD810CF102004C
:103C80000844614491F801B05B4A5FFA8BFC1CF078
:103C9000800F10601CBF0130106013F0100FCDF8C2
:103CA00008C003F00801554C2FD1D1B9116808465E
:103CB00030F8015FA4F801508078E07011F8040B2F
:103CC0001160820802F00F0141F0600121706178FB
:103CD00002F0300242EA801001F00F0108436070E8
:103CE0002EE0106860212170014611F8015B03305D
:103CF0004FEA950E0EF0300E05F00F054EEA050561
:103D000065700988106061801AE001F0FF0591B9C3
:103D100011680878C0F3830040F06000207011F84B
:103D2000010B65804FEA900E0EF0300E4EEA8010C7
:103D30006070116004E06022227000226270628074
:103D400003F0040202F0FF0103912C4D2AB92A4925
:103D50000A6812F8010BA8710A6013F0030303D07C
:103D6000274AD35CEB7105E0234A136813F8011B63
:103D7000E97113601BF0400FCBF301134CD0DDF859
:103D800008C01CF0800F07D014490A78144909684C
:103D90000A449078000900E0002003F0FF0183B19D
:103DA000184A1178012905D1517881420CBF11467A
:103DB000002100E00021144A1160002900F0268152
:103DC0000231124A0F20D25C8DE8060001F09EFB02
:103DD000009903460E4828E0F51D0020001E002033
:103DE0000C050020FC0400200405002034170020EE
:103DF000321700208128002000050020180500202F
:103E0000E0992000F61D0020F8040020F999200018
:103E10002005002038170020A54A0F20D25C01920F
:103E200001F074FBA3490346A348019AFFF706FB80
:103E30000BF008000BF0030300F0FF010BF004028D
:103E4000A8B1002A49D19D4A1288ADF814205A1E03
:103E5000012A06D89A490A6812F8010B8DF8150054
:103E60000A60984A9848D25C05A9002333E042B31F
:103E7000DDF808C01CF0800F07D094490A789449F7
:103E800009680A44917801F00F01924A10780128DC
:103E900005D1507888420CBF1146002100E0002176
:103EA0008D4A1160002900F0B1808C4A102012F870
:103EB00003B0009101F02AFB0099034602318248C9
:103EC00008E07B4A102012F803B001F01FFB79498B
:103ED00003467D485A46FFF7B1FA99F80010784A30
:103EE00001F1280389F80030039B002B56D013689A
:103EF000187800F0F800F02850D11120A871187837
:103F000000F0040E00F0F300F0385FFA8EFE032894
:103F10007CD8DFE800F0020A1622B3F8010005336E
:103F2000288533F8020C68852CE0B3F80100288559
:103F3000D878A0F5805080B2000240F0F00068858B
:103F400009E05878A0F5805080B2000240F0F000FF
:103F5000288558886885043314E0587802330009AE
:103F6000A0F5756080B2000240F0F000208513F8E3
:103F7000010C00F00F00A0F5756080B2000240F067
:103F8000F00060851360BEF1000F04D1136833F8B0
:103F9000020BE8851360303189F800104C4B126831
:103FA0001B684A49D31A0B704EB901F0E7F9474B29
:103FB00099F800201B78C01A8318283B01E0A6F16D
:103FC00028031A122A71AA796B71112A444B1DD148
:103FD0009A889A851AE0412B40F0A5800CF10103E4
:103FE000DBB20B443E4D03F1280E186859682A468F
:103FF00003C2083373451546F7D199F800300CF128
:10400000290C283384F800C089F8003001F0B6F993
:104010002E4C2378834200F2868001F0AFF923789A
:1040200099F800B02F4AC51A0BEBCA0A15600AEBC3
:10403000050140F21452914275D8254A284811686A
:10404000504419442A4604F069F8DFF8AC90264C35
:104050006EB11FB123889B44A4F800B0B8F1000FE3
:1040600001D0268006E023881D44258002E05D44BF
:10407000A9F8005023881BB1B9F800209A4252D108
:10408000B9F80050194816492A4604F047F8184B69
:104090001D8000232380174CA9F80030236823B12A
:1040A000FFF728F923685B68984700F069F83AE061
:1040B000E4992000E899200020050020DE992000E6
:1040C00000050020EA99200030050020001E002095
:1040D0000C050020F61D0020F8040020F9992000AE
:1040E000180500201005002038170020381F002078
:1040F000281F00202C0A002034170020BBF80030B5
:104100007BB177B10F2001F001FA0146074805F0B5
:104110004FF818B9064B1880064B188001273B460C
:104120006AE5012368E507B0BDE8F08F812800202B
:10413000341700203817002008B5034B1B680BB15B
:10414000984708BD184608BD400A0020014B18607A
:10415000704700BF400A002007B5074B8DF80700E5
:10416000186828B1054B0DF107021978FEF7C0F960
:1041700003B05DF804FB00BF602400208A28002003
:1041800008B5002204480221FEF7B2F9034A0023D1
:104190001380034A137008BDE4000020281F00208C
:1041A000F01D0020F8B5424E3388002B7ED0B3F5C9
:1041B000A06F71D83F4B1A8B72B95A8B62B99A8B28
:1041C00052B9DA8B42B91A8C32B95A8C22B99A8C0C
:1041D00012B9DA8C002A5FD01B7EFF2B5FD03648E5
:1041E00002F05CFAC8B9344802F0ACFC044620B9CD
:1041F00002F02CFE054688B94EE002F08FFC054621
:1042000060B9E36923B11B6A93F88C0004F038FCB1
:104210002046BDE8F84002F0C7BC274D284600F014
:1042200063FD0746002837D1284602F091FE044678
:10423000F8B9284621462246234602F051FE05469B
:1042400050B31E4802F04AFA014608B11B48214605
:104250002A46FEF77DFF1A4B05F1180019694FF445
:104260007A73B1FBF3F105F0CCF8012385F8203027
:10427000F8BD90F822307BB1022B08D1032380F8DF
:1042800022300521103005F0BCF884F8207020465B
:1042900002F056FEFFF750FF00233380F8BD0020E8
:1042A000FFF74AFF074A002333801370F8BD00BFB1
:1042B000281F0020381F0020501F0020401F002012
:1042C000DC260020F01D002038B503880546144682
:1042D0003BB140F23A32934218D0002303800320CE
:1042E00038BDFEF761F8274B1870FEF75DF8264BD6
:1042F00040211870254804F02BF9FEF79BFA00F0D6
:10430000FBFD40F23A332B80012038BD02290CD14D
:104310001F4C2388002BF4D00120FEF7D7FA238806
:10432000002BEED0FFF73EFFEBE709D80129E8D1DB
:10433000002CE6D0174B05201C60FEF7C7FAF1E70A
:10434000872912D08829DCD1104B9C4202D120460B
:1043500004F010F9104B9C42D3D1204604F00AF926
:104360000028CED002F09AFADCE70C4B9A69203391
:10437000A24204BF002223F8102C094A9342F5D12F
:10438000BFE700BF892800208A280020300A0020CB
:10439000281F002054240020382800206C240020EE
:1043A000AC250020074B1B680BB1283302E0064BFD
:1043B0001B681833186820B1044A11785A68FEF750
:1043C00097B870475C2400205424002089280020DE
:1043D00070B50C46054658B18169A14208D0054E1A
:1043E000306800F051FF3068214600F043FFAC61B7
:1043F00070BD00BFF400002038B510220D4600212A
:10440000044603F067FF2A7D294607322046D2087A
:1044100003F084FE20460249BDE8384005F077B835
:10442000301F002008B502F093FD02F089FD034B18
:1044300001461868BDE8084004F096BEF40000206C
:1044400008B5074B0146186804F0A7FE014628B1DD
:10445000044B1868BDE8084004F086BE08BD00BFE4
:10446000F4000020B8010020024B0349186800F056
:1044700031BE00BFF4000020358A2000024B014607
:10448000186804F071BE00BFF400002008B5044BAA
:104490000146186804F081FEBDE8084005F061B8E7
:1044A000F400002038B50B4C054694F88D1071B916
:1044B0004FF49272204603F00DFF0123204684F84A
:1044C0008C5084F88D3000F0A5FA204638BD0020CD
:1044D00038BD00BFB025002070B5064610460D4619
:1044E00005F041F8014608B9002413E00A4B1868AA
:1044F00000F01EFE04460028F6D0FFF7A1FF66601C
:104500006B8A23816B7E237420B1838C13B94FF4A3
:1045100000738384204670BDF4000020F8B5194F65
:104520000546386800F0EAFD00260446BCB1636821
:10453000AB420ED122894FF6FF739A4209D03EB1A9
:104540002B6A30469B6821469B689847064600E0E8
:1045500026462146386804F0F0FD0446E6E75EB1E1
:1045600028463146FFF734FF2B6AA8699B6821462D
:104570001B699847A88302E04FF6FF73AB83304670
:10458000F8BD00BFF400002010B5044604F02EFA78
:10459000034B21461868BDE8104000F055BE00BF2F
:1045A000F400002070B5094D0646286800F0A6FD0D
:1045B000044650B163689E4202D12046FFF7E4FFF3
:1045C0002868214604F0B9FDF2E770BDF400002030
:1045D000044B93F88D0020B1D868837D002B08BF71
:1045E00000207047B0250020064B93F88D2032B193
:1045F00093F88C2082420CBF18460020704710466A
:10460000704700BFB0250020034B1A8B82420CBFBD
:1046100018460020704700BF080100202DE9F8432C
:104620008146087E0D4604F04FFA0646002800F049
:10463000828029464A46046AFFF74EFF074618B9AA
:1046400084F88D00BDE8F8836B7E0374288AFFF739
:10465000DBFF804630B93846FFF796FF84F88D803F
:10466000BDE8F88395F851305B0604D5002005F1CC
:104670003C0104F071F80123B375AB7D05F1100125
:1046800033752B7DF374EB7DB374C4F808806B7DB8
:10469000E66084F88F30F02384F88E302B8CA4F8F9
:1046A00098306B8CA4F89A30AB7E84F89030EA7E18
:1046B000134484F8912084F894302B7F324684F898
:1046C00092306B7F84F89330EB8BA4F89C302B46B0
:1046D00053F8040B8B4242F8040BF9D105F13C036B
:1046E00006F12402543553F8041BAB4242F8041B74
:1046F000F9D139463046FFF76BFEA36820465B6967
:104700009847A36838461B69002198470B4BB08334
:104710001A68308202B91C60204604F0F8FB20467B
:10472000494604F07CF894F88F3023B12046BDE868
:10473000F84304F0FABBBDE8F88300BFAC250020C5
:104740002DE9F041064628B300F110040227637DED
:1047500043B9013F04F13C04F9D13046BDE8F041D2
:1047600004F0D5BB4FF6FF73DFF82C80A383D8F895
:10477000000000F0C3FC05460028EAD06B689C42AC
:1047800002D1284604F032F9D8F80000294604F096
:10479000D4FCF0E7BDE8F081F400002038B50D4D01
:1047A000286800F0ABFC044690B163685BB11A6AFC
:1047B0004AB1627CD10706D522F001026274186A00
:1047C000214604F0A5F92868214604F0B6FCEAE782
:1047D00038BD00BFF4000020024B0146186800F00D
:1047E00049BD00BFF400002070B590F89460012529
:1047F00005FA06F64FF47A73F601B6FBF3F6C0F845
:10480000A0600446EE40FDF747FF70434FF6FF738C
:10481000B0FBF3F1D4F8A03031445B1AC4F8A030F7
:10482000002384F8963084F8955004F1C4002346A0
:10483000024ABDE87040FDF7EFBC00BFB54820005C
:1048400010B50B4C00F0DAFAFFF7A8FF238801330C
:104850002380FFF7BDFE28B922883B2A02D9208099
:1048600002F0C8FDBDE810400248FDF7F5BC00BFEE
:104870003A170020D40B002010B5044600F0B8FA17
:10488000012813D0B4F89C104FF6FF7399420DD055
:1048900094F89330FF2B09D0594304F582702346D6
:1048A0008901034ABDE81040FDF7B6BC10BD00BF4A
:1048B0008949200070B51D4D04462B7853B901205D
:1048C00001F022FF10B101232B7003E004F1C400BA
:1048D000802114E094F89530BBB194F892303BB14C
:1048E00094F896209A4203D22046002102F0ACFDB3
:1048F0000023D4F8A01084F8953004F1C4002346B6
:104900000B4ABDE87040FDF787BC94F8911094F80D
:10491000902094F894300A449342BCBF013384F849
:1049200094302046BDE87040FFF75EBF011E0020B6
:10493000B548200070B505460C4600F059FA01282C
:104940001ED005F1E806304603F01AFE304603F0AB
:1049500011FEA8B144B1FDF79FFEB0FBF4F101FBDD
:10496000140000EB540100E0214605F1E4002B4661
:10497000044AFDF751FC2846BDE87040FFF77CBFB4
:1049800070BD00BF8949200070B5134B04461B78E9
:1049900000F1E4055BB9012001F0B6FE38B9284604
:1049A000234680210D4ABDE87040FDF735BCE36821
:1049B000986918B194F8931002F0D8FE2846FDF7D4
:1049C00067FC04F5847003F0D5FD20B12046BDE8F6
:1049D0007040FFF751BF70BD011E002089492000C3
:1049E00010B5FDF759FE3C2358434FF6FF72B0FB5C
:1049F000F2F3054A1933138004488021044A002346
:104A0000BDE81040FDF708BC3A170020D40B002089
:104A10004148200010B50446FDF73EFE4FF47053A8
:104A2000B0FBF3F101FB130081B2234604F1A400B3
:104A300001F5F051024ABDE81040FDF7EDBB00BFA3
:104A4000454A20002DE9F0478046C568FBF7BCFFCA
:104A5000B0F5163F8CBFA0F59637012755B32B6AEA
:104A600043B3AC6934B3E368BB4218D3FDF714FE1B
:104A700010F001060BD1DFF89CA04FF6FF79DAF8B1
:104A8000000000F03BFB0446CCB9002E3FD1214E84
:104A90000024306800F032FB014641BB54B120468F
:104AA000FFF7F4FC30B12046FFF7F0FC014640462A
:104AB00002F0CAFC4046BDE8F047FFF7ABBF6368B1
:104AC000AB420DD1E368BB420AD22B6A20469B68F9
:104AD00000211B6998470EB1484501D28146264600
:104AE0002146DAF8000004F028FB0446CCE74B68C6
:104AF000AB4207D12CB1CA68E3689A4238BF0C4672
:104B000000E00C46306804F018FB0146C5E7344667
:104B1000C5E700BFF4000020F8B5234F234C3A78D6
:104B20000646283213195B78002B37D1024413193B
:104B3000125D632A32D15A78042A2FD1D878FFF730
:104B400053FD054650B33A782832324422449378D4
:104B500003F0200101F0FF0639B104F1180001F063
:104B6000F1FFC0B102F020F815E0C168887DA8B15E
:104B70009088898B40BA80B2814294BF0020012086
:104B8000190602D510B13046F8BD60B103F04001FE
:104B900001F0FF0021B1284604F0B9F90120F8BD69
:104BA00043F040039370F8BDF01D0020381F002033
:104BB0002DE9F84F484C494D94F806A04FF00008F5
:104BC0002E782F4685F80080BAF1000F1AD194F89C
:104BD0002980B8F1000F7AD194F82A30632B76D16E
:104BE00094F82B30042B72D194F82D00FFF7FCFCC5
:104BF00000286FD090F88D309BB3C268907D98BB31
:104C0000BDE8F88FDFF8DCB040F20C53BBF8009041
:104C100099455CDC04F12805A9F1280204F1300073
:104C2000294603F0F1FA6323C4F8288084F82A3077
:104C3000042384F82B30637909F1080903F1080291
:104C4000D2B29A42C4F82C8084F828A084F8068056
:104C5000ABF80090627102D22379013323710836D8
:104C60003E700020BDE8F88F29782A310B19095DC4
:104C700063292CD1928B04F1180052BA9A8093F9CF
:104C80000230002B15DA01F05DFF0028E8D12B7807
:104C90000F202A3323449A7842F020029A7000F0C1
:104CA00035FCFFF7EBFBA0B10D49002202F0ECFC54
:104CB0000FE001F047FF2B782A3323449A7810B98C
:104CC00002F07F0201E062F07F029A70C8E72E7066
:104CD000C7E70120BDE8F88F381F0020F01D002035
:104CE000501F0020281F0020F8B51D4A1D4B977942
:104CF000002601461D46187814461E705FBB92F8C8
:104D000029200AB1187026E094F82A30632B22D1AA
:104D1000E38D03BB144A13681646F3B193F88D2054
:104D2000DAB1D868827DC2B103F09AFD18B1436848
:104D30009B69984204D02B788022234483F82C204E
:104D40002B782A331C44336893F88C20E270DB689C
:104D50009B8B5BBAA3800020F8BD0120F8BD00BF8B
:104D6000381F0020F01D0020AC250020F8B5174D9D
:104D7000174CA87900232678237010B126701846A6
:104D8000F8BD95F82A30632B1DD195F82C3095F895
:104D90002D0023F07F0383F0800385F82C30FFF78C
:104DA00023FCC3689F8B23783F022A331D44E87895
:104DB000FFF71AFCC368BFB29B8B267047EA132724
:104DC000AF800820F8BD2670F8BD00BF381F002056
:104DD000F01D0020044B1B682BB1044B1B7EFF2BE6
:104DE00001D0FFF7E5BE7047AC250020381F00203A
:104DF000014B1878704700BF021E00207FB501F0FC
:104E00009BFE30B183690BB1013B836104F0A3FBCE
:104E1000F7E701F091FE0446F4B1A669C6B904F1C2
:104E200008030FCB8DE80F00204601F0BDFE01F016
:104E300083FE0A4B04461A68D368B2F89A20998B0D
:104E40009142E9D098696946324602F01DFC03E0C0
:104E5000204604F080FBDEE704B070BDAC250020E6
:104E6000F0B548F2FE0385B00446184DADF80030A9
:104E70000F46002368462146ADF80230ADF80430F5
:104E8000ADF80630ADF80830ADF80A30ADF80C30AA
:104E9000ADF80E30164604F03AFB95F88D30012B34
:104EA00012D12846694603F0E6FC044660B1437C13
:104EB00043F001034374AB685B682BB1394632465B
:104EC0009847FBF781FDE06005B0F0BDB0250020FC
:104ED00008B50146074890F88D20012A09D103F052
:104EE000CAFC30B14FF6FF730381437C43F00103EA
:104EF000437408BDB02500201FB5134B00241C606F
:104F0000FFF7B2FAFFF76CFD02F08CFD40F2FF23D1
:104F1000ADF8003068464FF4D053ADF80E30ADF820
:104F20000240ADF80440ADF80640ADF80840ADF8D9
:104F30000A40ADF80C4001F007FC044B20461B680A
:104F4000984704B010BD00BFAC2500200801002028
:104F500008B5044804F05CFABDE80840024804F0D3
:104F600057BA00BF3001002024010020014804F09E
:104F700097BA00BF2401002038B50E4804F058FA53
:104F80000546A8B10C4804F053FA0446286028B935
:104F90002946084804F060FA204638BD00F098F928
:104FA00004F1A001A4F8800004F1820000F060FA8E
:104FB000284638BD240100203001002010B50446E9
:104FC0002146074804F05EFA48B12168054804F01C
:104FD00043FA21460248BDE8104004F03DBA10BD36
:104FE000240100203001002010B504462146094864
:104FF00004F048FA68B12468B4F88010204600F044
:1050000021FA04F1820004F1A001BDE8104000F093
:1050100049BA10BD2401002030B1054B9B68C01A6D
:10502000044B8010584370474FF0FF30704700BF6B
:105030003C010020ABAAAAAA38B50D4D002818BF24
:1050400005460C4803F0CCFA044668B12846211DF9
:1050500004F0AEF820B12046BDE83840FFF7DCBFD1
:10506000204603F0F9FAEFE74FF0FF3038BD00BFFC
:105070000A9A2000140C002080B161B1C368426814
:10508000C91A91FBF2F14B1C07D0054B0C209B6811
:1050900000FB01307047084670470020704700BF92
:1050A0003C01002090B171B1C368C91A436891FBFB
:1050B000F3F14B1C09D0064B5A5C036842FA03F02B
:1050C00000F001007047084670470020704700BF9D
:1050D0003B1E002010B5074A1368072B08D85C1C3C
:1050E0001460054A0360816042F82300012010BD6E
:1050F000002010BD280D0020080D002038B5044602
:105100000A4803F06DFA0146204604F005F805460A
:1051100029462046FFF7C6FF28B920462946BDE8A4
:10512000384004F00AB8284638BD00BF140C0020EF
:105130003F4B2DE9F047002914BF884698460546A5
:105140004046FFF779FF074601306ED1394804F039
:105150006FF906460446002844D1374803F040FA68
:1051600037460446C4B12046FFF756FF334B1B5C5D
:105170006BB9334A125C22B1D10748BF01335210D8
:10518000F9E70EB1BB4202DA4BB126461F46204674
:1051900003F062FA0446E5E7002E43D034460026C9
:1051A000284BF7588FB1D7F80890B9F1000F0CD001
:1051B0002146384603F0B0FF824651463846FFF795
:1051C00071FF012801D15046C8470436202EE7D18F
:1051D0002046FFF721FF1A4B00221A542146164899
:1051E00003F007FA2146144803F017FA2046FFF7A8
:1051F00013FF41460746201D03F0D5FF0DB90026D9
:1052000005E07B1CFBD06E68EB6806FB07360021CF
:105210006A68304603F05EF80948294632460123A1
:1052200003F060FF3046BDE8F087002DEBD1E6E7E4
:105230000A9A20003C010020140C0020271E0020A8
:105240003B1E0020080D002070B505460C46224686
:1052500029460023054803F045FF29460646224615
:105260000023034803F03EFF304670BD3B1E002084
:10527000271E002003460A4602481946012303F070
:1052800031BF00BF271E002003460A4602481946C8
:10529000002303F027BF00BF271E002030B5094BB5
:1052A0001A8818466AB1084B1C8830233034A34250
:1052B00005DA06498D18ED5C5D540133F7E70023EC
:1052C000038030BDBE1C0020BC1C0020300D00201F
:1052D000F8B50E4B0E4A1B781688C3F13005AC1991
:1052E000802C07460EDC0B492A46194402F016FFB3
:1052F000094A0A4B11681B8878191944324602F092
:105300000DFF00E000242046F8BD00BF4F1E002026
:10531000BC1C0020300D00202C0D0020BE1C0020E5
:1053200010B5074B1A88824208DB064980B20C8808
:105330000444101A18800C80012010BD002010BDFC
:10534000BC1C0020BE1C0020014B1880704700BF11
:10535000BC1C0020024B1888024B1844704700BF49
:10536000BE1C0020600D0020024B03481B7818442F
:10537000704700BF4F1E0020300D0020014B1888E1
:10538000704700BFBC1C0020044B1878C0F13000EF
:1053900010F0FF0004BF024B187870474F1E00202A
:1053A000BE1C002008B5FFF7EFFF024B1B88184416
:1053B00080B208BDBC1C002070B5084D04462E7894
:1053C000864208DBFFF7EEFF2044802803DC341B15
:1053D0002C70012070BD002070BD00BF4F1E00204A
:1053E00008B50023074A0021995202331E2BF9D138
:1053F0000548064903F0D7FEBDE8084004480349C4
:1054000003F0D1BE58280020482800200A9A200026
:1054100050280020064A00231380064A1380064BBA
:1054200030221A70054A064B1A60FFF7D9BF00BF39
:10543000BE1C0020BC1C00204F1E0020600D002060
:105440002C0D002038B505460C46FFF7E3FF064B50
:10545000802C28BF802418682946224602F05EFE70
:10546000024B20461C8038BD2C0D0020BC1C0020A7
:1054700010B50A4B03F11C0253F8044B934240F859
:10548000044BF9D11B880380054B03F1100253F83C
:10549000040B934241F8040BF9D110BD58280020A9
:1054A0004828002010B50A4B00F11C0250F8044BAC
:1054B000904243F8044BF9D102881A80054B01F160
:1054C000100251F8040B914243F8040BF9D110BDBE
:1054D0005828002048280020024B23F810100120F3
:1054E000704700BF58280020014B33F81000704768
:1054F0005828002008B5044B0F3803EBC00003F018
:1055000052FE012008BD00BF48280020024B0F3882
:1055100003EBC000704700BF482800200148024943
:1055200003F046BE502800200A9A200008B5064B1A
:105530001B689847054B5B689847054B5B68984725
:10554000044B5B68984708BDD0962000D097200098
:10555000B49720009897200030B591B03C220546C2
:10556000002101A802F0B6FE3C4B1A782AB90122AC
:105570001A70FDF791F83A4B18700E20FFF7B4FF40
:105580008DF814000D20FFF7AFFF8DF81600FFF720
:10559000C5FF18B100238DF8173004E00B20FFF78A
:1055A000A3FF8DF81700002301248DF818308DF823
:1055B0001A40ADB10A20FFF797FF28B10A20FFF784
:1055C00093FF8DF81C000BE0254B1A7802B91C7074
:1055D00019780A204A1C1A708DF81C10FFF77CFFFE
:1055E00003244AF6CD338DF81B40ADF81E30FFF78B
:1055F00095FF40B102238DF81930FF238DF8043058
:105600008DF8053008E01020FFF780FF014601A863
:1056100003F0C9FD8DF819404AF6CD33114903A8AE
:10562000ADF8203003F0BFFDFFF794FE0E90FFF7BA
:10563000A5FE0F9001A803F04BFE044645B1FFF70D
:10564000BBFE38B1FFF790FE014601A803F056FEFD
:10565000204601E04FF0FF3011B030BD511E002058
:10566000501E00208B28002008B5024B1B6998476C
:1056700008BD00BFF097200008B5024B5B69984752
:1056800008BD00BFD097200008B5024B9B69984722
:1056900008BD00BFD097200008B5024BD86900B103
:1056A000804708BDD097200010B5044648B1406B34
:1056B00002F096FF024620B1024B03482146DB6808
:1056C000984710BDD0972000C95820002DE9F0411F
:1056D000074610208846FFF719FF474B05461A7802
:1056E000464C22B901221A70FCF7D6FF208023888D
:1056F00013B9424B01221A8021880A204B1C2380B7
:10570000FFF7EAFE3E4802F06BFF044640B1201D61
:10571000294603F04DFDF0B9204602F09DFFF4E765
:10572000384803F085FE044600285BD02946201D3A
:1057300003F039FD002304F13000606384F82C305D
:1057400084F82D3084F82E30236302F046FF2C4875
:10575000214602F062FF606B02F077FF072841DC10
:10576000294803F065FE054680B3284803F060FE33
:10577000A86038B3FFF700FC6860F8B10920AE6894
:10578000FFF7B2FE10B90323337203E00920FFF7DD
:10579000ABFE307286E880012946606B02F03DFF67
:1057A000606B02F01DFF854224D104F10C002346FA
:1057B0000021174ABDE8F041FCF72EBD1348A96847
:1057C00003F04AFE1048294603F046FE606B02F0E3
:1057D0003CFF38B90A48214602F00BFF0948214630
:1057E00003F03AFE3846414604220123BDE8F04169
:1057F00003F0E5BDBDE8F081621E0020C01C002062
:10580000400E0020540100206001002048010020CB
:10581000A956200008B5054803F0FAFD044803F036
:10582000F7FDBDE80840034803F0F2BD6001002029
:10583000480100205401002070B504460D4600299F
:1058400035D0406B02F0D5FE6868FFF7B7FBA9685A
:10585000174803F001FE2946164803F0FDFD606B72
:1058600002F0BEFE04F10C05A0B1002384F82C3038
:1058700084F82D3084F82E300F4BDB69984723468F
:10588000002814BF014610210C4A2846BDE870408C
:10589000FCF7C2BC2846FCF7FBFC2146084802F096
:1058A000A8FE21460748BDE8704003F0D5BD70BD95
:1058B0004801002060010020D0972000A956200058
:1058C000400E0020540100202DE9F14F0E46044601
:1058D00000286DD0032914D8DFE801F00208020E79
:1058E00090F82C301A4480F82C200AE090F82D30E3
:1058F0001A4480F82D2004E090F82E301A4480F8E5
:105900002E20606B02F06CFE0546002850D00A2164
:10591000686803F0E1FB07460A20FFF7E5FD8742D0
:1059200003D0284602F098FEEEE7AF68002F3FD084
:10593000731E012BD7F800A0D7F8049094F82C80A0
:1059400029D81D4BDB699847002814BF83464FF0C8
:10595000100BFCF7A1FE94F82C203B7A9A421AD245
:10596000B8F1030FA8BF4FF00308012303FA08F8AA
:1059700008FB0BF8B0FBF8F308FB13010F4A04F126
:105980000C0059442346FCF747FC686801B0BDE8A9
:10599000F04F03F08DBB20462946FFF74DFF5046E0
:1059A00049463246434601B0BDE8F04F03F007BD1B
:1059B00001B0BDE8F08F00BFD0972000A9562000AD
:1059C00002292DE9F0470646894614467CDD037816
:1059D000427803F007012174C3F3C001C3F3801AB6
:1059E000C2F3810897096174C2F30112C3F3001175
:1059F000C3F34013A174E37484F814A084F81580F1
:105A0000A275E77583782376B8F1000F20D002796C
:105A1000C378B8F1020F03EB0223638300F105059D
:105A200009D120462A4903F0BEFBB379F51D237046
:105A30007379637013E0B8F1030F10D10023EA1AF1
:105A4000D279E2540133082BF9D106F10D0506E0B5
:105A5000C51C1F49204603F0A6FBA4F81A8017B303
:105A6000BAF1000F05D16A7815F8023B03EB022367
:105A700000E0638B022FA3830AD104F108001449CC
:105A800003F091FB6B78237215F8023B637210E010
:105A9000032F0ED10723E95CE21A13F1FF33D17310
:105AA000F9D2083505E004F10800094903F07BFB51
:105AB000A783AE1BC6EB0903A36365634E45D4BF42
:105AC00030460020BDE8F0870020BDE8F08700BF29
:105AD0000A9A2000094B10B55B689847041E0ADB40
