:020000040020DA
:10000000243D00208D022000CBD12000C9D120004A
:10001000C9D12000C9D12000C9D1200000000000B2
:10002000000000000000000000000000C9D1200016
:10003000C9D1200000000000C9D1200097D92000BC
:10004000B9D92000BFD92000C5D92000CBD92000C4
:10005000000000009DD92000A3D92000C9D12000B4
:10006000C9D12000000000000000000000000000D6
:100070000000000000000000C9D1200000000000C6
:100080000000000000000000C9D12000C9D12000FC
:10009000C9D12000C9D12000C9D12000C9D1200078
:1000A000C9D12000C9D12000C9D12000C9D1200068
:1000B000C9D12000C9D12000C9D12000C9D1200058
:1000C000C9D12000C9D12000C9D12000C9D1200048
:1000D000C9D1200000000000000000000000000066
:1000E0000000000000000000000000000000000010
:1000F00000000000000000000D5020001D502000F6
:1001000000000000000000000000000000000000EF
:1001100000000000000000000000000000000000DF
:1001200000000000000000000000000000000000CF
:1001300000000000000000000000000000000000BF
:1001400000000000000000000000000000000000AF
:10015000000000000000000000000000000000009F
:10016000000000000000000000000000000000008F
:10017000000000000000000000000000000000007F
:10018000000000000000000000000000000000006F
:10019000000000000000000000000000000000005F
:1001A000000000000000000000000000000000004F
:1001B000000000000000000000000000000000003F
:1001C000000000000000000000000000000000002F
:1001D000000000000000000000000000000000001F
:1001E000000000000000000000000000000000000F
:1001F00000000000000000000000000000000000FF
:1002000000000000000000000000000000000000EE
:1002100000000000000000000000000000000000DE
:1002200000000000000000000000000000000000CE
:1002300000000000000000000000000000000000BE
:1002400000000000000000000000000000000000AE
:10025000000000000000000000000000000000009E
:10026000000000000000000000000000000000008E
:10027000C9D12000FD4E2000154F20005D48200010
:10028000C9D12000B5432000C9D1200010B5094BC9
:10029000FF221A600848094A4824E3690849121AEB
:1002A00098470848084AA3690021121A984703F0A2
:1002B00077FDFEE7B4200D40400000208A020020B8
:1002C000701C21009002002024350020F0B51E4D46
:1002D0008DB06C4694461F460FCD0FC40FCD0FC492
:1002E00095E80F00BCF1020F129E84E80F0027D1A1
:1002F00000241FB3250100AB2B445B689E421AD13A
:1003000038465DF8051032460CF0EAFC98B90CABA3
:100310001D4455F8244C149BA34204D20B4805F00D
:10032000DBF80B480DE0139855F8281C22460CF01A
:100330000BFD204605E00134032CDBD1054800E02D
:1003400000200DB0F0BD00BFECEB2000DC0321006D
:10035000B0FDFFFFCDFDFFFF2DE9F843046B98468C
:100360000F4691468D1CA64601F112032868696864
:10037000764603C608359D42B646F7D17B8A0F48BC
:10038000638205F0A9F8204608F0FAFF608A0DF0B4
:1003900057FD01460A4805F09FF820464946424667
:1003A00009F020F82046002110220CF0A9FD0023BE
:1003B000A374E3744046BDE8F88300BFF503210051
:1003C000FE03210010B5038804463BB140F2311012
:1003D00083420AD000232380032010BD00F09EFC3E
:1003E00040F231132380012010BD044B1B788B4257
:1003F000F9D1104600F02AFCF2E700BF1A350020C0
:100400002DE9F8430024074625467B195B7817F849
:10041000059003EB09291FFA89F9B9F1000F11D1F1
:10042000002C14DB01D001342FE01A4E1A48346836
:100430001A4A2044C4F580710DF04BFB2044306013
:10044000012422E0002CC8BF4FF0FF340EDC6DB158
:10045000DFF840801048D8F80060114A3044C6F5F3
:1004600080710DF036FB3044C8F80000DFF82480BE
:100470000948D8F800600B4A3044C6F580714B46F5
:100480000DF027FB3044C8F800000235102DBCD118
:10049000BDE8F883F005002051210020030421006D
:1004A00004042100060421002DE9F041838D044657
:1004B000B3F5D27F6CD00CD8B3F5B67F18D0B3F5B6
:1004C000CF7F4AD0002B40F0DA804FF4B67383859B
:1004D0000EE0B3F5EF7F00F0BA8040F2DF129342F6
:1004E00000F0C48040F2CB12934240F0C8808DE00F
:1004F00004F12C006449332208F090FF012802D84F
:100500000020BDE8F081614961480CF043FD614B7A
:100510000E221A60604B18680AF08EF95F4B186063
:1005200006E05E4D5C4B296818680EF0D3F9286030
:100530005A4B584D1868564FF0B1FFF761FF2E68BF
:10054000574AB819C6F580710DF0C3FA3044D32864
:100550002860E6D94FF4CF73A3854D480CF078FDA1
:100560004B49024604F12C0008F058FF0128C7D976
:10057000484B00221A60D4E72E684A4AB819C6F5DB
:1005800080710DF0A6FA4FF4D27330442860A38531
:100590003F480CF05DFD3E49024604F12C0008F096
:1005A0003DFF0128ACD93B4B00221A6006F078F9D8
:1005B0003D4B18603C4E374D3068354F00283AD0DF
:1005C0000830FFF71DFFD5F800803368C8F580714B
:1005D000364A93F8243007EB08000DF07AFA4044CD
:1005E0002860306806F04EF9FFF70AFFD5F8008062
:1005F000336807EB08009B69C8F580712C4A0DF041
:1006000068FA40F2CB1340442860A38520480CF0E0
:100610001FFD1F49024604F12C0008F0FFFE0128CF
:100620007FF66EAF204D1B4B002228681A600DF03C
:10063000DCFB2860BEE72E681E4AB819C6F580713B
:100640000DF047FA4FF4EF7330442860A38510484B
:100650000CF0FEFC0E49024604F12C0008F0DEFE10
:1006600001287FF64DAF40F2DF13A38504F12C0083
:1006700011490F2208F0D2FE01287FF641AF002376
:10068000A3850320BDE8F081090421003D04210079
:1006900051210020F00500208C010020F4050020ED
:1006A000721521004C042100E80500205E042100A1
:1006B00068042100700421007704210010B50C4863
:1006C0000DF0A0F900200146024608F09DFF094CFC
:1006D0004FF64E4303822060062003F0E7FA2068BD
:1006E00002F0A8FA044B186008B1044B436310BD34
:1006F00087042100F8050020EC05002040000020C0
:1007000000487047A9042000074B3F2210B51A701B
:10071000064C50225A700223238004F04FFE044AF4
:1007200000232380137010BD4C2B0020382B002099
:10073000B8280020F0B5048840F22B26B44287B0D8
:1007400005461CD0B4F50B7F0ED2A4B9464B20460B
:100750001C70464B5B699847454B852118682246BB
:1007600005F0D2FC2E807BE0B4F50F7F12D040F272
:100770005A239C4249D000232B80032071E0852915
:100780006ED13C4B01219B68812098473A480DF07F
:1007900039F904E039480DF0DAF9002860D0324B1D
:1007A0001B7843B9354880210DF0B6F9FFF7ACFF4F
:1007B0004FF40F7353E02D4B01205B69984730488D
:1007C0000DF020F92F4C04F1600614F8022C237C64
:1007D00052B1012B08D8202004F0D0FC204608F0AC
:1007E000CFFD0A2004F0CAFC2034B442EDD10CF055
:1007F00062FDFFF763FF244B1C68002C2DD12348BA
:100800000DF000F92C8002202BE0214B1B788B424D
:1008100023D11D4B1E681F4B1B789B071DD51E4CFB
:100820000DF1020204F11007234603CBBB42106016
:1008300051601C4602F10802F6D1184B06A91B8D27
:100840003046ADF81230122301F8183D144B6946BA
:100850001A68144B1B8801F0B3FE40F25A232B8018
:10086000012007B0F0BD00BF502100208803210007
:10087000CC0A0020EC0121009B042100FC05002093
:10088000B5042100E6290020EC050020CC0421005D
:100890001A35002060300020542B00204C2B002003
:1008A0006C300020382B002030B5174A85B0034645
:1008B00000F1100553F8041BAB4242F8041BF9D1B8
:1008C00003466C4618685968224603C20833AB4297
:1008D0001446F7D10D4B012468460D491C700DF0EC
:1008E00060FA00216846224605F008FE1E2069468F
:1008F00009F0ACF930B1044940220DF00FFB054876
:100900000DF080F805B030BD341E002050210020CD
:10091000442B0020E204210008B54FF4E13004F03C
:1009200085FC0448002105F01BFCBDE80840024896
:1009300004F03EBD100100203D09200030B52D4CD3
:1009400085B02378212B21D161782B4804F0C4FD98
:100950002A4B002119802A4B19706378502B39D10A
:10096000102268460CF0CCFA54F8020F6B4661680E
:1009700003C3244804F0B0FD684608F001FD0A20D6
:1009800004F0FCFB6846FFF78FFF23E03F2B21D1EB
:100990001D48617804F0A0FD63784D2B15D121230B
:1009A00023700023194A0234995C194A080901F09E
:1009B0000F01805C01338A5C082B20706270F1D1DA
:1009C0000E4B12221A8004F0F9FC0C4A002313800B
:1009D0000B4A13700F4C104A04F11005234603CB49
:1009E000AB42106051601C4602F10802F6D105B01E
:1009F00030BD00BF4C2B002041052100382B0020CA
:100A0000B82800206705210077052100442B00202D
:100A100097052100542B0020441E002008B50D48E6
:100A20000D4910220CF05CF980B90C4804F054FD1B
:100A3000094808F0A5FC0A4804F04EFD094808F0F2
:100A40009FFCBDE808400A2004F098BBBDE80840C0
:100A500004F0B4BC441E0020542B0020A805210043
:100A6000DC052100642B002038B5038904469E2B49
:100A70000AD004D8002B50D19E23038104E0A32B7D
:100A80001BD0BA2B41D048E004F10800202108F027
:100A900025FD012801D8002038BD04F1520021496C
:100AA00004220CF003FB30B11F4B10221A700023FC
:100AB0002381022038BDA323238104F108052846A1
:100AC000202108F00BFD0128E5D994F852302F2B96
:100AD000EAD194F85330202B04D1144B1B88A4F88E
:100AE0006C300DE028460DF0C3F90023204480F857
:100AF000513004F1520104F16C0002220CF030FB81
:100B0000012384F87430BA23238104F108000A21F8
:100B100008F0E4FC0128F6D8BDE700232381032078
:100B200038BD00BF2507210060300020E20521000C
:100B300038B5838D0446632B0D4604D0762B11D037
:100B4000C3B96323838528460CF082FA29460246FE
:100B500004F12C0008F062FC012801D8002038BD07
:100B60007623A38504F12C0004491B2208F056FCCF
:100B70000128F3D90023A385032038BDA106210055
:100B800010B5B0F850300446882B21D003D83BB1C3
:100B9000862B12D04AE08E2B35D08F2B3CD045E0EF
:100BA00003676D30FFF7ACFD206748BB224B1B8805
:100BB000A4F86C308623A4F8503020461F49FFF774
:100BC000B7FF012801D8002010BD8823A4F85030B9
:100BD000A38D13B1562B02D009E05623A38504F14F
:100BE0002C001749582208F019FC0128EBD9154AA6
:100BF00000231021A3851170A4F85030022010BDED
:100C00008E23A4F8503020460F49FFF791FF0128AA
:100C1000D9D98F23A4F85030236F20469847012854
:100C2000D1D900232367074B10221A700023A4F8A0
:100C30005030032010BD00BFBD062100EE0521008D
:100C4000CC062100603000204B0621002DE9F04148
:100C50002F4E04463378B04613F0300501D11A0602
:100C600009D5002C51D00023236721462948BDE82F
:100C7000F0410DF011B803F0400202F0FF073AB363
:100C800024480CF0F5FF044620B9202388F80030F2
:100C9000BDE8F081204B2146186804F1520608F0A7
:100CA000ABFC04F10800314619220DF0E6F804F11E
:100CB0002C00314619220DF0E0F8A4F850502567B9
:100CC00084F8745020464FF4A0610CF051FF10E0FE
:100CD0000028DAD01B070AD50CF05CFF48B12023AE
:100CE000276721460B4833700CF0D6FF01E00CF06B
:100CF0004BFF2046FFF7B8FE94F87430012B04D167
:100D00002046BDE8F041FFF73BBFBDE8F08100BFE2
:100D100060300020700000207030002008B54FF4D3
:100D2000A04008F04BFCBDE8084001480CF090BF23
:100D30007000002008B503785A1C8A4208BF1B18AF
:100D400001D0074808E0984205D010F8012F022A88
:100D5000F9D1002008BD03480CF054FE024808BD3C
:100D60004907210098072100D8FDFFFF10B5044670
:100D700020B907484FF4886105F00CFB05480CF0DA
:100D800041FEA06ABDE81040503002F06DBC00BFCB
:100D9000BC072100DC072100012A2DE9F843804629
:100DA0001E4602D80020BDE8F883951E4B780A78CD
:100DB00043EA02239D4262D38C1C002DF2D0032D06
:100DC0005DD963782178A5F1040943EA0121A5786A
:100DD000E378271D43EA0525A94550D3A1F10A036D
:100DE0000C2B45D8DFE803F0072D44444444444429
:100DF00044202044400022796379A11D43EA022364
:100E00009A1CAA4201D022482BE00022981A0028FE
:100E100008DD88188C5C4078023240EA04201728EC
:100E2000F4D128E01B481CE02EB92379022B22D0F4
:100E30001948BDE8F88338462946FFF77BFFD0B153
:100E40001FE02379621D591CA94201D0134808E014
:100E500013449A4204D012F8011B0029F9D10AE088
:100E60000F480CF0CFFD0AE00E480CF0CBFD02E07D
:100E70000D4804F031FB7C19C5EB09059DE7002EF8
:100E8000D6D098F800300C2BD2D10848BDE8F883B2
:100E9000E607210033082100D8FDFFFF5508210097
:100EA000A3082100C6082100E90821009CFEFFFFDD
:100EB0002DE9F04F91B0DDF874900793D9F8003028
:100EC00082460C2B0F461C9E04D819467D4804F020
:100ED00003FB70E0FE237370FD233270B37006F1E4
:100EE0000308F9B18B8806F10B0B1A0AF270337103
:100EF000D1E90223100E40EA0320F071100C40EA01
:100F000003403072100A1C0A40EA03607471B37126
:100F10007072B272D1E90223013243F10003C1E9D8
:100F2000022305E0404608220BF0EAFF06F10B0B16
:100F30001A9D00238BF800308BF801300BF102046E
:100F4000043D0FB17B88DBB94FF0000847461B9B7F
:100F5000984500F0AC806A6807F10D01D9F80030BF
:100F600011448B4224D3079B204653F828100BF0E2
:100F7000EBFE55F8043F08F101081C441F44E6E766
:100F80004CF2A80293420CBF4F4850480CF03AFD77
:100F9000D8F800300BF10A0B2360D8F80430CDF8F4
:100FA00018B06360DC462B464FF0000B08251DE0AF
:100FB00047480CF027FD474881E0D3F804E005F1ED
:100FC0000D00D9F8001070448142F1D3079A6046B1
:100FD00052F82B10724605930BF0B6FE059B844623
:100FE00053F8042F0BF1010B944415441B9A9345BD
:100FF000E3D10CA8002110220BF082FF9AF80030F8
:1010000013B907F1300301E007F134031868616890
:101010000C9020684FF0000B0DAB03C30CAA1023FB
:10102000CDF800B006202C4902F060FE9AF80020AE
:101030005B4612B907F1100201E007F120020093AC
:1010400006202649102302F051FED8F80000D8F8F7
:10105000041008AA134603C33188B378ADF82810EA
:10106000A5F108018DF82A308BB2180A8DF82C30C2
:101070009AF800308DF82B000BB9103700E02037BC
:101080001023069801930D230292039300970246C2
:101090000CAB01F0EDFE002811DB00F10807002386
:1010A000009306200E4922463B4602F01FFEC7F37E
:1010B000072337730D37F3720020C9F8007011B0A1
:1010C000BDE8F08F08092100590921009909210084
:1010D0002E092100B0FDFFFFCD092100D409210018
:1010E000D90921002DE9F04F9B46A3B06423079353
:1010F0002E9B9DF8B07000932F9B2D9E019309AC01
:1011000007AB039305468A4601F11C009146114640
:1011100002943A463346FFF7CBFE0028C0F2958092
:10112000012300932246062049490D2302F0DEFDEB
:101130000024DDF8B8C0A0462F9B984513D00122AB
:10114000DCF80030009256F8282006204149CDF8FE
:1011500014C002F0CBFDDDF814C008F101085CF802
:10116000043B1C44E8E7162F04D133681B78032B9B
:1011700002D159E0142F57D1204602F0F7FC8046E7
:1011800000284ED008A80CF0B4FB089B4FF48072E6
:1011900003F58073C8F80430002388F81330C8F8CA
:1011A0000820C8F80CA0B9F1000F02D0B9F804204B
:1011B00000E01A46DDF8B89088F81270A8F8102000
:1011C000C8F8143000272F9B9F4212D0D8F8140083
:1011D00056F827101830D9F8002040440BF0B4FD21
:1011E000D8F8143059F8042B01371344C8F81430D8
:1011F000E9E7E86A414602F08DFC30B916480CF088
:1012000001FC404602F0C6FC0EE0144E144B376859
:1012100005F11800D8F8081033600CF07DFC376039
:1012200002E010480CF0EEFB6B6B63B11E6856B128
:101230002846594609AA079BB047002805DD079BA9
:10124000E41A204401E04FF0FF3023B0BDE8F08FF6
:10125000E2092100EE092100FF092100CC0A00204B
:101260007C000020260A21002DE9F0430C46A3B0A3
:101270000646002875D0002973D0CB7C062B6AD88F
:10128000CA6864230593156A4B6901F1180907932D
:10129000CDF818900B8A15B1A988994205D0556AE6
:1012A0001DB1AA889A4218BF002508A80CF021FB9E
:1012B000E37CA2680133DBB2E37402FA03F3089A19
:1012C00021461A446260F06A02F024FCA37C162BCB
:1012D0000CD1069B24481B78142B96BF234A244923
:1012E00052F823101A4604F0F7F802E021480CF0F7
:1012F00089FBE06807AB00934FF0010805AB09AF2D
:1013000003932946A27CCDF8048002971C3006ABDB
:10131000FFF7CEFD011E03DA174804F0DDF820E0E8
:10132000062016493A460D23CDF8008002F0DEFC77
:101330006369CDF80080062011494A4602F0D6FCC8
:10134000736B73B11D6865B1E168304604313A468C
:10135000059BA84705E00B480CF054FB204602F023
:1013600019FC23B0BDE8F083450A210034EC2000CD
:101370003D0A2100760A21008B0A2100AF0A2100D4
:10138000C10A2100D80A2100F8B5038806463BB1FE
:1013900040F6927293420BD0002303800320F8BDE5
:1013A0001A480CF02FFB40F6927333800120F8BDF1
:1013B0008829F8D1164C04F118000CF0C8FB00285D
:1013C000F1D0E06A0CF0F7FB054602F07DFF07461E
:1013D000B5B16B6883420BD8E06A0CF0F5FB0146AF
:1013E0002046FFF741FFE06A0CF0E5FB054638B107
:1013F00069680848B9428CBFC7EB0101012102E0CE
:1014000004484FF6FF710CF087FBCCE7EF0A210090
:10141000FC0600201407002073B500230D46144677
:10142000064600932A4606200649234602F05EFC43
:10143000306829465030224602B0BDE8704002F0C4
:101440000BBA00BF100B21002DE9F04F8046506A07
:1014500095B00C461546994608B101F001FD01F022
:10146000E7FC6862002800F0DA802B6A9B88013371
:1014700083806E6A002E00F0D280B4F8BA204CF25D
:10148000A8039A4240F0C880D8F83430ABB1D3F802
:101490000CC0BCF1000F10D0B4F8BE3008AD20274E
:1014A00000934946019502974046022204F1C00389
:1014B000E047B0F1000907DA01E04FF0FF395A4880
:1014C0000CF0A0FA4846ABE006F110084946424647
:1014D000282328460CF053F8012383460093062066
:1014E00052492A464B4602F001FC284600213A4662
:1014F0000BF006FDBBF1000F01DA4D488DE04FF017
:1015000000093B4606204B492246CDF8009002F0E8
:10151000EDFB04F120031A46062047490793CDF856
:1015200000903B4602F0E2FB0620444942465B46FF
:10153000CDF8009002F0DAFB079B4FF0300A8DE8FF
:1015400090000293039759463D4A0D230495CDF828
:1015500014A040460BF0F1FF06203A492A465346B4
:10156000CDF8009002F0C2FB079B03978DE888003E
:1015700028230593344A0294CDF81080284651461A
:101580000D230BF0DAFF14AF22462B4603CBBB42F0
:10159000106051601D4602F10802F6D10025282195
:1015A0002A4803F099FF0620294942462B46009518
:1015B00002F09CFB0620274942462B46009502F08C
:1015C00095FB0620244942461023009502F08EFB2D
:1015D0000620224906F120021023009502F086FB26
:1015E00006201F4906F130020423009502F07EFB1D
:1015F000062006F13402042300951A4902F076FB16
:10160000B4F8BA300022738094F8B83028463370AA
:101610000023C6E9022303E013480CF0F3F9134852
:1016200015B0BDE8F08F00BF1D0B21003E0B21005F
:10163000420B2100720B2100800B21008E0B210038
:1016400031072100920B2100AB182100A00B2100D3
:10165000B70B2100CB0B2100DF0B2100F20B210087
:10166000050C2100110C21001D0C2100B0FDFFFF15
:101670002DE9F04F8DB0834692461E46169F179D6A
:101680000C4611B1D1F8208000E08846C5F3074E22
:10169000C5F30720E9B28DF824608DF825E08DF8B8
:1016A00026008DF827106CB1A36A5BB1B3F848200F
:1016B0004FEA122C8DF8292001328DF828C0A3F8AA
:1016C000482002E00023ADF8283000238DF82A30AE
:1016D0008DF82B308DF82C30189B8DF82DE08DF87F
:1016E0002E008DF82F100DF124092BB104F12800E4
:1016F00049460C22FFF790FE0C23CDF81490079377
:101700005FB1189B2BB104F1280039462A46FFF738
:1017100083FE08950697022500E00125142E96BF4A
:101720000B4B0C4953F8261032460B4803F0D4FEFD
:101730001623009305AB019307AB0293039558461C
:10174000214642465346FFF7CDFC0DB0BDE8F08F71
:1017500034EC20003D0A2100410C21002DE9F04726
:101760008846A0B092461C468E6A074620B1456B5B
:101770002DB1ED682DB902E00546814604E0A94689
:1017800002E001254FF00209FE2309F102098DF85C
:101790001830202C4FF0FD035FFA89F98DF81930CD
:1017A00004D92F480CF02EF92E4856E07CB905A834
:1017B0000CF09FF8059B301DD90FDA093170D90D57
:1017C000DB0B7170B370F2701C210BF01AFD0DF180
:1017D0001A0306F1200256F8041B964243F8041B34
:1017E000F9D100238DF83A308DF83B403CB10FA879
:1017F000514622460BF0A8FA0FAB234400E00FAB92
:101800000022A9F102091A7083F801900DB9023380
:1018100004E0C0229A70A822DA70043301221A7000
:1018200000225A7006AE02339D1B682D04D90E4863
:1018300040F6911104F0AEFD14B14046FFF796FA60
:10184000003418BF012400960195029438464146A1
:1018500008F104020123FFF70BFF20B0BDE8F08779
:10186000690C2100D8FDFFFFBC0721002DE9F047DE
:101870008146C4B090461AA80C228A4649461C46A6
:101880004C9F01F06DFB1AA808F1020198F80020A6
:1018900001F052FB94F82E6006F123052F36BE426C
:1018A00001D9514D9BE004F10C012A461AA801F020
:1018B00043FBA35D1D4405F10D01B942F1D8A27AA5
:1018C000637A120242EA0342E37A1AA81A43013AFF
:1018D0002144521B01F030FB1AA80AA901F098FB21
:1018E0000F28064608D80DF1170030440021C6F134
:1018F00010020BF005FB00E010260AA932460DF19C
:10190000170000250BF020FA0095062037490DF14D
:101910001702334602F0EAF9102E04D034484FF48F
:10192000C36104F037FD2E2F23D9637B227B43EA6A
:10193000022212B26FF481739A421AD194F82E10D7
:101940002E3F4B1C9F4204F12E0212D3D45C7F1A0F
:10195000D618013F631C9F420BD30023013600932E
:10196000062024493246234602F0C0F9102C0FD13C
:1019700004E00021204803F0AFFD30E030460DF1D7
:10198000170122460BF0ACF9054610B91B4824E0BC
:1019900044B100230093062019493246234602F041
:1019A000A5F902E017480CF02DF8FE238DF814304D
:1019B000FD238DF8153010238DF8163005AB0093FC
:1019C00013230193002302934846514642460323C2
:1019D000FFF74EFE051E02DA0B480CF013F82846FE
:1019E00044B0BDE8F08700BFD8FDFFFF800C2100A8
:1019F000BC0721008E0C2100A20C2100CC0C210080
:101A0000E20C2100F10C2100020D21002DE9F04132
:101A10000E46896AB4B00AAC074690461AA86822F6
:101A200050310BF091F920461AA901F073FF134BC6
:101A30000C250093092301930294202307AC039300
:101A4000424604940595B06A302106230BF075FDDB
:101A50000023009322462B460620094902F046F94E
:101A6000012302938DE8300038463146321D14239D
:101A7000FFF7FEFD34B0BDE8F08100BF3F07210055
:101A8000220D21002DE9F04FB5B0824614461D46C7
:101A90009DF8F8803F9FDDF800910E4611B12C3083
:101AA0000BF0E9FB3A78B848142A96BFB74BB8490F
:101AB00053F8221003F010FD3978142900F2D9846C
:101AC000DFE811F0AB04BC022D001500D704D704E9
:101AD000D704D704D704D704D704D7048D009D01B9
:101AE000CD00D7048F02D704D704D704FF01B8F183
:101AF000080F40F0CB84B9F10E0F40F2D684504667
:101B0000314607F10F02BB7BFFF728FEB0F100085A
:101B100080F2B3849F480BF075FF00F0C8BCB8F1A9
:101B2000080F40F0B384B9F1170FD6F8288040F2BF
:101B3000C4844A4606F128003946FFF76DFC7B7BDA
:101B40003A7B43EA022212B26FF481739A4205D0C3
:101B500091480BF057FFDFF87C823DE007F10E045F
:101B600008F1200307F12E0254F8041B944243F8B5
:101B7000041BF9D197F82EB0A9F12E030BF1010740
:101B8000BB42C0F09A84E519E15D6B78504643EAA8
:101B90000121A8F8BA100BF052FB28B9E15D6A7870
:101BA0007E4803F099FC05E0AB7833B17C481946D8
:101BB00003F092FCDFF820820EE0A9F1320206F178
:101BC0001D00E91CCBEB0202FFF7E6F8B0F10008BC
:101BD000A8BF0B2380F24B84724800F069BCB46A42
:101BE0004CF2A803B4F8BA509D4235D1B8F10B0FAE
:101BF00040F04C8406F1280039464A46FFF70CFCB9
:101C0000B4F8BA30AB4204D0674840F6882104F0FB
:101C1000C1FBB9F10D0F01D864480AE03A7B7B7B28
:101C2000A9F10E0943EA02224A4507F10E0105D047
:101C30005F480BF0E7FE5F4C00F043BC202A05D95B
:101C40005D480BF0DFFE5D4C00F03BBCA4F8BE200D
:101C500004F1C0000BF078F80B2300F042BCB8F19F
:101C60000B0F40F01384304650F8283F4A4639465F
:101C70000993FFF7D1FBB46A4CF2A803B4F8BA2079
:101C80009A424FD1DAF83430DBB1D3F80C80B8F196
:101C9000000F16D0B4F8BE3006F10409009304F129
:101CA000C00520230DF16A0702930197504649466B
:101CB00001222B46C047B0F100080DF1680B06DA8F
:101CC00001E04FF0FF383E480BF09CFE3CE008F18D
:101CD0000203422B07D904F1BE00002122220BF09F
:101CE0000FF938481FE039464246A4F8BE8028461E
:101CF0000BF02AF8B4F8BE203846130A29468DF8AE
:101D000068308DF869200BF01FF8B4F8BE301F441E
:101D1000CBEB0707422F0BD9234840F6B90104F05B
:101D200039FB05E028480BF06DFEDFF890800EE0EF
:101D300001230293CDF800B00197504631464A4640
:101D40001023FFF795FC8046B8F1000F01DA1F4819
:101D500016E0504609993246331DFFF775FBB0F186
:101D600000084ADB012234AB03F8682D504600928C
:101D7000314614220BF06EFAB0F100082EDA144846
:101D80000BF040FE39E000BF360D210034EC20009E
:101D90003D0A2100600D2100780D21008D0D2100EC
:101DA000AF0D2100D60D2100BC072100FB0D210045
:101DB000290E2100CEFDFFFF590E2100B0FDFFFFCF
:101DC000830E21009D0E2100BA0E2100CF0E2100AE
:101DD000EF0E2100BAFDFFFFB9FDFFFF726A336A03
:101DE0005046736232623146A74AFFF70FFEB0F1E8
:101DF0000008A8BF052380F23A83A44858E3B8F14D
:101E00000B0F40F0438306F1280039464A46FFF79E
:101E100003FB9F4840F6B12104F0BCFAB9F1100F62
:101E200001D89C4826E03B7B07F10D015A1C4A452E
:101E300003D80C37F818002208E097481AE017F882
:101E4000014F402C02D1002A08BF40228742F6D120
:101E5000402A01EB030001D0904826E0CC5C437897
:101E600043EA0424631C4B4503D800220346114671
:101E700009E08B480BF0C6FD8A4C24E39F78DD789F
:101E8000042F04D0023305199D42F7D108E0002A3F
:101E9000F8D1032DF6D10029F4D13A462946F1E7CD
:101EA000042A01D1032904D07F480BF0ABFD7F4CFD
:101EB00009E3B36A93F8BC2042F0010283F8BC2026
:101EC00010E3B8F1060F40F0E182B9F1170F02D824
:101ED000764C7748FAE2B36A1AAC03F1500B5946D4
:101EE000682220460AF030FF0DF1280C6046594662
:101EF000CDF818C001F00EFDB06A214668225030BE
:101F00000AF022FF6B4B96F81CE000930923DDF8E2
:101F100018C0019320234FF00C0B03935A4A664BD1
:101F2000CDF808C00494CDF814B0BEF1000F08BF7E
:101F30001A4630214346B06A0BF0FFFA00234046B0
:101F400000935E4907EB0B025B4601F0CFFE0023D6
:101F5000009340465B465A49224601F0C7FE4FF0C7
:101F60000008012307EB0802117B14F8082008F190
:101F70000108914214BF002303F00103B8F10C0FD4
:101F8000F0D1002BA4D0012D1FD106F12800394635
:101F90004A46FFF741FA234600955046314614223F
:101FA0008DF868500BF056F9041E01DA45482FE20F
:101FB000726A336A50463262736231463E4AFFF7B4
:101FC00025FD041E02DA404822E20024B06A00F037
:101FD0001FFF0023B3623D480BF014FD0C23737701
:101FE00083E2B8F1030F40F05182B06A4CF2A803CB
:101FF000B0F8BA209A4240F06D82B9F10D0F01D8C5
:1020000033480AE07B7B3A7B07F10E0143EA022268
:1020100002F10E034B4504D02E480BF0F3FC234C89
:1020200053E2202A04DD2C480BF0ECFC2B4C4CE254
:10203000A0F8BE20C0300AF087FE4BE216B1B8F11E
:102040000C0F01E0B8F1010F40F02082CDF80090B4
:102050005046314622463B46FFF708FCB0F10008E7
:1020600001DA1F4824E203D01E480BF0CBFC04E247
:10207000002E47D1204601F0C9FD0646B0BB1A48E4
:102080000BF0C0FC44E000BFA4182100070F2100A2
:10209000BC072100FB0D2100300F2100530F210050
:1020A000890F2100CEFDFFFFBB0F2100D8FDFFFFF0
:1020B000EC0F21003F0721002A072100E60F210035
:1020C000E90F2100EF0E21000D1021002C1021003E
:1020D0003F1021006410210084102100B0FDFFFF9B
:1020E000A9102100CC102100E91021000123037761
:1020F000036A01240025C3E902453146DAF81400D9
:102100000BF07CFDB46ACCB900F064FEB06208B993
:10211000AE4CEAE100F140034364B36A1C64B36A65
:10212000586C0BF045FD39797A79B36A42EA01229D
:10213000A3F84A20B36A0122A3F848203046FEF7EC
:1021400015FEB46A356A24B9A1484FF4637104F0EE
:1021500021F9B9F12E0F04D89D4840F28D3104F0D9
:1021600019F907F10E03224607F12E0153F8040B6B
:102170008B4242F8040BF9D197F82E10A9F12E0CDE
:102180004A1C94456BD398189B5CC1EB0C0C0CF16A
:10219000FF3C591C8C4562D3C3EB0C0C43185A7896
:1021A000415C0CF1FF3C42EA0122911C8C4507D2B4
:1021B000002D54D06B88002B51D0A4F8BA302BE0FE
:1021C0009346023300209E46BBF1000F06D1E8B9CA
:1021D000A4F8BA007F480BF015FC40E00233A8B920
:1021E00013F8020C13F8011CABF1020B41EA0021B9
:1021F000A4F8BA10504608920793CDF818C00BF017
:102200001EF8DDF818C0079B089ADCE7ACF1020C59
:10221000BCEB020207D11DB12B7884F8B83027E05F
:1022200084F8B85024E01EF80B000EEB0B01431CA1
:102230009A4214D301310D180023A9428E460CD0C6
:10224000002B00F02781121A013A06F11D0001232C
:10225000FEF7A2FD041E0BDA08E0002BF3D1747F19
:102260005D4B5E4A0C2C0CBF14461C465C48CFE00C
:1022700039464A4606F12800FFF7CEF80AAFFE239A
:10228000B46A38468DF86830FD238DF869300BF05C
:1022900030FB0A9B04F12400D90FDA0984F82010DE
:1022A000D90DDB0B84F8211084F8223084F8232028
:1022B0001C210AF0A6FF04F120030DF16A0203F1CC
:1022C000200153F8040B8B4242F8040BF9D1002291
:1022D0008DF88A20B4F8BA304BB1190A8DF88B10FA
:1022E0008DF88C308DF88D200DF18E0401E00DF10C
:1022F0008B040DF16809C9EB0404402C04D934485F
:102300004FF4E46104F046F80123351D0194029373
:10231000CDF80090504631462A460223FFF7A8F92F
:10232000041E01DA2F4873E0B36AB3F8BA204CF206
:10233000A8039A425ED1DAF8343083B1DC6874B114
:102340004FF0000B20230293CDF800B001975046C8
:1023500029465A465B46A047041E04DA01E04FF0C6
:10236000FF34214854E045D0202C09D9184840F2C8
:10237000CD7104F00FF81D480BF044FB134C22E024
:1023800022460DF16A0039468DF869408DF868B033
:102390000AF0DAFC0DF16A031C44C9EB0404222C98
:1023A00004D90B4840F2DA7103F0F4FF01230194E1
:1023B0000293CDF80090504631462A460C23FFF791
:1023C00057F9041E16DA0A4822E000BFB0FDFFFFED
:1023D000BC072100FC102100D8FDFFFF9CFEFFFF81
:1023E00015112100381121006D112100A0112100CB
:1023F000BE11210000230093019301230293504654
:1024000031462A460E23FFF733F9041E03DA394812
:102410000BF0F8FA69E0032329E0B8F10C0F37D18B
:10242000B6B1B46AA4B900F0D5FCB06200283FF49C
:102430006FAE00F140034364B36A1C64B36A586C26
:102440000BF0B6FBB36AA3F84A40B36AA3F848405E
:102450000022134650463146FFF780F9B0F10008DC
:10246000A8BF082303DA24480BF0CCFA23E07377E3
:1024700004E0224803F030F808E0E6B1B36AD3B1D3
:10248000B3F84A200132A3F84A2014E01C4C2CE097
:1024900000242AE09EF800E00131BEF1000F7FF435
:1024A000CCAE84F8B8300123C7E6DFF86880154861
:1024B000414603F011F8444617E0DFF85880FFF773
:1024C0008BBB114802E0114800E01148214603F09F
:1024D00003F80AE006F1280039464A46FEF79CFF59
:1024E000052373774FF00008C8E7204635B0BDE8F4
:1024F000F08F00BF03122100600D21003C1221006B
:10250000F6FDFFFF5212210086122100B2122100B7
:10251000DE122100CEFDFFFF70B54B7F05460D3B5F
:10252000012B0C46164602D904310AF019FF46B1B8
:10253000686921460BF04EFB06200449221D01F07C
:10254000BBFB2046BDE8704001F04CBB09132100E5
:1025500030B585B005460AF0B9FE044610B94FF013
:10256000FF3028E0437F0C2BF9D100F033FCA06250
:102570000028F4D00023A0F84A30A26AA2F848301C
:10258000227F72B9284621461346FFF7E7F8051E59
:1025900003DA0A480BF036FA01E00823637728468D
:1025A00009E0012ADBD100930193029328462146DA
:1025B000221DFFF75DF805B030BD00BF600D2100A2
:1025C0002DE9F04F91B006468946174607930AF069
:1025D0007DFE044640B9AD480BF014FA0620AC4924
:1025E0004A4601F069FB16E0AA480BF00BFA12E02C
:1025F000B8F1000F00F003832B78012B40F0FF822D
:10260000237F012B00F0258106236377069B079922
:102610001F44C91A0791079A0C2A0FD97B78FE2B01
:102620000CD1BB78FD2B09D1FA7A3B7B43EA02231C
:10263000079A03F10D019142069101D90025EDE2BF
:10264000BB461BF80D1B9448069A059302F044FF05
:10265000059B002C00F0C980F9783A79D4F820A0C5
:1026600042EA0121BAF1000F03D0BAF804208A42ED
:102670000AD0D4F824A0BAF1000F05D0BAF804208B
:102680008A4218BF4FF0000A5D469846BAF1000F23
:1026900003D1824802F020FF8DE0BAF80220002A20
:1026A00000F09E800F2B40F38680002110220CA8A2
:1026B00005930AF025FC227FDBF80410012A0CBFE9
:1026C0000AF130020AF134021068059B0C90DBF825
:1026D00000000DAA4FF0000B03C2A3F108080CAADA
:1026E00006206F491023CDF800B001F0FFFA237FD8
:1026F00007F11505012B0CBF0AF110020AF12002A7
:10270000062068491023CDF800B001F0EFFA4346E7
:10271000062065492A46CDF800B001F0E7FA3A46AE
:1027200052F8030F0DF1200E5168734603C3BB78B6
:102730003A888DF82A30A8F108039BB2ADF828201A
:102740008DF82C301A0A237F8DF82B20012B0CBF1B
:102750000AF110030AF120030093102301930D23C3
:1027600003934146CDF808E028462A460CAB00F01A
:10277000B1FBB0F1000803DA4C480BF043F917E065
:102780004B48414602F0A8FE236A606A43B138B163
:102790009A8883889A4203D300F062FB0023636225
:1027A00000230093062043492A46434601F09EFA3F
:1027B000B8F1000F14DA40480BF024F9637F0B2BBB
:1027C00000F21B822146221D30463C4B0AF090FD50
:1027D0000E236377304621460122FFF79DFE0CE26F
:1027E00094F81CA094F81DB004E05D464FF0010B76
:1027F0009846DA464FF0010CCDF800C0062030496B
:102800003A460D23CDF814C001F070FADDF814C07B
:102810002C494346CDF800C006202A4601F066FA4E
:102820003978A1F11403032B00F2E381DFE813F000
:1028300004001B00AC00940124B106F12C002146D9
:102840000AF019FD637FA16A052B3FF4D1AE1E4843
:1028500019E030462246231DFEF7F6FD0028BFF69C
:10286000D3AE0546CCE124B106F12C0021460AF096
:1028700002FDB8F1010F7DD9144829786A7802F079
:102880002BFE3CBB12480BF0BDF8BFE6161321002F
:102890003A13210044132100411721006413210041
:1028A000871321005A1921008D132100981321004C
:1028B000AA132100D6132100E0132100CDFDFFFF54
:1028C000F8132100071421001B14210046142100D5
:1028D0006A1421002B786978022B00D0B1B9A34883
:1028E00002F0FAFD214670690BF074F9A04802F07D
:1028F000F3FDA01D06F044FDE08A0BF0A1FA0146AD
:102900009C4802F0E9FD4FF0010801E04FF000089B
:10291000736B4BB1D3F808C0BCF1000F04D0304644
:10292000211D2A786B78E0476B789BB9627F0D2A6E
:102930000ED00D22627702228DF830208DF83130D2
:1029400000923046214615220CAB0AF083FC01E0D0
:102950000E236377B8F1000F3FF458AE06F12C0058
:1029600021460AF088FC304621460022FFF7D4FDBC
:10297000012500E0804D81480BF044F8B5F1FF3FA0
:10298000A8BF4FF0FF3549E19CB1236AFA789988D6
:102990003B79BAF1010F43EA022204D1BBF1060FE1
:1029A00004BF013189B2914203D0754802F094FD11
:1029B0002CE6B8F10B0F04D872480BF023F86E4DDB
:1029C000A5E02A787048142A96BF704B704953F8D6
:1029D000221002F081FD0CB1A36ADBB92B78012B28
:1029E00007D024B96B480BF00DF86B4D8FE0012B2D
:1029F0000ED80195CDF800B0CDF8088030462146BC
:102A00004A465346FFF73EF8051E80F28A807EE074
:102A1000624840E029796A7942EA0122B3F84A1013
:102A20008A4203D25E4802F057FD7DE036D9B8F104
:102A3000640F01D95B482EE0586C0AF04DFF70B16D
:102A4000027F437F297943EA02236A7942EA01221D
:102A50009A4201D154481EE00AF042FFEFE7404697
:102A600001F084F8824608B9504814E0C460C0F808
:102A700014802946183042460AF066F9A36A514686
:102A8000586C01F047F828B949480AF0BBFF504696
:102A900001F080F847480AF0B5FF45E02DD1CDF8A8
:102AA00000B00195CDF80880304621464A4653468D
:102AB000FEF7E8FFB0F1000828DBA36A1BB3586CEF
:102AC0000AF00AFF0546F0B1A36A287F6A7FB3F8CF
:102AD0004A1042EA002291420BD1586C29460AF072
:102AE00003FF637F009305F1180301936B69029361
:102AF000DAE728460AF0F4FEE4E72F4840F67C5176
:102B000003F048FC10E0B8F1000F0DDA45462B4801
:102B10000AF078FF304621464A462B460AF0E8FB89
:102B20007CE0002C3FF472AD637F0C2B7FF46EAD24
:102B300006F12C0021460AF09EFB736B002B3FF43C
:102B400065AD9D68002D3FF461AD3046211D00222A
:102B50004FF4EF73A84759E519480AF053FF9CBB9F
:102B600018480AF04FFF4FF0FF3557E0B614210028
:102B7000CA142100D9142100CEFDFFFFDF1421006B
:102B8000091521002C1521004815210034EC2000E6
:102B90003D0A210074152100D8FDFFFFA415210076
:102BA000C8152100081621003316210068162100DF
:102BB00082162100A5162100BC072100C1162100A4
:102BC000E7162100FC16210006F12C0021460AF030
:102BD00052FB736B002B3FF419ADD3F804C0BCF16A
:102BE000000F3FF413AD3046211D2A464346E0470F
:102BF0000CE50C4802F070FC08E50B4D0EE00B4DA7
:102C00000B480AF0FFFE21464A4630462B460AF0A2
:102C10006FFB304621460122FFF77EFC284611B0AB
:102C2000BDE8F08F1D172100CDFDFFFFCEFDFFFF9A
:102C30005B172100F7B51C4C054601A80AF059FEA8
:102C40009C22002120460AF05BF9184E04F128006E
:102C50002563E062164D0AF0ABFF002304F110007B
:102C6000236160610AF0A4FF3046214603F078FA40
:102C70002F6804F118004FF6FF712E600AF04CFF28
:102C800020460C212F600AF0BCFA054618B1019BC2
:102C90002046E36006E007480AF0B4FE20460AF04A
:102CA0007AFB284603B0F0BDFC0600207C00002023
:102CB000CC0A00208917210070B506460C4691B950
:102CC000204840F6F56103F065FB09E00025257713
:102CD000706921460AF092FF00F07CF8A06288B982
:102CE0004FF0FF3070BD0D1D29460AF0EFFA844207
:102CF000ECD115480AF086FE30462946BDE8704002
:102D0000FFF726BCA0F84A50A36AA3F84850A36A6C
:102D100003F140025A64A36A1D64A36A586C0AF066
:102D200047FF2A462B4630462146FEF717FD051E73
:102D300003DA06480AF066FE01E0082363772846B6
:102D400070BD00BFBC072100A4172100600D210049
:102D5000F8B506460C460AF0B9FA054650B92046C1
:102D600000F054FF054628B912480AF04BFE4FF018
:102D7000FF30F8BD30462946FFF79EFF041E09DDEF
:102D8000736B93B19F6887B13046291D00224FF4C1
:102D9000EE7309E009D1706B50B187683FB13046DE
:102DA000291D224640F2DF13B8472046F8BD3846B9
:102DB000F8BD00BFC217210008B504480AF048FF5B
:102DC000BDE8084002480AF043BF00BF9800002059
:102DD0008C00002010B50B480AF04AFF044618B9D1
:102DE00009480AF00FFE0AE00021E0220AF088F804
:102DF00006480AF007FE04F1500000F035FC2046BA
:102E000010BD00BF98000020B9182100DD18210076
:102E100010B5044640B1406C00F0C4FE21460348A2
:102E2000BDE810400AF038BF10BD00BF9800002078
:102E300010B509480AF01CFF044618B907480AF003
:102E4000E1FD06E0002138220AF05AF800236380F1
:102E50002370204610BD00BF8C000020FD1821000B
:102E6000014610B101480AF017BF70478C000020DE
:102E70002DE9F0471446099A06460D46134808996D
:102E8000D2001F46DDF82890DDF82C800AF099FB6F
:102E9000B0F1000A14DBA64204D0204631462A468F
:102EA00009F0C8FF08940995CDF82890CDF82C803A
:102EB0003B46064808210322BDE8F0470AF0D5BB8F
:102EC00003480AF09FFD5046BDE8F08798070020B0
:102ED000461921002DE9F0471446099A06460D4689
:102EE00013480899D2001F46DDF82890DDF82C80A1
:102EF0000AF067FBB0F1000A14DBA64204D02046BA
:102F000031462A4609F096FF08940995CDF8289095
:102F1000CDF82C803B46064808210322BDE8F04747
:102F20000AF039BC03480AF06DFD5046BDE8F08751
:102F3000980700204619210070B50D461646044634
:102F400018B906484E2103F025FA04F1400029463D
:102F50003246BDE8704000F07FBC00BF5E19210022
:102F6000F8B50F461546044618B91C48612103F010
:102F700011FA20460021A82209F0C2FF402D0ED9E7
:102F800004F14006304600F06FFB304639462A46D1
:102F900000F062FC2046314600F0BCFC04E0204614
:102FA00039462A4609F0D0FE0025635D83F03603DA
:102FB00063550135402DF8D104F1400000F054FB79
:102FC000204621462A46FFF7B7FF0023E25C82F045
:102FD0006A02E2540133402BF8D1F8BD5E1921009A
:102FE00070B5064605480D460AF042FE044618B183
:102FF00031462A46FFF7B4FF204670BDA4000020EA
:10300000014610B101480AF047BE7047A4000020F5
:1030100070B50E4688B0054618B91148832103F0F3
:10302000B9F91EB90E48842103F0B4F905F1400442
:103030002146684600F06EFC204600F015FB204655
:103040002946402200F008FC20466946202200F074
:1030500003FC3046214600F05DFC202008B070BD26
:103060005E192100F0B54B780C781B0443EA046329
:10307000CC78802A83EA04038C7843EA0423036033
:103080004B790C794FEA034343EA0463CC7983EA32
:1030900004038C7943EA042343604B7A0C7A4FEAA9
:1030A000034343EA0463CC7A83EA04038C7A43EA59
:1030B000042383604B7B0C7B4FEA034343EA0463A6
:1030C000CC7B83EA04038C7B43EA0423C36035D1C1
:1030D00000228449C36855580168DCB24D408249DA
:1030E000043251F82440282A04F47F4485EA040578
:1030F0004FEA136411F8244085EA0405C3F307443A
:1031000051F8244004F07F4485EA0405C3F3072402
:1031100051F8244004F47F0485EA04014468016105
:1031200081EA04018468416181EA040181EA0303C0
:103130008161C36100F0CD801030CAE74B7C0C7C0C
:103140001B0443EA0463CC7CC02A83EA04038C7C1E
:1031500043EA042303614B7D0C7D4FEA034343EABA
:103160000463CC7D83EA04038C7D43EA042343613A
:103170003AD100225B49436955580168DCB24D40A1
:103180005949043251F82440202A04F47F4485EA46
:1031900004054FEA136411F8244085EA0405C3F3DB
:1031A000074451F8244004F07F4485EA0405C3F342
:1031B000072451F8244004F47F0485EA040144689C
:1031C000816181EA04018468C16181EA0401C46803
:1031D000016281EA040141627DD0046918306140D6
:1031E0004B4001614361C5E74B7E0C7E1B0443EA03
:1031F0000463CC7EB2F5807F83EA04038C7E43EACD
:10320000042383614B7F0C7F4FEA034343EA04634B
:10321000CC7F897F83EA040343EA0123C3615CD145
:103220000024304BC269E5580368D1B25D402E4B93
:10323000043453F821101C2C01F47F4185EA01016C
:103240004FEA126513F8255081EA0501C2F30745DC
:1032500053F8255005F07F4581EA0501C2F30725A3
:1032600053F8255005F47F0581EA050145680162A0
:1032700081EA05018568416281EA0501C5688162CC
:1032800081EA0501C1622AD00D0E53F82560CDB246
:1032900013F8257006F07F4605697E407540C1F33E
:1032A000074653F82660C1F3072153F8211006F4AE
:1032B0007F0601F47F41754085EA0103416903639C
:1032C0004B40816943634B405A408363C263203063
:1032D000A7E70A20F0BD0C20F0BD0020F0BD0E20B5
:1032E000F0BD00BF88EC2000B0FC20002DE9F04FBD
:1032F000D578046897786C40157892F807A084EA2E
:103300000564557887B084EA054484EA0727446851
:1033100003978AEA040492F804A0977984EA0A647D
:1033200092F805A092F80F8084EA0A4A8AEA072AEE
:103330008468D77A49107C40177A059184EA07643B
:10334000577A049184EA0747947A87EA0427C46885
:1033500088EA040492F80C8084EA086492F80D80EC
:10336000927B84EA084888EA02280246039DDFF837
:10337000F4C2B84E2C0E5FFA88F156F821105CF8B2
:103380002440B54D4C401169DDF80CB06140CAF3E2
:10339000074455F82440B14D6140C7F3072455F860
:1033A0002440203281EA04094FEA1A645FFA8BF163
:1033B00056F821105CF824404C4052F80C1C84EA6A
:1033C000010BA549C7F3074451F824408BEA0401D7
:1033D000C8F3072455F824404FEA176B61405FFAA1
:1033E0008AF456F824405CF82BB0FFB28BEA040B49
:1033F00052F8084C56F827708BEA04040194C8F37D
:103400000744A3464FEA1868934C5CF8288054F8A8
:103410002B40DDF804B088EA070852F8047C8BEAF8
:103420000404DDF80CB0029488EA0707CBF3072404
:10343000DDF808B00297039F55F82440C7F307480A
:10344000854FCAF3072A57F828808BEA0404DDF871
:1034500008B055F82A708BEA080888EA0708049F24
:103460005FFA88FA013F04974FEA196766D05CF863
:10347000277056F82AA0C1F3074B87EA0A0A176893
:103480008AEA070A744F57F82BB0C4F3072755F898
:1034900027708AEA0B0A8AEA070703974FEA116A3C
:1034A0005FFA89F756F827705CF82AA0C4F3074B37
:1034B0008AEA070A57688AEA070A674F57F82BB063
:1034C000C8F3072755F827708AEA0B0A8AEA070A21
:1034D0004FEA146BCFB256F827705CF82BB0E4B209
:1034E0008BEA070B976856F824408BEA0707C8F366
:1034F000074B4FEA18685CF828C00197564F8CEAD2
:10350000040CD46857F82B70534EDDF804B08CEAE5
:10351000040CC9F307448BEA070B56F82440C9F39F
:103520000727C1F3072155F8277055F821108CEAB9
:1035300004088BEA070788EA010817E7484ADDF81C
:1035400014B052F8277012F82AC04FEA4B168519AA
:1035500007F07F47865987EA0C0787EA0600C1F320
:10356000074652F8266006F47F067040C4F307262B
:1035700052F8266006F47F467040060E1E70060C58
:103580005E70D870060A080E9E7052F820605FFACE
:1035900089F012F8207006F07F4668687E4070401F
:1035A000C4F3074652F8266006F47F067040C8F35D
:1035B000072652F8266006F47F467040060E1E71FC
:1035C000060C5E71D871060A200E9E7152F82060BA
:1035D000C8B212F8207006F07F46A8687E4070409E
:1035E000C8F3074652F826604FEA186806F47F06CB
:1035F0007040C9F3072652F82660E4B206F47F460D
:103600007040060E1E72060C5E72D872060A52F8E0
:10361000280012F824409E7200F07F406040EC6861
:10362000C1F307216040C9F3074452F8244052F81F
:10363000211004F47F04604001F47F4180EA01021C
:10364000110E1973110C5973110A9973DA7307B0BB
:10365000BDE8F08FB0F82000B0F02000B0F42000FA
:10366000B0FC2000B0EC200070B50446B0B10C4DA9
:10367000024605F120062B4603CBB3421060516091
:103680001D4602F10802F6D1402204F12800002173
:1036900009F036FC00220023C4E9082370BD00BFF6
:1036A000B00021002DE9F04F90E82400836889B034
:1036B000C4688669039347690369D0F81C9000F1D8
:1036C000280C059404964FF00008DFF888A151F803
:1036D000084058F80AA04FEAB31B26BA8BEAF32B2E
:1036E000049C4CF808608BEA736B564406EB0B0A9B
:1036F00024EA030607EA030B039C86EA0B065644FA
:10370000B14484EA050604EA050A164086EA0A0678
:103710004FEAB20A8AEA723A8AEAB25A059C08F17A
:1037200004085644B8F1400F4C444E440AD0DDF82A
:10373000109004971F462346039C03950594154655
:103740003246C2E74FF0100B0BF1010909F00F08E8
:10375000CDF804905CF828904FEAF91888EAB94847
:10376000CDF814800BF10E0808F00F085CF82880E3
:103770004FEA784A8AEAF84ACDF818A0DFF8D4A0D0
:103780005AF82B100BF00F0A0BF1090B07910BF0F5
:103790000F015CF821108B465CF82A108B440599C8
:1037A00081EAD90959464944DDF8189089EA9828F0
:1037B00001EB080B4FEAB4184CF82AB088EAF42859
:1037C00027EA040A03EA040988EA74688AEA09090C
:1037D0000799C1448944D944DDF810B085EA02084C
:1037E000CB4408EA060805EA020988EA09084FEA14
:1037F000B60989EA7639019989EAB659DDF80CA04B
:10380000C8444029DA44D84409D0049703951F4698
:103810001546234632468B465446464694E7016891
:103820004144016041680E44816846600A448260F8
:10383000C26815440269C560524402614269144479
:103840008269446113448361C3691F44C76109B03D
:10385000BDE8F08FD00021002DE9F84306468846E8
:103860001746002A51D000B121B9294840F233212E
:1038700002F090FD326A736AD40844EA437414F08B
:103880003F0419D0C4F1400504F12800AF42304490
:1038900041462FD32A4609F057FAD6E90801EB0032
:1038A000C01841F10001C6E90801304606F12801BF
:1038B0007F1BA844FFF7F6FEB94608EB0701B9F1F4
:1038C0003F0FC9EB01010DD93046FFF7EBFED6E9FA
:1038D000084514F5007445F10005C6E90845A9F14D
:1038E0004009EAE727F03F0117F03F0741440CD0B9
:1038F00006F128003A46FF0009F026FAD6E9084505
:10390000E41945F10005C6E90845BDE8F88300BFA4
:103910007E1921002DE9F8438046894621B92E48B9
:1039200040F25F2102F036FDB8F1000F06D14846A3
:1039300000216822BDE8F84309F0E2BAD9E9084558
:10394000E20842EA457227BA2EBA12F03F02C9E9EC
:10395000086709F1280422D0531C09EB02018020DA
:10396000382B81F8280006D802F1290048440021AC
:10397000C2F1370210E0402B07D002F12900484481
:103980000021C2F13F0209F0BBFA48462146FFF789
:1039900089FE20460021382209F0B2FA07E01146DC
:1039A0002046382209F0ACFA802389F82830D9E97A
:1039B00008234846C9E918232146FFF773FE002370
:1039C00059F8032012BA49F8032048F803200433B9
:1039D000202BF5D1ABE700BF7E1921002DE9F84F70
:1039E0000B9F0E468346C1F1100015460021384456
:1039F00032469946DDF828A0DDF83080012409F030
:103A00007FFAF3009C400D49013C2C400C600F25CF
:103A100064B90C6058463946424609F0DEFD484616
:103A200041465246BDE8F84F09F0E2BDB542F0D933
:103A30007B5D23437B55240A013DE9E74C080020C8
:103A40002DE9F047089D16461C462A468946194628
:103A5000804609F0C2FD20460021102209F050FAEC
:103A6000002E4DD0B6F57F4F03D32648752102F0C6
:103A700091FCC6F307230E2E34BF37460E27237062
:103A800049463A466670A01C09F05EF92046294670
:103A9000102209F0ADFD404621462A4609F09DFD61
:103AA000F61BB944374609EB060A102FC7EB0A0A82
:103AB0000FD900231AF80310EA5C4A40E25401339C
:103AC000102BF7D1404621462A46103F09F085FDCC
:103AD000E9E7AFB120460021102209F011FA514662
:103AE0003A46204609F030F920462946102209F0CE
:103AF0007FFD404621462A46BDE8F04709F06DBDEE
:103B0000BDE8F087A319210001480AF0A1B800BF61
:103B1000B000002070B50D46064618B91248402185
:103B200002F038FC1DB91048412102F033FC304648
:103B30000AF041F8044680B142686B689A4206D8A0
:103B40000AF083F818B120460AF07FF8F2E7304611
:103B500021462A460AF071F803E0304629460AF069
:103B60005CF8012070BD00BFC619210010B50748E0
:103B70000AF07EF8044618B9054809F043FF03E04F
:103B800000217C2209F0BCF9204610BDB0000020C5
:103B9000E6192100014610B101480AF07DB87047CE
:103BA000B000002010B5044600B910BD20460AF050
:103BB0000BF8014618B102480AF06EF8F6E710BD9E
:103BC000B000002008B500F055FB00F07DFB014B74
:103BD000186008BDC029002001480AF039B800BFAC
:103BE000BC00002010B50446806AFFF711F9206A76
:103BF000FFF736F9606AFFF733F921460248BDE85E
:103C000010400AF049B800BFBC00002070B505465E
:103C100011480AF02DF80446E0B100212C2209F0E9
:103C20006FF92B46221D05F1180153F8040B8B4246
:103C300042F8040BF9D1FFF7FBF80646206220B9E1
:103C40002046FFF7CFFF344604E0062003492A460A
:103C500000F032F8204670BDBC000020FC192100A5
:103C600038B50C46054618B90F48512102F092FBB1
:103C70001CB90D48512102F08DFB2A7823789A4215
:103C80000FD16A8A638A9A420BD1A81CA11C102208
:103C900009F026F828B968696369C31A584258417F
:103CA00038BD002038BD00BF0A1A2100014B186042
:103CB000704700BFC800002030B595B0508A0D464F
:103CC0000AF0BEF801AC02460649204601F028FC85
:103CD0002044A04204D004482946224601F0FCFBBF
:103CE00015B030BD4D1A2100511A21002DE9F041C7
:103CF0001E46234B04461B680F4683421546DDF8DB
:103D000018803BDB00F0E0FA062C05D81D4B1E485E
:103D100053F8241001F0E0FBB8F1000F20D01B484D
:103D20003946324601F0D8FB0024B44213D02107B3
:103D300003D11748214601F0CFFB295D1548013416
:103D400001F0CAFB6207F0D123070CBF0A20202034
:103D500001F014FAE9E70A20BDE8F04101F00EBADB
:103D600032460D48394601F0B7FB2E44B542F2D039
:103D700015F8011B094801F0AFFBF7E7BDE8F0813A
:103D8000C8000020D0012100591A21005D1A21002D
:103D90003C1A2100421A21006F1A2100811A2100C9
:103DA000F7B500F04DFC00F0F5FC00F091FC00F0E0
:103DB00061FA01F0D1F909F0D9FE00F0E3FC07F057
:103DC000C3FD022009F09BFD02F024F900F024FC61
:103DD00000F0E6F9002000F047FB012000F044FB72
:103DE0004449002000F002FC02F072FA09F0DCFD08
:103DF000042009F084FD404809F004FE3F4809F022
:103E000001FE3F4801F068FB3E4B3F4D186809F04A
:103E1000F9FD3E4801F060FB3D4B0024186809F0B5
:103E2000F1FD3C4801F058FB3B4B2E46186809F069
:103E3000E9FD002002F070FA01F082F83748002115
:103E400002F08EF901F0F6FF6846082101F0B6F99C
:103E50009DF807309DF8067043EA07276B4603CBB1
:103E600028602F48696001F037FB315D2D4801342F
:103E700001F032FB072C244DF7D12B4EE9792B486A
:103E800001F02AFBF46A4AF6CD310220A0473946F8
:103E90000320A04711210120A0476946736B082227
:103EA0000920984706F0E0FE214A2B6813606B68F2
:103EB000536006F0EBFB1F48002102F051F900F0BF
:103EC0008BFC00211C4802F04BF909F024FE1B4832
:103ED00009F017FE00F0A6FB082009F010FD00F025
:103EE000A7FB02F0AFF810F0FF0FF8D101F0CCF80B
:103EF000F5E700BF8D622000A91A2100C31A210036
:103F0000DB1A21006C0321001C350020E21A21007D
:103F100088032100E91A2100A403210028010020C0
:103F2000F01A21000E1B2100A4022100D00D210057
:103F3000442B0020B8010020CC00002020EC200001
:103F400070B505880446772D30D07E2D40D0002DE9
:103F50004ED102F057F8294B1870294B1D601E46B0
:103F60003368284A264D52F823204AB126480021BA
:103F7000C1549368802098472A6801322A60EFE78D
:103F8000224A1370772321E01F4AD256002A13DBFE
:103F90001B4B1A6801321A60194B1C4A1B681278B5
:103FA0009342F1DB1A4B1B68002BEBD0184A00231D
:103FB0001360134A1360EFE7104A00201178114A8A
:103FC00052F8232002F0A0F830B97E23238013E0BA
:103FD0000A4B1B788B420FD1094B0B4A1B68D15CF3
:103FE00001F07F01D1540A4B1A6801321A60CFE701
:103FF00000230380032070BD012070BD0635002022
:10400000F0090020DC000020073500205D220020A0
:10401000F4090020094B1A780023934204DA084976
:1040200051F82310814207D1064A0748D15C61F05C
:104030007F01D15402F0ACB80133EEE75D220020DD
:10404000DC00002007350020CC00002008B509481E
:10405000082109F07EFC03210422002000F0A8FBC7
:10406000002000F00BFB04480021032200F044FB79
:10407000012008BD00900D403D41200008B50948D1
:10408000102109F066FC04210A46022000F090FB92
:10409000022000F0F3FA04480221042200F02CFB75
:1040A000012008BD00B00D403D41200008B5094881
:1040B000202109F04EFC05210422022000F078FBAB
:1040C000022000F0DBFA04480221052200F014FB74
:1040D000012008BD00B00D403D41200008B5094851
:1040E000402109F036FC06210422022000F060FB8A
:1040F000022000F0C3FA04480221062200F0FCFA74
:10410000012008BD00B00D403D41200008B5094820
:10411000802109F01EFC07210422022000F048FB48
:10412000022000F0ABFA04480221072200F0E4FA72
:10413000012008BD00B00D403D41200038B50546C6
:1041400011480C4609F026FDE8B10F48102109F08E
:104150000FFD1DB9032C16D10C4810E0022D12D111
:10416000042C01D10A480AE0052C01D1094806E0D7
:10417000062C01D1084802E0072C04D10748BDE80D
:104180003840FFF747BF38BDF8090020EC01210097
:104190000C0221001C022100FC0121002C02210044
:1041A0000148002109F0E4BCF809002010B5074CD3
:1041B000FF2323604FF4FA6000F09AF800213022C8
:1041C000062000F011FB0023236010BD00920D407B
:1041D000802870B51ED1104E104D3368002423F096
:1041E000800333602B68204643F080032B600C4B28
:1041F00007211C60224600F0DBFA3368204623F0DA
:10420000400333602B68062123F040032B6001221A
:1042100000F0CEFA002070BD20940D4000940D40B7
:1042200000920D40F8B500F087F8104E0022D6E954
:104230000045A042294638BF691C0F46B64642EAEF
:104240000006CEE900670A49D1E90023121B63EB9F
:104250000503921943EB0703C1E9002301F088FD30
:1042600018B1BDE8F84001F013BDF8BDD805002035
:10427000E0050020114B124A1A6053F8042C42F05A
:10428000050243F8042C53F8042C42F0020243F8D0
:10429000042C0C4B1A6842F001021A60A3F521238A
:1042A000A3F6FC7300221A60042243F80C2C0122AE
:1042B00043F8082C0F22DA62704700BF14E000E0D8
:1042C00047E8010008200D40034BD3E90023100A02
:1042D00040EA0360704700BFD8050020034BD3E9D4
:1042E0000023D00B40EA4340704700BFE0050020A8
:1042F000054B18601C3B1A6842F001021A601A68EC
:10430000D207FCD4704700BF2800034010B5064C0C
:10431000236823F001032360FFF784FF236843F041
:104320000103236010BD00BF10E000E0014B1868DE
:10433000704700BF000A0020064B1A68596808330E
:104340001B681B0443EA01231343034A106843EA32
:104350000060704740500D404C500D4010B5044671
:10436000114B1B68DB07FBD509F022FBFFF7E4FFCD
:10437000231A062BD8BFC41D0C4B220E1A60C4F39F
:10438000074243F8042CC4F3072243F8082CE2B296
:1043900043F80C2C09F008FB054B91201C60BDE88C
:1043A000104000F06BB900BF50500D404C500D4014
:1043B000000A002008B500F04DFE064B00229120B7
:1043C0001A6000F077F9912000F066F9BDE8084026
:1043D00001F0FCBE000A00200023084A1068084AC9
:1043E0009958084205D01A44D268906910F08000AC
:1043F00003D02C33582BF0D10120704728200D40DA
:104400004C02210038B5164B2C2202FB0033DC682D
:104410004FF6BF72236C62649BB213F050020546E4
:104420000DD0A369DB0609D40E4B53F825301BB120
:104430002068C0B29847F4E72368F2E738BD13F468
:10444000D06F0BD04FF440732363FF236360E36AA4
:10445000E262E362236B43F00103236338BD00BFD4
:104460004C022100040A0020012870B500F2B1803E
:104470002C254543574E741994F92030002BC0F277
:10448000A88094F92230002BC0F2A380524800F09B
:1044900053FE524B7259196800260A431A60596834
:1044A00062680A435A609968A2680A439A60E3689E
:1044B000C3F8C86F94F9201094F92120236902EB06
:1044C000C1021A6094F8220094F82310227D00F0B3
:1044D00079F994F8220094F82310082200F068F982
:1044E00094F92300012101FA00F094F922203C4BB9
:1044F0001203D5582843D05094F9210094F9202074
:1045000001FA00F01203D5582843D050E268502039
:104510009063E2681D46906B40F4D0609063E2685F
:1045200002205063E2684FF440701063E268A069B3
:104530005062E268E0699062E2687020D06294F9AB
:104540002420B2421ADB94F9253043EAC202254BFB
:104550001A6094F9250094F9243081401B035A59BC
:1045600011435951324694F8240094F8251000F074
:104570001FF91D4B1A6842F400421A6094F8260095
:1045800003061BD494F82710012200F01BF994F9BC
:104590002720012000FA02F294F926301B03595912
:1045A0000A435A5194F82600082294F8271000F084
:1045B000FFF80D4B1A6842F480421A60E3681A6BE8
:1045C00042F001021A6394F82800BDE8704000F040
:1045D00055B870BD4C022100D943200028200D4061
:1045E00020940D4004410D4030D0004001289CBF74
:1045F000014B43F820107047040A0020012808D816
:10460000044B2C2202FB0030C3689A699206FCD44A
:10461000196070474C022100014B00221A6070475C
:1046200000500D40014B00221A60704700500D40B1
:10463000024BA0221A6050221A60704700500D40B1
:10464000084A094B1A60094B80321A60084B8032C5
:104650001A60084B80321A60074B4FF400121A6040
:10466000704700BF00E100E0180A00200C0A00209B
:10467000100A0020140A002008ED00E04209012180
:1046800000F01F0001FA00F0024B1B6843F8220003
:10469000704700BF180A00204209012100F01F00E6
:1046A00001FA00F0024B1B6843F82200704700BF7C
:1046B0000C0A00204209012100F01F0001FA00F05D
:1046C000024B1B6843F82200704700BF140A002009
:1046D000054A064B1A60064B1A68064B1340B3F1A5
:1046E000807FF8D1704700BF0101020100200D401A
:1046F00004200D4000000101024B02EBC10243F80F
:10470000220070471C0A0020F8B50A4E07460D46E5
:1047100006EB4116002447FA04F3DB07E1B204D5A7
:1047200056F824300BB1284698470134082CF2D1B2
:10473000F8BD00BF1C0A00202DE9F04706463503EE
:104740000F4F05F1804404F5592400F083FCD4F8A0
:1047500018A4EB594FEAC60823FA08F94AEA0900F7
:10476000C0B23146FFF7D0FF5FFA89F95FFA8AF3EA
:10477000C4F81C3409FA08F3EB51BDE8F08700BF18
:1047800018970D4002480021802208F0B9BB00BFF5
:104790001C0A0020034A044B1A60044B803A1A603A
:1047A000704700BF80400D40A00A00209C0A0020F6
:1047B000034B01EBC0011B6843F82120704700BF89
:1047C000A00A0020034B01EBC0011B6843F8212025
:1047D000704700BF9C0A0020024B1A6842F030026A
:1047E0001A60704700700D400E2870B50BD1154C43
:1047F000236843F002052560134D2C6824F03F0622
:1048000046F001062E60114D2E6826F0FF06324359
:104810001143014329600E4A12681206FBD50D4A66
:104820000D491268096802F0FC0242EA012292B2C4
:104830000E2892B203D104490C6002490B6010B2F9
:1048400070BD00BF34000144F486084008700D407C
:1048500000700D400C700D4010700D4010B58F2091
:10486000064CFFF727FF8F20FFF716FF206818B1CF
:1048700001F08EFC0023236010BD00BFA40A0020BD
:10488000084B93F90020002A09DB074AED2111604B
:104890001160E32111601A7862F07F021A70012022
:1048A000704700BF5E22002038880840094B1B6813
:1048B0009B07FBD4084BED221A601A60074A126866
:1048C0000AB1EF221A60064B01201A7802F07F022B
:1048D0001A7070474C860840388808402C8608407B
:1048E0005E22002038B5A0F10B05EBB20F2B044679
:1048F00013D80B4B1B6813F03F0302D0FFF7D6FF12
:10490000012305EB8505074A0B3515600BB1FFF751
:10491000B7FF054BE0B21C7000E0FF2040B238BD8D
:10492000488608403C8608408802002010B50B4BA2
:104930001B68990603D1FFF7A3FF012300E00023C2
:10494000074A1268D207FBD5064A1468C4F300145C
:104950000BB1FFF7ABFF204610BD00BF48860840F3
:10496000648608404C860840044B186800F022001A
:10497000B0F1200358425841704700BF4C860840B0
:10498000024B186800F04000704700BF4C8608409A
:1049900038B50C4600296CD00D286CD8DFE800F043
:1049A000070D181A216B3142476B5E606265334B0D
:1049B0001B68003318BF012358E0314B05221B68E8
:1049C00003F07F030B3B93FBF2F30B33DBB24DE0C1
:1049D0002C4B00E02C4B1A68043B1B6843EA022373
:1049E00044E00023294A0B60126802F001020A60C9
:1049F0002749086810F020003ED042F002022260F1
:104A000035E0244B19680023C9B2234A02EBC300E6
:104A10000079884202D852F8333027E001330E2B58
:104A2000F3D11FE01D4B1B685BB2493B1EE01C4BE2
:104A30001B68990603D1FFF723FF012300E0002341
:104A4000184A1268D207FBD5174A1568493DEDB2DE
:104A50000BB1FFF72BFF6DB2256008E00B2305E0DB
:104A60001A2303E06FF0170300E007232360002000
:104A700038BD022038BD012038BD00BF2C8608405B
:104A80003C860840CC850840D48508400086084014
:104A90002486084040860840DC02210058860840F1
:104AA00048860840648608406086084038B5054658
:104AB0000C46134B1B689B07FBD4124B93F9003039
:104AC000002B01DBFFF7DCFE0F4BEE221A60691EA4
:104AD0001A60A21C43F8102C2144022000F048FA6E
:104AE000013C0A4924012143022000F053FA02202C
:104AF00000F05AFA022000F06FFA002038BD00BF23
:104B00004C8608405E2200203888084002C001C060
:104B1000F8B51F4B93F90030002B0CDBFFF70CFCB2
:104B20000446FFF7ADFEFFF707FC6FF009031B1B00
:104B3000C342F8D401E0002600E00126FFF7F6FEAC
:104B400010B3144D2B6899061ED4134CE92323602F
:104B500004272B689A0707D4013F17F0FF0703D0FB
:104B60000620FFF7C5FBF4E72B689B0704D4EE2370
:104B700023602360012403E02C6814F00204FBD1BD
:104B800026B1FFF793FE01E00220F8BD2046F8BDF4
:104B90005E2200204C86084038880840044B1A6882
:104BA00010B142F0010201E022F001021A607047E8
:104BB0000086084038B50C46072855D8DFE800F0D5
:104BC000040F1B1F26543B4F012902D1FFF758FE4B
:104BD0004EE000294AD1FFF769FE204638BDA1F119
:104BE0000B030F2B42D8C8B2FFF77CFE013014BF75
:104BF0000020032038BD8CB2E2B21E4B02E08CB222
:104C00001D4BE2B2240A1A605C6031E031F003050A
:104C10002CD101F00100FFF7C1FF184B14F0020086
:104C20001A6804D042F020021A60284638BD22F0EB
:104C300020021A6038BD01F118031F2B16D80D236E
:104C40000F4AD80052F833108C4204DC0244127927
:104C50000C4B1A600CE013F1FF33F1D208E0CCB238
:104C6000094B49341C6003E0012038BD022038BDE7
:104C7000002038BDC8850840D085084024860840FB
:104C8000DC022100408608405886084009280CD1E3
:104C9000082A0CD159B1084B013953F8042D01F8F9
:104CA000012F064A9342F8D103E001207047022009
:104CB00070470020704700BFC8850840A88508409D
:104CC00009280CD1082A0CD159B1084B083111F828
:104CD000012D43F8042F064A9342F8D103E0012046
:104CE0007047022070470020704700BFA48508402D
:104CF000C485084070B52C4E336813F0400342D091
:104D00002A4C2368DDB21B0639D4042D37D9023D65
:104D10008D4234DCEDB2032D1BD041190139032043
:104D200000F02EF96B1E22491B010320194300F0ED
:104D300031F9032000F038F9032000F04DF9032089
:104D400000F056F90028FAD121682468200616D50B
:104D500006E0236803702368437023688370F3E7D9
:104D6000493949B289B2042005F054FF032004F008
:104D70007F0105F04FFF33685A0606D411E00D4B52
:104D8000ED221A601A60002070BD074B1B681B06DD
:104D900003D5094801F0FCF903E0064BED221A6047
:104DA0001A60284670BD00BF4C860840288808401D
:104DB00002C0010C3888084000010020F8B52B4DD6
:104DC0002E7816F001064ED1294B01241C605C6040
:104DD0009C60A3F59323A3F51473F8221A600922AB
:104DE000C3F89021152270331A6003F59B230B2220
:104DF00003F59E731A60A3F59B23A3F5F07340227D
:104E00001A601A687F2742F020021A60D52243F800
:104E10001C6CDF62DA61174B1878FFF763FD164BE5
:104E20008D201A6842F004021A60FFF727FC134B2A
:104E30008E201F60FFF722FC022000F0C1F810490D
:104E4000022000F09DF8032000F0BAF803200C497E
:104E500000F08EF80B48314601F082F92B7820469D
:104E600023432B70F8BD0020F8BD00BF5E22002058
:104E7000A8200D40880200208C86084094860840B7
:104E8000288808400001002038B503880446E3B1B3
:104E900040F2B932934203D000230380032038BD8F
:104EA000822915D105F054FE05F0F2FD8021FFF7AF
:104EB00021FF002805DD80B205F0E4FD0C4B1B69E5
:104EC00098470C4B1A78520604D440F2B933238029
:104ED000012038BD00221A70074B1D68FFF7E6FC61
:104EE000FFF76CFFAB06F0D0FFF7CAFCEDE700BFA1
:104EF000A40321005E2200204886084008B503482C
:104F000001F046F9024B00221A6008BD00010020A2
:104F100034880840074B1A68042A1A4604D0064B06
:104F2000197841F04001197000231360034801F023
:104F30002FB900BF2C8808405E220020000100200D
:104F400010B5094C00212046402207F0D9FF074B3D
:104F500001221A602E205C60FFF790FBBDE8104034
:104F60002F20FFF78BBB00BF0000002004F00F4094
:104F7000032802D8014B000119507047000000209F
:104F8000032803D8024B03EB00104160704700BFB9
:104F900000000020032803D8024B03EB00108160BF
:104FA000704700BF00000020032806D8012101FA45
:104FB00000F0024B1A6810431860704728F00F4049
:104FC000032806D8012101FA00F0024B1A681043A9
:104FD0001860704720F00F40032806D8012101FA1D
:104FE00000F0024B1A6810431860704714F00F402D
:104FF000032806D8044B03EB0010806800F007007C
:1050000070470020704700BF00000020024B4FF0A7
:10501000FF321A60704700BF04F50F40014B0122B8
:105020001A6070474CF00F40094B1A68194612F489
:10503000801FF9D1043B1A6822F480321A600A6892
:10504000D203FCD41A6842F400321A60704700BFE1
:1050500004200D4010B50A4B1A681C4612F0030FCD
:105060000CD0084A13685901FBD413685B01FCD5C6
:10507000FFF74CF9FFF7D8FF0023236010BD00BFF6
:1050800058200D4004200D4038B5254B1C6814F005
:105090003F0413D1234BE35823B1984770B1043434
:1050A0000C2CF7D1204B1A781D463AB1FFF73EF988
:1050B0000446FFF741F9201A092801D830BF38BD4E
:1050C000002CFBD0194B1A6822F400321A60184ADF
:1050D0001168C902FBD4196841F480311960136862
:1050E000DB03FCD5FFF728F9201A092803D8BDE80F
:1050F0003840FFF799BF63280E4C02D92B78022B5A
:1051000000D00123236000F0F5FF20B1FFF78CFFF2
:105110000023236038BDFFF709F90028CED1F5E759
:1051200048860840A80A00205F22002000200D4089
:1051300004200D4058200D400023064A52F8231049
:10514000814206D011B942F8230070470133032B86
:10515000F3D17047A80A0020054B00221A60054BC6
:105160001A6842F004021A60034B01221A70704759
:1051700058200D4010ED00E05F22002070B50E4E6B
:10518000044635784DB92846C021FFF737FA28463E
:105190000D21FFF733FA012333700020E1B2FFF74E
:1051A0002DFA0A2C05D10020C021FFF727FA002391
:1051B0003370204670BD00BF6022002030B5184B10
:1051C0001B783BB9174A1278122A03D1164A127873
:1051D0004B2A01D0002317E04A08934207DA02F570
:1051E00020142734E41A2478C4540133F5E700234B
:1051F000934208DA01F520142734E41A257884183C
:10520000E5540133F4E730BD8B4207DA01F5201293
:105210002732D21A1278C2540133F5E730BD00BFED
:105220002B0028002A00280029002800002001491E
:10523000FFF7DCB9195420002DE9F74F0388074622
:1052400033B1B3F5817F11D000230380032094E0B4
:105250004B4A13804B4A13804B4A13804B4B01221D
:105260001A704FF481733B80012086E082294FF051
:105270000109F9D1444E464A4648348882F80090E4
:10528000025DDFF8FC80432A82462BD1DFF8F4B0C0
:10529000BBF80020944225D2121B052A22DD00EB28
:1052A000040C60463C490622CDF804C007F018FD06
:1052B000DDF804C00546A8B906226046294607F075
:1052C0001FFE324AA8F80050ABF80050358082F833
:1052D0000090324B585D013508F0A4FB0D2DF8D13C
:1052E00000253EE0B8F80060B442F9D040F2145313
:1052F0000AD2351BADB29D4224D80AEB04012A46DE
:10530000274807F021FD1EE006F224552D1BADB203
:105310009D4217D82346224A40F22350111B834254
:10532000C4F1000C194405D81AF803106244D15492
:105330000133F0E70023B34205D21AF80320CA5420
:105340000133F8E70025104B1E80104B1A7842B944
:105350000C4A14481288A8F8002001221A7000F0A4
:1053600017FF114B1D80002D3FF47BAF0F4B1B68C7
:1053700003B1984704F068F973E703B0BDE8F08F14
:10538000561E0020541E0020581E00208527002095
:105390001035002061220020381B21003F1B210016
:1053A0004C2B002010010020382B0020B40A0020D4
:1053B000014B1860704700BFB40A002038B5C02008
:1053C00008F030FB114B00241149A2B20988914228
:1053D00016D93C2A04BF0F4B1B6818785D1CC028E7
:1053E00004D1DB2008F01EFBDC2004E0DB2802D126
:1053F00008F018FBDD2008F015FB01342B46E3E72D
:10540000C02008F00FFB002038BD00BF4C2B00204F
:10541000382B00206C30002038B5294B1A78032A2D
:1054200031D8DFE802F04A170602C02845D1012230
:1054300013E0DC2808D0DD2808D003221A70214BA5
:105440001A88214B1A8038E0C02000E0DB200122BE
:105450001A7018E0DB2802D102221A702DE0C02851
:1054600011D1194A1188174A1088814225D0174C4A
:105470002488844216BF002211801A70144800F05C
:1054800087FE012038BD104940F224540D886A1C63
:10549000A24208BF00220D4C2488A24205D103225B
:1054A0001A70084B1B880B8007E00A4B542858558C
:1054B0000A8002D11B5D432BE0D0002038BD00BF25
:1054C00085270020561E0020541E0020581E002054
:1054D00010010020612200200FB407B504AA52F881
:1054E000041B0448019200F04BF803B05DF804EB94
:1054F00004B07047200100201FB5084C8DE8030060
:105500000294114600AC1A4602A8039400F038F841
:10551000009B00221A7004B010BD00BFABDA20005F
:105520000EB43FB5094B07AA52F8041B019004932F
:1055300004A801AB0392059300F022F8019B00221E
:105540001A7006B05DF804EB03B07047EDDA200086
:1055500038B505460C46102C07D92B6868680749F2
:105560001022984748B9103CF5E72CB12B686868C1
:1055700002492246984738BD204638BD961B210077
:105580002DE9F04F95B0074605910D924FF00008B8
:10559000059C2378002B00F0538323461C4613F808
:1055A000012B1AB90598844203D10CE0252AF5D1C4
:1055B000F8E705993B68651A78682A4698470028F5
:1055C00040F02183A8442378002B00F039836378CE
:1055D000002B00F0358301340026224614F8013BED
:1055E0002B2B11D006D8202B11D0232B12D146F013
:1055F0000806F2E72D2B04D0302B0BD146F0100615
:10560000EBE746F00106E8E746F00606E5E746F078
:105610000206E2E7A3F13101082910D813464FF042
:10562000000C1A4613F8011BA1F13000092815D807
:105630004FF00A0A0AFB0C1CACF1300CF1E72A2BE4
:105640000AD10D9B0132191D1B680D91002BB8BFAB
:1056500046F001069C4601E04FF0000C13782E2B1B
:105660001FD15178531CA1F13000092810D81946D8
:105670004FF000090A780B46A2F13000092801F129
:10568000010111D80A2303FB0929A9F13009F1E727
:105690002A2907D1931C0D9A111D0D91D2F8009063
:1056A00002E013464FF0FF391A786C2A09D15A7874
:1056B0006C2A02D146F080060AE0013346F060060B
:1056C0000BE0682A09D15A78682A03D146F02006EF
:1056D000023302E0013346F040061A78642A3CD0D7
:1056E0001FD8462A48D00DD8252A5AD003D8002AD8
:1056F00000F0A68257E0412A4AD0452A08BF46F466
:10570000424650E0582A31D004D8472A08BF46F410
:10571000A13648E0612A38D0632A08BF46F4A06663
:1057200041E06E2A3AD007D8662A22D027D3672ACA
:1057300028D0692A11D036E0732A2CD006D86F2AD7
:1057400011D0702A08BF46F440762CE0752A07D0A5
:10575000782A08BF46F4C85625E046F4245622E0CD
:1057600046F410661FE046F488561CE046F4B24644
:1057700019E046F4007616E046F4844613E046F459
:10578000024610E046F481360DE046F4C1360AE0E8
:1057900046F4E13607E046F4806604E046F4E0664D
:1057A00001E046F4C0660133059306F4E063B3F507
:1057B000806F00F0A58114D8B3F5807F28D0B3F5B1
:1057C000407F7FF4E5AE0D9BA649A7481A1D16F44D
:1057D000804F0D9218BF08461A680DF14B01002347
:1057E000B6E1B3F5C06F08D0B3F5E06F00F02182E9
:1057F000B3F5A06F7FF4CCAEEFE13B6878689B49CE
:1058000001229847002840F0FE8108F10108BFE618
:10581000B9F1000FACBF26F010064FF0010916F4E5
:105820000054049406F0E00337D0402B17D008D87A
:10583000DBB1202B2AD10D9B1A1D0D9293F900206C
:1058400017E0602B11D0802B20D10D9B073323F064
:10585000070303F108020D92D3E900230AE00D9B30
:105860001A1D0D92B3F9002003E00D9B1A1D0D9235
:105870001A68D317002A73F1000009DA504263EB6B
:105880004301CDE902014FF0010A34E00022002378
:10589000CDE902234FF0000A2DE0402B16D007D8A7
:1058A000D3B1202B21D10D9B1A1D0D92187811E038
:1058B000602B11D0802B18D10D9B073323F00703E9
:1058C00003F108020D92D3E900010BE00D9B1A1DB4
:1058D00018880D92002105E00D9B1A1D0D921B6882
:1058E0001846F7E7CDE90201D4E700220023CDE90D
:1058F00002234FF0000A06F4C053B3F5805F0BD0CB
:10590000B3F5C05F3CD0B3F5006F5AD10DF14E0432
:105910000C94DDE9024504E00DF14E01DDE90223BE
:105920001CE054EA0501DDF830B045D02046294698
:105930000A220023CDF804C006F0F2FE0C983032A3
:1059400000F8012D0C90294620460A22002306F07B
:10595000E7FEDDF804C004460D46E2E752EA030024
:105960008B4629D002F00700D408303001F8010D31
:1059700044EA4370DC0806900794DDE90623EDE76E
:10598000384B394816F4804F0DF14E0118BF1846B8
:10599000DDE9022352EA03048B460DD002F00F0426
:1059A000045D01F8014D140944EA037408941C09CC
:1059B0000994DDE90823EDE70DF14E05CBEB050574
:1059C00002E00DF14E0B002541F60803A94506EA59
:1059D000030341F208028CBFC5EB09094FF000092F
:1059E000934204D1B9F1000F08BF4FF0010941F60D
:1059F0000802934209EB05010CD1DDE902231343B0
:105A000008D01B4B1B4A16F4804F4FF0020418BFFE
:105A10001A4601E000242246049890B1BAF1000F22
:105A20000DD106F00603022B06D0062B124B08BF41
:105A3000012408BF1A4604E00124104A01E0104A7C
:105A4000012401EB040AD4458CBFCAEB0C0A4FF0C9
:105A5000000A16F0010302931DD1F10612D5D144BC
:105A60009A4618E0721B210097052100941B210023
:105A7000861B2100831B21008B1B21007F1A210024
:105A8000891B2100384651460192FFF761FD019ABA
:105A9000002840F0B8803CB111463B687868224647
:105AA0009847002840F0AF804E46102E3B6808D93A
:105AB0007868654910229847002840F0A480103E7D
:105AC000F3E736B17868604932469847002840F0DD
:105AD0009A803B68786859462A469847002840F0E3
