:020000040020DA
:100000002C3300208D022000DFB42000DDB420005E
:10001000DDB42000DDB42000DDB4200000000000CD
:10002000000000000000000000000000DDB420001F
:10003000DDB4200000000000DDB4200091B52000F8
:10004000B3B52000B9B52000BFB52000C5B520006C
:100050000000000097B520009DB52000DDB4200011
:10006000DDB42000000000000000000000000000DF
:100070000000000000000000DDB4200000000000CF
:100080000000000000000000DDB42000DDB420000E
:10009000DDB42000DDB42000DDB42000DDB420009C
:1000A000DDB42000DDB42000DDB42000DDB420008C
:1000B000DDB42000DDB42000DDB42000DDB420007C
:1000C000DDB42000DDB42000DDB42000DDB420006C
:1000D000DDB420000000000000000000000000006F
:1000E0000000000000000000000000000000000010
:1000F0000000000000000000B92A2000C92A2000EA
:1001000000000000000000000000000000000000EF
:1001100000000000000000000000000000000000DF
:1001200000000000000000000000000000000000CF
:1001300000000000000000000000000000000000BF
:1001400000000000000000000000000000000000AF
:10015000000000000000000000000000000000009F
:10016000000000000000000000000000000000008F
:10017000000000000000000000000000000000007F
:10018000000000000000000000000000000000006F
:10019000000000000000000000000000000000005F
:1001A000000000000000000000000000000000004F
:1001B000000000000000000000000000000000003F
:1001C000000000000000000000000000000000002F
:1001D000000000000000000000000000000000001F
:1001E000000000000000000000000000000000000F
:1001F00000000000000000000000000000000000FF
:1002000000000000000000000000000000000000EE
:1002100000000000000000000000000000000000DE
:1002200000000000000000000000000000000000CE
:1002300000000000000000000000000000000000BE
:1002400000000000000000000000000000000000AE
:10025000000000000000000000000000000000009E
:10026000000000000000000000000000000000008E
:10027000DDB42000A9292000C12920000923200085
:10028000DDB42000611E2000DDB4200010B5094B54
:10029000FF221A600848094A4824E3690849121AEB
:1002A00098470848084AA3690021121A984701F0A4
:1002B000CDFAFEE7B4200D404000002026070020C4
:1002C000ACD62000280700202C2B002010B5038876
:1002D00004462BB1682B09D000230380032010BDF6
:1002E00000F0DAFC68232380012010BD034B1B784B
:1002F0008B42F9D1104600F067FCF3E7222B002077
:100300002DE9F8430024074625467B195B7817F84A
:10031000059003EB09291FFA89F9B9F1000F11D1F2
:10032000002C14DB01D001342FE01A4E1A48346837
:100330001A4A2044C4F580710BF0C8F9204430609B
:10034000012422E0002CC8BF4FF0FF340EDC6DB159
:10035000DFF840801048D8F80060114A3044C6F5F4
:1003600080710BF0B3F93044C8F80000DFF8248046
:100370000948D8F800600B4A3044C6F580714B46F6
:100380000BF0A4F93044C8F800000235102DBCD1A0
:10039000BDE8F8834C0700206F20002060D02000CB
:1003A00061D0200063D020002DE9F041838D044608
:1003B000DB2B66D009D8A32B15D0D52B47D0002B2B
:1003C00040F0D680A32383850DE040F215129342BE
:1003D00000F0B680B3F58B7F00F0C180B3F5817F6C
:1003E00040F0C6808BE004F12C006449332206F013
:1003F00015FD012802D80020BDE8F0816049614860
:100400000AF0B2FE604B0E221A60604B186807F0CB
:100410001BFF5F4B186006E05D4D5C4B2968186858
:100420000CF039F828605A4B574D1868554FE8B111
:10043000FFF766FF2E68574AB819C6F580710BF0B2
:1004400045F93044D3282860E6D9D523A3854D4803
:100450000AF0E8FE4B49024604F12C0006F0DEFCEF
:100460000128C8D9484B00221A60D5E72E684A4AAD
:10047000B819C6F580710BF029F9DB2330442860E8
:10048000A38540480AF0CEFE3E49024604F12C0006
:1004900006F0C4FC0128AED93B4B00221A6003F0E1
:1004A00025FF3E4B18603D4E374D3068354F0028D4
:1004B0003AD00830FFF724FFD5F800803368C8F53C
:1004C0008071374A93F8243007EB08000BF0FEF8F0
:1004D00040442860306803F0FBFEFFF711FFD5F8B9
:1004E0000080336807EB08009B69C8F580712D4ACE
:1004F0000BF0ECF84FF4817340442860A385214849
:100500000AF090FE1F49024604F12C0006F086FC1A
:1005100001287FF670AF214D1B4B002228681A601E
:100520000BF047FA2860BEE72E681F4AB819C6F5D7
:1005300080710BF0CBF840F2151330442860A3858E
:1005400010480AF06FFE0F49024604F12C0006F035
:1005500065FC01287FF64FAF4FF48B73A38504F140
:100560002C0012490F2206F059FC01287FF643AFF8
:100570000023A3850320BDE8F08100BF66D02000E2
:100580009AD020006F2000204C0700201C0600207D
:1005900038070020E2D02000A9D02000500700201A
:1005A000BBD02000C5D02000CDD02000D4D020006A
:1005B00000487047A9032000064B10B53F221A706F
:1005C000054C50225A700223238002F04BFC00237A
:1005D000238010BDDC250020C825002030B5164A38
:1005E00085B0034600F1100553F8041BAB4242F8F6
:1005F000041BF9D103466C4618685968224603C2A9
:100600000833AB421446F7D10C4B012468460C4921
:100610001C700BF0AAF900216846224603F094FCF6
:100620001E20694607F012F818B1034940220BF06A
:1006300056FA05B030BD00BF501D00206E200020CE
:10064000D425002008B50748074901F0AFF807484E
:10065000074901F0ABF8BDE808400648064901F03B
:10066000A5B800BFD0040020E4D02000AC040020D6
:10067000EAD0200088040020F6D0200070B504885D
:1006800040F27116B44205461CD0B4F5B97F0ED2C3
:10069000A4B9334B20461C70324B5B699847324BF0
:1006A00085211868224603F05DFA2E8047E0B4F5F4
:1006B000C17F0FD040F293139C4242D000232B8085
:1006C000032070BD85293AD1284B01219B688120E8
:1006D000984703E026480BF02CF880B3204B1B789A
:1006E00043B9234880210BF009F8FFF765FF4FF469
:1006F000C17323E01B4B01205B6998471D480AF03A
:100700007EFF1D4C04F1600614F8022C237C52B1CC
:10071000012B08D8202002F087FA204606F04CFB77
:100720000A2002F081FA2034B442EDD101F026F81B
:10073000FFF788FF01F058F840F293132B80012057
:1007400070BD0E4B1B788B42F6D1084B9A42F3D109
:100750001E200BF043FB0F2001F062F8ECE700BF16
:100760006E20002004CF20001C0E002068CD200049
:100770003C07002002D12000762400200E2B002010
:1007800008B54FF4E13002F0A7FA0448002103F065
:1007900015FABDE80840024802F05EBBA005002043
:1007A000A507200030B52B4C85B02378212B1FD115
:1007B0006178294802F0E2FB284B00211980637818
:1007C000502B37D1102268460AF00AFC54F8020F69
:1007D0006B46616803C3224802F0D0FB684606F00E
:1007E000EBFA0A2002F020FA6846FFF7F7FE21E054
:1007F0003F2B1FD11B48617802F0C0FB63784D2B63
:1008000015D1212323700023174A0234995C174A1B
:10081000080901F00F01805C01338A5C082B20700D
:100820006270F1D10D4B12221A8002F01BFB0B4BB0
:1008300000221A800E4C0F4A04F11005234603CB08
:10084000AB42106051601C4602F10802F6D105B0BF
:1008500030BD00BFDC25002031D12000C82500209C
:1008600057D1200067D12000D425002087D1200057
:10087000E4250020601D002008B50D480D49102218
:100880000AF09EFA80B90C4802F078FB094806F09D
:1008900093FA0A4802F072FB094806F08DFABDE8A7
:1008A00008400A2002F0C0B9BDE8084002F0DABAF8
:1008B000601D0020E425002098D12000CCD120002C
:1008C000F42500202DE9F341244D002300930193EA
:1008D00088466B6D22496A4607469847044620B908
:1008E0006B694046A96F984735E0009E1D49304628
:1008F00022460AF0C5FC70B130461B4922460AF078
:10090000BFFC50B13046194922460AF0B9FC002814
:10091000E6D1022402E0012400E00424AB6D384655
:10092000134901AA984706460028D9D0019F1149CA
:10093000384632460AF0A4FC18B9204600F05EFFA3
:1009400009E038460C4932460AF09AFC0028C7D123
:10095000204600F05BFF02B0BDE8F0815CCC2000D7
:10096000D2D120003CD42000D8D12000DAD1200000
:10097000E0D12000A9D62000DCD1200073B5164CB0
:100980000C23154600228DE80C000E46636D1349BA
:100990006A46984750B100980AF0C4F920EAE0701E
:1009A0004028C8BF40230190C8BF0193019A284640
:1009B0000B490AF039FAE369D4F8B4103046984785
:1009C000636B01A9304601229847E36C3046294603
:1009D000019A984702B070BD5CCC200040D2200044
:1009E00044D2200038B5038904469E2B0AD004D88F
:1009F000002B50D19E23038104E0A32B1BD0BA2BE4
:100A000041D048E004F10800202106F067FA0128EF
:100A100001D8002038BD04F15200214904220AF017
:100A20002FFC30B11F4B10221A70002323810220AB
:100A300038BDA323238104F108052846202106F0B0
:100A40004DFA0128E5D994F852302F2BEAD194F8C9
:100A50005330202B04D1144B1B88A4F86C300DE0CC
:100A600028460AF0E6FF0023204480F8513004F1C4
:100A7000520104F16C0002220AF05CFC012384F8AC
:100A80007430BA23238104F108000A2106F026FA03
:100A90000128F6D8BDE700232381032038BD00BF1D
:100AA000E7D3200068260020A4D2200038B5838D2B
:100AB0000446632B0D4604D0762B11D0C3B96323B3
:100AC000838528460AF0AEFB2946024604F12C0035
:100AD00006F0A4F9012801D8002038BD7623A385AB
:100AE00004F12C0004491B2206F098F90128F3D9DF
:100AF0000023A385032038BD63D3200010B5B0F8D0
:100B000050300446882B21D003D83BB1862B12D01D
:100B10004AE08E2B35D08F2B3CD045E003676D30FB
:100B2000FFF746FD206748BB224B1B88A4F86C30BA
:100B30008623A4F8503020461F49FFF7B7FF01284D
:100B400001D8002010BD8823A4F85030A38D13B124
:100B5000562B02D009E05623A38504F12C00174937
:100B6000582206F05BF90128EBD9154A0023102121
:100B7000A3851170A4F85030022010BD8E23A4F874
:100B8000503020460F49FFF791FF0128D9D98F2314
:100B9000A4F85030236F204698470128D1D900236C
:100BA0002367074B10221A700023A4F8503003204B
:100BB00010BD00BF7FD32000B0D220008ED3200014
:100BC000682600200DD320002DE9F0412F4E044669
:100BD0003378B04613F0300501D11A0609D5002C40
:100BE00051D00023236721462948BDE8F0410AF08F
:100BF00037BE03F0400202F0FF073AB324480AF080
:100C00001BFE044620B9202388F80030BDE8F0819F
:100C1000204B2146186804F1520606F0EDF904F164
:100C20000800314619220AF009FF04F12C00314670
:100C300019220AF003FFA4F85050256784F8745075
:100C400020464FF4A0610AF085FD10E00028DAD0BC
:100C50001B070AD50AF090FD48B1202327672146DB
:100C60000B4833700AF0FCFD01E00AF07FFD2046DE
:100C7000FFF7B8FE94F87430012B04D12046BDE88C
:100C8000F041FFF73BBFBDE8F08100BF68260020C0
:100C9000F40400207826002008B54FF4A04006F0A8
:100CA0008DF9BDE8084001480AF0B6BDF404002003
:100CB000014B1860704700BFE80800202DE9F04F95
:100CC000038887B0814633B1B3F5AD7F13D00023DD
:100CD000038003209DE1A548A54900F067FD00F0D1
:100CE000A9F943F2163008F033FB4FF4AD73A9F8BD
:100CF000003001208DE19F4B1B788B4240F08381B7
:100D00009D4D00232B709D4B1B789907EDD59C4E74
:100D10009C4B9D4C316820461A8808F0C9FCB246AD
:100D200007462870994E002840F00881A379013BBE
:100D3000032B00F2DD80964B20891A78954B2832E0
:100D400003F108019A5A00F07FF93060002800F0A2
:100D5000C9804023ADF80A3063790397049705975B
:100D600023B98D4802214522238905E008F004FBC0
:100D700003468948012145220BF0F8FDA27A1AB1F9
:100D8000854886490BF027FE04AB00937E4803A9F3
:100D900000220DF10A030BF0D5FE40B1BDF80A3078
:100DA000402B28BF4023ADF80A30049B05937C4BB1
:100DB000D3F800C0BCF1000F00F090803268764F8D
:100DC000DFF8C4B105A90091BDF80A30584639468C
:100DD0007432E047B84600286FD02B78002B6CD1D6
:100DE0009BF816301A070DD597F90630002B09DB52
:100DF000BB7D1B0706D4604BA1221A70694A6A4B5F
:100E00001A605AE094F91530059A002B42DA049BD7
:100E10009A4224D1B8F89A105F4F8A4205D38223B0
:100E2000BB71384661490F2245E0BDF80A308A1A85
:100E30009A4294BF00220122039938460BF09BFE90
:100E4000049BB7F89AE0D7F89C10BDF80A20C3EBD2
:100E50000E0E38461944964538BF72462BE00132D3
:100E60000399BDF80A3006D1B8F89A209A4294BF87
:100E70000022012200E00122474F38460BF07BFEA2
:100E8000BDF80A20B8F89A30934216D93846D7F8F8
:100E90009C1010E08AB1013218BF012200213E48A7
:100EA00040230BF068FEB8F89A203B483F2AD8F858
:100EB0009C1088BF40220BF095FE2B78002B3DD173
:100EC0003768354807F1360108F05EFA80B2B88617
:100ED000002833D1284BC1221A702FE0A1232B7098
:100EE000334A02E0A323334A2B702F4B1A6025E0CC
:100EF000636823F07F4323F0FF0313B9C3232B70F0
:100F00000CE06379032B09D1214B1A78214B28324D
:100F1000995A03F10800228900F0F8F9208900F0BD
:100F200015F9306040B1C76AD0F8308000F0AEF8F3
:100F300017B140461449B847002333602B780E4F51
:100F400030682BB900283FF4D0AE00F0B5F8CCE6FD
:100F5000C22B02D100F09AF8C7E600F097F83B7870
:100F6000C32B29D100233B7003212AE02805002050
:100F7000ECD32000222B0020C22300206826002072
:100F800074260020C8250020EC080020440800201A
:100F90004C230020DC25002048080020F708002012
:100FA000E8080020FDD32000D00600200DD420004A
:100FB0001DD420002ED42000BF2B84BFA0233B7063
:100FC00002212A78238914480BF0D0FC134B144DCE
:100FD0001C6820460AF026F9214602460E480BF00E
:100FE00001FE104BDAF800401B78214628330A48EE
:100FF0005E5B08F0C9F9314683B2224605F108006C
:1010000008F030FB71E688297FF46FAE00F0ACF891
:101010006BE607B0BDE8F08FEC080020D00600209A
:10102000DC2500204C2300200148002102F0C6BD31
:1010300000050020024B1A68024B1A60704700BF7F
:101040001C0E002090090020F8B505460D480E46FC
:1010500017460AF0F1FB044690B100230376858021
:10106000314600F11A0306F1100251F8040B9142C7
:1010700043F8040BF9D16785034821460AF0AAFB1F
:101080002046F8BD100500208C09002010B504464C
:1010900060B1083002F0AEFB214605480AF086FB3D
:1010A00021460448BDE810400AF0DABB10BD00BF7D
:1010B0008C090020100500202DE9F041044600F1C4
:1010C0001A052846618D04F13602A38E08F0CAFA8B
:1010D00094F83670C7F3011767BB237E032B19D82A
:1010E0004BB902F035FEC023B0FBF3F202FB130054
:1010F00000F2811301E0E3685B00124DE360124BE4
:101100002E681B6804F108002B600AF009FB2E60B2
:10111000BDE8F081E66A2846618DD4F8308000F0A1
:1011200049F82046FFF7B2FF4EB140463946B04776
:10113000BDE8F0812046BDE8F041FFF7A7BFBDE85C
:10114000F08100BF1C0E00209009002010B504465D
:1011500004480AF022FB20B18388A34201D0006832
:10116000F9E710BD8C09002010B509480AF015FBFD
:10117000044664B104F108000AF0DBFA28B1237ECA
:10118000204601332376FFF797FF2468F1E710BD6F
:101190008C09002010B50446214604480AF060FB83
:1011A00021460348BDE810400AF000BB1C050020A2
:1011B000340D0020F8B506460C480F460AF0EDFA4B
:1011C000002504467CB104F108003146102209F0E4
:1011D000F7FD30B9238BBB4203D12046FFF7DAFF7E
:1011E00001352468EEE72846F8BD00BF340D002025
:1011F0002DE9F84307461348884691461E460AF0F3
:10120000CCFA00250446CCB104F10800394610227E
:1012100009F0D6FD80B9238B43450DD1A37EB3429F
:101220000AD104F11B004946324609F0C9FD18B93C
:101230002046FFF7AFFF01352468E4E72846BDE804
:10124000F88300BF340D00202DE9F8430746144809
:10125000894690460AF0A1FA00250446E4B14FB150
:1012600004F108003946102209F0AAFD90B9238B39
:101270004B450FD16668464508D0304609F0D2FF8D
:1012800041460246304609F09BFD18B92046FFF75B
:1012900081FF01352468E1E72846BDE8F88300BFF7
:1012A000340D00202DE9F047089E914632468A46CB
:1012B00098460546FFF7C8FF12480AF0BDFA0446F3
:1012C000E0B1466000F1080705F11003286869687D
:1012D0003E4603C608359D423746F7D14946A4F835
:1012E00018A084F81A8004F11B00424609F09CFD06
:1012F0000023A384044821460AF06CFA2046BDE886
:10130000F08700BF1C050020340D00202DE9F041BE
:1013100006460F480F4690460AF03FFA002504465D
:1013200094B104F108003146102209F049FD48B992
:10133000238BBB4206D1A38C434503D12046FFF744
:1013400029FF01352468EBE72846BDE8F08100BF9E
:10135000340D0020F0B5ABB0012145220023064634
:1013600002A80BF003FB23480AF017FA0446002CEE
:101370003DD0626873689A4237D107F0FDFF04F1EF
:101380000801228BFFF760FE054670B3A36A1422A2
:1013900093FBF2F102FB11330BB98DF80D30AB88E2
:1013A0000020A384AB883769ADF81030009040234B
:1013B00002A905F17402B8479DF90E30002B05DB38
:1013C000A16A02A84B1CA3620BF0B5FB04F11B0140
:1013D000A27E02A80BF0FFFA02A805F1360107F081
:1013E000D3FFA8862846FFF767FE2468BFE72BB027
:1013F000F0BD00BF340D002037B58B790C46012BB2
:1014000015463BD192F90630002B37DBCB7C5B06CF
:1014100034D50B6E0BBB1A4B1A4A1B784068283325
:10142000995A0090A37A02F1080004F10B02FFF729
:1014300039FF40B1816A4B1C8362284603B0BDE886
:1014400030400BF078BB1049A32328461022AB7123
:1014500003B0BDE830400BF0C5BB012B0ED1084BEB
:101460001A78084B2832995A03F10800A37A04F13C
:101470000B0203B0BDE83040FFF7BABE03B030BD89
:101480004C230020DC25002052D420002DE9F74F0A
:101490000C9E8A4690461F4600F0A2F90AF07DF99C
:1014A000002481462546B9F1000F78D04DB133684C
:1014B0009D4205D3BC4203D22C2308F804300134EA
:1014C000013533689D4205D3BC4203D23C2308F862
:1014D0000430013433686A1C9A4205D3BC4203D2FB
:1014E0002F2308F804300134D9F8043002351846A7
:1014F000019309F097FE326800EB050B9345019BC1
:101500000FD9C5EB020E791C08EB0400091BBEF1D4
:10151000000FA8BF7344334A0AF0D8F80444BC4211
:101520003DD233689B4505D3BC4203D23E2308F825
:1015300004300134D9F80C300BF101051B782BB3C2
:1015400033689D4205D3BC4203D23B2308F80430E4
:1015500001340BF10203D9F80CB00193584609F09D
:1015600061FE019B3268C51895420FD9D31A791CC8
:1015700008EB0400091B002BACBF5B440BF100031C
:10158000184A0AF0A3F80444BC4204E0BC4203D960
:1015900033682A1B9A4203D8D9F8009083E74CB1EC
:1015A0004146504622460BF01DFB504628210BF0C9
:1015B00029FA09E045B1822150460BF006FA50465F
:1015C00009490F220BF00EFBB9F1000F03D14FF0C8
:1015D000FF33336002E033681F44376003B0BDE877
:1015E000F08F00BF63D420000DD4200070B50288B6
:1015F0000546B32A09D0C32A21D082B91B4B8521C5
:10160000186802F0AFFAB32307E085290BD1184818
:101610000AF0C3F8044644B9C3232B8003E0002337
:101620000380032070BD012070BDE3692BB1A16868
:1016300019B104F10C000AF061F82468EBE788297D
:10164000EAD10B480AF0A9F80446002CE4D0A368BC
:1016500053B104F10C0630460AF06BF820B1E3698F
:10166000984730460AF053F82468EEE71C0E002035
:10167000380D00202DE9F04F054687B099463D48CA
:1016800000230E469046DDF840A005930AF085F849
:101690000446394F002C60D0FB6805A92846039307
:1016A00098478346606809F0BDFD83450CD1D4F8A6
:1016B00004B0584609F0B6FD05990246584609F0AF
:1016C000DFFD002847D10DE005A9039B2846984778
:1016D0008346606809F0A6FD83453CD9237AD90684
:1016E000E5D438E03B6928469847C20704D5D4F8CA
:1016F00010C0BCF1000F14D1830704D5D4F814C076
:10170000BCF1000F0DD1410704D5D4F818C0BCF1CD
:10171000000F06D1020716D5D4F81CC0BCF1000F8B
:1017200011D04B46CDF800A0284631464246E0474E
:10173000237A5B061BD520463B6E294632469847E6
:10174000012004460FE07B693046D7F88C1098479B
:101750000020012407E024689BE77B693046D7F826
:10176000881098470120204007B0BDE8F08F012085
:10177000EFE700BF3C0D00205CCC200010B5074C0B
:1017800007480AF007F8A36806489847636898472F
:10179000BDE810400448002102F010BA5CCC2000E3
:1017A0003C0D0020751620004C05002010B50446A5
:1017B0004160094821460AF00DF894F90830002BE1
:1017C00009DA216ACB6933B18B6823B10348BDE8DC
:1017D000104009F0FFBF10BD3C0D0020380D002067
:1017E000004870473C0D002008B500F021F8024B7E
:1017F00000221A7008BD00BF78210020024B1A7821
:101800001043187000F01CB878210020034B1A78A0
:1018100022EA0000187000F013B800BF7821002001
:10182000024B1A785040187000F00AB87821002056
:10183000024B1A6842F00F021A60704700B40D4064
:10184000014B1860704700BF3CB00D40F7B500F089
:101850004DFC00F0F5FC00F091FC00F061FA01F0A5
:10186000D1F909F075FF00F0E3FCFFF7BDFF02209E
:1018700009F042FE02F0FCF800F024FC00F0E6F96A
:10188000002000F047FB012000F044FB4449002009
:1018900000F002FC02F04AFA09F083FE042009F08D
:1018A0002BFE404809F0ABFE3F4809F0A8FE3F4838
:1018B00001F064FB3E4B3F4D186809F0A0FE3E4826
:1018C00001F05CFB3D4B0024186809F098FE3C4891
:1018D00001F054FB3B4B2E46186809F090FE0020A7
:1018E00002F048FA01F082F83748002102F066F968
:1018F00001F0DAFF6846082101F0B6F99DF80730DB
:101900009DF8067043EA07276B4603CB28602F48F3
:10191000696001F033FB315D2D48013401F02EFB8D
:10192000072C244DF7D12B4EE9792B4801F026FBEB
:10193000F46A4AF6CD310220A04739460320A04779
:1019400011210120A0476946736B0822092098479E
:1019500006F092FE214A2B6813606B68536006F014
:101960009DFB1F48002102F029F900F08BFC0021AB
:101970001C4802F023F909F0C0FE1B4809F0B3FE31
:1019800000F0A6FB082009F0B7FD00F0A7FB02F06D
:1019900087F810F0FF0FF8D101F0CCF8F5E700BFA1
:1019A000E93C200078D4200092D42000AAD4200062
:1019B000E8CE2000242B0020B1D4200004CF20004A
:1019C000B8D4200020CF2000B8050020BFD42000CC
:1019D000DDD4200020CE2000E3D42000D425002038
:1019E000480600205C05002048CC200070B5058822
:1019F0000446772D30D07E2D40D0002D4ED102F000
:101A00002FF8294B1870294B1D601E463368284A51
:101A1000264D52F823204AB126480021C15493682C
:101A2000802098472A6801322A60EFE7224A137023
:101A3000772321E01F4AD256002A13DB1B4B1A687A
:101A400001321A60194B1C4A1B6812789342F1DB71
:101A50001A4B1B68002BEBD0184A00231360134A63
:101A60001360EFE7104A00201178114A52F8232042
:101A700002F078F830B97E23238013E00A4B1B78FC
:101A80008B420FD1094B0B4A1B68D15C01F07F01DF
:101A9000D1540A4B1A6801321A60CFE70023038041
:101AA000032070BD012070BD0E2B0020400D0020D2
:101AB0006C0500200F2B002079210020440D002010
:101AC000094B1A780023934204DA084951F823108D
:101AD000814207D1064A0748D15C61F07F01D154A9
:101AE00002F084B80133EEE7792100206C05002074
:101AF0000F2B00205C05002008B50948082109F0DB
:101B000025FD03210422002000F0A8FB002000F0A6
:101B10000BFB04480021032200F044FB012008BD18
:101B200000900D40E91B200008B50948102109F07C
:101B30000DFD04210A46022000F090FB022000F077
:101B4000F3FA04480221042200F02CFB012008BD16
:101B500000B00D40E91B200008B50948202109F01C
:101B6000F5FC05210422022000F078FB022000F0A1
:101B7000DBFA04480221052200F014FB012008BD15
:101B800000B00D40E91B200008B50948402109F0CC
:101B9000DDFC06210422022000F060FB022000F0A0
:101BA000C3FA04480221062200F0FCFA012008BD15
:101BB00000B00D40E91B200008B50948802109F05C
:101BC000C5FC07210422022000F048FB022000F09F
:101BD000ABFA04480221072200F0E4FA012008BD14
:101BE00000B00D40E91B200038B5054611480C46F1
:101BF00009F0C2FDE8B10F48102109F0ABFD1DB995
:101C0000032C16D10C4810E0022D12D1042C01D166
:101C10000A480AE0052C01D1094806E0062C01D14A
:101C2000084802E0072C04D10748BDE83840FFF718
:101C300047BF38BD480D002068CD200088CD20006A
:101C400098CD200078CD2000A8CD200001480021AB
:101C500009F080BD480D002010B5074CFF2323601C
:101C60004FF4FA6000F09AF800213022062000F0CC
:101C700011FB0023236010BD00920D40802870B539
:101C80001ED1104E104D3368002423F080033360C2
:101C90002B68204643F080032B600C4B07211C600F
:101CA000224600F0DBFA3368204623F0400333601D
:101CB0002B68062123F040032B60012200F0CEFAAE
:101CC000002070BD20940D4000940D4000920D4006
:101CD000F8B500F087F8104E0022D6E90045A04282
:101CE000294638BF691C0F46B64642EA0006CEE9CF
:101CF00000670A49D1E90023121B63EB050392191F
:101D000043EB0703C1E9002301F06CFD18B1BDE806
:101D1000F84001F0F7BCF8BD28070020300700208C
:101D2000114B124A1A6053F8042C42F0050243F892
:101D3000042C53F8042C42F0020243F8042C0C4B00
:101D40001A6842F001021A60A3F52123A3F6FC737E
:101D500000221A60042243F80C2C012243F8082CBC
:101D60000F22DA62704700BF14E000E047E801008C
:101D700008200D40034BD3E90023100A40EA03601A
:101D8000704700BF28070020034BD3E90023D00B86
:101D900040EA4340704700BF30070020054B186001
:101DA0001C3B1A6842F001021A601A68D207FCD480
:101DB000704700BF2800034010B5064C236823F08D
:101DC00001032360FFF784FF236843F001032360CE
:101DD00010BD00BF10E000E0014B1868704700BF65
:101DE000500D0020064B1A68596808331B681B0405
:101DF00043EA01231343034A106843EA0060704733
:101E000040500D404C500D4010B50446114B1B681E
:101E1000DB07FBD509F0C9FBFFF7E4FF231A062B0C
:101E2000D8BFC41D0C4B220E1A60C4F3074243F8FE
:101E3000042CC4F3072243F8082CE2B243F80C2C1C
:101E400009F0AFFB054B91201C60BDE8104000F08D
:101E50006BB900BF50500D404C500D40500D00204C
:101E600008B500F04DFE064B002291201A6000F0EC
:101E700077F9912000F066F9BDE8084001F0D4BE82
:101E8000500D00200023084A1068084A995808425B
:101E900005D01A44D268906910F0800003D02C332A
:101EA000582BF0D10120704728200D40C8CD2000CC
:101EB00038B5164B2C2202FB0033DC684FF6BF729C
:101EC000236C62649BB213F0500205460DD0A369E7
:101ED000DB0609D40E4B53F825301BB12068C0B285
:101EE0009847F4E72368F2E738BD13F4D06F0BD0BE
:101EF0004FF440732363FF236360E36AE262E362AB
:101F0000236B43F00103236338BD00BFC8CD20001D
:101F1000540D0020012870B500F2B1802C254543F6
:101F2000574E741994F92030002BC0F2A88094F910
:101F30002230002BC0F2A380524800F053FE524BD7
:101F40007259196800260A431A60596862680A4380
:101F50005A609968A2680A439A60E368C3F8C86F38
:101F600094F9201094F92120236902EBC1021A6030
:101F700094F8220094F82310227D00F079F994F867
:101F8000220094F82310082200F068F994F9230045
:101F9000012101FA00F094F922203C4B1203D5589C
:101FA0002843D05094F9210094F9202001FA00F040
:101FB0001203D5582843D050E26850209063E2685D
:101FC0001D46906B40F4D0609063E268022050633D
:101FD000E2684FF440701063E268A0695062E26802
:101FE000E0699062E2687020D06294F92420B242E5
:101FF0001ADB94F9253043EAC202254B1A6094F9A2
:10200000250094F9243081401B035A59114359513A
:10201000324694F8240094F8251000F01FF91D4B67
:102020001A6842F400421A6094F8260003061BD492
:1020300094F82710012200F01BF994F927200120C1
:1020400000FA02F294F926301B0359590A435A51F7
:1020500094F82600082294F8271000F0FFF80D4BA2
:102060001A6842F480421A60E3681A6B42F0010277
:102070001A6394F82800BDE8704000F055B870BDB0
:10208000C8CD2000851E200028200D4020940D4042
:1020900004410D4030D0004001289CBF014B43F863
:1020A00020107047540D0020012808D8044B2C2222
:1020B00002FB0030C3689A699206FCD4196070472D
:1020C000C8CD2000014B00221A60704700500D401F
:1020D000014B08221A60704700500D40024BA022AD
:1020E0001A6050221A60704700500D40084A094B90
:1020F0001A60094B80321A60084B80321A60084B14
:1021000080321A60074B4FF400121A60704700BF0C
:1021100000E100E0680D00205C0D0020600D002053
:10212000640D002008ED00E04209012100F01F00CD
:1021300001FA00F0024B1B6843F82200704700BF11
:10214000680D00204209012100F01F0001FA00F093
:10215000024B1B6843F82200704700BF5C0D002053
:102160004209012100F01F0001FA00F0024B1B6838
:1021700043F82200704700BF640D0020054A064B5B
:102180001A60064B1A68064B1340B3F1807FF8D1F2
:10219000704700BF0101020100200D4004200D40E6
:1021A00000000101024B02EBC10243F8220070471C
:1021B0006C0D0020F8B50A4E07460D4606EB411699
:1021C000002447FA04F3DB07E1B204D556F82430C3
:1021D0000BB1284698470134082CF2D1F8BD00BF56
:1021E0006C0D00202DE9F047064635030F4F05F131
:1021F000804404F5592400F083FCD4F818A4EB596A
:102200004FEAC60823FA08F94AEA0900C0B2314683
:10221000FFF7D0FF5FFA89F95FFA8AF3C4F81C343C
:1022200009FA08F3EB51BDE8F08700BF18970D409D
:1022300002480021802208F0D3BE00BF6C0D0020B0
:10224000034A044B1A60044B803A1A60704700BF7F
:1022500080400D40F00D0020EC0D0020034B01EB01
:10226000C0011B6843F82120704700BFF00D00201B
:10227000034B01EBC0011B6843F82120704700BFEE
:10228000EC0D0020024B1A6842F030021A607047D1
:1022900000700D400E2870B50BD1154C236843F02B
:1022A00002052560134D2C6824F03F0646F0010618
:1022B0002E60114D2E6826F0FF0632431143014374
:1022C00029600E4A12681206FBD50D4A0D491268A4
:1022D000096802F0FC0242EA012292B20E2892B290
:1022E00003D104490C6002490B6010B270BD00BFFD
:1022F00034000144F486084008700D4000700D4021
:102300000C700D4010700D4010B58F20064CFFF77B
:1023100027FF8F20FFF716FF206818B101F066FC39
:102320000023236010BD00BFF40D0020084B93F97B
:102330000020002A09DB074AED2111601160E3212A
:1023400011601A7862F07F021A700120704700BF96
:102350007A21002038880840094B1B689B07FBD472
:10236000084BED221A601A60074A12680AB1EF2280
:102370001A60064B01201A7802F07F021A7070472B
:102380004C860840388808402C8608407A21002076
:1023900038B5A0F10B05EBB20F2B044613D80B4B4D
:1023A0001B6813F03F0302D0FFF7D6FF012305EBB4
:1023B0008505074A0B3515600BB1FFF7B7FF054BD5
:1023C000E0B21C7000E0FF2040B238BD48860840F3
:1023D0003C8608402407002010B50B4B1B6899066B
:1023E00003D1FFF7A3FF012300E00023074A12688F
:1023F000D207FBD5064A1468C4F300140BB1FFF7EB
:10240000ABFF204610BD00BF4886084064860840E8
:102410004C860840044B186800F02200B0F12003FD
:1024200058425841704700BF4C860840024B18681C
:1024300000F04000704700BF4C86084038B50C469D
:1024400000296CD00D286CD8DFE800F0070D181AB1
:10245000216B3142476B5E606265334B1B68003312
:1024600018BF012358E0314B05221B6803F07F039E
:102470000B3B93FBF2F30B33DBB24DE02C4B00E054
:102480002C4B1A68043B1B6843EA022344E00023F8
:10249000294A0B60126802F001020A6027490868A5
:1024A00010F020003ED042F00202226035E0244BC2
:1024B00019680023C9B2234A02EBC300007988429D
:1024C00002D852F8333027E001330E2BF3D11FE04E
:1024D0001D4B1B685BB2493B1EE01C4B1B689906F9
:1024E00003D1FFF723FF012300E00023184A1268FD
:1024F000D207FBD5174A1568493DEDB20BB1FFF77E
:102500002BFF6DB2256008E00B2305E01A2303E0E2
:102510006FF0170300E007232360002038BD02207E
:1025200038BD012038BD00BF2C8608403C860840DD
:10253000CC850840D48508400086084024860840A1
:102540004086084058CE20005886084048860840FB
:10255000648608406086084038B505460C46134B33
:102560001B689B07FBD4124B93F90030002B01DB57
:10257000FFF7DCFE0F4BEE221A60691E1A60A21CE8
:1025800043F8102C2144022000F048FA013C0A498B
:1025900024012143022000F053FA022000F05AFAED
:1025A000022000F06FFA002038BD00BF4C860840C2
:1025B0007A2100203888084002C001C0F8B51F4BBE
:1025C00093F90030002B0CDBFFF70CFC0446FFF7FF
:1025D000ADFEFFF707FC6FF009031B1BC342F8D4E5
:1025E00001E0002600E00126FFF7F6FE10B3144DCF
:1025F0002B6899061ED4134CE923236004272B680B
:102600009A0707D4013F17F0FF0703D00620FFF712
:10261000C5FBF4E72B689B0704D4EE2323602360FB
:10262000012403E02C6814F00204FBD126B1FFF76B
:1026300093FE01E00220F8BD2046F8BD7A2100207B
:102640004C86084038880840044B1A6810B142F0A4
:10265000010201E022F001021A6070470086084082
:1026600038B50C46072855D8DFE800F0040F1B1FCB
:1026700026543B4F012902D1FFF758FE4EE00029B6
:102680004AD1FFF769FE204638BDA1F10B030F2B9D
:1026900042D8C8B2FFF77CFE013014BF00200320EF
:1026A00038BD8CB2E2B21E4B02E08CB21D4BE2B2DE
:1026B000240A1A605C6031E031F003052CD101F08E
:1026C0000100FFF7C1FF184B14F002001A6804D094
:1026D00042F020021A60284638BD22F020021A601B
:1026E00038BD01F118031F2B16D80D230F4AD8004F
:1026F00052F833108C4204DC024412790C4B1A60FD
:102700000CE013F1FF33F1D208E0CCB2094B4934AD
:102710001C6003E0012038BD022038BD002038BD18
:10272000C8850840D08508402486084058CE20003F
:10273000408608405886084009280CD1082A0CD148
:1027400059B1084B013953F8042D01F8012F064AFD
:102750009342F8D103E00120704702207047002027
:10276000704700BFC8850840A885084009280CD1DB
:10277000082A0CD159B1084B083111F8012D43F842
:10278000042F064A9342F8D103E00120704702204B
:1027900070470020704700BFA4850840C4850840EA
:1027A00070B52C4E336813F0400342D02A4C236896
:1027B000DDB21B0639D4042D37D9023D8D4234DCFD
:1027C000EDB2032D1BD041190139032000F02EF981
:1027D0006B1E22491B010320194300F031F903202D
:1027E00000F038F9032000F04DF9032000F056F90D
:1027F0000028FAD121682468200616D506E023684F
:1028000003702368437023688370F3E7493949B242
:1028100089B2042005F006FF032004F07F0105F0D3
:1028200001FF33685A0606D411E00D4BED221A6001
:102830001A60002070BD074B1B681B0603D50948B2
:1028400001F0D4F903E0064BED221A601A60284625
:1028500070BD00BF4C8608402888084002C0010CAB
:102860003888084090050020F8B52B4D2E7816F0DA
:1028700001064ED1294B01241C605C609C60A3F5CD
:102880009323A3F51473F8221A600922C3F8902148
:10289000152270331A6003F59B230B2203F59E73F8
:1028A0001A60A3F59B23A3F5F07340221A601A68FF
:1028B0007F2742F020021A60D52243F81C6CDF62A9
:1028C000DA61174B1878FFF763FD164B8D201A68F5
:1028D00042F004021A60FFF727FC134B8E201F60A2
:1028E000FFF722FC022000F0C1F81049022000F09E
:1028F0009DF8032000F0BAF803200C4900F08EF890
:102900000B48314601F05AF92B78204623432B70AF
:10291000F8BD0020F8BD00BF7A210020A8200D409E
:10292000240700208C8608409486084028880840A8
:102930009005002038B503880446E3B140F2B9326F
:10294000934203D000230380032038BD822915D190
:1029500005F006FE05F0A4FD8021FFF721FF002809
:1029600005DD80B205F096FD0C4B1B6998470C4BBA
:102970001A78520604D440F2B9332380012038BDBE
:1029800000221A70074B1D68FFF7E6FCFFF76CFF8B
:10299000AB06F0D0FFF7CAFCEDE700BF20CF200068
:1029A0007A2100204886084008B5034801F01EF946
:1029B000024B00221A6008BD9005002034880840B0
:1029C000074B1A68042A1A4604D0064B197841F0BE
:1029D0004001197000231360034801F007B900BFDC
:1029E0002C8808407A2100209005002010B5094C61
:1029F00000212046402208F0F3FA074B01221A601A
:102A00002E205C60FFF790FBBDE810402F20FFF701
:102A10008BBB00BF0000002004F00F40032802D849
:102A2000014B00011950704700000020032803D813
:102A3000024B03EB00104160704700BF0000002014
:102A4000032803D8024B03EB00108160704700BFDE
:102A500000000020032806D8012101FA00F0024BF3
:102A60001A6810431860704728F00F40032806D8F2
:102A7000012101FA00F0024B1A68104318607047F8
:102A800020F00F40032806D8012101FA00F0024B84
:102A90001A6810431860704714F00F40032806D8D6
:102AA000044B03EB0010806800F007007047002023
:102AB000704700BF00000020024B4FF0FF321A6049
:102AC000704700BF04F50F40014B01221A607047A8
:102AD0004CF00F40094B1A68194612F4801FF9D1C7
:102AE000043B1A6822F480321A600A68D203FCD4CC
:102AF0001A6842F400321A60704700BF04200D408B
:102B000010B50A4B1A681C4612F0030F0CD0084A85
:102B100013685901FBD413685B01FCD5FFF74CF92E
:102B2000FFF7D8FF0023236010BD00BF58200D40E1
:102B300004200D4038B5254B1C6814F03F0413D118
:102B4000234BE35823B1984770B104340C2CF7D1D0
:102B5000204B1A781D463AB1FFF73EF90446FFF7BD
:102B600041F9201A092801D830BF38BD002CFBD00C
:102B7000194B1A6822F400321A60184A1168C90207
:102B8000FBD4196841F4803119601368DB03FCD56C
:102B9000FFF728F9201A092803D8BDE83840FFF7C5
:102BA00099BF63280E4C02D92B78022B00D0012349
:102BB000236000F0CDFF20B1FFF78CFF00232360DE
:102BC00038BDFFF709F90028CED1F5E7488608405F
:102BD000F80D00207B21002000200D4004200D4036
:102BE00058200D400023064A52F82310814206D097
:102BF00011B942F8230070470133032BF3D170471A
:102C0000F80D0020054B00221A60054B1A6842F0AF
:102C100004021A60034B01221A70704758200D40BD
:102C200010ED00E07B21002070B50E4E0446357893
:102C30004DB92846C021FFF737FA28460D21FFF786
:102C400033FA012333700020E1B2FFF72DFA0A2C8A
:102C500005D10020C021FFF727FA0023337020465A
:102C600070BD00BF7C21002030B5184B1B783BB9EC
:102C7000174A1278122A03D1164A12784B2A01D029
:102C8000002317E04A08934207DA02F5201427349C
:102C9000E41A2478C4540133F5E70023934208DA98
:102CA00001F520142734E41A25788418E5540133FB
:102CB000F4E730BD8B4207DA01F520122732D21A31
:102CC0001278C2540133F5E730BD00BF2B00280055
:102CD0002A0028002900280000200149FFF7DCB95C
:102CE000C12E20002DE9F74F0388074633B1B3F515
:102CF000817F11D000230380032091E04A4A138092
:102D00004A4A13804A4A13804A4B01221A704FF4F0
:102D100081733B80012083E082294FF00109F9D1C2
:102D2000434E454A4548348882F80090025DDFF8FA
:102D3000F880432A82462BD1DFF8F0B0BBF80020A0
:102D4000944225D2121B052A22DD00EB040C6046BA
:102D50003B490622CDF804C008F032F8DDF804C083
:102D60000546A8B906226046294608F039F9314AD5
:102D7000A8F80050ABF80050358082F80090314B35
:102D8000585D013508F04BFC0D2DF8D100253BE0D6
:102D9000B8F80060B442F9D00AD2351BADB28C2D20
:102DA00023D80AEB04012A46274808F03DF81DE025
:102DB00006F19C052D1BADB28C2D16D82346224A58
:102DC0009B2BC4EB0201C4F10000194405D81AF88A
:102DD00003100244D1540133F1E70023B34205D27A
:102DE0001AF80320CA540133F8E70025104B1E805F
:102DF000104B1A7842B90D4A14481288A8F80020DE
:102E000001221A7000F0F2FE114B1D80002D3FF4DC
:102E10007EAF104B1B6803B1984704F015F976E7B5
:102E200003B0BDE8F08F00BF721D0020701D0020B0
:102E3000741D002019220020182B00207D21002065
:102E40000DD5200014D52000DC250020A005002091
:102E5000C8250020040E0020014B1860704700BFF9
:102E6000040E002038B5C02008F0D9FB114B002417
:102E70001149A2B20988914216D93C2A04BF0F4BCE
:102E80001B6818785D1CC02804D1DB2008F0C7FB44
:102E9000DC2004E0DB2802D108F0C1FBDD2008F0D3
:102EA000BEFB01342B46E3E7C02008F0B8FB00204E
:102EB00038BD00BFDC250020C82500207426002076
:102EC00038B5284B1A78032A31D8DFE802F04817C2
:102ED0000602C02843D1012213E0DC2808D0DD28F7
:102EE00008D003221A70204B1A88204B1A8036E033
:102EF000C02000E0DB2001221A7018E0DB2802D19C
:102F000002221A702BE0C02811D1184A1188164AE3
:102F10001088814223D0164C2488844216BF002298
:102F200011801A70134800F061FE012038BD0F496E
:102F30000F4C0D8824886A1C9C2A08BF0022A242DC
:102F400005D103221A70084B1B880B8007E00A4B3F
:102F5000542858550A8002D11B5D432BE2D0002033
:102F600038BD00BF19220020721D0020701D0020F6
:102F7000741D0020A00500207D2100200FB407B59E
:102F800004AA52F8041B0448019200F033F803B07D
:102F90005DF804EB04B07047B00500201FB5084C85
:102FA0008DE803000294114600AC1A4602A803946F
:102FB00000F020F8009B00221A7004B010BD00BF82
:102FC000A5B6200038B505460C46102C07D92B684D
:102FD000686807491022984748B9103CF5E72CB1BA
:102FE0002B68686802492246984738BD204638BD9C
:102FF0006BD520002DE9F04F95B0074605910D9255
:103000004FF00008059C2378002B00F053832346E3
:103010001C4613F8012B1AB90598844203D10CE021
:10302000252AF5D1F8E705993B68651A78682A469C
:103030009847002840F02183A8442378002B00F013
:1030400039836378002B00F0358301340026224653
:1030500014F8013B2B2B11D006D8202B11D0232B99
:1030600012D146F00806F2E72D2B04D0302B0BD1FD
:1030700046F01006EBE746F00106E8E746F00606E4
:10308000E5E746F00206E2E7A3F13101082910D88E
:1030900013464FF0000C1A4613F8011BA1F1300043
:1030A000092815D84FF00A0A0AFB0C1CACF1300CA9
:1030B000F1E72A2B0AD10D9B0132191D1B680D91D6
:1030C000002BB8BF46F001069C4601E04FF0000C13
:1030D00013782E2B1FD15178531CA1F130000928F1
:1030E00010D819464FF000090A780B46A2F13000BB
:1030F000092801F1010111D80A2303FB0929A9F1CB
:103100003009F1E72A2907D1931C0D9A111D0D9161
:10311000D2F8009002E013464FF0FF391A786C2A7B
:1031200009D15A786C2A02D146F080060AE00133B0
:1031300046F060060BE0682A09D15A78682A03D164
:1031400046F02006023302E0013346F040061A78CA
:10315000642A3CD01FD8462A48D00DD8252A5AD0F8
:1031600003D8002A00F0A68257E0412A4AD0452A17
:1031700008BF46F4424650E0582A31D004D8472AC6
:1031800008BF46F4A13648E0612A38D0632A08BF58
:1031900046F4A06641E06E2A3AD007D8662A22D0CB
:1031A00027D3672A28D0692A11D036E0732A2CD079
:1031B00006D86F2A11D0702A08BF46F440762CE05A
:1031C000752A07D0782A08BF46F4C85625E046F489
:1031D000245622E046F410661FE046F488561CE0B0
:1031E00046F4B24619E046F4007616E046F484460A
:1031F00013E046F4024610E046F481360DE046F452
:10320000C1360AE046F4E13607E046F4806604E0A1
:1032100046F4E06601E046F4C0660133059306F427
:10322000E063B3F5806F00F0A58114D8B3F5807F1B
:1032300028D0B3F5407F7FF4E5AE0D9BA649A748A3
:103240001A1D16F4804F0D9218BF08461A680DF12A
:103250004B010023B6E1B3F5C06F08D0B3F5E06FC2
:1032600000F02182B3F5A06F7FF4CCAEEFE13B68B4
:1032700078689B4901229847002840F0FE8108F1B8
:103280000108BFE6B9F1000FACBF26F010064FF001
:10329000010916F40054049406F0E00337D0402BE3
:1032A00017D008D8DBB1202B2AD10D9B1A1D0D9207
:1032B00093F9002017E0602B11D0802B20D10D9BBB
:1032C000073323F0070303F108020D92D3E900232B
:1032D0000AE00D9B1A1D0D92B3F9002003E00D9B2F
:1032E0001A1D0D921A68D317002A73F1000009DA2B
:1032F000504263EB4301CDE902014FF0010A34E093
:1033000000220023CDE902234FF0000A2DE0402BDC
:1033100016D007D8D3B1202B21D10D9B1A1D0D92A9
:10332000187811E0602B11D0802B18D10D9B07333A
:1033300023F0070303F108020D92D3E900010BE02B
:103340000D9B1A1D18880D92002105E00D9B1A1D7A
:103350000D921B681846F7E7CDE90201D4E7002279
:103360000023CDE902234FF0000A06F4C053B3F561
:10337000805F0BD0B3F5C05F3CD0B3F5006F5AD17E
:103380000DF14E040C94DDE9024504E00DF14E010F
:10339000DDE902231CE054EA0501DDF830B045D038
:1033A000204629460A220023CDF804C007F0DAF9A6
:1033B0000C98303200F8012D0C90294620460A2244
:1033C000002307F0CFF9DDF804C004460D46E2E71C
:1033D00052EA03008B4629D002F00700D4083030AF
:1033E00001F8010D44EA4370DC0806900794DDE91A
:1033F0000623EDE7384B394816F4804F0DF14E01A6
:1034000018BF1846DDE9022352EA03048B460DD0AB
:1034100002F00F04045D01F8014D140944EA03743D
:1034200008941C090994DDE90823EDE70DF14E0528
:10343000CBEB050502E00DF14E0B002541F608032C
:10344000A94506EA030341F208028CBFC5EB09094E
:103450004FF00009934204D1B9F1000F08BF4FF0BB
:10346000010941F60802934209EB05010CD1DDE99F
:103470000223134308D01B4B1B4A16F4804F4FF016
:10348000020418BF1A4601E000242246049890B1B5
:10349000BAF1000F0DD106F00603022B06D0062B61
:1034A000124B08BF012408BF1A4604E00124104A49
:1034B00001E0104A012401EB040AD4458CBFCAEB99
:1034C0000C0A4FF0000A16F0010302931DD1F10619
:1034D00012D5D1449A4618E047D5200087D1200064
:1034E00069D520005BD5200058D5200060D520008C
:1034F000B6D420005ED52000384651460192FFF731
:1035000061FD019A002840F0B8803CB111463B684B
:10351000786822469847002840F0AF804E46102E2B
:103520003B6808D97868654910229847002840F020
:10353000A480103EF3E736B1786860493246984778
:10354000002840F09A803B68786859462A46984798
:10355000002840F09280A8444444A144029C34B125
:1035600038465146FFF72EFD002840F0868009EBD3
:103570000A0847E50D9B1D681A1D0D923DB12B46AB
:103580001C4622780133002AFAD1641B01E04C4D1D
:103590000624B9F1000F02DB4C4528BF4C46A44578
:1035A0008CBFC4EB0C0A4FF0000A16F0010605D1DF
:1035B00038465146FFF706FD00285ED13B68786823
:1035C000294638E052EA03040D460DD002F00F04FC
:1035D000045D01F8014D140944EA03740A941C09BE
:1035E0000B94DDE90A23EDE70DF14B04641A04D1D5
:1035F00030234D1E01F8013C012478230334A445F7
:1036000005F8013C4FF0300305F8023C88BFC4EBDD
:103610000C0A4FF0230398BF4FF0000A16F0010682
:1036200005F8033C04D138465146FFF7CBFC20BBDC
:103630003B687868E91E22469847F0B9A044002EFE
:103640002FD038465146FFF7BDFC50B315E00D9B17
:10365000BCF1010F03F104021B688CBF0CF1FF3AAF
:103660004FF0000A16F001060D928DF8383008D19F
:1036700038465146FFF7A6FC10B14FF0FF301AE074
:10368000D0443B6878680EA9012298470028F4D1FD
:103690002EB138465146FFF795FC0028EDD10AF1CE
:1036A000010AD044AEE40D9B1A1D1B680D92C3F8AD
:1036B0000080A7E4404615B0BDE8F08F7BD5200020
:1036C00062D5200010B50D4C236813B90C4A136065
:1036D00010BDFEF74FFB236893E806000A44121A58
:1036E0009B683BB193E812002144091A8A4228BF23
:1036F0000A46F5E7024B1044186010BD080E002082
:103700000C0E0020014800F071BA00BFB80500207F
:10371000F8B5038805462BB1592B09D00023038047
:103720000320F8BD1E4A136059232B800120F8BDE9
:10373000872920D08229F7D1194F00263C68002C18
:10374000F2D0204608F018F890B1E06888212246AF
:1037500000F008FA50B9E060A3680EB1B36000E071
:103760003B600023A360FFF7ADFFE5E7FFF7CAFF6B
:103770002646A468E3E70A490B680BB90B60D3E758
:10378000D868904201D19B68F7E70B6099680029DF
:10379000CAD0C86890420ABF89680B469960F5E7AD
:1037A000080E002010B50446FFF7ACFFE3680B4A93
:1037B0004BB113683BB1A34203D1094A1268DA60E6
:1037C00007E09B68F6E7064B1B68E360136814602C
:1037D000A360BDE81040FFF775BF00BF080E0020D2
:1037E0001C0E0020024B1868003018BF01207047E3
:1037F000080E002010B50B4A04461368984206D103
:103800008368136008E09A68A24203D01346002B35
:10381000F9D103E0A2689A60FFF754FF0023A36088
:10382000E36010BD080E0020F8B503880546164673
:103830002BB14A2B15D0002303800320F8BD174875
:1038400007F0ABFF04462CB1201DA16807F056FF1E
:103850002468F8E7124B01221A704A232B800120BA
:10386000F8BD8829FBD10D4807F097FF0446002CCE
:10387000F3D0231D9E420ED10848214607F096FF43
:10388000084B62691F681A60A2691E460AB1E069A6
:1038900090473760E1E72468E9E700BF100E002099
:1038A0001A2200201C0E002010B5064B00240648EA
:1038B0001C7007F06FFF21460448BDE8104000F07F
:1038C0007DB900BF1A220020100E0020C80500207C
:1038D00070B504460A4DE3610A4B2E681B78666199
:1038E000A26133B1084B201D2B6007F007FF2E604B
:1038F00000E0A16021460548BDE8704007F06ABFBE
:103900001C0E00201A220020C8050020100E0020E6
:1039100070B5094B05461B783BB1084C084B26682F
:103920000430236007F0F3FE266029460548BDE811
:10393000704007F04FBF00BF1A2200201C0E00206D
:10394000C8050020100E002010B5084B04461B7857
:103950001BB10430FFF74EFF01E0C3600361214655
:103960000348BDE8104007F021BF00BF1A22002025
:10397000100E002038B5836804460D469BB10A48F6
:1039800004600220A07304F10C009847023801285B
:1039900001D9832D05D120462146BDE8384000F0ED
:1039A00005B80123A37338BD1C0E00202DE9F84390
:1039B0001D4A1E4E15683768044689462B469046B8
:1039C000A34204D00BB11B68FAE7BDE8F88344B307
:1039D000A37BABB10023A37345B1AC4204D028460E
:1039E0008721224607F0AEFE2D68F5E7A3683BB1BC
:1039F0004C4505D0346004F10C0083212A469847D9
:103A0000D8F800309C4209D12268074B00E02268B8
:103A10001A6005E01A68A242F9D01346002BF9D1CA
:103A20003760BDE8F88300BF200E00201C0E002088
:103A300010B5094B00221A70084B1C685CB1E37B7F
:103A40003BB101230022A373E27320468221FFF7DA
:103A500091FF2468F2E710BD1D220020200E0020F7
:103A6000024B1878421C1A70704700BF20220020B9
:103A7000064B8A221A70064A00231370054A1370F7
:103A8000054A1360054A1360704700BF20220020DA
:103A90001B2200201C220020200E00201C0E0020D3
:103AA0002DE9F843214E33780BB1FFF7C1FF204DCC
:103AB0002C78002C35D0DFF890C00C239CF80080C7
:103AC0001C4A03FB08F3D018D15C1B4F42681B4B08
:103AD0008068DFF8789008F1010808F01F08013CC1
:103AE0008CF8008039701A60C9F800002C70984674
:103AF00088B9134C134B1B68236023688BB1337850
:103B00000BB1FFF795FF20683978D8F8002007F04F
:103B100019FE2368EFE7812904BF0123837307F0AF
:103B200011FE337828781844BDE8F8831D22002060
:103B30001C220020240E00201E220020A40F0020A2
:103B4000180E0020200E00201B220020140E002042
:103B5000024A034B10781B78184470471C2200203F
:103B60001D220020F0B50C4C2378202B11D00B4DDA
:103B70000B4F2E780B4D1E4406F01F062E700C25A1
:103B80006E430133BD19B9552370A8606A600020E7
:103B9000F0BD0120F0BD00BF1C2200201B22002030
:103BA000240E00201F22002038B5034C256807F0A2
:103BB000C9FD256038BD00BF1C0E002030B50A4D80
:103BC0000A462C68234683420DD00BB11B68FAE7E6
:103BD00048B1046001212860817383818121BDE89F
:103BE0003040FFF7E1BF30BD200E002038B1837BAD
:103BF000013B012B03D8024A0123C37313707047A2
:103C00001D22002010B50246064853600468029B3E
:103C100011609360026014B90846FEF7F5F80020C1
:103C200010BD00BFA80F002010B5084C206858B187
:103C300000232360816843689847236823B118688C
:103C4000BDE81040FEF7E0B810BD00BFA80F00208F
:103C500038B505880446672D09D0792D2ED0002D62
:103C600032D1FFF7FDFE1B4B18701B4B1D601B482C
:103C700007F042FE431C01D167231DE00A28164BC2
:103C800007D01A687E2AF2DC511C1960144B985434
:103C9000EDE7196800254A1C1A60114A0D4B55546E
:103CA00028461978FFF75EFF0E4B852118682A46D3
:103CB000FFF758FF20B97923238009E0852907D130
:103CC000054B00221A60D2E700230380032038BD91
:103CD000012038BD192B0020AC0F0020B00F0020B0
:103CE000A22200201C0E00200D2810B5014615D080
:103CF0000B4C23782BB90B4807F0EBFD48B9012397
:103D000006E00A2805D1074807F0E3FD08B10023C3
:103D100023700548FFF76AFF012010BD002010BD89
:103D2000A1220020B00F0020D805002008B50548CA
:103D30000549802207F0C6FDBDE808400348002180
:103D4000FFF73CBFB00F002021220020D805002043
:103D5000064B1A68143342F0040243F8142C044A48
:103D60001B68106843EA002080B2704700700D4065
:103D700018700D40194B1A6822F00C021A60A3F556
:103D80009E43583B01221A601A68012AFCD1144B49
:103D900008221A60E322C3F8142203F505731946BA
:103DA000104B1B68DB07FBD500231A460E48013277
:103DB0000068102A00F0010043EA00034FEA4303C1
:103DC0009BB2F3D1002BF0D0084A180A03F0FE038F
:103DD00010601360EF230B60704700BF00700D4050
:103DE00024860840648608409C86084014700D4074
:103DF0002DE9F341144C064600910D4690461F46AE
:103E00000194124803212022334607F085FD012842
:103E100016D12368187021683046023106F110036C
:103E200050F8042B984241F8042BF9D12068089BE4
:103E300085744361099B80F813800777836100E0F4
:103E4000002002B0BDE8F081BC0F00205825002002
:103E500070B50C4B0C4D06462B602C680B4B9C42EE
:103E60000BD2237833B1A27CA01C3146D20806F0D5
:103E7000A7FF20B120342C60EFE7002070BD0120A7
:103E800070BD00BF58250020BC0F0020B8250020C1
:103E900013B5084C80220346009201940648032182
:103EA000202207F039FD08B9206800E0002002B0A8
:103EB00010BD00BFC00F00207424002010B50C4AB4
:103EC0000C4B136013680C498B420DD2197849B121
:103ED000411C02D0997C814204D15C8848F2FE01E9
:103EE0008C4203D02033ECE7002010BD184610BDF3
:103EF000C00F002074240020D424002037B5104DBA
:103F0000044680230093122201950E480521234682
:103F100007F002FD01282A460ED12B6804F110019A
:103F200018702B682046023350F8044B884243F83F
:103F3000044BF9D1106800E0002003B030BD00BF91
:103F4000B80F0020F8240020F7B5224D0446802346
:103F500000930E46174601951F4803212022234651
:103F600007F0DAFC012831D12B6804F11002187037
:103F700029682346023153F8040B934241F8040B9D
:103F8000F9D12868C77416B90123037505E0002329
:103F900003753146183008F02FFE2B680F4A0120B8
:103FA000987402235370FF210023D0721170538044
:103FB0009380D380138193721173637B1046537384
:103FC000E389D381FFF79AFF286800E0002003B05F
:103FD000F0BD00BFC00F002074240020761D00201B
:103FE00013B5084C8022034600920194064805212F
:103FF000122207F091FC08B9206800E0002002B00E
:1040000010BD00BFB80F0020F824002038B50546C9
:10401000C8B10D48022100244170FF2201214480D3
:104020008480C48004818472C17202730270EA7B4E
:1040300042732A8AC281FFF7D3FF044A106008B195
:1040400007F08FFC2C7038BD761D0020B80F0020C3
:1040500010B50F4B0F4C236020680F4B98420ED2C7
:1040600003784BB1037D3BB9183005F087FC18B1DC
:10407000084B1868FFF7CAFF23682033EBE700F00E
:10408000D7FA01F00FFCBDE81040044807F03FBB31
:1040900074240020C00F0020D4240020B825002064
:1040A0002DE9F8430A8848F2FE039A4205460F4676
:1040B00023D00B78FF2B20D01C4B1D4A00241A6004
:1040C000A1469846D8F800601A4B9E4219D2337820
:1040D0007BB1B37C012B0CD1728848F2FE039A426B
:1040E00007D03846B11C07F049FC484524BF344688
:1040F00081462036C8F80060E4E70120FFF7DEFEC5
:1041000004464CB92C806C80AC80EC802C816C8196
:10411000AC81EC81BDE8F883A31C123453F8042B66
:10412000A34245F8042BF9D1BDE8F883C00F002065
:1041300074240020D424002010B5FFF709FE0446A3
:10414000FFF706FE054B22029B6892B21044B0FBBB
:10415000F3F203FB120000EB530010BD5C240020BF
:1041600073B52F4C01F022FB00F08EF80021602285
:104170002C4806F035FF00212046F82206F030FFDB
:10418000294B20221A70294B18221A704FF4A06371
:104190002360274B40262671A360FFF7CDFF002543
:1041A00042F21073E06023612575224C48F2FE0351
:1041B000238065802B46A580E5802A463146009500
:1041C00001952046FFF714FE20461B4907F0CDFB62
:1041D000294601222046FFF7B7FE40F2FF264FF4A2
:1041E00080732046E38126806580A580E580258157
:1041F0006581A581FFF782FE4FF40073204626807B
:104200006580A580E58025816581A581E381FFF733
:1042100075FE0A480C2102B0BDE8704007F06EBA86
:104220005C2400205825002055250020542500201E
:10423000C0270900761D0020D4250020B8250020C5
:104240002DE9F04105460D480F46904607F0A5FAC6
:10425000044688B1012D04D8094807F0D3FA034673
:1042600001E0084B1B682846666839464246B0475D
:10427000204607F0CEFAEBE7BDE8F081701400208D
:10428000081000200410002008B50A4807F0C4FAFE
:10429000094807F07FFA0949094803F0C1FF0948B6
:1042A00007F0BAFA084807F075FABDE80840074871
:1042B00007F070BA04060020AC100020BBB9200043
:1042C000F4050020E80500200810002070140020EC
:1042D00008B5034638B15968034808F00CF9BDE841
:1042E000084007F09BBB08BDF4050020014807F01B
:1042F00054BA00BFAC1000202DE9F0418046FFF712
:10430000F5FF0026044637469CB194F82450B54288
:104310000AD3404604F10801EA0806F051FD18B935
:10432000802D08D02E462746204607F042FB044643
:10433000EAE73C4667B1084807F02FFA844207D005
:104340000548214607F032FA0348214607F051FAA2
:104350002046BDE8F08100BFAC10002038B504460F
:1043600000283DD04368002B3AD01E48214607F074
:104370001DFA6368586807F010FA054630B14368C3
:10438000A34207D0284607F044FAF6E704F10800F4
:1043900002F012FD63682946586807F007FA63685F
:1043A000586807F0FAF920B963680F48596803F0B4
:1043B000F1FF21460D4807F053FA29460C4807F053
:1043C0004FFA0C4B20461A68013A1A60FFF780FF3B
:1043D00004F108010246BDE838400320FFF730BF72
:1043E00038BD00BFAC100020F405002004060020FA
:1043F000100600200410002010B5044678B1406873
:1044000068B107F0CAF920B14068FFF7A7FF6068FC
:10441000F7E721460248BDE8104003F0BBBF10BDDE
:10442000F40500202DE9F0470646104689469046DF
:1044300007F0F6FA044610B90020BDE8F0873046D0
:10444000FFF75AFF074660B1FFF742FF014628B168
:104450004046102206F0B4FC00285AD03846FFF738
:104460007DFF2D4B1A689A46142A04D12B4807F079
:1044700096F9FFF773FF2A48214608F023F805460E
:1044800058B92748214603F0F9FE05460028D3D045
:1044900000236860036007F07DF9224807F0CCF93B
:1044A00004460028C8D01D48214607F0A2F91E483E
:1044B00007F0C2F9074620B921461A4807F0D0F99B
:1044C00027E044603946686807F084F9DAF800307C
:1044D00065600133CAF8003004F10802334606F182
:1044E000100718685968154603C50833BB422A46A9
:1044F000F7D184F8249004F1180000210C2206F072
:104500006FFD022031464246FFF79AFE2046BDE885
:10451000F0873846BDE8F08704100020AC1000207A
:10452000F4050020040600201006002038B50546DA
:104530000D4807F032F90446A0B1AC420ED1214635
:10454000094807F033F92146084807F089F9211D89
:1045500001200A46BDE83840FFF772BE204607F04A
:1045600058F9E8E738BD00BF08100020E805002032
:1045700038B50546084807F010F9044648B1201D33
:104580002946102206F01CFC18B1204607F041F91C
:10459000F3E7204638BD00BF08100020F8B50546F7
:1045A0000F46FFF7E5FF044640B9134807F044F90A
:1045B0000446F0B11148214607F01BF92B46261D91
:1045C00005F1100E18685968324603C20833734566
:1045D0001646F7D137B104F11400394608F00CFB48
:1045E000002300E001232377002029462A46FFF715
:1045F00027FE2046F8BD00BFE80500200810002077
:1046000038B50A4807F0C9F80025044664B1251DED
:10461000284601F00DF910B190F8223023B9204658
:1046200007F0F7F80446F1E7284638BD08100020E7
:1046300010B50A4807F0B1F8044670B1237F43B9BA
:1046400004F1140005F09AF918B12046FFF76EFF47
:10465000EFE7204607F0DDF8EEE710BD0810002078
:1046600037B5124B124C1D7823796279C5EB0323C1
:1046700013449BB2ADF80630BDF8063004F10801D2
:104680001844202280B207F09AF9BDF8062005F1FF
:104690002801214492B207F092F910B140BA80B2D9
:1046A00001E04FF6FF7003B030BD00BF4C23002087
:1046B000DC250020F8B5264F264D3A7826492832C9
:1046C000531993F801C002234FEACC0C0CF1070CEC
:1046D0009C4539DBD0182E18285C1E4C01282ED0A2
:1046E00002D3632802D011E001332BE018461A4DA3
:1046F0000B7003F0B7FAC8B93A782B7828321A440D
:1047000014446278134402332B70F8BD00F0C000EB
:10471000802805D0C02805D0402810D10B7005E0B6
:104720000B7005E00B70217EFF2901D10120F8BD3F
:10473000042002211A4405F03FFA0220F8BD7078E7
:1047400002300344DBB2C3E70B700020F8BD00BFAA
:104750004C230020DC2500205223002070B5C478B3
:10476000124B0C44E4B2DC7082780E0A3244D2B2AE
:104770009A704578B2425D700078187005D20135A4
:10478000EDB25D700DB901301870C9B28C420CDA0F
:104790000132D1B29970054A39B953780133DBB28D
:1047A000537013B913780133137070BDD0250020F6
:1047B00010B5084C014620681430FFF7CFFF064AB9
:1047C000236811781975517859759178D27899754F
:1047D000DA7510BD78260020D025002008B5FFF737
:1047E000BFFC05F0D5FA01F0A9FB00231149002216
:1047F00021F813200133DBB2072BF7D90E4B302100
:1048000001FB02310132D2B20023092A81F825309E
:10481000F4D90A4A4FF480611180094A002102EB61
:1048200043120133DBB2092B1182F6D9054A13700A
:1048300008BD00BF642800207C260020881D0020C1
:1048400078280020532300202DE9F041124E3478BF
:1048500004B3124F04F12703B7F80080434504DB8B
:10486000002333703B80BDE8F0810D4DA8F1280294
:1048700004F12801121BC4EB0804A4B205F12800BE
:10488000294406F047FB3C80283C23122B7100236F
:104890006C713370BDE8F0814C230020C8250020E6
:1048A000DC250020F8B5224D03462A88013292B259
:1048B000B2F5FA4F28BF4FF4805200240A2C0AD0D8
:1048C0001C4800EB4410068A50BA80B2864204F1BC
:1048D0000104F3D1EAE718482A800022092A14D8F3
:1048E000144C561C04EB4214278AF6B25FB90270CE
:1048F0002A88618252BA228253B920461946102270
:1049000006F06EFB0FE03246E8E702700020F8BDCB
:10491000254603F11006186859682A4603C2083371
:10492000B3421546F7D1054B20461B792375F8BDD8
:10493000881D002078280020532300205C240020BC
:1049400030B50A4A0023072B0DD809495C1C31F801
:104950001350E4B2854204D11370002221F81320D1
:1049600030BD2346EFE7137030BD00BF5323002056
:104970006428002030B5094A0023072B0BD80849CA
:104980005C1C31F81350E4B21DB9137021F8130008
:1049900030BD2346F1E7137030BD00BF5323002024
:1049A000642800202DE9F74FA04904280C688946A7
:1049B0009F4E00F067829F4A9F4DA04B03281560D1
:1049C0001D60174615D194F8253003F00F03032B13
:1049D00008D1A38B002B40F09A86994B08221A70BD
:1049E00000F08ABD022B40F09286002305F8073CB8
:1049F000CBE3022878D1934A002313803380924B73
:104A0000DA780132D2B2DA7062B99A780132D2B26F
:104A10009A703AB95A780132D2B25A7012B91A78E9
:104A200001321A7094F8253003F0FD02052A0DD1E9
:104A300094F826300133DBB2782B84F8263040F02E
:104A40006686002384F8253000F061BE002B00F05C
:104A50005E86A28B7A49002A3DD094F82620501E0B
:104A600084F82600002A40F0528694F82720082A6D
:104A700004D0581E01280AD8052A08D1002384F83A
:104A8000253080230B7002F087FC00F043BD042A20
:104A90009CBF0320904003F00F0394BFC0B23020AE
:104AA0000132013B84F8260084F82720072B00F20E
:104AB0002E86DFE813F0660308000A00EA042C06DD
:104AC000EA042C06EA0400225CE304230B7002F0E3
:104AD00063FC00F04DBD03F00F03032B40F017867D
:104AE00008230B7000F008BD052811D15748006855
:104AF000008A002800F00B860C3D1D60514B002001
:104B000018804F4B15600822086030801A70B7E19A
:104B100015F83C3C3C3D03F0F003602B40F0F7857A
:104B20002B796A791B0231889818884200F3EF8547
:104B30002832134433802B7AFF2B00F0E885444A57
:104B4000AB1D1360434C444B002121701970A979AF
:104B500092469846B9B9012388F80030FFF7AAFDBC
:104B6000012800F0D48503D3022800F0CC850AE0A8
:104B7000227802F128032B44CAF800305B7808320F
:104B800002EBC30222703548FFF782F9002840F09B
:104B9000B6803248FFF724FA002840F0B0802A7E21
:104BA0002E49FF2AA1F1180366D0198B48F2FE00A6
:104BB000814261D0198981425ED079B9598969B938
:104BC000998959B9D98949B91B8A3BB9698A244B52
:104BD00021B9998A11B9DB8A002B4DD0298B204B42
:104BE00079B9598B69B9998B59B9D98B49B9198C4C
:104BF00039B9598C29B9998C19B9DB8CB3F5807FF7
:104C00003AD03388B3F5A06F04D9022000214FF4C5
:104C1000A06206E0EB79124C012B23D8002103207F
:104C20000A4604F0C9FF00F06EBD00BF78260020E0
:104C3000C82500207426002018260020CC2500203E
:104C400068260020742800204E23002070260020B3
:104C50006C2600204C2300204D230020F42500204A
:104C6000DC25002003F04AF8002840F05085E37965
:104C7000013BE37100F047BD298948F2FE039942E8
:104C800040F04585298B9C4B81B9598B71B9998B23
:104C900061B9D98B51B9198C41B9598C31B9998CF9
:104CA00021B9DB8CB3F5807F00F03185FF2A00F05D
:104CB0002E859248FFF7CCF80246002840F0278561
:104CC00001200221ADE722D93A2B71D027D93B2B05
:104CD00000F01D853C2B67D198F800308849980773
:104CE00036D5580660D443F040030B70FFF7E2FC62
:104CF000012800F00C852ED3022800F00485DAF894
:104D00000020DFF828B213782B2BDCD12FE0062B04
:104D100000F00E81112B68D0002B45D103E02C2B25
:104D200000F0F58440E098F80030D9073CD4744A8C
:104D300043F001031370FFF7BDFC012800F0E78486
:104D4000DAD2227802F128032B44CBF8003008E0B5
:104D500043F00203C9E7227802F128032B44CAF882
:104D600000305B78083202EBC3022270C7E798F884
:104D7000003003F0040000F0FF01A8B9604A43F0DE
:104D800004031370227802F128032B44D87810B161
:104D900004202A3245E7CBF800305B78083202EB7A
:104DA000C302584B1A70AAE704200121521B38E7AE
:104DB00006F021FE4FF6FF73984240F0A884237856
:104DC0002833E85C02F02CF923782833EA18E85CF1
:104DD000517804F0CFFE012804BF002333803388CC
:104DE000002B00F0948400F08EBCFFF72DFD33887B
:104DF000EA8D303B3380444B3B60984662B9B5F84E
:104E00002AA0BAF1000F00F08284404B404D2B6085
:104E1000394BB3F828B00BE006F0F3FD4FF6FF7303
:104E2000984240F07484EAE7238A3BB920342C602E
:104E30002C68384B9C42F7D300F069BC9A45F5D1F9
:104E4000638A0BB19B45F1D123682BB963681BB909
:104E5000A3680BB9E36833B12F482146102205F04F
:104E6000AFFF0028E2D12D4A022111702C4A002305
:104E7000C2F800802B4AC9F80030C7F800801380C0
:104E800002F08AFA274B1A88002A00F0408402F1C7
:104E90003003194C9BB23380283B191263711C4BB1
:104EA00008321B6852BA2171197DA2850022E28561
:104EB0001A8AE17122855A8A11216285A17104F151
:104EC00018050FCB85E80F0004F108002946FFF70D
:104ED000E7F8154B04F13C021A6006F092FDC0435E
:104EE00080B208B1E08502E04FF6FF73E38503F07E
:104EF00017F800F002BC00BFDC250020F4250020DC
:104F00004D2300204C2300200C2600207828002070
:104F100070260020B8290020E42500206826002003
:104F2000CC25002074280020742600206C26002048
:104F3000FFF78AFC06F062FD4FF6FF73984240F0DF
:104F4000E683B5F82A80B8F1000F00F0E083BB4B90
:104F5000B3F828A0BAF1000F00F0D983B84C23466B
:104F600094F825B0BBF1000F0FD0228A42450CD136
:104F7000628A524509D1B34821461022019305F0B7
:104F80001FFF019B002800F01681AF4A3034944285
:104F9000E6D195F8352002F03F02022A13D1AB4941
:104FA000AB4FA1F8008000228B46072A0AD8A949F6
:104FB00031F8121001328845D2B2F6D100223A708F
:104FC000144656E03A7095F835209C4B500700F196
:104FD0009E83142283F835203C223280502283F8AD
:104FE000342093F8332093F82F4083F82F2093F840
:104FF000322093F82E0083F82E2093F8312093F876
:105000002D10934F83F82D2093F82C2001343A7003
:1050100093F83070E4B283F8320083F8311083F8EB
:105020002C7083F8302083F8334064B90130C0B26B
:1050300083F8320038B90131C9B283F8311011B99F
:10504000013283F830202B8D804A7E4C13806A8D8C
:105050006B852A8504F1100594E80F0085E80F00A0
:1050600020462946FFF71CF832E307280FD001320B
:10507000D2B2092A15D84FF0300C0CFB023C0CF1CF
:10508000200148790028F0D13A7064460DE024B13F
:10509000887994F826108842E9D9302404FB023438
:1050A000E5E73A70002C00F03283032384F82630C1
:1050B00084F82430042384F82330624BC9F800407C
:1050C0000FCB84E80F00644A012013784FF00009E9
:1050D0002376537884F8250063769378A083A376AB
:1050E000D37884F82290E37695F82F3084F82790CF
:1050F000E37595F82E30A4F81080A37595F82D303F
:10510000A4F812A0637595F82C302375FFF750FBB7
:1051100095F8343003F0F002502A32DD4F494FEA5F
:10512000131EAEF1050E0A784FEA8E0E4B467345FC
:1051300025DAE81890F83C200AB3012A01D101339E
:105140001BE0022A14D190F83DC0BCF1040F0FD12E
:105150003B700A7090F83F3090F83E2043EA0223FB
:10516000ABF80030402B28BF4023E383238408E0C2
:10517000E81890F83D0010B10344DBB2D7E73B706C
:105180000A7010222D4B83F835202C4B93F83520D4
:1051900042F0020283F83520022283F83C200422E8
:1051A00083F83D20002283F83E20402283F83F20F0
:1051B0003280602250E295F83530294A13F0040F0E
:1051C000C9F800401070904604D0202384F82500D0
:1051D0001370F0E1194A1E4992F834003288000930
:1051E0008000283A121A0BF00F0B92B2BBF1020F9B
:1051F000087032808A4603D103F03F01122905E08E
:10520000BBF1010F03D103F03F0102292AD00AB9F3
:10521000990727D0A98DA28A914204D1074AD18D3E
:10522000E28A91421ED09A0740F10F82BBF1010F32
:10523000A7D0BBF1020F40F00882A6E7DC250020D2
:105240007C260020E42500205C280020861D00200C
:1052500053230020642800204E23002054230020E4
:1052600068260020DB0650D5A18B00294DD004F123
:105270001800FFF773FAB64B95F8301093F800C09A
:10528000B44A8C4541D192F8311093F801B08B4566
:105290003BD192F832009978814236D192F833208E
:1052A000DB78934231D1E37694F8273084F818C044
:1052B00084F819B0A176FBB994F8242094F826302C
:1052C00094F82210D21AA2EBD102D2B2D3B21806AD
:1052D00048BF5342114494F8232048BFDBB2A2EBED
:1052E00092021344C9B2DBB284F8233003EBD1033A
:1052F00084F8221084F82430012388F8003094F8D0
:10530000243084F826300023A38394F8253003F05A
:105310000F02013A072A00F2FA81DFE812F00800D2
:10532000250091004F0171018B019601410198F810
:105330000020894BD2070FD5032284F8252030881E
:1053400040221A700022A283002800F0D28042225C
:105350001A70FFF72DFACCE095F8353003F03F03D3
:10536000022B40F0D4810CE798F80030DB075CD5C5
:1053700095F8353003F03F03122B56D1754B93F857
:1053800034E00EF0F003502B34DD74494FEA1E1E5A
:10539000AEF1050E0A784FEA8E0E0023734526DA29
:1053A000E81890F83C2012B3012A01D101331CE027
:1053B000022A15D190F83DC0BCF1040F10D18AF833
:1053C00000300A7090F83F3090F83E2043EA022304
:1053D000634A1380402B28BF4023E383238409E0E2
:1053E000E81890F83D0010B10344DBB2D6E78AF824
:1053F00000300A70032384F8253095F82C30012002
:10540000237595F82D30637595F82E30A37595F8B2
:105410002F30E375FFF7CCF94223524A88F8003069
:105420000023A3833380138066E0202388F80030B4
:1054300001F0B2FFD9F80030002283F82520C2E540
:1054400095F83520D00725D5D90623D4A38B002B7A
:1054500040F05D813088013080B2FFF7A9F998F8FB
:10546000003043F0100288F8002032881AB13A4A1E
:1054700043F01203137001F08FFF0123A38308236D
:1054800084F82530002384F827301122314B83F82B
:105490003520DDE092060BD595F83A1095F83B20C3
:1054A00042EA012239681144396031888A1A32800F
:1054B000308848B1DB0607D498F8003043F0020387
:1054C00088F80030FFF774F995F8362095F83730F2
:1054D000218C03EB02239BB2214A8B42138000D81C
:1054E00003B911801388E38398F80030990700F01E
:1054F0000E811C4B00221A8001F04EFF164B1A78C9
:10550000184B02F0200000F0FF0128B100221A80A1
:1055100084F825201422B9E702F0100000F0FF05FE
:1055200040B119800123A383042384F8253084F833
:105530002710AAE71988C1B1D20748BFA583A28B5B
:1055400092B9E28B914288BF1A801B88A3830CE03A
:10555000D0250020DC2500206826002054230020D0
:10556000861D0020742800201A80002384F827302C
:105570006C4A13683B606C4B1B882BB1A38B1BB12F
:105580003C333380182207E0684B1B789F0740F1BB
:10559000BE803C2333801022654B83F8352059E0D0
:1055A00098F80030DD0740F1B280002384F8253000
:1055B0005E4B10221A7001F0EFFEA8E0308808B1AF
:1055C000FFF7F6F895F8353013F001030FD098F88F
:1055D0000030D80707D5072384F82530002384F846
:1055E0002630A3831AE0062384F8253016E098F8C5
:1055F0000020D1071BD5052284F82520A38386E04F
:10560000308808B1FFF7D4F895F83530DA070ED5B1
:10561000072384F82530002384F826300120FFF783
:10562000C7F8102388F8003001F0B6FE0DE033888B
:105630005BB96CE098F80030DB0768D5072384F885
:105640002530002384F8263061E0102385F83530BA
:105650003C233380364B502283F83420237D344D55
:1056600085F83030637D05F1180785F83130A37D6A
:1056700085F83230E37D85F83330237E85F82C3091
:10568000637E85F82D30A37E85F82E30E37E85F885
:105690002F30238A2B85638A6B8594E80F0087E877
:1056A0000F0005F108003946FEF7FAFC94F82530A2
:1056B00003F0100303F0FF022BB1002385F837300D
:1056C00085F8363004E03C2385F8362085F83730FD
:1056D000174C0623A371174B1B79E3713388283BC2
:1056E0001A1263710023227184F83B3084F83A3037
:1056F000238706F083F9C04320870D4B60221A7080
:1057000000225A705A80094B00221A7007E00A4A98
:1057100000231370094A33801370044A137003B0D6
:10572000BDE8F08FCC2500207428002068260020DA
:10573000DC2500205C2400204C2300204D23002089
:1057400010B50E4B0446186828B10D4A121A914242
:10575000B8BF0A4603E05029B4BF0A465022002AC7
:105760000BDD084984420A8007D092B200B906488E
:105770002146BDE8104005F057BB10BDCC250020E8
:1057800068260020742800201826002010B5044642
:1057900040B102F043FC044B21461868BDE81040BC
:1057A00002F0F8BD10BD00BF1C060020024B0349EB
:1057B000186802F035BD00BF1C0600208D57200080
:1057C0002DE9F8439946154B05461868904602F0B6
:1057D00055FD0446F0B1074605F1100328686968D5
:1057E0003E4603C608359D423746F7D104F1100006
:1057F000002184F8218084F8229007F0FDF904F15B
:105800001800002107F0F8F9002384F82030204622
:1058100002F004FC2046BDE8F88300BF1C0600200F
:10582000024B0146186806F066BE00BF1C06002049
:1058300070B50C4E0546306802F006FD044665B9A9
:10584000002070BD20462946102205F0B9FA38B173
:105850002146306806F01FFE0446002CF2D1EFE727
:10586000204670BD1C060020024B0146186806F059
:1058700029BE00BF1C06002070B5054610200C464E
:1058800002F0EAFE0649064606F040FE30B9304610
:1058900029462246BDE8704002F088BB70BD00BFBB
:1058A00003D6200070B5404D286802F0CDFC2E468E
:1058B0000446002C77D094F82230042B6DD8DFE812
:1058C00003F01D036C33410004F11005284604F079
:1058D00055F8002861D02046FEF74AFE50B1032358
:1058E00084F822302846052107F086F9002384F841
:1058F000203052E0022384F822304EE094F8203029
:10590000022B2BD804F11805284604F037F800289C
:1059100043D0264B188800283FD194F82030014608
:10592000013384F820302CE004F1100004F026F854
:1059300098B30423002184F8223084F8201004F165
:10594000180028E094F82030022B0BD92046FEF7EF
:105950000FFE18B1037F0BB9FEF7E8FD2046FFF7F5
:1059600015FF1AE004F11805284604F007F8A0B165
:105970000E4B188888B994F820302146013384F8FA
:105980002030224600F028FA094B284619694FF4C6
:105990007A73B1FBF3F107F02FF92146306806F076
:1059A0007AFD044685E770BD1C060020C82500204E
:1059B0005C2400202DE9F74F674C684AE1791378A1
:1059C000FF2903F12C0707EB04003E5DDFF8A881F7
:1059D00040F0B980234493F82930002B40F0B38085
:1059E0000379FF2B00F0AF8006F0400303F0FF05C2
:1059F0001BB1237EFF2B00F0A680B8F80020DFF853
:105A00007CC1DFF86491019214230022DDF804A028
:105A1000F918514513DA04EB010B9BF801A0BAF118
:105A2000000F04D1C9F800208CF800308BE0615CD5
:105A300003EBCA03022908BF5A46DBB2E6E704308B
:105A40008CF80030C9F80020FEF722FA444B1860A9
:105A5000002878D1414A434F1378BB46E0183030D4
:105A6000FFF7E6FE3860FFF7DBFE3C688146002C5E
:105A700069D03D4B1F6837B1B81C4946082205F074
:105A80009FF9C0B200E0384694F8223026F07F0A31
:105A90005FFA8AFAEBB9002F55D057F8022FC9F8F0
:105AA00000207A68C9F804207DB184F820302F4B9B
:105AB0000122D9684FF47A7384F8222004F110008F
:105AC000B1FBF3F107F098F839E0022384F82230B3
:105AD00035E0B20606D428B1012B34D1022384F874
