:020000040020DA
:10000000A43F00208D022000B7C62000B5C6200006
:10001000B5C62000B5C62000B5C62000000000000F
:10002000000000000000000000000000B5C6200035
:10003000B5C6200000000000B5C62000F1D62000A3
:1000400013D7200019D720001FD7200025D7200064
:1000500000000000F7D62000FDD62000B5C6200025
:10006000B5C62000000000000000000000000000F5
:100070000000000000000000B5C6200000000000E5
:100080000000000000000000B5C62000B5C620003A
:10009000B5C62000B5C62000B5C62000B5C62000F4
:1000A000B5C62000B5C62000B5C62000B5C62000E4
:1000B000B5C62000B5C62000B5C62000B5C62000D4
:1000C000B5C62000B5C62000B5C62000B5C62000C4
:1000D000B5C6200000000000000000000000000085
:1000E0000000000000000000000000000000000010
:1000F0000000000000000000B5572000C557200098
:1001000000000000000000000000000000000000EF
:1001100000000000000000000000000000000000DF
:1001200000000000000000000000000000000000CF
:1001300000000000000000000000000000000000BF
:1001400000000000000000000000000000000000AF
:10015000000000000000000000000000000000009F
:10016000000000000000000000000000000000008F
:10017000000000000000000000000000000000007F
:10018000000000000000000000000000000000006F
:10019000000000000000000000000000000000005F
:1001A000000000000000000000000000000000004F
:1001B000000000000000000000000000000000003F
:1001C000000000000000000000000000000000002F
:1001D000000000000000000000000000000000001F
:1001E000000000000000000000000000000000000F
:1001F00000000000000000000000000000000000FF
:1002000000000000000000000000000000000000EE
:1002100000000000000000000000000000000000DE
:1002200000000000000000000000000000000000CE
:1002300000000000000000000000000000000000BE
:1002400000000000000000000000000000000000AE
:10025000000000000000000000000000000000009E
:10026000000000000000000000000000000000008E
:10027000B5C62000A5562000BD5620000550200020
:10028000B5C620005D4B2000B5C6200010B5094B57
:10029000FF221A600848094A4824E3690849121AEB
:1002A00098470848084AA3690021121A984704F0A1
:1002B0004BF9FEE7B4200D40400000207A020020F8
:1002C000601E210080020020A3370020F0B51E4DE3
:1002D0008DB06C4694461F460FCD0FC40FCD0FC492
:1002E00095E80F00BCF1020F129E84E80F0027D1A1
:1002F00000241FB3250100AB2B445B689E421AD13A
:1003000038465DF8051032460CF050F898B90CAB41
:100310001D4455F8244C149BA34204D20B4805F00D
:1003200039FB0B480DE0139855F8281C22460CF0B9
:1003300071F8204605E00134032CDBD1054800E0CC
:1003400000200DB0F0BD00BF68E920003803210097
:10035000B0FDFFFFCDFDFFFF2DE9F3410C46076B1C
:10036000A51C0D481646984605F014FB284607F0D4
:10037000CDFF608A0DF0B0FB0146084805F00AFB8E
:10038000638A3846009331461FFA88F22B460DF0F7
:10039000BAFB02B0BDE8F081510321005A032100ED
:1003A000F0B5A7B0BDF8BC5014460E46802200211F
:1003B00006A81F460CF00AF92946154805F0EAFA86
:1003C0002C9807F0A3FF1348394605F0E3FA0DF126
:1003D000020304F1100254F8041B944243F8041B76
:1003E000F9D112232A462E9926AC06A804F8983D86
:1003F000ADF812700CF00EF83146074805F0CAFA55
:100400003046694606AA2B4602F050F927B0F0BDE7
:100410005F032100770321007D032100F8B5074623
:100420000E461425002406F0C3F96423B0FBF3F252
:1004300002FB1300013D83B21C44F4D1142338465F
:100440003168034A94FBF3F30DF0F4F93060F8BD22
:1004500088032100F0B50546A3B00C46802611465E
:100460001248032201960CF0FBF80746A0B9104889
:100470000DF07DF93246394602A80CF0A7F801A923
:1004800002A8FFF7CBFF02A90A4805F083FA284625
:10049000214602AA019B03E0074A28462146112370
:1004A0000CF044FA002023B0F0BD00BF9C032100F3
:1004B00093032100A0032100AC03210010B50D48D7
:1004C0000DF055F90C4802F02BFC0C4C01460C4A7F
:1004D0002060094808F0F4F844F6FC6106480DF085
:1004E00008FB062003F0B6FF23680BB1054A5A63E8
:1004F00010BD00BFBE0321005C060020580600208E
:10050000A10320004000002038B50388044613B141
:10051000C72B0DD010E00CF087F9FFF7CFFF084B89
:100520001D682DB907480DF022F92580022038BD3D
:10053000C7232380012038BD00230380032038BD5A
:1005400058060020D203210008B503785A1C8A42BD
:1005500008BF1B1801D0074808E0984205D010F8E2
:10056000012F022AF9D1002008BD03480DF0FFF841
:10057000024808BD4904210098042100D8FDFFFF6E
:1005800070B50478042C01D01B4803E04478032C98
:1005900004D01A480DF0EBF8194870BD8678C4787D
:1005A0008D1E44EA0624A54201D216480CE00479C7
:1005B000302C01D0144807E044790539A142F4D326
:1005C0008179022904D011480DF0D1F8104870BD8E
:1005D000C17900F10804A1F12005254415606218D5
:1005E000615C0229EFD1911C5278A2F120040C44E5
:1005F0000A441C60101A70BDBC042100EB042100E9
:10060000D8FDFFFF1E052100350521005B052100F7
:10061000CEFDFFFF2DE9F74F1D46836A012A0190A9
:10062000009308D8B3F8BA204CF2AE039A4200F017
:10063000A5800020AAE008784B78023A43EA00231C
:100640009A42C0F09B8000248B1C26462746A24677
:10065000002A76D0032A40F2918018785978A2F1C6
:10066000040B41EA0021DA78987803F1040842EAA1
:100670000029CB45C0F08280A1F10A000C2858D88F
:10068000DFE800F0073F575757575757572733575B
:1006900053001979981D5B7943EA01218B1C4B4566
:1006A00001D03C483EE00023C3EB010CBCF1000F3D
:1006B0000DDDC21810F803A092F801C002334CEA15
:1006C0000A2CBCF1170FEFD14FF0010A34E0324889
:1006D00028E02DB140464946FFF736FF18B14EE0FD
:1006E0001B79022B4FD1012726E02DB14046494608
:1006F000FFF72AFF18B142E01B79022B43D10126F4
:100700001AE0591D1B79581C484501D0234809E0BF
:100710000B44994205D011F8010B0028F9D10124AE
:100720000AE01F480DF023F828E01E480DF01FF8DE
:1007300002E01D4805F02EF908EB0903C9EB0B0296
:1007400086E7009BB3F8BA204CF2AE039A427FF4DE
:1007500070AF5DB1BAF1000F04D01FB116B1002C1B
:100760007FF467AF11480DF002F808E017B1002ED2
:100770007FF45FAF0E480CF0FAFF04E01DB1019A60
:10078000537F0C2B01D00B4800E00B4803B0BDE8B1
:10079000F08F00BF80052100CD052100EF0521006D
:1007A0003D0621006006210083062100A2062100EB
:1007B000D8062100D8FDFFFF9CFEFFFF10B50446C0
:1007C00020B9074840F2AB4106F042F805480CF06A
:1007D000CEFFA06ABDE81040503002F0EBBF00BF72
:1007E0000E072100460721002DE9F04F91B0DDF8FA
:1007F00074900793D9F8003082460C2B0F461C9E4C
:1008000004D81946804805F0C5F876E0FE237370D9
:10081000FD233270B37006F10308F9B18B8806F13D
:100820000B0B1A0AF2703371D1E90223100E40EA61
:100830000320F071100C40EA03403072100A1C0AC9
:1008400040EA03607471B3717072B272D1E902232D
:10085000013243F10003C1E9022305E040460822CA
:100860000BF0B4FE06F10B0B1A9D00238BF8003041
:100870008BF801300BF10204043D0FB17B88DBB92A
:100880004FF0000847461B9B984500F0B2806A680D
:1008900007F10D01D9F8003011448B422AD3079B90
:1008A000204653F828100BF0B5FD55F8043F08F129
:1008B00001081C441F44E6E74CF2A802934201D110
:1008C000524805E04CF2AE0293420CBF50485148EA
:1008D0000CF04DFFD8F800300BF10A0B2360D8F86C
:1008E0000430CDF818B06360DC462B464FF0000BA7
:1008F00008251DE048480CF03AFF484881E0D3F84D
:1009000004E005F10D00D9F8001070448142F1D3E4
:10091000079A604652F82B10724605930BF07AFD49
:10092000059B844653F8042F0BF1010B94441544A6
:100930001B9A9345E3D10CA8002110220BF046FE30
:100940009AF8003013B907F1300301E007F13403DE
:10095000186861680C9020684FF0000B0DAB03C362
:100960000CAA1023CDF800B006202D4903F092FD0B
:100970009AF800205B4612B907F1100201E007F176
:100980002002009306202749102303F083FDD8F8A6
:100990000000D8F8041008AA134603C33188B378BE
:1009A000ADF82810A5F108018DF82A308BB2180A8D
:1009B0008DF82C309AF800308DF82B000BB91037D9
:1009C00000E020371023069801930D230292039331
:1009D000009702460CAB02F0F1FA002811DB00F19F
:1009E00008070023009306200F4922463B4603F0E8
:1009F00051FDC7F3072337730D37F3720020C9F891
:100A0000007011B0BDE8F08F50072100A107210050
:100A1000E10721002908210076072100B0FDFFFF32
:100A20005D08210064082100690821002DE9F04FCC
:100A30009B46BBB0C8230693469B9DF8107100935C
:100A4000479B459E019308AC06AB039305468A4637
:100A500001F11C009146114602943A463346FFF7D5
:100A6000C3FE0028C0F29580012300932246062091
:100A700049490D2303F00EFD0024DDF818C1A046FE
:100A8000479B984513D00122DCF80030009256F8BD
:100A9000282006204149CDF814C003F0FBFCDDF806
:100AA00014C008F101085CF8043B1C44E8E7162F69
:100AB00004D133681B78032B02D159E0142F57D18E
:100AC000204603F0F9F8804600284ED007A80CF025
:100AD000BDFD079B4FF4807203F58073C8F80430A6
:100AE000002388F81330C8F80820C8F80CA0B9F122
:100AF000000F02D0B9F8042000E01A46DDF8189182
:100B000088F81270A8F81020C8F814300027479B06
:100B10009F4212D0D8F8140056F827101830D9F890
:100B2000002040440BF076FCD8F8143059F8042B20
:100B300001371344C8F81430E9E7E86A414603F086
:100B40008FF830B916480CF012FE404603F0C8F892
:100B50000EE0144E144B376805F11800D8F8081051
:100B600033600CF08AFE376002E010480CF0FFFDA5
:100B70006B6B63B11E6856B12846594608AA069B9E
:100B8000B047002805DD069BE41A204401E04FF041
:100B9000FF303BB0BDE8F08F720821007E082100D5
:100BA0008F082100880D002068000020B608210071
:100BB0002DE9F0430C46BBB00646002875D000294D
:100BC00073D0CB7C062B6AD8CA68C8230493156AF5
:100BD0004B6901F118090693CDF814900B8A15B1F1
:100BE000A988994205D0556A1DB1AA889A4218BFB2
:100BF000002507A80CF02AFDE37CA2680133DBB2D4
:100C0000E37402FA03F3079A21461A446260F06A19
:100C100003F026F8A37C162B0CD1059B24481B78E7
:100C2000142B96BF234A244952F823101A4604F085
:100C3000B1FE02E021480CF09AFDE06806AB00939B
:100C40004FF0010804AB08AF03932946A27CCDF80E
:100C5000048002971C3005ABFFF7C6FD011E03DAC6
:100C6000174804F097FE20E0062016493A460D2367
:100C7000CDF8008003F00EFC6369CDF800800620FB
:100C800011494A4603F006FC736B73B11D6865B1E8
:100C9000E168304604313A46049BA84705E00B481A
:100CA0000CF065FD204603F01BF83BB0BDE8F08377
:100CB000D5082100A4E92000CD0821000609210063
:100CC0001B0921003F092100510921006809210069
:100CD000F8B50388064633B1B3F58A5F0BD000231D
:100CE00003800320F8BD1B480CF041FD4FF48A53EC
:100CF00033800120F8BD8829F8D1174C04F1180081
:100D00000CF0CDFD0028F1D0E06A0CF0F6FD0546B0
:100D100003F0AEFE0746B5B16B6883420BD8E06ABC
:100D20000CF0F4FD01462046FFF742FFE06A0CF0AC
:100D3000E4FD054638B169680848B9428CBFC7EB85
:100D40000101012102E005484FF6FF710CF095FD0D
:100D5000CCE700BF7F0921006C060020840600203C
:100D600073B500230D461446064600932A46062016
:100D70000649234603F08EFB306829465030224650
:100D800002B0BDE8704002F00DBE00BFA009210016
:100D90002DE9F04F8146506A95B00C4615469B46AA
:100DA00008B102F0D5F802F0BBF8686200284CD018
:100DB0002B6A9B88013383806E6A002E45D0B4F87D
:100DC000BA304CF2A802934206F1100704D04CF25C
:100DD000AE0293423BD04BE0D9F83430ABB1DD6882
:100DE0009DB1B4F8BE300DF120084FF0200A0093F9
:100DF000CDF80480CDF808A048465946022204F1F7
:100E0000C003A847051E06DA01E04FF0FF3566482B
:100E10000CF0ADFCC4E029463A46282340460BF0CE
:100E2000B6FE0123814600930620604942462B46C8
:100E300003F030FB4046002152460BF0C7FBB9F1EE
:100E4000000F17DA5A480CF092FC5A48A9E0282300
:100E50000193009704F1BE0004F1DE0104F1FE02EB
:100E600020230BF007FFB0F1000903DA5248EAE74C
:100E70005248E8E74FF0000804F1200B06205049E3
:100E800022462023CDF8008003F004FB06204D49C4
:100E90005A462023CDF8008003F0FCFA06204A4988
:100EA0003A464B46CDF8008003F0F4FA4FF0200CA0
:100EB0000DEB0C054FF0300ACDF804C0CDF80CC096
:100EC0004946424A0D230094CDF808B00495CDF868
:100ED00014A03846CDF81CC00BF037FE06203C4964
:100EE0002A465346CDF8008003F0D4FADDF81CC042
:100EF00028230593374ACDF800B0CDF804C00294FA
:100F0000CDF80CC00497284651460D230BF01DFE6A
:100F100022460DF1500E2B4603CB734510605160F5
:100F20001D4602F10802F6D1002528212A4804F0C6
:100F300031FD062029493A462B46009503F0AAFACE
:100F4000062027493A462B46009503F0A3FA0620CF
:100F500024493A461023009503F09CFA06202249C2
:100F600006F120021023009503F094FA06201F4991
:100F700006F130020423009503F08CFA06F13402E6
:100F80000423009506201A4903F084FAB4F8BA3015
:100F90000022738094F8B83033700023C6E902232E
:100FA000284615B0BDE8F08FAD092100CE0921001B
:100FB000D2092100B0FDFFFF020A2100340A2100FE
:100FC000580A2100660A2100740A21003104210018
:100FD000780A2100E9192100860A21009D0A2100D2
:100FE000B10A2100C50A2100D80A2100EB0A21001C
:100FF000F70A21002DE9F04F8DB0834692461E4638
:10100000169F179D0C4611B1D1F8208000E088464C
:10101000C5F3074EC5F30720E9B28DF824608DF8BB
:1010200025E08DF826008DF827106CB1A36A5BB11E
:10103000B3F848204FEA122C8DF8292001328DF8A0
:1010400028C0A3F8482002E00023ADF82830002390
:101050008DF82A308DF82B308DF82C30189B8DF8B8
:101060002DE08DF82E008DF82F100DF124092BB1F5
:1010700004F1280049460C22FFF772FE0C23CDF83C
:10108000149007935FB1189B2BB104F128003946E7
:101090002A46FFF765FE08950697022500E0012520
:1010A000142E96BF0B4B0C4953F8261032460B48B2
:1010B00004F070FC1623009305AB019307AB029379
:1010C00003955846214642465346FFF7AFFC0DB004
:1010D000BDE8F08FA4E92000CD082100030B21001A
:1010E0002DE9F04F8846A3B01E468C6A07460028BB
:1010F00000F0C580436B002B00F0C580D968002943
:1011000000F0C1804FF0010B002B00F0B9805B694B
:10111000002B00F0B58001250423BBF1000F0CBFAC
:101120004FF0000A4FF0020A9A44002D4FF0FE03E0
:101130000CBF4FF000094FF01C098DF82030202E15
:101140004FF0FD038DF8213004D952480CF00FFB0D
:1011500051489BE08EB907A805920CF077FA079BDF
:10116000D80FD9092070D80DDB0B6070E170A37027
:10117000201D1C210BF0AEFA059A0DF1220304F19B
:10118000200154F8040B8C4243F8040BF9D10023DE
:101190008DF842308DF843603EB1114611A83246B9
:1011A00011AC0BF037F9344400E011AC0023AAF184
:1011B000020A237084F801A00DB9023404E0C023B0
:1011C000A370AE23E3700434BBF1000F04D0C0233E
:1011D0002370A823637002340123237000236370FB
:1011E000B9F1000F01D1023409E0A9F102091FFA97
:1011F00089F94FEA1923A37084F8039004341DB3CE
:101200001421E1710A21617304211323E173172171
:10121000002501226370E17402230B212570A57063
:10122000E37022716371A57125726372A272E37219
:101230002573A57325746374A57425756175A575EB
:10124000E375227665761A3408AD641B682C04D9E0
:10125000124840F6662105F0FBFA16B14046FFF74A
:10126000ADFA003618BF0126009501940296384663
:10127000414608F104020123FFF7BCFE06E0834665
:101280000025022349E74FF0000B3DE723B0BDE8FE
:10129000F08F00BF2B0B2100D8FDFFFF0E072100B0
:1012A00070B500239CB08DF80C308DF80D308DF8A2
:1012B0000F308DF810305B238DF81130174B5E2402
:1012C0008DF80E4003F118050DF1120453F8046B6C
:1012D000AB4244F8046BF9D11D889B782580A3703C
:1012E00093680DF12D0403F1200553F8046BAB4214
:1012F00044F8046BF9D1D3680DF14D0203F12004D9
:1013000053F8045BA34242F8045BF9D161230093D4
:101310000B2203AB0BF07AFA1CB070BDF719210059
:101320002DE9F0478146C4B090461AA80C228A469F
:1013300049461C464C9F01F0B9FE1AA808F102016B
:1013400098F8002001F09EFE94F82E6006F1230527
:101350002F36BE4201D9514D9BE004F10C012A46C3
:101360001AA801F08FFEA35D1D4405F10D01B942DD
:10137000F1D8A27A637A120242EA0342E37A1AA807
:101380001A43013A2144521B01F07CFE1AA80AA913
:1013900001F0E4FE0F28064608D80DF1170030448E
:1013A0000021C6F110020BF011F900E010260AA985
:1013B00032460DF1170000250BF02CF800950620A1
:1013C00037490DF11702334603F064F8102E04D0AC
:1013D000344840F2AE6105F03BFA2E2F23D9637BEF
:1013E000227B43EA022212B26FF481739A421AD12D
:1013F00094F82E102E3F4B1C9F4204F12E0212D364
:10140000D45C7F1AD618013F631C9F420BD3002384
:1014100001360093062024493246234603F03AF869
:10142000102C0FD104E00021204804F0B3FA30E082
:1014300030460DF1170122460AF0B8FF054610B9F3
:101440001B4824E044B1002300930620194932468A
:10145000234603F01FF802E017480CF088F9FE233A
:101460008DF81430FD238DF8153010238DF81630CB
:1014700005AB009313230193002302934846514682
:1014800042460323FFF7B6FD051E02DA0B480CF0B7
:101490006EF9284644B0BDE8F08700BFD8FDFFFFD5
:1014A000420B21000E072100500B2100640B21008C
:1014B0008E0B2100A40B2100B30B2100C40B2100D3
:1014C0002DE9F0410E46896AB4B00AAC0746904651
:1014D0001AA8682250310AF09DFF20461AA902F08E
:1014E000BFFA114B0C25009309230193029420238A
:1014F00007AC0393424604940595B06A3021062355
:101500000BF023FB0023009322462B4606200749BD
:1015100002F0C0FF009538463146142223460BF0F6
:1015200075F934B0BDE8F0813F042100E40B2100DF
:101530002DE9F0410D46896ACAB01446503168223F
:10154000804630A80AF066FF14AE03A830A90BAF9E
:1015500002F086FA01962021009720680B4603AA24
:101560001DAC0BF0B0FB3246204639460BF0D0F8EC
:10157000061B4C2E04D9074840F6AB1105F068F95C
:101580000096404629460F2223460BF03FF94AB009
:10159000BDE8F0810E0721002DE9F04FCDB00646E1
:1015A000924699469DF85881579D589F0C4611B117
:1015B0002C300BF0EAF82A78AC48142A96BFAC4BD2
:1015C000AC4953F8221004F0E5F92978142900F207
:1015D000AA87DFE811F07C07A7042C001500A807F4
:1015E000A807A807A807A807A807A807960010013A
:1015F000DD02FE015B040404A807A807A807720324
:10160000B8F1080F40F092870E2F40F2AC873046B9
:10161000214605F10F02AB7BFFF762FDB0F1000937
:1016200080F2878794480CF0A2F800F09EBFB8F1D2
:10163000080F40F07B87172FD4F828B040F29B8723
:101640003A4604F128002946FFF78AFB6B7B2A7B88
:1016500043EA022212B26FF481739A4205D087489E
:101660000CF085F8DFF854923DE005F10E080BF11F
:10167000200305F12E0258F8041B904543F8041B83
:10168000F9D195F82EA0A7F12E030AF101094B45D7
:10169000C0F0718708EB090518F809106B7830461F
:1016A00043EA0121ABF8BA1001220BF08EF830B9F1
:1016B00018F809106A78724804F06CF905E0AB7804
:1016C00033B17048194604F065F9DFF8F4910AE087
:1016D000A7F132022046E91CCAEB0202FEF79AFF8C
:1016E000B0F1000902DA684800F040BFA36AB3F81D
:1016F000BA204CF2AE039A4240F06881092300F010
:1017000010BFB9F1000F02D1B8F1090F04E0B9F12F
:10171000010F03D1B8F1020F40F00887204650F8BE
:10172000288F3A462946FFF71BFBB8F8BA204CF23F
:10173000AE039A4204D0554840F6D72105F088F808
:101740006B7B2A7B1B0243EA0243AA7B13435E2B7B
:1017500001D04F4812E02B7CEA7B1B0243EA024394
:101760006A7C13435B2B01D04A4807E005F1120065
:1017700049491B220AF01AFE28B148480BF0F7FF2E
:10178000DFF8408128E008F58F7205F12D0113463E
:1017900005F14D0051F8047B814243F8047BF9D1F7
:1017A00008F59F7318466D3551F8047BA94240F83F
:1017B000047BF9D1716B51B14D6945B12021009184
:1017C0003046211DA847B0F1000808DA01E04FF0CB
:1017D000FF3833480BF0CBFF324800F0D3BEB9F1ED
:1017E000000F02D10A2300F09CBEB9F1010F40F0B6
:1017F000AC86032394E3A66A4CF2AE03B6F8BA9023
:10180000994540F09D80B8F10A0F40F08F8604F1B1
:10181000280029463A46FFF7A3FAB6F8BA304B45F6
:1018200004D01A4840F6133105F012F89A2F01D867
:101830001D4815E02B7B032B01D01C487BE06A7B05
:10184000AB7B43EA0223172B01D0194873E0EB7BF3
:10185000412B01D017486EE02B7C042B34D0164866
:101860000BF085FFDFF85C906CE000BFF80B210007
:10187000A4E92000CD082100220C21003A0C21000F
:101880004F0C2100710C2100980C21000E07210043
:10189000BD0C2100F60C2100F7192100200D2100BC
:1018A0004C0D21006D0D2100980D2100C60D210069
:1018B000E20D2100F60D21001A0E2100BAFDFFFFF6
:1018C000B9FDFFFFCEFDFFFF05F1110006F1DE03BC
:1018D00005F1310250F8041B904243F8041BF9D182
:1018E00006F1FE0305F1510250F8041B904243F843
:1018F000041BF9D1A7F1450116AA26ABFEF740FE5D
:10190000B0F100091EDB2022B318019305F10C038E
:10191000039345230493169B00920593269B029202
:10192000069306F58F7006F59F7133460BF03AFA71
:10193000002805DAB6480BF01AFFDFF8189301E02B
:101940004FF00009A66A4CF2A803B6F8BAA09A456F
:1019500036D1B8F10B0F40F0E98504F12800294693
:101960003A46FFF7FDF9B6F8BA30534504D0A94816
:1019700040F66E3104F06CFF0D2F01D8A64809E047
:101980002A7B6B7B0E3F43EA0222BA4205F10E012D
:1019900005D0A2480BF0EBFEDFF8BC9213E0202A42
:1019A00005D99F480BF0E3FEDFF8B0920BE0A6F8F4
:1019B000BE2006F1C0000AF02DFD4FF0000905E041
:1019C000B9F1000F02D0974800F0D0BD0B2300F012
:1019D000A8BDB8F10B0F40F0A985204650F8288F1C
:1019E00029463A46FFF7BCF998F8BC30D90718D514
:1019F000736B4BB11B693BB13046211D16AA98474A
:101A0000B0F1000904DA01E04FF0FF398648A9E09F
:101A100030462146169AFFF743FCB0F10009C0F2A8
:101A20008880A56A4CF2A802B5F8BA30934215D066
:101A30004CF2AE02934253D141238DF898300423E7
:101A40008DF8993005F1BE000DF19A010DF1BA0241
:101A5000202301F085FA0DF1DA0747E0736BBBB183
:101A6000D3F80CC0BCF1000F12D0B5F8BE3005F1B0
:101A7000C00A00930DF19A07202302930197304684
:101A8000211D01225346E047B0F1000906DA01E0CA
:101A90004FF0FF3965480BF06AFE38E009F10203A8
:101AA000422B07D905F1BE00002122220AF08EFD4B
:101AB0005F4816E039464A46A5F8BE9050460AF0FF
:101AC000A9FCB5F8BE203846130A51468DF8983067
:101AD0008DF899200AF09EFCB5F8BE301F4405E051
:101AE00054480BF044FEDFF8749113E026AD7F1BE1
:101AF000422F04D9474840F6871104F0A9FE009709
:101B00003046214610222B460AF080FE8146B9F16C
:101B1000000F01DA484825E098F8BC30DA070AD50A
:101B2000169A304621460432FFF702FDB0F1000953
:101B300001DA424816E0304641462246231DFFF7AF
:101B400027F9B0F1000920DB01224CAB03F8982DF6
:101B500030460092214614220AF006FEB0F1000938
:101B600003DA37480BF003FE09E0626A236A304665
:101B7000226263622146334AFFF7A2FC8146B9F133
:101B8000000FA8BF052380F2CC842F4800F0EEBCE4
:101B9000B8F10B0F40F0CA843A4604F128002946F8
:101BA000FFF7DEF8A36AB3F8BA204CF2AE039A420C
:101BB00004D0184840F69B3104F04AFE102F01D89B
:101BC00015484EE02B7B05F10D015A1CBA4203D893
:101BD0000C35E818002208E01C4842E015F8016FB7
:101BE000402E02D1002A08BF40228542F6D1402A69
:101BF00001EB030001D0164850E0CD5C437843EA86
:101C000005256B1CBB422BD800220346114633E04E
:101C10003D0E21000E072100980D21004D0E2100E0
:101C20007D0E2100A70E2100D30E2100340F2100CC
:101C30004E0F21006B0F2100800F2100FF0E2100AD
:101C4000A00F2100E2192100B80F2100E10F2100AF
:101C500004102100D8FDFFFFCEFDFFFFB0FDFFFF08
:101C6000B2480BF084FDDFF8148300F088BC9F7845
:101C7000DE78042F04D0023346199E42F7D108E0E3
:101C8000002AF8D1032EF6D10029F4D13A46314684
:101C9000F1E7042A01D1032906D0A5480BF067FD1E
:101CA000DFF8DC8200F06BBCA36A93F8BC2042F042
:101CB000010283F8BC2000F048BCB8F1060F40F0E8
:101CC0003584172F04D8DFF8B8829A4800F05ABC40
:101CD000A36A0DF1980A50331946682250460993B9
:101CE0000AF098FB099B0DF1580B1946584601F074
:101CF000B7FEA06A5146682250300AF08BFB8E4B2B
:101D000094F81CE00093092301932023CDF808B038
:101D100003934FF00C0B894B894ACDF810A0CDF8F6
:101D200014B0BEF1000F08BF1A4630214346A06A26
:101D30000AF00BFF002100914046824905EB0B029F
:101D40005B4602F0A7FB0023009352465B464046E9
:101D50007D4902F09FFB01220023E918087B1AF855
:101D600003100133884214BF002202F001020C2B41
:101D7000F3D1002AA7D0B9F1010F22D104F1280034
:101D800029463A46FEF7ECFFCDF800903046214652
:101D9000142253468DF898900AF0E6FCB0F1000842
:101DA00001DA6A4888E3626A236A30462262636223
:101DB0002146624AFFF784FBB0F1000803DA644869
:101DC0007AE34FF00008A06A01F09AF80023A362BA
:101DD00060480BF0CCFC0C23637700F00FBCB8F12B
:101DE000030F40F0A383A06A4CF2AE03B0F8BA2010
:101DF0009A4224D14D2F01D8574834E02B7B412BF8
:101E000001D056482FE06B7B042B01D054482AE0C8
:101E100005F10E0100F1DE0305F12E0251F804EB8D
:101E2000914243F804EBF9D100F1FE0305F14E02B3
:101E300051F804EB914243F804EBF9D100E0294654
:101E4000B0F8BA204CF2A8039A4240F09F830D2FBD
:101E5000D2D94B7B0A7B0E3143EA022202F10E03F8
:101E6000BB4205D03F480BF082FCDFF8148188E3C9
:101E7000202A05DD3C480BF07AFCDFF8088180E37E
:101E8000A0F8BE20C0300AF0C5FA7FE3B8F1040F15
:101E900040F04C83A66A4CF2AE03B6F8BA209A42E0
:101EA00004D0324840F2497104F0D2FC552F05F1BC
:101EB0000C0005D82E480BF05AFCDFF8C08026E055
:101EC00039460CAA0DABFEF75BFB00281EDBA16AAE
:101ED0006822503126A80AF09DFA16A826A901F01A
:101EE000BFFD0C9B202201930D9B06F59F71029371
:101EF000009206F58F7016AB0AF02DFF011E08DA6E
:101F00001C4803F047FDDFF8788000E080461A485F
:101F100038E304F1280029463A46FEF721FF05235D
:101F2000637712E384B3B8F10C0F2FE03A1021006D
:101F30006C1021009D1021003F0421002A04210083
:101F4000E2192100971021009A102100A00F210012
:101F5000BE102100DD102100F0102100F60D21003F
:101F60001A0E210015112100351121000E07210044
:101F7000980D21005A11210073112100CEFDFFFFA1
:101F8000D8FDFFFFB0FDFFFFB8F1010F40F0CE829A
:101F900000973046214652462B46FFF7C1F9B0F173
:101FA000000901DAB948E1E203D0B9480BF0DFFBE0
:101FB000BFE29CB9504602F0FDF9044618B9B54895
:101FC0000BF0D5FB13E0016A012303770122002304
:101FD000C1E90223214670690BF0B2FCD4F82880D5
:101FE000B8F1000F1BD100F06DFFA06210B9DFF84F
:101FF000C08203E300F140034364A36AC3F8408056
:10200000A36A586C0BF076FC29796A79A36A42EAD4
:102010000122A3F84A20A36A0122A3F848202046FF
:10202000FEF7CCFBD4F82880D4F820A0B8F1000F3C
:1020300004D1994840F2DF3104F00AFC2E2F04D875
:1020400095484FF4787104F003FC05F10E03424605
:1020500005F12E0153F8040B8B4242F8040BF9D121
:1020600095F82E10A7F12E004A1C904270D3401A0A
:1020700099189B5C01385A1C904269D3C31A013BE2
:102080000B938B1811F802C05A780B9942EA0C2C6A
:102090000CF10202914209D2BAF1000F58D0BAF8FD
:1020A0000230002B54D0A8F8BA302CE0E3460233BB
:1020B00000221846BBF1000F06D1E2B9A8F8BA20F9
:1020C00076480BF054FB43E00233A2B913F8020C3C
:1020D00013F8011CABF1020B41EA0021A8F8BA1079
:1020E00030460993CDF828C00AF06FFBDDF828C010
:1020F0000246099BDDE70B9B9A1EB2EB0C0C0AD142
:10210000BAF1000F04D09AF8003088F8B8302AE00D
:1021100088F8B8A027E010F80B2000EB0B01531C47
:102120009C4515D301318818002381428E460DD07D
:10213000002B00F00D82C2EB0C022046013A012375
:10214000FEF768FAB0F100080DDA0AE0002BF2D1D0
:1021500094F81D80524B534AB8F10C0F0CBF9046B7
:1021600098465148A8E129463A4604F12800FEF76E
:10217000F7FDA76A4CF2AE03B7F8BA8016ADB8EB1C
:102180000303D3F1000858EB0308FE23B8F1000F56
:102190008DF8983028464FF0FD030CBF4FF0000A31
:1021A0004FF0120A8DF899300BF050FA169B07F198
:1021B0002400D90FDA0987F82010D90DDB0B87F836
:1021C000211087F8223087F823201C210AF082FA98
:1021D00007F120030DF19A0203F1200153F8040BDB
:1021E0008B4242F8040BF9D100228DF8BA20B7F8DF
:1021F000BA304BB1190A8DF8BD208DF8BB108DF89F
:10220000BC300DF1BE0201E00DF1BB02BAF1000FCE
:1022100009D0AAF1020A1FFA8AFA4FEA1A231370A8
:1022200082F801A00232B8F1000F16D01321142752
:10223000002302205170977101210B2713709370B6
:10224000D17010715371D371117250729372D77231
:10225000137350739173D373103226AFC7EB020818
:10226000B8F1400F04D90C4840F2CC7104F0F0FAF8
:10227000CDF800803046214602223B460AF0C6FADD
:10228000B0F1000816DA094816E100BFA5112100D7
:10229000C8112100E51121000E072100F8112100CD
:1022A000D8FDFFFF9CFEFFFF111221003412210018
:1022B000B0FDFFFFA36AB3F8BA204CF2AE039A4216
:1022C00040F09480736B4BB11B693BB13046211DCC
:1022D0000CAA9847B0F1000804DA01E04FF0FF388B
:1022E000B548E9E0304621460C9AFEF7D9FFB0F137
:1022F000000801DAB148DFE00323D4F828808DF824
:10230000983000238DF8993017238DF89A304123A7
:102310008DF89B30042308F1BE008DF89C300DF140
:102320009D010DF1BD022023DDF830B000F018FE54
:1023300008F12003202100930DF1340A4523019177
:1023400003930297CDF810A0059542460B46DBF8A3
:1023500004000AF0D8FC0DF1DD0051462A460AF0CF
:10236000D7F9C7EB0008B8F1910F04D9944840F6AB
:102370006C0104F06DFACDF80080304621460C2245
:102380003B460AF043FAB0F1000801DA8D4893E0C9
:10239000A36AB3F8BA204CF2AE039A4226D1304673
:1023A0000AF08CF910B301238DF8983002224023F3
:1023B0008DF899308DF89B20002304228DF89A30F7
:1023C0008DF89C208DF89E3003228DF89F300823D5
:1023D0008DF89D200093304621460D223B460AF0A1
:1023E00015FAB0F1000801DA774865E0A36AB3F89E
:1023F000BA204CF2A8039A424BD1736BA3B1D3F825
:102400000CC0BCF1000F0FD04FF0000A2023029344
:10241000CDF800A001953046211D52465346E047B5
:10242000B0F1000804DA01E04FF0FF38674843E0FC
:102430002FD0B8F1200F0AD9614840F67D0104F091
:1024400007FA63480BF093F9DFF8A4811FE02946EF
:1024500042460DF19A008DF899808DF898A009F008
:10246000D9FF0DF19A018844C7EB0805222D04D944
:10247000534840F68B0104F0EBF9009530462146B5
:102480000C223B460AF0C2F9B0F1000801DA5148CB
:1024900012E000230093304621460E220AF0B6F9DE
:1024A000B0F1000807DBA36AB3F8BA204CF2AE0320
:1024B0009A420AD103E048480BF059F99EE03046B1
:1024C0000AF0FCF808B102232BE0032329E0B8F15D
:1024D0000C0F37D1B4B1A56AA5B900F0F3FCA06226
:1024E00000283FF484AD00F140034364A36A1D64F7
:1024F000A36A586C0BF0FEF9A36AA3F84A50A36ACA
:10250000A3F848500022134630462146FEF7E8FD66
:10251000B0F10009A8BF082303DA30480BF027F90F
:1025200027E0637706E02E4803F034FADFF8C48032
:1025300064E0F4B1A36AE3B1B3F84A200132A3F82E
:102540004A2016E04FF0000858E04FF00009F1E78C
:102550009EF800E00131BEF1000F7FF4E6AD88F88F
:10256000B8300123E1E5DFF890901E48494603F0BA
:1025700011FAC84642E0DFF88090FFF7B4B81A4875
:1025800000E01A48414603F005FA37E03A4604F104
:1025900028002946FEF7E4FBA36AB3F8BA204CF200
:1025A000AE039A427FF4BBAC30460AF087F80028AD
:1025B0003FF4B5AC0423B3E4D30E2100FF0E210099
:1025C0000E07210069122100A6122100E31221004A
:1025D000161321003413210079132100220C21004D
:1025E000B2132100C8132100FC132100281421007C
:1025F000B0FDFFFFF6FDFFFFCEFDFFFF40464DB0F3
:10260000BDE8F08F70B54B7F05460D3B012B0C46A6
:10261000164602D904310AF05CF946B168692146D0
:102620000BF07AF906200449221D01F019FF20461B
:10263000BDE8704001F0AABE5314210030B585B04A
:1026400005460AF0FCF8044610B94FF0FF3028E0C8
:10265000437F0C2BF9D100F035FCA0620028F4D0A8
:102660000023A0F84A30A26AA2F84830227F72B94B
:10267000284621461346FEF733FD051E03DA0A48B5
:102680000BF075F801E008236377284609E0012A7A
:10269000DBD100930193029328462146221DFEF7C9
:1026A000A9FC05B030BD00BF220C21002DE9F04F80
:1026B00091B006468946174607930AF0C0F80446CB
:1026C00040B9AD480BF053F80620AC494A4601F03A
:1026D000C7FE16E0AA480BF04AF812E0B8F1000F66
:1026E00000F003832B78012B40F0FF82237F012B26
:1026F00000F0258106236377069B07991F44C91ABA
:102700000791079A0C2A0FD97B78FE2B0CD1BB7846
:10271000FD2B09D1FA7A3B7B43EA0223079A03F1A6
:102720000D019142069101D90025EDE2BB461BF84F
:102730000D1B9448069A059303F02CF9059B002C79
:1027400000F0C980F9783A79D4F820A042EA012152
:10275000BAF1000F03D0BAF804208A420AD0D4F8A4
:1027600024A0BAF1000F05D0BAF804208A4218BF9D
:102770004FF0000A5D469846BAF1000F03D1824837
:1027800003F008F98DE0BAF80220002A00F09E80DC
:102790000F2B40F38680002110220CA8059309F02E
:1027A00015FF227FDBF80410012A0CBF0AF130026A
:1027B0000AF134021068059B0C90DBF800000DAAAA
:1027C0004FF0000B03C2A3F108080CAA06206F49C2
:1027D0001023CDF800B001F05DFE237F07F1150551
:1027E000012B0CBF0AF110020AF1200206206849F1
:1027F0001023CDF800B001F04DFE43460620654998
:102800002A46CDF800B001F045FE3A4652F8030FD3
:102810000DF1200E5168734603C3BB783A888DF8DA
:102820002A30A8F108039BB2ADF828208DF82C308F
:102830001A0A237F8DF82B20012B0CBF0AF11003FD
:102840000AF120030093102301930D2303934146C3
:10285000CDF808E028462A460CAB00F0E1FBB0F1C9
:10286000000803DA4C480AF082FF17E04B48414663
:1028700003F090F8236A606A43B138B19A8883887C
:102880009A4203D300F064FB0023636200230093A9
:10289000062043492A46434601F0FCFDB8F1000FEB
:1028A00014DA40480AF063FF637F0B2B00F21B82AF
:1028B0002146221D30463C4B09F0D3FF0E2363779F
:1028C000304621460122FFF79DFE0CE294F81CA041
:1028D00094F81DB004E05D464FF0010B9846DA46CF
:1028E0004FF0010CCDF800C0062030493A460D23C8
:1028F000CDF814C001F0CEFDDDF814C02C494346DC
:10290000CDF800C006202A4601F0C4FD3978A1F1B7
:102910001403032B00F2E381DFE813F004001B0033
:10292000AC00940124B106F12C00214609F02DFFE2
:10293000637FA16A052B3FF4D1AE1E4819E03046F3
:102940002246231DFEF724FA0028BFF6D3AE054623
:10295000CCE124B106F12C00214609F016FFB8F1B4
:10296000010F7DD9144829786A7803F013F83CBB2D
:1029700012480AF0FCFEBFE6601421008414210016
:102980008E1421008B182100AE142100D1142100D7
:10299000CB1A2100D7142100E2142100F4142100E5
:1029A000201521002A152100CDFDFFFF4215210031
:1029B000511521006515210090152100B415210045
:1029C0002B786978022B00D0B1B9A34802F0E2FF5E
:1029D000214670690AF0A0FFA04802F0DBFFA01DAD
:1029E00005F094FCE08A0BF077F801469C4802F071
:1029F000D1FF4FF0010801E04FF00008736B4BB1BD
:102A0000D3F808C0BCF1000F04D03046211D2A784D
:102A10006B78E0476B789BB9627F0D2A0ED00D2250
:102A2000627702228DF830208DF8313000923046E6
:102A3000214615220CAB09F097FE01E00E236377C7
:102A4000B8F1000F3FF458AE06F12C00214609F012
:102A50009CFE304621460022FFF7D4FD012500E010
:102A6000804D81480AF083FEB5F1FF3FA8BF4FF0CB
:102A7000FF3549E19CB1236AFA7899883B79BAF12C
:102A8000010F43EA022204D1BBF1060F04BF01315A
:102A900089B2914203D0754802F07CFF2CE6B8F170
:102AA0000B0F04D872480AF062FE6E4DA5E02A783A
:102AB0007048142A96BF704B704953F8221002F0E8
:102AC00069FF0CB1A36ADBB92B78012B07D024B9BD
:102AD0006B480AF04CFE6B4D8FE0012B0ED8019530
:102AE000CDF800B0CDF80880304621464A4653461E
:102AF000FEF752FD051E80F28A807EE0624840E0CB
:102B000029796A7942EA0122B3F84A108A4203D24B
:102B10005E4802F03FFF7DE036D9B8F1C80F01D919
:102B20005B482EE0586C0AF0F2FA70B1027F437FE6
:102B3000297943EA02236A7942EA01229A4201D1C1
:102B400054481EE00AF0E7FAEFE7404601F0B4F817
:102B5000824608B9504814E0C460C0F81480294681
:102B60001830424609F056FCA36A5146586C01F0F1
:102B700077F828B949480AF0FAFD504601F0B0F854
:102B800047480AF0F4FD45E02DD1CDF800B001959D
:102B9000CDF80880304621464A465346FEF7FCFCF5
:102BA000B0F1000828DBA36A1BB3586C0AF0AFFA37
:102BB0000546F0B1A36A287F6A7FB3F84A1042EA5B
:102BC000002291420BD1586C29460AF0A8FA637F83
:102BD000009305F1180301936B690293DAE7284625
:102BE0000AF099FAE4E72F484FF46E6103F030FEE3
:102BF00010E0B8F1000F0DDA45462B480AF0B7FD9A
:102C0000304621464A462B4609F02BFE7CE0002C3C
:102C10003FF472AD637F0C2B7FF46EAD06F12C0098
:102C2000214609F0B2FD736B002B3FF465AD9D6842
:102C3000002D3FF461AD3046211D00224FF4EF73AB
:102C4000A84759E519480AF092FD9CBB18480AF0BC
:102C50008EFD4FF0FF3557E00016210014162100BD
:102C600023162100CEFDFFFF291621005316210057
:102C70007616210092162100A4E92000CD0821003B
:102C8000BE162100D8FDFFFFEE162100121721000D
:102C9000521721007D172100B2172100CC17210007
:102CA000EF1721000E0721000B1821003118210019
:102CB0004618210006F12C00214609F066FD736BD1
:102CC000002B3FF419ADD3F804C0BCF1000F3FF462
:102CD00013AD3046211D2A464346E0470CE50C481B
:102CE00002F058FE08E50B4D0EE00B4D0B480AF0C4
:102CF0003EFD21464A4630462B4609F0B2FD30469D
:102D000021460122FFF77EFC284611B0BDE8F08F76
:102D100067182100CDFDFFFFCEFDFFFFA5182100A4
:102D2000F7B51D4C054601A80AF090FC4FF48072DF
:102D30000021204609F04AFC184E04F128002563C2
:102D4000E062174D0AF0D6FD002304F11000236164
:102D500060610AF0CFFD3046214603F05FFC2F682A
:102D600004F118004FF6FF712E600AF086FD204630
:102D70000C212F6009F0AEFC054618B1019B2046DE
:102D8000E36006E007480AF0F2FC204609F0BCFDCB
:102D9000284603B0F0BD00BF6C060020680000208C
:102DA000880D0020D318210070B506460C4691B955
:102DB000204841F28D0103F04BFD09E00025257705
:102DC000706921460AF0BCFD00F07CF8A06288B969
:102DD0004FF0FF3070BD0D1D294609F030FD8442D3
:102DE000ECD115480AF0C3FC30462946BDE87040D6
:102DF000FFF724BCA0F84A50A36AA3F84850A36A7E
:102E000003F140025A64A36A1D64A36A586C0AF075
:102E100071FD2A462B4630462146FEF761F9051E14
:102E200003DA06480AF0A3FC01E00823637728468A
:102E300070BD00BF0E072100EE182100220C2100FA
:102E4000F8B506460C4609F0FAFC054650B920468E
:102E500001F0B0FA054628B912480AF088FC4FF094
:102E6000FF30F8BD30462946FFF79EFF041E09DDFE
:102E7000736B93B19F6887B13046291D00224FF4D0
:102E8000EE7309E009D1706B50B187683FB13046ED
:102E9000291D224640F2DF13B8472046F8BD3846C8
:102EA000F8BD00BF0C19210008B504480AF072FDF6
:102EB000BDE8084002480AF06DBD00BF8400002054
:102EC0007800002010B50B480AF074FD044618B9CC
:102ED00009480AF04CFC0BE000214FF4B07209F0F5
:102EE00075FB06480AF043FC04F1500000F062FC58
:102EF000204610BD84000020121A2100361A21003D
:102F000010B5044640B1406C00F0F2FE2146034883
:102F1000BDE810400AF062BD10BD00BF8400002073
:102F200010B509480AF046FD044618B907480AF0EA
:102F30001EFC06E00021382209F048FB00236380D4
:102F40002370204610BD00BF78000020561A2100D3
:102F5000014610B101480AF041BD704778000020D9
:102F60002DE9F04180469AB00F4616461C4602A84D
:102F7000214609F012FD02A801F0ECF90028F6D074
:102F800012AD0AAB02AA00950A480B490AF0F1FA01
:102F900002A82146424609F01EFD0AA821463A46EB
:102FA00009F019FD28462146324609F014FD1AB0F1
:102FB000BDE8F081E8FF2000080021002DE9F0477E
:102FC0001446099A06460D4613480899D2001F4632
:102FD000DDF82890DDF82C8009F00EFFB0F1000A32
:102FE00014DBA64204D0204631462A4609F088FA6E
:102FF00008940995CDF82890CDF82C803B460648DA
:1030000008210322BDE8F04709F04ABF03480AF04F
:10301000AEFB5046BDE8F0876C070020B71A2100D0
:103020002DE9F0471446099A06460D4613480899BB
:10303000D2001F46DDF82890DDF82C8009F0DCFE78
:10304000B0F1000A14DBA64204D0204631462A46DD
:1030500009F056FA08940995CDF82890CDF82C80FF
:103060003B46064808210322BDE8F04709F0AEBF01
:1030700003480AF07CFB5046BDE8F0876C0700204F
:10308000B71A210070B50D461646044618B9064811
:103090004E2103F0DDFB04F1400029463246BDE835
:1030A000704000F07FBC00BFCF1A2100F8B50F467A
:1030B0001546044618B91C48612103F0C9FB204697
:1030C0000021A82209F082FA402D0ED904F1400611
:1030D000304600F06FFB304639462A4600F062FC6D
:1030E0002046314600F0BCFC04E0204639462A4622
:1030F00009F090F90025635D83F0360363550135CF
:10310000402DF8D104F1400000F054FB2046214648
:103110002A46FFF7B7FF0023E25C82F06A02E2541E
:103120000133402BF8D1F8BDCF1A210070B5064607
:1031300005480D460AF03EFC044618B131462A46C1
:10314000FFF7B4FF204670BD90000020014610B18B
:1031500001480AF043BC70479000002070B50E464D
:1031600088B0054618B91148832103F071FB1EB9D8
:103170000E48842103F06CFB05F1400421466846AB
:1031800000F06EFC204600F015FB20462946402248
:1031900000F008FC20466946202200F003FC30467F
:1031A000214600F05DFC202008B070BDCF1A210040
:1031B000F0B54B780C781B0443EA0463CC78802A82
:1031C00083EA04038C7843EA042303604B790C7987
:1031D0004FEA034343EA0463CC7983EA04038C791E
:1031E00043EA042343604B7A0C7A4FEA034343EAF1
:1031F0000463CC7A83EA04038C7A43EA0423836071
:103200004B7B0C7B4FEA034343EA0463CC7B83EAAA
:1032100004038C7B43EA0423C36035D10022844934
:10322000C36855580168DCB24D408249043251F8F8
:103230002440282A04F47F4485EA04054FEA1364F5
:1032400011F8244085EA0405C3F3074451F82440EB
:1032500004F07F4485EA0405C3F3072451F82440B1
:1032600004F47F0485EA04014468016181EA0401F1
:103270008468416181EA040181EA03038161C361D9
:1032800000F0CD801030CAE74B7C0C7C1B0443EA75
:103290000463CC7CC02A83EA04038C7C43EA0423C5
:1032A00003614B7D0C7D4FEA034343EA0463CC7D0D
:1032B00083EA04038C7D43EA042343613AD100226C
:1032C0005B49436955580168DCB24D4059490432A5
:1032D00051F82440202A04F47F4485EA04054FEA8B
:1032E000136411F8244085EA0405C3F3074451F838
:1032F000244004F07F4485EA0405C3F3072451F811
:10330000244004F47F0485EA04014468816181EA71
:1033100004018468C16181EA0401C468016281EA30
:10332000040141627DD00469183061404B40016165
:103330004361C5E74B7E0C7E1B0443EA0463CC7EED
:10334000B2F5807F83EA04038C7E43EA0423836121
:103350004B7F0C7F4FEA034343EA0463CC7F897FB2
:1033600083EA040343EA0123C3615CD10024304BA8
:10337000C269E5580368D1B25D402E4B043453F85E
:1033800021101C2C01F47F4185EA01014FEA1265EE
:1033900013F8255081EA0501C2F3074553F825507B
:1033A00005F07F4581EA0501C2F3072553F8255052
:1033B00005F47F0581EA05014568016281EA05019E
:1033C0008568416281EA0501C568816281EA05017B
:1033D000C1622AD00D0E53F82560CDB213F82570C6
:1033E00006F07F4605697E407540C1F3074653F8F5
:1033F0002660C1F3072153F8211006F47F0601F47B
:103400007F41754085EA0103416903634B4081694F
:1034100043634B405A408363C2632030A7E70A20CE
:10342000F0BD0C20F0BD0020F0BD0E20F0BD00BFAF
:10343000F8E9200020FA20002DE9F04FD578046843
:1034400097786C40157892F807A084EA056455785F
:1034500087B084EA054484EA0727446803978AEA28
:10346000040492F804A0977984EA0A6492F805A00B
:1034700092F80F8084EA0A4A8AEA072A8468D77A8F
:1034800049107C40177A059184EA0764577A0491C1
:1034900084EA0747947A87EA0427C46888EA040420
:1034A00092F80C8084EA086492F80D80927B84EA9A
:1034B000084888EA02280246039DDFF8F4C2B84EA5
:1034C0002C0E5FFA88F156F821105CF82440B54DB7
:1034D0004C401169DDF80CB06140CAF3074455F85F
:1034E0002440B14D6140C7F3072455F824402032F1
:1034F00081EA04094FEA1A645FFA8BF156F8211049
:103500005CF824404C4052F80C1C84EA010BA5499D
:10351000C7F3074451F824408BEA0401C8F3072499
:1035200055F824404FEA176B61405FFA8AF456F869
:1035300024405CF82BB0FFB28BEA040B52F8084C25
:1035400056F827708BEA04040194C8F30744A34695
:103550004FEA1868934C5CF8288054F82B40DDF84B
:1035600004B088EA070852F8047C8BEA0404DDF80A
:103570000CB0029488EA0707CBF30724DDF808B003
:103580000297039F55F82440C7F30748854FCAF3B5
:10359000072A57F828808BEA0404DDF808B055F8AC
:1035A0002A708BEA080888EA0708049F5FFA88FAFD
:1035B000013F04974FEA196766D05CF8277056F808
:1035C0002AA0C1F3074B87EA0A0A17688AEA070AA2
:1035D000744F57F82BB0C4F3072755F827708AEAC1
:1035E0000B0A8AEA070703974FEA116A5FFA89F71D
:1035F00056F827705CF82AA0C4F3074B8AEA070A3A
:1036000057688AEA070A674F57F82BB0C8F30727AD
:1036100055F827708AEA0B0A8AEA070A4FEA146B00
:10362000CFB256F827705CF82BB0E4B28BEA070BE8
:10363000976856F824408BEA0707C8F3074B4FEA10
:1036400018685CF828C00197564F8CEA040CD468BF
:1036500057F82B70534EDDF804B08CEA040CC9F314
:1036600007448BEA070B56F82440C9F30727C1F338
:10367000072155F8277055F821108CEA04088BEAC9
:10368000070788EA010817E7484ADDF814B052F83E
:10369000277012F82AC04FEA4B16851907F07F47AA
:1036A000865987EA0C0787EA0600C1F3074652F8F5
:1036B000266006F47F067040C4F3072652F82660A1
:1036C00006F47F467040060E1E70060C5E70D870C1
:1036D000060A080E9E7052F820605FFA89F012F810
:1036E000207006F07F4668687E407040C4F307464D
:1036F00052F8266006F47F067040C8F3072652F899
:10370000266006F47F467040060E1E71060C5E7140
:10371000D871060A200E9E7152F82060C8B212F8C5
:10372000207006F07F46A8687E407040C8F30746C8
:1037300052F826604FEA186806F47F067040C9F315
:10374000072652F82660E4B206F47F467040060E63
:103750001E72060C5E72D872060A52F8280012F821
:1037600024409E7200F07F406040EC68C1F3072166
:103770006040C9F3074452F8244052F8211004F481
:103780007F04604001F47F4180EA0102110E197349
:10379000110C5973110A9973DA7307B0BDE8F08FF1
:1037A00020F6200020EE200020F2200020FA200049
:1037B00020EA200070B50446B0B10C4D024605F178
:1037C00020062B4603CBB342106051601D4602F128
:1037D0000802F6D1402204F12800002108F0F6FE8C
:1037E00000220023C4E9082370BD00BF20FE200092
:1037F0002DE9F04F90E82400836889B0C468866999
:10380000039347690369D0F81C9000F1280C0594D4
:1038100004964FF00008DFF888A151F8084058F8E6
:103820000AA04FEAB31B26BA8BEAF32B049C4CF890
:1038300008608BEA736B564406EB0B0A24EA030616
:1038400007EA030B039C86EA0B065644B14484EA5C
:10385000050604EA050A164086EA0A064FEAB20A95
:103860008AEA723A8AEAB25A059C08F10408564478
:10387000B8F1400F4C444E440AD0DDF81090049744
:103880001F462346039C0395059415463246C2E71E
:103890004FF0100B0BF1010909F00F08CDF804905F
:1038A0005CF828904FEAF91888EAB948CDF81480F6
:1038B0000BF10E0808F00F085CF828804FEA784AF0
:1038C0008AEAF84ACDF818A0DFF8D4A05AF82B10ED
:1038D0000BF00F0A0BF1090B07910BF00F015CF8CD
:1038E00021108B465CF82A108B44059981EAD9098E
:1038F00059464944DDF8189089EA982801EB080BED
:103900004FEAB4184CF82AB088EAF42827EA040AE7
:1039100003EA040988EA74688AEA09090799C14434
:103920008944D944DDF810B085EA0208CB4408EA9E
:10393000060805EA020988EA09084FEAB60989EA91
:103940007639019989EAB659DDF80CA0C8444029B6
:10395000DA44D84409D0049703951F4615462346F8
:1039600032468B465446464694E70168414401601E
:1039700041680E44816846600A448260C26815440A
:103980000269C5605244026142691444826944611B
:1039900013448361C3691F44C76109B0BDE8F08F58
:1039A00040FE20002DE9F843064688461746002AC7
:1039B00051D000B121B9294840F2332102F048FF2B
:1039C000326A736AD40844EA437414F03F0419D08D
:1039D000C4F1400504F12800AF42304441462FD3E2
:1039E0002A4608F017FDD6E90801EB00C01841F19E
:1039F0000001C6E90801304606F128017F1BA844F2
:103A0000FFF7F6FEB94608EB0701B9F13F0FC9EB26
:103A100001010DD93046FFF7EBFED6E9084514F554
:103A2000007445F10005C6E90845A9F14009EAE737
:103A300027F03F0117F03F0741440CD006F1280062
:103A40003A46FF0008F0E6FCD6E90845E41945F1DE
:103A50000005C6E90845BDE8F88300BF071B210043
:103A60002DE9F8438046894621B92E4840F25F216E
:103A700002F0EEFEB8F1000F06D1484600216822A0
:103A8000BDE8F84308F0A2BDD9E90845E20842EADA
:103A9000457227BA2EBA12F03F02C9E9086709F148
:103AA000280422D0531C09EB02018020382B81F816
:103AB000280006D802F1290048440021C2F137024B
:103AC00010E0402B07D002F1290048440021C2F148
:103AD0003F0208F07BFD48462146FFF789FE20465D
:103AE0000021382208F072FD07E0114620463822F6
:103AF00008F06CFD802389F82830D9E9082348466E
:103B0000C9E918232146FFF773FE002359F8032063
:103B100012BA49F8032048F803200433202BF5D1CA
:103B2000ABE700BF071B21002DE9F84F0B9F0E46A6
:103B30008346C1F1100015460021384432469946AB
:103B4000DDF828A0DDF83080012408F03FFDF30007
:103B50009C400D49013C2C400C600F2564B90C6061
:103B600058463946424609F053F9484641465246BE
:103B7000BDE8F84F09F057B9B542F0D97B5D234352
:103B80007B55240A013DE9E7200800202DE9F04794
:103B9000089D16461C462A4689461946804609F065
:103BA00037F920460021102208F010FD002E4DD0DC
:103BB000B6F57F4F03D32648752102F049FEC6F3C0
:103BC00007230E2E34BF37460E27237049463A4648
:103BD0006670A01C08F01EFC20462946102209F041
:103BE00022F9404621462A4609F012F9F61BB9444B
:103BF000374609EB060A102FC7EB0A0A0FD9002334
:103C00001AF80310EA5C4A40E2540133102BF7D152
:103C1000404621462A46103F09F0FAF8E9E7AFB1DD
:103C200020460021102208F0D1FC51463A46204699
:103C300008F0F0FB20462946102209F0F4F840462F
:103C400021462A46BDE8F04709F0E2B8BDE8F08712
:103C5000551B2100014809F09DBE00BF9C000020BB
:103C600070B50D46064618B91248402102F0F0FD25
:103C70001DB91048412102F0EBFD304609F03DFE30
:103C8000044680B142686B689A4206D809F07FFE0C
:103C900018B1204609F07BFEF2E7304621462A465D
:103CA00009F06DFE03E03046294609F058FE012078
:103CB00070BD00BF901B210010B5074809F07AFEC7
:103CC000044618B9054809F052FD03E00021E0223E
:103CD00008F07CFC204610BD9C000020C81B210081
:103CE000014610B1014809F079BE70479C000020E0
:103CF00010B5044600B910BD204609F007FE014684
:103D000018B1024809F06AFEF6E710BD9C000020D9
:103D100070B5082A9EB005460C4616460FD12049BC
:103D200009F05AFA00280ADCA54236D005F1200332
:103D300055F8042B9D4244F8042BF9D12DE00723BC
:103D400031460093284603AA092309F02CFA0926D4
:103D500003A90CAA0923134809F08AFA0CA8122116
:103D600003AA0823009609F01EFA0D490CAA08239D
:103D700003A809F07DFA28460CA92246334609F02B
:103D8000F4F920460649092209F026FA002804DB46
:103D90002046034922460923F1E71EB070BD00BF4B
:103DA00084FF200040FF200030B5082389B015466D
:103DB00009F0BAF9A8B16846082109F055FA284671
:103DC0006A460949082309F0AFF96C462A4608AD4E
:103DD000234603CBAB42106051601C4602F108023F
:103DE000F6D1002009B030BDA8FF2000F0B591B099
:103DF0000C4606460821684608AF09F035FA082146
:103E0000384609F031FA2346324604F1200153F8CE
:103E1000040B8B4242F8040BF9D100230093019369
:103E20000293E21800A91944D26A0433142BCA6021
:103E3000F7D169463A463046FFF7B6FF6946324643
:103E40003846FFF7B1FF236B00250393636B694688
:103E50000493A36B3A460593E36B304606930095B3
:103E6000019502950795FFF79FFF69463246384650
:103E7000FFF79AFF236A69460093636A3A46019303
:103E8000A36A30460293A36B03950693E36B0495F4
:103E900007930595FFF788FF636AA26B0093A36AF7
:103EA00004920193E36AE26B0293636B05920393BE
:103EB0000693236A6946324638460793FFF774FF34
:103EC000E36A69460093236B324A0193636B304681
:103ED0000293236A03950693A36A049507933B46CE
:103EE000059509F057FA236B69460093636B294ADD
:103EF0000193A36B38460293E36B04950393636AC3
:103F000005950693E36A0793334609F043FA636B1A
:103F100069460093A36B1F4A0193E36B30460293FB
:103F2000236A06950393636A0493A36A0593236B3C
:103F300007933B4609F02EFAA36B69460093E36BA7
:103F4000144A0193636A38460393A36A0295049363
:103F5000E36A06950593636B0793334609F01AFAF3
:103F600030460C49082209F037F9A8420FDB09490D
:103F700030460A466B4609F00DFA6A46134603CBF3
:103F8000BB42306071601A4606F10806F6D111B0E6
:103F9000F0BD00BF64FF2000F0B5A9B004460D4697
:103FA00016461F4609F042F9A0B1284609F03EF92D
:103FB00080B104F1200354F8042B9C4246F8042BF2
:103FC000F9D105F1200355F8042B9D4247F8042B45
:103FD000F9D162E018AA08232146204609F048F9E1
:103FE000684618A9FFF702FF08A8082109F03CF964
:103FF0000123089308A92A4A10AB684609F0CAF9B8
:10400000032318AA089308A9082310A809F030F977
:10401000684618A9FFF7EAFE294608AA2846FFF7CE
:10402000C3FE08A81E491F4A10AB09F0D5F918AA0B
:10403000082310A9684609F01BF908A818A9FFF77A
:10404000D5FE08A818AA0823014609F011F910A8FE
:1040500018A9FFF7CBFE2146114A6B4610A809F0BC
:1040600099F921460E4A3346684609F093F93146DC
:104070000B4A6B46204609F08DF918AA08236946B9
:1040800008A809F0F5F810A818A9FFF7AFFE10A8C6
:104090002946034A3B4609F07DF929B0F0BD00BF2F
:1040A00064FF2000A8FF20002DE9F043A9B080465E
:1040B000894615461F46309C319E09F0B7F8A0B1DD
:1040C000484609F0B3F880B105F1200355F8042BF8
:1040D0009D4244F8042BF9D107F1200357F8042B33
:1040E0009F4246F8042BF9D17EE0284609F09EF85D
:1040F000B0B1384609F09AF890B1434608F1200271
:1041000053F8041B934244F8041BF9D14B4609F1C0
:10411000200253F8041B934246F8041BF9D163E0D4
:1041200040462946202208F041F9A8B948463946B8
:10413000202208F03BF940B12046082109F094F80C
:104140003046082109F090F84EE0404649462246A4
:104150003346FFF721FF47E03946254A6B4648467C
:1041600009F018F92946224A08AB404609F012F92D
:1041700008A803461E491F4A09F02EF918AA082369
:1041800008A9684609F074F810A818A9FFF72EFED0
:1041900010A818AA0823014609F06AF8684618A969
:1041A000FFF724FE4146124A08AB684609F0F2F8D0
:1041B00029460F4A234608A809F0ECF821460C4A84
:1041C00008AB284609F0E6F818AA082308A910A8A1
:1041D00009F04EF810A818A9FFF708FE10A83946F4
:1041E000034A334609F0D6F829B0BDE8F08300BF92
:1041F00064FF2000A8FF20002DE9F0438146A5B010
:104200001046884616461D462C9F09F00FF810B13F
:104210004FF0FF3040E014AC2148224932462B4693
:10422000009409F0A6F9284629460822FFF770FDF8
:10423000284608F0FBFF0028EAD108234946224619
:10424000284609F015F8204602A91022FFF760FD64
:10425000082302A92246404608F066FF0BA91C90DD
:1042600009222046FFF754FD30460F490F4A02ABA2
:1042700009F0B2F808230BA9224602A808F0F8FFBB
:10428000204639461022FFF743FD384608F0CEFF9E
:10429000003018BF0120404225B0BDE8F08300BFC8
:1042A000E8FF20000800210084FF2000C8FF200054
:1042B0002DE9F041DCB01C4680460D46164662985A
:1042C00002AB2049204A09F087F802A94CAA08232A
:1042D000304608F0CDFF4CA83AA91022FFF718FD90
:1042E00002A94CAA0823204608F0C2FF12AF4CA82E
:1042F00043A91022FFF70CFD22AE3AAA0AAB0097A1
:104300001248134909F035F94046294643AA1AAB29
:10431000009609F02EF92AAD32AB01930AA839466E
:104320001AAA33460095FFF7BFFE284621462022F1
:1043300008F03CF8003018BF012040425CB0BDE8F6
:10434000F08100BF84FF2000C8FF2000E8FF2000AC
:104350000800210008B501460822034808F03CFF88
:10436000431E5842584108BD84FF200008B500F0A4
:1043700055FB00F07DFB014B186008BD342E00207A
:10438000014809F007BB00BFA800002010B5044693
:10439000806AFEF7B5FD206AFEF7DAFD606AFEF777
:1043A000D7FD21460248BDE8104009F017BB00BF09
:1043B000A800002070B50546114809F0FBFA044634
:1043C000E0B100212C2208F001F92B46221D05F155
:1043D000180153F8040B8B4242F8040BF9D1FEF795
:1043E0009FFD0646206220B92046FFF7CFFF3446E6
:1043F00004E0062003492A4600F032F8204670BD4A
:10440000A8000020DE1B210038B50C46054618B96F
:104410000F48512102F01CFA1CB90D48512102F03D
:1044200017FA2A7823789A420FD16A8A638A9A42C5
:104430000BD1A81CA11C102207F0B8FF28B968698D
:104440006369C31A5842584138BD002038BD00BFC7
:10445000EC1B2100014B1860704700BFB400002026
:1044600030B595B0508A0D4609F036FB01AC0246D6
:104470000649204601F0B2FA2044A04204D0044884
:104480002946224601F086FA15B030BD471C2100AE
:104490004B1C21002DE9F0411E46234B04461B68AE
:1044A0000F4683421546DDF818803BDB00F0E0FA4A
:1044B000062C05D81D4B1E4853F8241001F06AFA4B
:1044C000B8F1000F20D01B483946324601F062FA9D
:1044D0000024B44213D0210703D11748214601F02C
:1044E00059FA295D1548013401F054FA6207F0D1F8
:1044F00023070CBF0A20202009F020F9E9E70A2051
:10450000BDE8F04109F01AB932460D48394601F0CC
:1045100041FA2E44B542F2D015F8011B094801F0CA
:1045200039FAF7E7BDE8F081B40000202800210047
:10453000531C2100571C2100361C21003C1C21006B
:10454000691C21007B1C2100F7B500F04DFC00F038
:10455000F5FC00F091FC00F061FA01F0D1F909F0EE
:10456000ADF900F0E3FC05F0E9FF022009F074F872
:1045700001F0AEFF00F024FC00F0E6F9002000F0AE
:1045800047FB012000F044FB4449002000F002FCFE
:1045900002F0FCF809F0B5F8042009F05DF8404895
:1045A00009F0E5F83F4809F0E2F83F4801F0F2F978
:1045B0003E4B3F4D186809F0DAF83E4801F0EAF941
:1045C0003D4B0024186809F0D2F83C4801F0E2F9AC
:1045D0003B4B2E46186809F0CAF8002002F0FAF8A2
:1045E00001F082F83748002102F018F801F080FE4F
:1045F0006846082101F096F99DF807309DF806708D
:1046000043EA07276B4603CB28602F48696001F017
:10461000C1F9315D2D48013401F0BCF9072C244D5E
:10462000F7D12B4EE9792B4801F0B4F9F46A4AF638
:10463000CD310220A04739460320A047192101208F
:10464000A0476946736B08220920984705F006F9D0
:10465000214A2B6813606B68536004F011FE1F48F9
:10466000002101F0DBFF00F08BFC00211C4801F071
:10467000D5FF09F001F91B4809F0F4F800F0A6FB9A
:10468000082008F0E9FF00F0A7FB01F039FF10F067
:10469000FF0FF8D101F0CCF8F5E700BF4967200023
:1046A000A31C2100BD1C2100D51C2100C401210038
:1046B0009B370020DC1C2100E0012100E31C2100CD
:1046C000FC01210004010020EA1C2100081D21003A
:1046D000FC002100920C2100402E00204C01002003
:1046E000B80000209CE9200070B505880446772DAD
:1046F00030D07E2D40D0002D4ED101F0E1FE294B6F
:104700001870294B1D601E463368284A264D52F802
:1047100023204AB126480021C1549368802098473D
:104720002A6801322A60EFE7224A1370772321E0DA
:104730001F4AD256002A13DB1B4B1A6801321A603B
:10474000194B1C4A1B6812789342F1DB1A4B1B6809
:10475000002BEBD0184A00231360134A1360EFE7D5
:10476000104A00201178114A52F8232001F02AFF44
:1047700030B97E23238013E00A4B1B788B420FD184
:10478000094B0B4A1B68D15C01F07F01D1540A4BE5
:104790001A6801321A60CFE700230380032070BD3E
:1047A000012070BD86370020B00C0020C80000201A
:1047B00087370020DC260020B40C0020094B1A7833
:1047C0000023934204DA084951F82310814207D1AB
:1047D000064A0748D15C61F07F01D15401F036BF31
:1047E0000133EEE7DC260020C800002087370020D8
:1047F000B800002008B50948082108F057FF032138
:104800000422002000F0A8FB002000F00BFB04486D
:104810000021032200F044FB012008BD00900D4060
:10482000E548200008B50948102108F03FFF0421A1
:104830000A46022000F090FB022000F0F3FA044840
:104840000221042200F02CFB012008BD00B00D4025
:10485000E548200008B50948202108F027FF052178
:104860000422022000F078FB022000F0DBFA04486A
:104870000221052200F014FB012008BD00B00D400C
:10488000E548200008B50948402108F00FFF06213F
:104890000422022000F060FB022000F0C3FA04486A
:1048A0000221062200F0FCFA012008BD00B00D40F4
:1048B000E548200008B50948802108F0F7FE0721E7
:1048C0000422022000F048FB022000F0ABFA04486A
:1048D0000221072200F0E4FA012008BD00B00D40DB
:1048E000E548200038B5054611480C4608F0F4FFAD
:1048F000E8B10F48102108F0E3FF1DB9032C16D1D1
:104900000C4810E0022D12D1042C01D10A480AE013
:10491000052C01D1094806E0062C01D1084802E027
:10492000072C04D10748BDE83840FFF747BF38BD22
:10493000B80C002044002100640021007400210014
:1049400054002100840021000148002108F0B8BF74
:10495000B80C002010B5074CFF2323604FF4FA6019
:1049600000F09AF800213022062000F011FB00230D
:10497000236010BD00920D40802870B51ED1104EEE
:10498000104D3368002423F0800333602B682046E9
:1049900043F080032B600C4B07211C60224600F083
:1049A000DBFA3368204623F0400333602B6806218E
:1049B00023F040032B60012200F0CEFA002070BDEE
:1049C00020940D4000940D4000920D40F8B500F089
:1049D00087F8104E0022D6E90045A042294638BF8C
:1049E000691C0F46B64642EA0006CEE900670A494E
:1049F000D1E90023121B63EB0503921943EB070374
:104A0000C1E9002301F012FC18B1BDE8F84001F043
:104A10009DBBF8BD4806002050060020114B124AED
:104A20001A6053F8042C42F0050243F8042C53F8A2
:104A3000042C42F0020243F8042C0C4B1A6842F09A
:104A400001021A60A3F52123A3F6FC7300221A6069
:104A5000042243F80C2C012243F8082C0F22DA62BE
:104A6000704700BF14E000E047E8010008200D4057
:104A7000034BD3E90023100A40EA0360704700BFEC
:104A800048060020034BD3E90023D00B40EA434003
:104A9000704700BF50060020054B18601C3B1A6889
:104AA00042F001021A601A68D207FCD4704700BFB6
:104AB0002800034010B5064C236823F0010323604F
:104AC000FFF784FF236843F00103236010BD00BF9C
:104AD00010E000E0014B1868704700BFC00C0020D8
:104AE000064B1A68596808331B681B0443EA012304
:104AF0001343034A106843EA0060704740500D407A
:104B00004C500D4010B50446114B1B68DB07FBD51C
:104B100008F0FBFDFFF7E4FF231A062BD8BFC41DE6
:104B20000C4B220E1A60C4F3074243F8042CC4F362
:104B3000072243F8082CE2B243F80C2C08F0E1FD00
:104B4000054B91201C60BDE8104000F06BB900BF20
:104B500050500D404C500D40C00C002008B500F0E6
:104B60004DFE064B002291201A6000F077F991204B
:104B700000F066F9BDE8084001F086BDC00C0020D9
:104B80000023084A1068084A9958084205D01A4478
:104B9000D268906910F0800003D02C33582BF0D1EC
:104BA0000120704728200D40A400210038B5164B85
:104BB0002C2202FB0033DC684FF6BF72236C626468
:104BC0009BB213F0500205460DD0A369DB0609D451
:104BD0000E4B53F825301BB12068C0B29847F4E75C
:104BE0002368F2E738BD13F4D06F0BD04FF4407355
:104BF0002363FF236360E36AE262E362236B43F0B3
:104C00000103236338BD00BFA4002100C40C0020B1
:104C1000012870B500F2B1802C254543574E741918
:104C200094F92030002BC0F2A88094F92230002B98
:104C3000C0F2A380524800F053FE524B72591968DB
:104C400000260A431A60596862680A435A609968E4
:104C5000A2680A439A60E368C3F8C86F94F9201009
:104C600094F92120236902EBC1021A6094F8220012
:104C700094F82310227D00F079F994F8220094F83A
:104C80002310082200F068F994F92300012101FAA9
:104C900000F094F922203C4B1203D5582843D05001
:104CA00094F9210094F9202001FA00F01203D5585C
:104CB0002843D050E26850209063E2681D46906B14
:104CC00040F4D0609063E26802205063E2684FF4E1
:104CD00040701063E268A0695062E268E069906227
:104CE000E2687020D06294F92420B2421ADB94F971
:104CF000253043EAC202254B1A6094F9250094F945
:104D0000243081401B035A5911435951324694F8BB
:104D1000240094F8251000F01FF91D4B1A6842F486
:104D200000421A6094F8260003061BD494F827105A
:104D3000012200F01BF994F92720012000FA02F269
:104D400094F926301B0359590A435A5194F8260006
:104D5000082294F8271000F0FFF80D4B1A6842F46F
:104D600080421A60E3681A6B42F001021A6394F8F9
:104D70002800BDE8704000F055B870BDA4002100C7
:104D8000814B200028200D4020940D4004410D400F
:104D900030D0004001289CBF014B43F820107047E1
:104DA000C40C0020012808D8044B2C2202FB003040
:104DB000C3689A699206FCD419607047A400210068
:104DC000014B00221A60704700500D40014B082231
:104DD0001A60704700500D40024BA0221A6050220A
:104DE0001A60704700500D40084A094B1A60094B81
:104DF00080321A60084B80321A60084B80321A6089
:104E0000074B4FF400121A60704700BF00E100E04A
:104E1000D80C0020CC0C0020D00C0020D40C00209A
:104E200008ED00E04209012100F01F0001FA00F046
:104E3000024B1B6843F82200704700BFD80C0020CB
:104E40004209012100F01F0001FA00F0024B1B682B
:104E500043F82200704700BFCC0C0020420901211A
:104E600000F01F0001FA00F0024B1B6843F822001B
:104E7000704700BFD40C0020054A064B1A60064B51
:104E80001A68064B1340B3F1807FF8D1704700BF1A
:104E90000101020100200D4004200D40000001012D
:104EA000024B02EBC10243F822007047DC0C0020E9
:104EB000F8B50A4E07460D4606EB4116002447FAA0
:104EC00004F3DB07E1B204D556F824300BB12846D1
:104ED00098470134082CF2D1F8BD00BFDC0C00204B
:104EE0002DE9F047064635030F4F05F1804404F5E0
:104EF000592400F083FCD4F818A4EB594FEAC608F3
:104F000023FA08F94AEA0900C0B23146FFF7D0FF98
:104F10005FFA89F95FFA8AF3C4F81C3409FA08F3D6
:104F2000EB51BDE8F08700BF18970D400248002103
:104F3000802207F04BBB00BFDC0C0020034A044B6F
:104F40001A60044B803A1A60704700BF80400D40E1
:104F5000600D00205C0D0020034B01EBC0011B68BD
:104F600043F82120704700BF600D0020034B01EB88
:104F7000C0011B6843F82120704700BF5C0D002072
:104F8000024B1A6842F030021A60704700700D4000
:104F90000E2870B50BD1154C236843F0020525602F
:104FA000134D2C6824F03F0646F001062E60114D8B
:104FB0002E6826F0FF0632431143014329600E4A52
:104FC00012681206FBD50D4A0D491268096802F0F5
:104FD000FC0242EA012292B20E2892B203D10449A5
:104FE0000C6002490B6010B270BD00BF3400014478
:104FF000F486084008700D4000700D400C700D40A4
:1050000010700D4010B58F20064CFFF727FF8F2042
:10501000FFF716FF206818B101F018FB002323608A
:1050200010BD00BF640D0020084B93F90020002A3A
:1050300009DB074AED2111601160E32111601A7844
:1050400062F07F021A700120704700BFDD26002049
:1050500038880840094B1B689B07FBD4084BED229E
:105060001A601A60074A12680AB1EF221A60064BEA
:1050700001201A7802F07F021A7070474C860840AF
:10508000388808402C860840DD26002038B5A0F17D
:105090000B05EBB20F2B044613D80B4B1B6813F018
:1050A0003F0302D0FFF7D6FF012305EB8505074A32
:1050B0000B3515600BB1FFF7B7FF054BE0B21C7065
:1050C00000E0FF2040B238BD488608403C860840DA
:1050D0007802002010B50B4B1B68990603D1FFF72F
:1050E000A3FF012300E00023074A1268D207FBD583
:1050F000064A1468C4F300140BB1FFF7ABFF204657
:1051000010BD00BF48860840648608404C860840B1
:10511000044B186800F02200B0F1200358425841B7
:10512000704700BF4C860840024B186800F04000F2
:10513000704700BF4C86084038B50C4600296CD03B
:105140000D286CD8DFE800F0070D181A216B3142EA
:10515000476B5E606265334B1B68003318BF0123E9
:1051600058E0314B05221B6803F07F030B3B93FB98
:10517000F2F30B33DBB24DE02C4B00E02C4B1A6802
:10518000043B1B6843EA022344E00023294A0B60E6
:10519000126802F001020A602749086810F0200036
:1051A0003ED042F00202226035E0244B1968002311
:1051B000C9B2234A02EBC3000079884202D852F8F0
:1051C000333027E001330E2BF3D11FE01D4B1B685A
:1051D0005BB2493B1EE01C4B1B68990603D1FFF7ED
:1051E00023FF012300E00023184A1268D207FBD5F1
:1051F000174A1568493DEDB20BB1FFF72BFF6DB2B1
:10520000256008E00B2305E01A2303E06FF0170385
:1052100000E007232360002038BD022038BD0120B4
:1052200038BD00BF2C8608403C860840CC8508402D
:10523000D4850840008608402486084040860840FF
:10524000340121005886084048860840648608409A
:105250006086084038B505460C46134B1B689B0713
:10526000FBD4124B93F90030002B01DBFFF7DCFE7F
:105270000F4BEE221A60691E1A60A21C43F8102C14
:105280002144022000F048FA013C0A49240121434C
:10529000022000F053FA022000F05AFA022000F037
:1052A0006FFA002038BD00BF4C860840DD26002084
:1052B0003888084002C001C0F8B51F4B93F9003090
:1052C000002B0CDBFFF70CFC0446FFF7ADFEFFF7ED
:1052D00007FC6FF009031B1BC342F8D401E0002652
:1052E00000E00126FFF7F6FE10B3144D2B68990677
:1052F0001ED4134CE923236004272B689A0707D494
:10530000013F17F0FF0703D00620FFF7C5FBF4E7C6
:105310002B689B0704D4EE2323602360012403E061
:105320002C6814F00204FBD126B1FFF793FE01E0D4
:105330000220F8BD2046F8BDDD2600204C8608403E
:1053400038880840044B1A6810B142F0010201E0AD
:1053500022F001021A6070470086084038B50C46FA
:10536000072855D8DFE800F0040F1B1F26543B4FD9
:10537000012902D1FFF758FE4EE000294AD1FFF77C
:1053800069FE204638BDA1F10B030F2B42D8C8B2ED
:10539000FFF77CFE013014BF0020032038BD8CB223
:1053A000E2B21E4B02E08CB21D4BE2B2240A1A603C
:1053B0005C6031E031F003052CD101F00100FFF712
:1053C000C1FF184B14F002001A6804D042F020020A
:1053D0001A60284638BD22F020021A6038BD01F15B
:1053E00018031F2B16D80D230F4AD80052F833107C
:1053F0008C4204DC024412790C4B1A600CE013F16D
:10540000FF33F1D208E0CCB2094B49341C6003E011
:10541000012038BD022038BD002038BDC8850840B5
:10542000D085084024860840340121004086084089
:105430005886084009280CD1082A0CD159B1084BCC
:10544000013953F8042D01F8012F064A9342F8D18F
:1054500003E001207047022070470020704700BF22
:10546000C8850840A885084009280CD1082A0CD115
:1054700059B1084B083111F8012D43F8042F064AA1
:105480009342F8D103E001207047022070470020CA
:10549000704700BFA4850840C485084070B52C4EF5
:1054A000336813F0400342D02A4C2368DDB21B0658
:1054B00039D4042D37D9023D8D4234DCEDB2032DB1
:1054C0001BD041190139032000F02EF96B1E22492F
:1054D0001B010320194300F031F9032000F038F9D3
:1054E000032000F04DF9032000F056F90028FAD10E
:1054F00021682468200616D506E023680370236817
:10550000437023688370F3E7493949B289B20420B4
:1055100004F07AF9032004F07F0104F075F9336890
:105520005A0606D411E00D4BED221A601A600020D5
:1055300070BD074B1B681B0603D5094801F086F8B0
:1055400003E0064BED221A601A60284670BD00BFCA
:105550004C8608402888084002C0010C3888084062
:10556000EC000020F8B52B4D2E7816F001064ED138
:10557000294B01241C605C609C60A3F59323A3F578
:105580001473F8221A600922C3F89021152270338F
:105590001A6003F59B230B2203F59E731A60A3F593
:1055A0009B23A3F5F07340221A601A687F2742F00C
:1055B00020021A60D52243F81C6CDF62DA61174BB7
:1055C0001878FFF763FD164B8D201A6842F004022D
:1055D0001A60FFF727FC134B8E201F60FFF722FC99
:1055E000022000F0C1F81049022000F09DF80320CD
:1055F00000F0BAF803200C4900F08EF80B48314651
:1056000001F00CF82B78204623432B70F8BD0020C6
:10561000F8BD00BFDD260020A8200D407802002044
:105620008C8608409486084028880840EC000020BA
:1056300038B503880446E3B140F2B932934203D04F
:1056400000230380032038BD822915D104F07AF8A5
:1056500004F018F88021FFF721FF002805DD80B253
:1056600004F00AF80C4B1B6998470C4B1A78520649
:1056700004D440F2B9332380012038BD00221A70CF
:10568000074B1D68FFF7E6FCFFF76CFFAB06F0D099
:10569000FFF7CAFCEDE700BFFC012100DD2600207A
:1056A0004886084008B5034800F0D0FF024B0022AE
:1056B0001A6008BDEC00002034880840074B1A68C7
:1056C000042A1A4604D0064B197841F0400119709B
:1056D00000231360034800F0B9BF00BF2C880840C6
:1056E000DD260020EC00002010B5094C00212046EA
:1056F000402206F06BFF074B01221A602E205C60EF
:10570000FFF790FBBDE810402F20FFF78BBB00BFD9
:105710000000002004F00F40032802D8014B0001D4
:105720001950704700000020032803D8024B03EBF8
:1057300000104160704700BF00000020032803D81C
:10574000024B03EB00108160704700BF0000002097
:10575000032806D8012101FA00F0024B1A68104311
:105760001860704728F00F40032806D8012101FA7D
:1057700000F0024B1A6810431860704720F00F4089
:10578000032806D8012101FA00F0024B1A681043E1
:105790001860704714F00F40032806D8044B03EB41
:1057A0000010806800F0070070470020704700BFBD
:1057B00000000020024B4FF0FF321A60704700BF1C
:1057C00004F50F40014B01221A6070474CF00F4066
:1057D000094B1A68194612F4801FF9D1043B1A6864
:1057E00022F480321A600A68D203FCD41A6842F4A8
:1057F00000321A60704700BF04200D4010B50A4BFC
:105800001A681C4612F0030F0CD0084A136859019D
:10581000FBD413685B01FCD5FFF74CF9FFF7D8FF09
:105820000023236010BD00BF58200D4004200D4010
:1058300038B5254B1C6814F03F0413D1234BE358B3
:1058400023B1984770B104340C2CF7D1204B1A784F
:105850001D463AB1FFF73EF90446FFF741F9201A19
:10586000092801D830BF38BD002CFBD0194B1A686D
:1058700022F400321A60184A1168C902FBD4196870
:1058800041F4803119601368DB03FCD5FFF728F978
:10589000201A092803D8BDE83840FFF799BF6328CC
:1058A0000E4C02D92B78022B00D00123236000F08C
:1058B0007FFE20B1FFF78CFF0023236038BDFFF788
:1058C00009F90028CED1F5E748860840680D002088
:1058D000DE26002000200D4004200D4058200D4001
:1058E0000023064A52F82310814206D011B942F82B
:1058F000230070470133032BF3D17047680D00205C
:10590000054B00221A60054B1A6842F004021A6027
:10591000034B01221A70704758200D4010ED00E033
:10592000DE26002030B5184B1B783BB9174A127899
:10593000122A03D1164A12784B2A01D0002317E00D
:105940004A08934207DA02F520142734E41A24782F
:10595000C4540133F5E70023934208DA01F520141B
:105960002734E41A25788418E5540133F4E730BD70
:105970008B4207DA01F520122732D21A1278C2546C
:105980000133F5E730BD00BF2B0028002A002800B6
:10599000290028000FB407B504AA52F8041B0448D4
:1059A000019200F04BF803B05DF804EB04B07047CF
:1059B000FC0000201FB5084C8DE80300029411463E
:1059C00000AC1A4602A8039400F038F8009B0022AD
:1059D0001A7004B010BD00BF0DD820000EB43FB542
:1059E000094B07AA52F8041B0190049304A801ABC9
:1059F0000392059300F022F8019B00221A7006B072
:105A00005DF804EB03B070474FD8200038B5054669
:105A10000C46102C07D92B68686807491022984754
:105A200048B9103CF5E72CB12B686868024922465A
:105A3000984738BD204638BD6F1D21002DE9F04F35
:105A400095B0074605910D924FF00008059C23780C
:105A5000002B00F0538323461C4613F8012B1AB980
:105A60000598844203D10CE0252AF5D1F8E7059981
:105A70003B68651A78682A469847002840F02183D9
:105A8000A8442378002B00F039836378002B00F0C2
:105A9000358301340026224614F8013B2B2B11D00C
:105AA00006D8202B11D0232B12D146F00806F2E79E
:105AB0002D2B04D0302B0BD146F01006EBE746F02F
:105AC0000106E8E746F00606E5E746F00206E2E7EB
:105AD000A3F13101082910D813464FF0000C1A46E3
