:020000040020DA
:10000000703000208D022000138320001183200017
:1000100011832000118320001183200000000000C4
:10002000000000000000000000000000118320001C
:10003000118320000000000011832000C7832000EE
:10004000E9832000EF832000F5832000FB8320005C
:1000500000000000CD832000D38320001183200006
:1000600011832000000000000000000000000000DC
:1000700000000000000000001183200000000000CC
:100080000000000000000000118320001183200008
:100090001183200011832000118320001183200090
:1000A0001183200011832000118320001183200080
:1000B0001183200011832000118320001183200070
:1000C0001183200011832000118320001183200060
:1000D000118320000000000000000000000000006C
:1000E0000000000000000000000000000000000010
:1000F000000000000000000099162000A916200052
:1001000000000000000000000000000000000000EF
:1001100000000000000000000000000000000000DF
:1001200000000000000000000000000000000000CF
:1001300000000000000000000000000000000000BF
:1001400000000000000000000000000000000000AF
:10015000000000000000000000000000000000009F
:10016000000000000000000000000000000000008F
:10017000000000000000000000000000000000007F
:10018000000000000000000000000000000000006F
:10019000000000000000000000000000000000005F
:1001A000000000000000000000000000000000004F
:1001B000000000000000000000000000000000003F
:1001C000000000000000000000000000000000002F
:1001D000000000000000000000000000000000001F
:1001E000000000000000000000000000000000000F
:1001F00000000000000000000000000000000000FF
:1002000000000000000000000000000000000000EE
:1002100000000000000000000000000000000000DE
:1002200000000000000000000000000000000000CE
:1002300000000000000000000000000000000000BE
:1002400000000000000000000000000000000000AE
:10025000000000000000000000000000000000009E
:10026000000000000000000000000000000000008E
:100270001183200089152000A1152000E90E20001F
:1002800011832000410A20001183200010B5094B82
:10029000FF221A600848094A4824E3690849121AEB
:1002A00098470848084AA3690021121A984700F0A5
:1002B000BDF8FEE7B4200D4040000020FE01002004
:1002C000BC992000000200206F28002008B500F033
:1002D000F5FCBDE80840014801F084BF140200208D
:1002E0002DE9F04100F036FB1A4B0024186064261B
:1002F000254627469846184B01205B689847174BC0
:1003000007445B6801209847154B05445A68002054
:100310009047013E0444EED11E2697FBF6F11148AA
:1003200001F0AAFA95FBF6F10F4801F0A5FA94FB4B
:10033000F6F10E4801F0A0FA00F00CFB0C4AD8F8D8
:10034000001003461060591A0A48BDE8F04101F058
:1003500093BA00BF10020020C0962000B096200083
:10036000A0952000409720004D9720006297200024
:10037000440200208197200038B5058804462DB13D
:100380007E2D1BD000230380032038BD1E4808F0BB
:1003900059F81E4840211E4A2B4601F003FF40F247
:1003A000523106221B4801F067FA1B4840F25231D5
:1003B00008F0A2F87E232380012038BD164808F0FB
:1003C000ADF80028F8D0154808F03CF80022642168
:1003D000134801F051FA6421124808F0B0F8FFF711
:1003E0007FFF104808F0C5F801460F4801F044FAB5
:1003F0000C4808F0B0F80028D1D1022007F0D8FF4F
:1004000000F05CFCF4E700BF949720001402002089
:10041000CD022000A197200034020020C9972000BF
:10042000CF97200048020020F7972000F7B500F092
:100430004DFC00F0F5FC00F091FC00F061FA01F0D9
:10044000D1F908F07AF800F0E3FC05F0A5FE0220EF
:1004500007F062FF01F076FF00F024FC00F0E6F9FF
:10046000002000F047FB012000F044FB444900203D
:1004700000F002FC02F0C4F807F0AEFF042007F021
:100480004BFF404807F0DEFF3F4807F0DBFF3F48E7
:1004900001F0F2F93E4B3F4D186807F0D3FF3E489C
:1004A00001F0EAF93D4B0024186807F0CBFF3C4807
:1004B00001F0E2F93B4B2E46186807F0C3FF00201D
:1004C00002F0C2F801F082F83748002101F0E0FFA5
:1004D00001F054FE6846082101F096F99DF80730B6
:1004E0009DF8067043EA07276B4603CB28602F4828
:1004F000696001F0C1F9315D2D48013401F0BCF9AA
:10050000072C244DF7D12B4EE9792B4801F0B4F993
:10051000F46A4AF6CD310220A04739460320A047AD
:1005200011210120A0476946736B082209209847D2
:1005300004F0C2FF214A2B6813606B68536004F01B
:10054000CDFC1F48002101F0A3FF00F08BFC00212F
:100550001C4801F09DFF07F0CEFF1B4807F0C1FFCC
:1005600000F0A6FB082007F0D7FE00F0A7FB01F083
:1005700001FF10F0FF0FF8D101F0CCF8F5E700BF54
:10058000BD2520001A982000349820004C982000A7
:10059000D09620006728002053982000EC96200079
:1005A0005A982000089720009C00002061982000A5
:1005B0007F98200008962000859820000C1F0020BE
:1005C000E4000020500000204895200070B5058808
:1005D0000446772D30D07E2D40D0002D4ED101F035
:1005E000A9FE294B1870294B1D601E463368284A06
:1005F000264D52F823204AB126480021C154936861
:10060000802098472A6801322A60EFE7224A137057
:10061000772321E01F4AD256002A13DB1B4B1A68AE
:1006200001321A60194B1C4A1B6812789342F1DBA5
:100630001A4B1B68002BEBD0184A00231360134A97
:100640001360EFE7104A00201178114A52F8232076
:1006500001F0F2FE30B97E23238013E00A4B1B78B1
:100660008B420FD1094B0B4A1B68D15C01F07F0113
:10067000D1540A4B1A6801321A60CFE70023038075
:10068000032070BD012070BD5228002050020020C0
:100690006000002053280020C01C002054020020CD
:1006A000094B1A780023934204DA084951F82310C1
:1006B000814207D1064A0748D15C61F07F01D154DD
:1006C00001F0FEBE0133EEE7C01C002060000020F8
:1006D000532800205000002008B50948082107F0E1
:1006E00045FE03210422002000F0A8FB002000F0BA
:1006F0000BFB04480021032200F044FB012008BD4D
:1007000000900D40C907200008B50948102107F0E6
:100710002DFE04210A46022000F090FB022000F08A
:10072000F3FA04480221042200F02CFB012008BD4A
:1007300000B00D40C907200008B50948202107F086
:1007400015FE05210422022000F078FB022000F0B3
:10075000DBFA04480221052200F014FB012008BD49
:1007600000B00D40C907200008B50948402107F036
:10077000FDFD06210422022000F060FB022000F0B3
:10078000C3FA04480221062200F0FCFA012008BD49
:1007900000B00D40C907200008B50948802107F0C6
:1007A000E5FD07210422022000F048FB022000F0B2
:1007B000ABFA04480221072200F0E4FA012008BD48
:1007C00000B00D40C907200038B5054611480C4659
:1007D00007F0C1FEE8B10F48102107F0B0FE1DB9C7
:1007E000032C16D10C4810E0022D12D1042C01D19B
:1007F0000A480AE0052C01D1094806E0062C01D17F
:10080000084802E0072C04D10748BDE83840FFF74C
:1008100047BF38BD58020020509520007095200039
:1008200080952000609520009095200001480021CF
:1008300007F085BE5802002010B5074CFF23236047
:100840004FF4FA6000F09AF800213022062000F000
:1008500011FB0023236010BD00920D40802870B56D
:100860001ED1104E104D3368002423F080033360F6
:100870002B68204643F080032B600C4B07211C6043
:10088000224600F0DBFA3368204623F04003336051
:100890002B68062123F040032B60012200F0CEFAE2
:1008A000002070BD20940D4000940D4000920D403A
:1008B000F8B500F087F8104E0022D6E90045A042B6
:1008C000294638BF691C0F46B64642EA0006CEE903
:1008D00000670A49D1E90023121B63EB0503921953
:1008E00043EB0703C1E9002301F0E6FB18B1BDE8C3
:1008F000F84001F071BBF8BD0002002008020020A2
:10090000114B124A1A6053F8042C42F0050243F8C6
:10091000042C53F8042C42F0020243F8042C0C4B34
:100920001A6842F001021A60A3F52123A3F6FC73B2
:1009300000221A60042243F80C2C012243F8082CF0
:100940000F22DA62704700BF14E000E047E80100C0
:1009500008200D40034BD3E90023100A40EA03604E
:10096000704700BF00020020034BD3E90023D00BE7
:1009700040EA4340704700BF08020020054B186062
:100980001C3B1A6842F001021A601A68D207FCD4B4
:10099000704700BF2800034010B5064C236823F0C1
:1009A00001032360FFF784FF236843F00103236002
:1009B00010BD00BF10E000E0014B1868704700BF99
:1009C00060020020064B1A68596808331B681B0434
:1009D00043EA01231343034A106843EA0060704767
:1009E00040500D404C500D4010B50446114B1B6853
:1009F000DB07FBD507F0F4FCFFF7E4FF231A062B17
:100A0000D8BFC41D0C4B220E1A60C4F3074243F832
:100A1000042CC4F3072243F8082CE2B243F80C2C50
:100A200007F0DAFC054B91201C60BDE8104000F097
:100A30006BB900BF50500D404C500D40600200207B
:100A400008B500F04DFE064B002291201A6000F020
:100A500077F9912000F066F9BDE8084001F04EBD3D
:100A6000600200200023084A1068084A995808428A
:100A700005D01A44D268906910F0800003D02C335E
:100A8000582BF0D10120704728200D40B095200050
:100A900038B5164B2C2202FB0033DC684FF6BF72D0
:100AA000236C62649BB213F0500205460DD0A3691B
:100AB000DB0609D40E4B53F825301BB12068C0B2B9
:100AC0009847F4E72368F2E738BD13F4D06F0BD0F2
:100AD0004FF440732363FF236360E36AE262E362DF
:100AE000236B43F00103236338BD00BFB0952000A2
:100AF00064020020012870B500F2B1802C25454326
:100B0000574E741994F92030002BC0F2A88094F944
:100B10002230002BC0F2A380524800F053FE524B0B
:100B20007259196800260A431A60596862680A43B4
:100B30005A609968A2680A439A60E368C3F8C86F6C
:100B400094F9201094F92120236902EBC1021A6064
:100B500094F8220094F82310227D00F079F994F89B
:100B6000220094F82310082200F068F994F9230079
:100B7000012101FA00F094F922203C4B1203D558D0
:100B80002843D05094F9210094F9202001FA00F074
:100B90001203D5582843D050E26850209063E26891
:100BA0001D46906B40F4D0609063E2680220506371
:100BB000E2684FF440701063E268A0695062E26836
:100BC000E0699062E2687020D06294F92420B24219
:100BD0001ADB94F9253043EAC202254B1A6094F9D6
:100BE000250094F9243081401B035A59114359516F
:100BF000324694F8240094F8251000F01FF91D4B9C
:100C00001A6842F400421A6094F8260003061BD4C6
:100C100094F82710012200F01BF994F927200120F5
:100C200000FA02F294F926301B0359590A435A512B
:100C300094F82600082294F8271000F0FFF80D4BD6
:100C40001A6842F480421A60E3681A6B42F00102AB
:100C50001A6394F82800BDE8704000F055B870BDE4
:100C6000B0952000650A200028200D4020940D40FA
:100C700004410D4030D0004001289CBF014B43F897
:100C80002010704764020020012808D8044B2C2251
:100C900002FB0030C3689A699206FCD41960704761
:100CA000B0952000014B00221A60704700500D40A3
:100CB000014B08221A60704700500D40024BA022E1
:100CC0001A6050221A60704700500D40084A094BC4
:100CD0001A60094B80321A60084B80321A60084B48
:100CE00080321A60074B4FF400121A60704700BF41
:100CF00000E100E0780200206C0200207002002079
:100D00007402002008ED00E04209012100F01F00FC
:100D100001FA00F0024B1B6843F82200704700BF45
:100D2000780200204209012100F01F0001FA00F0C2
:100D3000024B1B6843F82200704700BF6C02002082
:100D40004209012100F01F0001FA00F0024B1B686C
:100D500043F82200704700BF74020020054A064B8A
:100D60001A60064B1A68064B1340B3F1807FF8D126
:100D7000704700BF0101020100200D4004200D401A
:100D800000000101024B02EBC10243F82200704750
:100D90007C020020F8B50A4E07460D4606EB4116C8
:100DA000002447FA04F3DB07E1B204D556F82430F7
:100DB0000BB1284698470134082CF2D1F8BD00BF8A
:100DC0007C0200202DE9F047064635030F4F05F160
:100DD000804404F5592400F083FCD4F818A4EB599E
:100DE0004FEAC60823FA08F94AEA0900C0B23146B8
:100DF000FFF7D0FF5FFA89F95FFA8AF3C4F81C3471
:100E000009FA08F3EB51BDE8F08700BF18970D40D1
:100E100002480021802207F031BA00BF7C02002086
:100E2000034A044B1A60044B803A1A60704700BFB3
:100E300080400D4000030020FC020020034B01EB2A
:100E4000C0011B6843F82120704700BF0003002049
:100E5000034B01EBC0011B6843F82120704700BF22
:100E6000FC020020024B1A6842F030021A60704700
:100E700000700D400E2870B50BD1154C236843F05F
:100E800002052560134D2C6824F03F0646F001064C
:100E90002E60114D2E6826F0FF06324311430143A8
:100EA00029600E4A12681206FBD50D4A0D491268D8
:100EB000096802F0FC0242EA012292B20E2892B2C4
:100EC00003D104490C6002490B6010B270BD00BF31
:100ED00034000144F486084008700D4000700D4055
:100EE0000C700D4010700D4010B58F20064CFFF7B0
:100EF00027FF8F20FFF716FF206818B101F0E0FAF6
:100F00000023236010BD00BF04030020084B93F9A9
:100F10000020002A09DB074AED2111601160E3215E
:100F200011601A7862F07F021A700120704700BFCA
:100F3000C11C002038880840094B1B689B07FBD464
:100F4000084BED221A601A60074A12680AB1EF22B4
:100F50001A60064B01201A7802F07F021A7070475F
:100F60004C860840388808402C860840C11C002068
:100F700038B5A0F10B05EBB20F2B044613D80B4B81
:100F80001B6813F03F0302D0FFF7D6FF012305EBE8
:100F90008505074A0B3515600BB1FFF7B7FF054B09
:100FA000E0B21C7000E0FF2040B238BD4886084027
:100FB0003C860840FC01002010B50B4B1B689906CD
:100FC00003D1FFF7A3FF012300E00023074A1268C3
:100FD000D207FBD5064A1468C4F300140BB1FFF71F
:100FE000ABFF204610BD00BF48860840648608401D
:100FF0004C860840044B186800F02200B0F1200332
:1010000058425841704700BF4C860840024B186850
:1010100000F04000704700BF4C86084038B50C46D1
:1010200000296CD00D286CD8DFE800F0070D181AE5
:10103000216B3142476B5E606265334B1B68003346
:1010400018BF012358E0314B05221B6803F07F03D2
:101050000B3B93FBF2F30B33DBB24DE02C4B00E088
:101060002C4B1A68043B1B6843EA022344E000232C
:10107000294A0B60126802F001020A6027490868D9
:1010800010F020003ED042F00202226035E0244BF6
:1010900019680023C9B2234A02EBC30000798842D1
:1010A00002D852F8333027E001330E2BF3D11FE082
:1010B0001D4B1B685BB2493B1EE01C4B1B6899062D
:1010C00003D1FFF723FF012300E00023184A126831
:1010D000D207FBD5174A1568493DEDB20BB1FFF7B2
:1010E0002BFF6DB2256008E00B2305E01A2303E017
:1010F0006FF0170300E007232360002038BD0220B3
:1011000038BD012038BD00BF2C8608403C86084011
:10111000CC850840D48508400086084024860840D5
:10112000408608404096200058860840488608407F
:10113000648608406086084038B505460C46134B67
:101140001B689B07FBD4124B93F90030002B01DB8B
:10115000FFF7DCFE0F4BEE221A60691E1A60A21C1C
:1011600043F8102C2144022000F048FA013C0A49BF
:1011700024012143022000F053FA022000F05AFA21
:10118000022000F06FFA002038BD00BF4C860840F6
:10119000C11C00203888084002C001C0F8B51F4BB0
:1011A00093F90030002B0CDBFFF70CFC0446FFF733
:1011B000ADFEFFF707FC6FF009031B1BC342F8D419
:1011C00001E0002600E00126FFF7F6FE10B3144D03
:1011D0002B6899061ED4134CE923236004272B683F
:1011E0009A0707D4013F17F0FF0703D00620FFF747
:1011F000C5FBF4E72B689B0704D4EE232360236030
:10120000012403E02C6814F00204FBD126B1FFF79F
:1012100093FE01E00220F8BD2046F8BDC11C00206D
:101220004C86084038880840044B1A6810B142F0D8
:10123000010201E022F001021A60704700860840B6
:1012400038B50C46072855D8DFE800F0040F1B1FFF
:1012500026543B4F012902D1FFF758FE4EE00029EA
:101260004AD1FFF769FE204638BDA1F10B030F2BD1
:1012700042D8C8B2FFF77CFE013014BF0020032023
:1012800038BD8CB2E2B21E4B02E08CB21D4BE2B212
:10129000240A1A605C6031E031F003052CD101F0C2
:1012A0000100FFF7C1FF184B14F002001A6804D0C8
:1012B00042F020021A60284638BD22F020021A604F
:1012C00038BD01F118031F2B16D80D230F4AD80083
:1012D00052F833108C4204DC024412790C4B1A6031
:1012E0000CE013F1FF33F1D208E0CCB2094B4934E2
:1012F0001C6003E0012038BD022038BD002038BD4D
:10130000C8850840D08508402486084040962000C3
:10131000408608405886084009280CD1082A0CD17C
:1013200059B1084B013953F8042D01F8012F064A31
:101330009342F8D103E0012070470220704700205B
:10134000704700BFC8850840A885084009280CD10F
:10135000082A0CD159B1084B083111F8012D43F876
:10136000042F064A9342F8D103E00120704702207F
:1013700070470020704700BFA4850840C48508401E
:1013800070B52C4E336813F0400342D02A4C2368CA
:10139000DDB21B0639D4042D37D9023D8D4234DC31
:1013A000EDB2032D1BD041190139032000F02EF9B5
:1013B0006B1E22491B010320194300F031F9032061
:1013C00000F038F9032000F04DF9032000F056F941
:1013D0000028FAD121682468200616D506E0236883
:1013E00003702368437023688370F3E7493949B277
:1013F00089B2042004F036F8032004F07F0104F0E1
:1014000031F833685A0606D411E00D4BED221A600C
:101410001A60002070BD074B1B681B0603D50948E6
:1014200001F04EF803E0064BED221A601A602846E0
:1014300070BD00BF4C8608402888084002C0010CDF
:101440003888084084000020F8B52B4D2E7816F01F
:1014500001064ED1294B01241C605C609C60A3F501
:101460009323A3F51473F8221A600922C3F890217C
:10147000152270331A6003F59B230B2203F59E732C
:101480001A60A3F59B23A3F5F07340221A601A6833
:101490007F2742F020021A60D52243F81C6CDF62DD
:1014A000DA61174B1878FFF763FD164B8D201A6829
:1014B00042F004021A60FFF727FC134B8E201F60D6
:1014C000FFF722FC022000F0C1F81049022000F0D2
:1014D0009DF8032000F0BAF803200C4900F08EF8C4
:1014E0000B48314600F0D4FF2B78204623432B7065
:1014F000F8BD0020F8BD00BFC11C0020A8200D4091
:10150000FC0100208C86084094860840288808400A
:101510008400002038B503880446E3B140F2B932B4
:10152000934203D000230380032038BD822915D1C4
:1015300003F036FF03F0D4FE8021FFF721FF0028DF
:1015400005DD80B203F0C6FE0C4B1B6998470C4BBF
:101550001A78520604D440F2B9332380012038BDF2
:1015600000221A70074B1D68FFF7E6FCFFF76CFFBF
:10157000AB06F0D0FFF7CAFCEDE700BF08972000EC
:10158000C11C00204886084008B5034800F098FFB9
:10159000024B00221A6008BD8400002034880840F5
:1015A000074B1A68042A1A4604D0064B197841F0F2
:1015B0004001197000231360034800F081BF00BF91
:1015C0002C880840C11C00208400002010B5094C64
:1015D00000212046402206F051FE074B01221A60EE
:1015E0002E205C60FFF790FBBDE810402F20FFF736
:1015F0008BBB00BF0000002004F00F40032802D87E
:10160000014B00011950704700000020032803D847
:10161000024B03EB00104160704700BF0000002048
:10162000032803D8024B03EB00108160704700BF12
:1016300000000020032806D8012101FA00F0024B27
:101640001A6810431860704728F00F40032806D826
:10165000012101FA00F0024B1A681043186070472C
:1016600020F00F40032806D8012101FA00F0024BB8
:101670001A6810431860704714F00F40032806D80A
:10168000044B03EB0010806800F007007047002057
:10169000704700BF00000020024B4FF0FF321A607D
:1016A000704700BF04F50F40014B01221A607047DC
:1016B0004CF00F40094B1A68194612F4801FF9D1FB
:1016C000043B1A6822F480321A600A68D203FCD400
:1016D0001A6842F400321A60704700BF04200D40BF
:1016E00010B50A4B1A681C4612F0030F0CD0084ABA
:1016F00013685901FBD413685B01FCD5FFF74CF963
:10170000FFF7D8FF0023236010BD00BF58200D4015
:1017100004200D4038B5254B1C6814F03F0413D14C
:10172000234BE35823B1984770B104340C2CF7D104
:10173000204B1A781D463AB1FFF73EF90446FFF7F1
:1017400041F9201A092801D830BF38BD002CFBD040
:10175000194B1A6822F400321A60184A1168C9023B
:10176000FBD4196841F4803119601368DB03FCD5A0
:10177000FFF728F9201A092803D8BDE83840FFF7F9
:1017800099BF63280E4C02D92B78022B00D001237D
:10179000236000F047FE20B1FFF78CFF0023236099
:1017A00038BDFFF709F90028CED1F5E74886084093
:1017B00008030020C21C002000200D4004200D4022
:1017C00058200D400023064A52F82310814206D0CB
:1017D00011B942F8230070470133032BF3D170474E
:1017E00008030020054B00221A60054B1A6842F0DE
:1017F00004021A60034B01221A70704758200D40F2
:1018000010ED00E0C21C002030B5184B1B783BB92E
:10181000174A1278122A03D1164A12784B2A01D09D
:10182000002317E04A08934207DA02F52014273410
:10183000E41A2478C4540133F5E70023934208DA0C
:1018400001F520142734E41A25788418E55401336F
:10185000F4E730BD8B4207DA01F520122732D21AA5
:101860001278C2540133F5E730BD00BF2B002800C9
:101870002A002800290028000FB407B504AA52F84E
:10188000041B0448019200F01FF803B05DF804EB5C
:1018900004B070479400002038B505460C46102C63
:1018A00007D92B68686807491022984748B9103C47
:1018B000F5E72CB12B68686802492246984738BD85
:1018C000204638BDFD9820002DE9F04F95B0074621
:1018D00005910D924FF00008059C2378002B00F035
:1018E000538323461C4613F8012B1AB905988442EA
:1018F00003D10CE0252AF5D1F8E705993B68651A74
:1019000078682A469847002840F02183A844237825
:10191000002B00F039836378002B00F0358301340D
:101920000026224614F8013B2B2B11D006D8202B81
:1019300011D0232B12D146F00806F2E72D2B04D04C
:10194000302B0BD146F01006EBE746F00106E8E736
:1019500046F00606E5E746F00206E2E7A3F13101AC
:10196000082910D813464FF0000C1A4613F8011B33
:10197000A1F13000092815D84FF00A0A0AFB0C1C07
:10198000ACF1300CF1E72A2B0AD10D9B0132191D65
:101990001B680D91002BB8BF46F001069C4601E084
:1019A0004FF0000C13782E2B1FD15178531CA1F14E
:1019B0003000092810D819464FF000090A780B4664
:1019C000A2F13000092801F1010111D80A2303FB1B
:1019D0000929A9F13009F1E72A2907D1931C0D9AA9
:1019E000111D0D91D2F8009002E013464FF0FF391F
:1019F0001A786C2A09D15A786C2A02D146F08006EE
:101A00000AE0013346F060060BE0682A09D15A78F3
:101A1000682A03D146F02006023302E0013346F083
:101A200040061A78642A3CD01FD8462A48D00DD8E0
:101A3000252A5AD003D8002A00F0A68257E0412A6E
:101A40004AD0452A08BF46F4424650E0582A31D0D1
:101A500004D8472A08BF46F4A13648E0612A38D0A6
:101A6000632A08BF46F4A06641E06E2A3AD007D840
:101A7000662A22D027D3672A28D0692A11D036E0D7
:101A8000732A2CD006D86F2A11D0702A08BF46F4CA
:101A900040762CE0752A07D0782A08BF46F4C8564D
:101AA00025E046F4245622E046F410661FE046F492
:101AB00088561CE046F4B24619E046F4007616E07B
:101AC00046F4844613E046F4024610E046F48136BC
:101AD0000DE046F4C1360AE046F4E13607E046F48C
:101AE000806604E046F4E06601E046F4C066013337
:101AF000059306F4E063B3F5806F00F0A58114D878
:101B0000B3F5807F28D0B3F5407F7FF4E5AE0D9B21
:101B1000A649A7481A1D16F4804F0D9218BF084613
:101B20001A680DF14B010023B6E1B3F5C06F08D080
:101B3000B3F5E06F00F02182B3F5A06F7FF4CCAE77
:101B4000EFE13B6878689B4901229847002840F004
:101B5000FE8108F10108BFE6B9F1000FACBF26F025
:101B600010064FF0010916F40054049406F0E00347
:101B700037D0402B17D008D8DBB1202B2AD10D9BB2
:101B80001A1D0D9293F9002017E0602B11D0802BC5
:101B900020D10D9B073323F0070303F108020D92B8
:101BA000D3E900230AE00D9B1A1D0D92B3F9002022
:101BB00003E00D9B1A1D0D921A68D317002A73F1CA
:101BC000000009DA504263EB4301CDE902014FF016
:101BD000010A34E000220023CDE902234FF0000A7D
:101BE0002DE0402B16D007D8D3B1202B21D10D9B4F
:101BF0001A1D0D92187811E0602B11D0802B18D18E
:101C00000D9B073323F0070303F108020D92D3E97C
:101C100000010BE00D9B1A1D18880D92002105E0B4
:101C20000D9B1A1D0D921B681846F7E7CDE90201BE
:101C3000D4E700220023CDE902234FF0000A06F486
:101C4000C053B3F5805F0BD0B3F5C05F3CD0B3F5A4
:101C5000006F5AD10DF14E040C94DDE9024504E009
:101C60000DF14E01DDE902231CE054EA0501DDF827
:101C700030B045D0204629460A220023CDF804C0C2
:101C800005F00CFF0C98303200F8012D0C9029461D
:101C900020460A22002305F001FFDDF804C00446B7
:101CA0000D46E2E752EA03008B4629D002F0070016
:101CB000D408303001F8010D44EA4370DC08069086
:101CC0000794DDE90623EDE7384B394816F4804FD9
:101CD0000DF14E0118BF1846DDE9022352EA030454
:101CE0008B460DD002F00F04045D01F8014D14097C
:101CF00044EA037408941C090994DDE90823EDE71C
:101D00000DF14E05CBEB050502E00DF14E0B002564
:101D100041F60803A94506EA030341F208028CBF15
:101D2000C5EB09094FF00009934204D1B9F1000F46
:101D300008BF4FF0010941F60802934209EB050183
:101D40000CD1DDE90223134308D01B4B1B4A16F4C8
:101D5000804F4FF0020418BF1A4601E000242246CB
:101D6000049890B1BAF1000F0DD106F00603022BD2
:101D700006D0062B124B08BF012408BF1A4604E008
:101D80000124104A01E0104A012401EB040AD44561
:101D90008CBFCAEB0C0A4FF0000A16F00103029345
:101DA0001DD1F10612D5D1449A4618E0C8982000FA
:101DB000D9982000FB982000ED982000EA98200098
:101DC000F298200058982000F0982000384651469C
:101DD0000192FFF761FD019A002840F0B8803CB104
:101DE00011463B68786822469847002840F0AF804B
:101DF0004E46102E3B6808D97868654910229847EE
:101E0000002840F0A480103EF3E736B178686049BE
:101E100032469847002840F09A803B6878685946D7
:101E20002A469847002840F09280A8444444A144A0
:101E3000029C34B138465146FFF72EFD002840F091
:101E4000868009EB0A0847E50D9B1D681A1D0D9257
:101E50003DB12B461C4622780133002AFAD1641B7F
:101E600001E04C4D0624B9F1000F02DB4C4528BFC0
:101E70004C46A4458CBFC4EB0C0A4FF0000A16F088
:101E8000010605D138465146FFF706FD00285ED110
:101E90003B687868294638E052EA03040D460DD0C5
:101EA00002F00F04045D01F8014D140944EA0374C3
:101EB0000A941C090B94DDE90A23EDE70DF14B04AC
:101EC000641A04D130234D1E01F8013C012478230B
:101ED0000334A44505F8013C4FF0300305F8023CFB
:101EE00088BFC4EB0C0A4FF0230398BF4FF0000AE1
:101EF00016F0010605F8033C04D138465146FFF7B9
:101F0000CBFC20BB3B687868E91E22469847F0B9B5
:101F1000A044002E2FD038465146FFF7BDFC50B3E9
:101F200015E00D9BBCF1010F03F104021B688CBF8F
:101F30000CF1FF3A4FF0000A16F001060D928DF8F1
:101F4000383008D138465146FFF7A6FC10B14FF0A3
:101F5000FF301AE0D0443B6878680EA90122984708
:101F60000028F4D12EB138465146FFF795FC0028E1
:101F7000EDD10AF1010AD044AEE40D9B1A1D1B6895
:101F80000D92C3F80080A7E4404615B0BDE8F08F7D
:101F90000D992000F498200010B50D4C236813B95A
:101FA0000C4A136010BDFEF7D5FC236893E80600C9
:101FB0000A44121A9B683BB193E812002144091AA3
:101FC0008A4228BF0A46F5E7024B1044186010BD4C
:101FD0001403002018030020014800F071BA00BF6C
:101FE0009C000020F8B5038805462BB1592B09D079
:101FF000002303800320F8BD1E4A136059232B8061
:102000000120F8BD872920D08229F7D1194F002659
:102010003C68002CF2D0204606F09DFA90B1E068B2
:102020008821224600F008FA50B9E060A3680EB19A
:10203000B36000E03B600023A360FFF7ADFFE5E77E
:10204000FFF7CAFF2646A468E3E70A490B680BB905
:102050000B60D3E7D868904201D19B68F7E70B602B
:1020600099680029CAD0C86890420ABF89680B469F
:102070009960F5E71403002010B50446FFF7ACFFA4
:10208000E3680B4A4BB113683BB1A34203D1094A41
:102090001268DA6007E09B68F6E7064B1B68E360AE
:1020A00013681460A360BDE81040FFF775BF00BF60
:1020B0001403002028030020024B1868003018BFCA
:1020C000012070471403002010B50B4A0446136822
:1020D000984206D18368136008E09A68A24203D050
:1020E0001346002BF9D103E0A2689A60FFF754FF72
:1020F0000023A360E36010BD14030020F8B503883B
:10210000054616462BB14A2B15D000230380032029
:10211000F8BD174806F038FA04462CB1201DA16816
:1021200006F0EAF92468F8E7124B01221A704A23F4
:102130002B800120F8BD8829FBD10D4806F024FA38
:102140000446002CF3D0231D9E420ED108482146A0
:1021500006F023FA084B62691F681A60A2691E46DE
:102160000AB1E06990473760E1E72468E9E700BF1A
:102170001C030020C31C00202803002010B5064BC0
:10218000002406481C7006F0FCF921460448BDE80E
:10219000104000F07DB900BFC31C00201C030020CC
:1021A000AC00002070B504460A4DE3610A4B2E686E
:1021B0001B786661A26133B1084B201D2B6006F0CD
:1021C0009BF92E6000E0A16021460548BDE8704003
:1021D00006F0F7B928030020C31C0020AC00002043
:1021E0001C03002070B5094B05461B783BB1084C19
:1021F000084B26680430236006F087F926602946DC
:102200000548BDE8704006F0DCB900BFC31C0020E3
:1022100028030020AC0000201C03002010B5084B50
:1022200004461B781BB10430FFF74EFF01E0C3608A
:10223000036121460348BDE8104006F0AEB900BF77
:10224000C31C00201C03002038B5836804460D46DB
:102250009BB10A4804600220A07304F10C00984767
:102260000238012801D9832D05D120462146BDE839
:10227000384000F005B80123A37338BD28030020BF
:102280002DE9F8431D4A1E4E1568376804468946F5
:102290002B469046A34204D00BB11B68FAE7BDE879
:1022A000F88344B3A37BABB10023A37345B1AC4225
:1022B00004D028468721224606F039F92D68F5E733
:1022C000A3683BB14C4505D0346004F10C00832178
:1022D0002A469847D8F800309C4209D12268074B1B
:1022E00000E022681A6005E01A68A242F9D013469D
:1022F000002BF9D13760BDE8F88300BF2C03002024
:102300002803002010B5094B00221A70084B1C68E6
:102310005CB1E37B3BB101230022A373E27320464F
:102320008221FFF791FF2468F2E710BDC61C002050
:102330002C030020024B1878421C1A70704700BF13
:10234000C91C0020064B8A221A70064A002313700B
:10235000054A1370054A1360054A1360704700BFB1
:10236000C91C0020C41C0020C51C00202C03002018
:10237000280300202DE9F843214E33780BB1FFF7F5
:10238000C1FF204D2C78002C35D0DFF890C00C23F5
:102390009CF800801C4A03FB08F3D018D15C1B4F4B
:1023A00042681B4B8068DFF8789008F1010808F05C
:1023B0001F08013C8CF8008039701A60C9F80000D1
:1023C0002C70984688B9134C134B1B682360236804
:1023D0008BB133780BB1FFF795FF20683978D8F8C7
:1023E000002006F0A4F82368EFE7812904BF012349
:1023F000837306F09CF8337828781844BDE8F88396
:10240000C61C0020C51C002030030020C71C002073
:10241000B0040020240300202C030020C41C002052
:1024200020030020024A034B10781B7818447047A1
:10243000C51C0020C61C0020F0B50C4C2378202BB6
:1024400011D00B4D0B4F2E780B4D1E4406F01F067E
:102450002E700C256E430133BD19B9552370A86049
:102460006A600020F0BD0120F0BD00BFC51C002047
:10247000C41C002030030020C81C002038B5034CC9
:10248000256806F054F8256038BD00BF28030020F9
:1024900030B50A4D0A462C68234683420DD00BB155
:1024A0001B68FAE748B104600121286081738381C9
:1024B0008121BDE83040FFF7E1BF30BD2C03002093
:1024C00038B1837B013B012B03D8024A0123C3733C
:1024D00013707047C61C002010B5024606485360B2
:1024E0000468029B11609360026014B90846FEF70D
:1024F0007BFA002010BD00BFB404002010B5084CCA
:10250000206858B100232360816843689847236896
:1025100023B11868BDE81040FEF766BA10BD00BFD1
:10252000B404002038B505880446672D09D0792DFC
:102530002ED0002D32D1FFF7FDFE1B4B18701B4B28
:102540001D601B4806F079F8431C01D167231DE08C
:102550000A28164B07D01A687E2AF2DC511C196033
:10256000144B9854EDE7196800254A1C1A60114A6B
:102570000D4B555428461978FFF75EFF0E4B852109
:1025800018682A46FFF758FF20B97923238009E00D
:10259000852907D1054B00221A60D2E7002303806A
:1025A000032038BD012038BD5C280020B80400207D
:1025B000BC0400204B1D0020280300200D2810B56E
:1025C000014615D00B4C23782BB90B4806F022F8A6
:1025D00048B9012306E00A2805D1074806F01AF891
:1025E00008B1002323700548FFF76AFF012010BDE2
:1025F000002010BD4A1D0020BC040020BC000020AB
:1026000008B505480549802205F0FDFFBDE80840F2
:1026100003480021FFF73CBFBC040020CA1C002077
:10262000BC000020064B1A68143342F0040243F841
:10263000142C044A1B68106843EA002080B27047DB
:1026400000700D4018700D40194B1A6822F00C02F2
:102650001A60A3F59E43583B01221A601A68012AAA
:10266000FCD1144B08221A60E322C3F8142203F5AC
:1026700005731946104B1B68DB07FBD500231A4670
:102680000E4801320068102A00F0010043EA0003FE
:102690004FEA43039BB2F3D1002BF0D0084A180A4B
:1026A00003F0FE0310601360EF230B60704700BF60
:1026B00000700D4024860840648608409C860840CF
:1026C00014700D4037B5124B124C1D782379627986
:1026D000C5EB032313449BB2ADF80630BDF80630BA
:1026E00004F108011844202280B205F0B6FFBDF8BD
:1026F000062005F12801214492B205F0AEFF10B189
:1027000040BA80B201E04FF6FF7003B030BD00BFA9
:10271000CB1D0020141F0020F8B5264F264D3A7817
:1027200026492832531993F801C002234FEACC0CF2
:102730000CF1070C9C4539DBD0182E18285C1E4C78
:1027400001282ED002D3632802D011E001332BE000
:1027500018461A4D0B7002F0A5F9C8B93A782B78D3
:1027600028321A4414446278134402332B70F8BDA3
:1027700000F0C000802805D0C02805D0402810D126
:102780000B7005E00B7005E00B70217EFF2901D175
:102790000120F8BD042002211A4403F045FE022066
:1027A000F8BD707802300344DBB2C3E70B70002041
:1027B000F8BD00BFCB1D0020141F0020CD1D002040
:1027C00008B504F0E3F803F01BFF00F039FD084BF7
:1027D0004FF480621A800023064A002102EB431264
:1027E0000133DBB2092B1182F6D9034A137008BDFD
:1027F0000C17002048240020CE1D00202DE9F041B8
:10280000124E347804B3124F04F12703B7F8008056
:10281000434504DB002333703B80BDE8F0810D4D60
:10282000A8F1280204F12801121BC4EB0804A4B289
:1028300005F12800294405F0BBFC3C80283C23120C
:102840002B7100236C713370BDE8F081CB1D00202B
:10285000041F0020141F002004282DE9F84F944D78
:1028600000F0C7819349944B944A05280B6013608C
:102870000F46904612D192480068008A002800F066
:10288000F8810C3B13600B608E4B002018808E4C3F
:102890008E4B0822206028801A70A8E113F83C2C87
:1028A000A3F13C0402F0F002602A40F0E2812279B8
:1028B0006179120228885618864200F3DA8128319D
:1028C0000A442A80227AFF2A00F0D381804A363BCC
:1028D0001360804E804B002131701970A1799246AF
:1028E0009946B9B9012389F80030FFF715FF01288F
:1028F00000F0BF8103D3022800F0B6810AE03278ED
:1029000002F128032344CAF800305B78083202EB56
:10291000C3023270714803F0D1FE002840F091806C
:102920006E4803F073FF002840F08B80227E6C4BD2
:10293000FF2A46D0198B48F2FE00814241D0198906
:1029400081423ED071B9598961B9998951B9D98902
:1029500041B91B8A33B9618A614B19B9998A09B99E
:10296000DB8A73B3218B5E4B79B9598B69B9998B2B
:1029700059B9D98B49B9198C39B9598C29B9998C5C
:1029800019B9DB8CB3F5807F1BD02B88B3F5A06F12
:1029900004D9022000214FF4A06206E0E379504EF2
:1029A000012B05D8002103200A4603F03DFD5BE121
:1029B00002F0C4F8002840F05C81F379013BF37128
:1029C00052E1218948F2FE03994240F05281218B65
:1029D000434B81B9598B71B9998B61B9D98B51B975
:1029E000198C41B9598C31B9998C21B9DB8CB3F56B
:1029F000807F00F03E81FF2A00F03B81374803F0E2
:102A00003DFE0246002840F0348101200221CCE73F
:102A10001FD93B2B00F02D813C2B22D199F800309F
:102A20002D49980735D5580679D443F040030B70EB
:102A3000FFF772FE012800F01C812DD3022800F060
:102A40001381DAF80020DFF888B013782C2BDFD15F
:102A50000FE1112B00F083802B2B43D0002B5ED194
:102A600002E03A2B5BD15EE099F80030D90756D4EA
:102A7000194A43F001031370FFF74EFE012800F0DE
:102A8000F880DBD2327802F128032344CBF80030FF
:102A900008E043F00203CAE7327802F12803234436
:102AA000CAF800305B78083202EBC3023270C8E724
:102AB000041F002034240020501F0020081F002085
:102AC0003024002044240020382400202824002022
:102AD0002C240020CB1D0020CC1D00202C1F00200A
:102AE000141F002099F8003003F0040000F0FF01EB
:102AF000A8B9654A43F004031370327802F1280341
:102B00002344D87810B104202A324EE7CBF80030A5
:102B10005B78083202EBC3025C4B1A7091E7042029
:102B20000121121B41E705F0B4FD4FF6FF739842F7
:102B300040F09F8033782833E05C01F0D3FA33789B
:102B40002833E218E05C517803F04CFC012804BF04
:102B500000232B802B88002B00F08B8084E0FFF774
:102B60004DFE2B884A4E303B2B80E38D3E6063B98F
:102B7000B4F82AA0BAF1000F7BD0464B464A9946DA
:102B80001A60464AB2F828B00BE005F085FD4FF612
:102B9000FF7398426DD1EBE7238A43B92034C9F81B
:102BA0000040D9F800403E4B9C42F5D361E09A4585
:102BB000F4D1638A0BB19B45F0D123682BB96368CC
:102BC0001BB9A3680BB9E36833B13648214610221C
:102BD00005F044FA0028E1D1334A00231360334A58
:102BE00002211170324A3E60C8F80060138001F083
:102BF0009FFB2F4B1A88002A3BD002F13003274C51
:102C00009BB22B80283B19126371224B08321B6840
:102C100052BA2171197DA2850022E2851A8AE171DA
:102C200022855A8A11216285A17104F118050FCB02
:102C300085E80F0004F10800294603F047FE1D4B0C
:102C400004F13C021A6005F027FDC04380B208B1D0
:102C5000E08502E04FF6FF73E38502F081F8602320
:102C60002370002363706380104B00221A70BDE84C
:102C7000F88F064A00231370034A2B8013700B4A07
:102C80001370BDE8F88F00BFCC1D0020CB1D0020C5
:102C9000441F00203024002048240020141F00205E
:102CA000882500201C1F0020382400202824002014
:102CB00044240020342400202DE9F74F674C684A53
:102CC000E1791378FF2903F12C0707EB04003E5D3F
:102CD000DFF8A88140F0B980234493F82930002B15
:102CE00040F0B3800379FF2B00F0AF8006F0400383
:102CF00003F0FF051BB1237EFF2B00F0A680B8F880
:102D00000020DFF87CC1DFF86491019214230022D7
:102D1000DDF804A0F918514513DA04EB010B9BF818
:102D200001A0BAF1000F04D1C9F800208CF80030DE
:102D30008BE0615C03EBCA03022908BF5A46DBB291
:102D4000E6E704308CF80030C9F8002003F0B6FC48
:102D5000444B1860002878D1414A434F1378BB4652
:102D6000E018303004F0E4F8386004F0D9F83C683A
:102D70008146002C69D03D4B1F6837B1B81C4946CD
:102D8000082205F06BF9C0B200E0384694F8223012
:102D900026F07F0A5FFA8AFAEBB9002F55D057F870
:102DA000022FC9F800207A68C9F804207DB184F8A0
:102DB00020302F4B0122D9684FF47A7384F82220F7
:102DC00004F11000B1FBF3F106F0E2FA39E002235E
:102DD00084F8223035E0B20606D428B1012B34D174
:102DE000022384F8223030E0AFB33A4652F8023F73
:102DF000C9F800305368C9F804306DB1012384F874
:102E000022301B4B04F11000D9684FF47A73B1FBE8
:102E1000F3F106F0BDFA04E01FB110B1022384F80B
:102E20002230DBF8003093F8213053B1BAF1000FB3
:102E300007D1104803F0B2FF0F4A106008B103F049
:102E40008BFFDBF8003083F821A00023A8F80030C6
:102E500003B0BDE8F08F002DE3D0CFE7141F0020B2
:102E6000CB1D0020D0040020C8040020CC0400208A
:102E7000B82600201C1F0020C4040020041F0020CE
:102E8000CF1D00202DE9F84F884CDFF84C92E379F4
:102E9000FF2B40F00681864A13789046E11891F89E
:102EA0003010FF2900F0FD80234493F82930002BD7
:102EB00040F0F7807F4E804D336014232B7098F8DC
:102EC00000002A782C30B9F8003002449A4250DAD7
:102ED000A1184878754B002800F0E380A25C012A15
:102EE0003DD11A8931607AB95A896AB99A895AB931
:102EF000DA894AB91A8A3AB95A8A2AB99B8A1BB915
:102F0000E38A002B00F0CD806C4804F011F86C4F80
:102F10000246386030B9316802230231674803F055
:102F2000CFFF1CE003F0FCFF3368824603F1020B85
:102F300058465146082205F091F848B1DBF80030B8
:102F4000CAF80030DBF80430CAF804303B6803E00C
:102F50003B6893F8222012B9022283F8222098F8C5
:102F600000202B782C321A442244527803EBC203FF
:102F7000A4E72044043003F0A1FB524B4B4D1860F2
:102F80009A46002800F08D802B8973B96B8963B94C
:102F9000AB8953B9EB8943B92B8A33B96B8A23B90F
:102FA000AB8A13B9EB8A002B7BD0444D284603F043
:102FB00085FB2E46002874D1228B40F2FF239A42D3
:102FC000A5F1080705F1100E1BD16B8ACBB9AB8AAE
:102FD000BBB9EB8AABB92B8B9BB96B8BB3F5807FFD
:102FE0000FD12B7FFF2B0CD195E80F008EE80F003F
:102FF00098F800301F44303797E80F0085E80F003D
:1030000012E0314D284603F059FBDAF800308342D4
:1030100047D196E80F0085E80F0098F80030234468
:1030200030330FCB86E80F006022227028226271B5
:103030003A22A271FF22E2718822002384F828201C
:10304000DAF8002088F8003063706380237184F818
:1030500029301E4DE02384F82C3002F11206931C17
:10306000186859682A4603C20833B3421546F7D197
:10307000174A022384F8403084F841301368154819
:10308000C4F842305368002143600622083005F03E
:10309000F5F80023638505F0FCFAC04360855023F2
:1030A00000E00023A9F80030BDE8F88F141F0020CD
:1030B000CB1D0020CC040020CF1D00201C1F0020B1
:1030C000C8040020D00400202C1F0020441F002032
:1030D0000C1F0020561F0020041F00202DE9F04186
:1030E000524C534F00233B70637063803A238046F9
:1030F000A3716020FF232070E37199B96183A183DC
:10310000E183218484F82210022001212376607655
:1031100084F8231084F82430537B84F82530D38935
:10312000E3840CE00D4604F1180601F1100E286846
:103130006968334603C3083575451E46F7D18723B2
:1031400084F828303B4E002384F82930E36215468A
:1031500002F1100E28686968334603C308357545C7
:103160001E46F7D1002626711046304D03F0A6FA10
:10317000002842D1B8F1000F0CD04346083508F1C1
:103180001006186859682A4603C20833B342154628
:10319000F7D105E005F1080005F1180103F096FBF1
:1031A0002289224B244D82B95A8972B99A8962B90F
:1031B000DA8952B91A8A42B95A8A32B99A8A22B934
:1031C000DB8A13B92B80BDE8F081282363713B783B
:1031D00001224033E254194AE01802234370136875
:1031E0000A3040F8083C5368002140F8043C0622AD
:1031F00005F044F850232B800CE018236B710E4B24
:1032000040222E816E81AE81EE812E826E82AE8250
:10321000EE821A803B7828331C440023638005F03B
:1032200038FAC0436080BDE8F08100BF141F002061
:10323000CB1D0020441F0020041F00200C1F002075
:1032400008B5044803F0EAF8BDE80840024803F076
:10325000E5B800BFCC000020D800002008B5064823
:1032600000F03AFF054B01221A7000225A70AA2280
:103270009A70DA7008BD00BF45342000D11D0020CF
:1032800010B50F4C0220A17902F0ECF8A379112BB4
:1032900001D0062B05D1238D618D9942A8BF194617
:1032A00008E03A2B05BF94F8281094F82930002143
:1032B00043EA01210120BDE8104002F0D3B800BF6D
:1032C000141F002010B513780C7A83F002039C427F
:1032D0001DD14C7A53789C4219D18C7A93789C42B8
:1032E00015D1CC7AD3789C4211D10C7B13799C42B6
:1032F0000DD14C7B53799C4209D18C7B93799C42B4
:1033000005D1CC7BD3799C4201D103231BE00A89F0
:103310000F4B6AB94A89B2F57F4F09D18A89FE2AD3
:1033200006D11A68C98922F8021B1A6002230AE032
:103330001A6851F8084F083242F8084C4C6842F8B5
:10334000044C1A60012303FA00F0C0B210BD00BFA4
:10335000DC04002010B5084C01462378012B08D16D
:10336000A01C082204F07AFE00280CBF2046002092
:1033700010BD002010BD00BFD11D002008B50146C2
:10338000102002F07DF8044B04489B680021984708
:10339000BDE80840FDF792BC28972000A13320002B
:1033A00010B508460C46114603F0E6FD044B1B68B9
:1033B00013B19B6820469847024B1C6010BD00BFAC
:1033C000080A0020F00400202DE9F041140902F061
:1033D0000F050F2C08BF10240F2D06461F4608BFEF
:1033E000102514B1224604F06DFE62190F2A05DC87
:1033F00030190021C2F1100204F040FFBDB1DFF826
:103400004080C5F11000D8F80070304439462A4693
:1034100004F058FE022D434605D10A2C03D8FF22A2
:10342000F272FE2232733D441D60BDE8F0812CB182
:1034300030463946BDE8F04106F030B8BDE8F081CD
:10344000DC0400202DE9F04F894F8A4E002385B01F
:103450003B703370044601F0A3FF01F041FF864D3D
:1034600004212860092001F0FDFF844BBB461B6846
:10347000A8460BB1FFF704FF02A80CB9804900E091
:10348000214605F057FE7F4B7F4E1A883E2A40F2B8
:10349000F4817848D8F8009090F800A07B4D09F1AD
:1034A00002032B600AF1020A002309F80A3006F130
:1034B0001800FFF74FFF20B906F10800FFF74AFF99
:1034C00020B109F103032B60802400E004467378E7
:1034D0003078190941EA0011C9B28A0842EA81111B
:1034E000C9B213F00F0FCAB2684F00F00F000CD131
:1034F000654E76884EB910B913F0F00F1FD03B68B7
:10350000702603F8012B3B601AE078B913F0F00F36
:103510000CD12A6821F03F010B4313705C4B03323E
:103520001B88682622F8023C2A6009E056492B686D
:1035300008686026186003F8042B2B6000E07826EA
:10354000514B9A79112A08BF46F00406730703D439
:103550003B6803F8012B3B604B49CB79402B06D0ED
:10356000FF2B07D0012B08D146F0010609E046F0F9
:10357000020606E046F0030603E03A6802F8013B63
:103580003A60414B1A898AB95A897AB99A896AB9D3
:10359000DA895AB91A8A4AB95A8A3AB99A8A2AB930
:1035A000DB8A1BB944F04004E4B23BE03948FFF742
:1035B000D1FE394B186070B1427819F80A300420F6
:1035C00043EA021309F80A303249344AFFF77AFE17
:1035D00060F03F0011E02C4948F2FE030A899A424C
:1035E0000DD14B8B5BB98B8B4BB9CB8B3BB904208B
:1035F00008312A4AFFF766FE2043C4B212E0D7F82A
:1036000000C0DFF890E06246734603CB10602448A8
:10361000516083429E4602F10802F5D11B4B0CF12A
:1036200010021A6018490B7EFF2B40F087804A7EFB
:1036300044F0080E022A5FFA8EFE33D14B8B8BBB0F
:103640008B8B7BBBCB8B6BBB0B8C5BBB4B8C4BBB28
:103650008B8C3BBB91F8263023BB3B6891F827202D
:1036600044F00B0403F8012BE4B23B60A1E000BF7F
:10367000D01D0020DB1D0020E8040020080A0020E7
:1036800072992000041F0020141F0020DC04002079
:10369000161F00201C1F0020D40400200C1F002037
:1036A0002C1F0020984B588B1946002831D1988B3D
:1036B00078BBD88B68BB188CA0B9588C90B993F89C
:1036C000240078B9296844F00A04084600F8012B60
:1036D00033F8252F043121F8032C9B78E4B2837052
:1036E000296066E00B8C88489BB990F8223083B93A
:1036F0002B6844F00904194601F8012B024652F8E0
:10370000230F063343F8050C1279E4B20A712B60DB
:103710004FE07E4B7E4C1F6804F110093A469C46F0
:10372000234603CB4B45106051601C4602F1080252
:10373000F6D11037CCF8007074463AE001F1180069
:103740000191FFF707FE734A1060019950B1437869
:1037500019F80A2044F004041343E4B209F80A30CB
:1037600000200AE00A8B48F2FE039A420CD14B8BF0
:1037700053B98B8B43B9CB8B33B9183102AAFFF7FE
:10378000A1FD2043C4B214E0604B614FD3F800E0C8
:1037900007F1100972469C463B4603CB4B4510602F
:1037A00051601F4602F10802F6D10EF11003CCF869
:1037B000003028238BF80030534B9A79112A50D1CE
:1037C000198D4FF2B00249BA89B221F00F0080B2D0
:1037D000904215D15A8D52BA22F00F021204120CE7
:1037E00082420DD12A68F3211170598D1B8D090A6F
:1037F0001B0A01EB031303F5AA635370023226E0A0
:10380000414B5A8D52BA02F47F42B2F5704F09D142
:103810002A68F1211170198DA2F801105B8D1B0A25
:10382000D3700CE001F47F41B1F5704F2A6808D1E4
:10383000F2211170198D090A51705B8D5380043289
:1038400005E0F0211170986A053242F8040C324B01
:103850002A601A882B6823F8022B2B6030238BF800
:1038600000302E49D8F800300A789E541A4454701B
:10387000264A1268D31A0B701BE0D8F80030412298
:103880001A70264A06F128051478621CD2B21A442E
:10389000334603CBAB42106051601E4602F1080272
:1038A000F6D11E4B29341C709BF8003028338BF85E
:1038B000003002A9102001F0E3FD194BDFF85C9005
:1038C0001B689847174B30EA200728BF15275B690C
:1038D0009847C7F17D07144D3F1A4846B5F800A038
:1038E0009BF800400678C4EB0A02BB1B9A4240F3E7
:1038F000C78001F001FB7823BAFBF3FA0AF1010A51
:10390000504513DC0020CCE0141F0020DC04002014
:103910002C1F0020D4040020421F0020DB1D0020AB
:10392000DC96200028972000041F0020D8F80040D3
:1039300099F8006021463246201D04F039FC2B889E
:10394000594A6FEA83436FEA9343C3F30723237013
:103950002B88043663701388F6B2E370190A0133BA
:103960001380524ADFF85CC1A170C6EB070A1178D8
:103970004F4B2AF0070A61445246A019C3F800A031
:1039800089F800600193CDF800C004F09BFB06EBC2
:103990000A0080B201F09EFC01F0B4FADDF800C02C
:1039A000019B064664469A460028ABD002A8FFF762
:1039B000E5FC304601F0DEFA30463E4E01F0C4FA36
:1039C0003368012B9ED0043B012B9BD9374B053F1D
:1039D00093F800B0DAF8003027F007075B441FFACD
:1039E00083FB052389F80030334BCAF800701A684E
:1039F0002B886FEAC3436FEAD343C3F307231370E3
:103A00002B8853702D4B1B889B4549D2D8F800203A
:103A10004FEADB011171DAF80020CBEB030393428C
:103A2000B8BF234A2648B8BF13600778DAF80050B9
:103A3000D8F800002A4604EB0B01384404F042FB9E
:103A4000781980B201F046FC01F05CFA05460028C6
:103A50003FF458AF02A8FFF791FC284601F08AFA1C
:103A6000284601F071FA124B1B689B4433681FFA19
:103A70008BFB012B3FF446AF043B012BC2D841E73F
:103A8000D8F800000F493044214404F01BFB2B8878
:103A90001E44301B80B201F01DFC02A8FFF76EFC33
:103AA000012005B0BDE8F08F12170020D01D0020C6
:103AB000EC040020F0040020E8040020041F002093
:103AC000DB1D0020141F00202DE9F04FA54FA64C50
:103AD00087B000263E70267001F002FCA34DB94667
:103AE0002860042001F0C6FCA14B00B21860A14878
:103AF00004F031FDDFF8A8B218B19F4BABF80060BD
:103B00001E809A490B681A785E7846EA022602F00F
:103B1000F802C02A1CD0E02A28D19A7893F804A091
:103B2000DB78BBF8008043EA02252378C6F30A0657
:103B30000533237001F0E8FB23784044C3EB000811
:103B4000B045B4BF4FF000084FF0010800279BE2DA
:103B50009A78DB784FF0000843EA02252378C6F311
:103B60000A06043323700127C2468DE2824B4FF0D0
:103B70000008A3F80080ABF800804746454643465E
:103B8000C2464646BBF80010A9B1002E00F0918253
:103B9000794B1B88B34240F08C82784B1B88AB4238
:103BA00040F087820F2001F077FC0146744805F051
:103BB000C6FAD0B97DE2701E80B240F2135188423D
:103BC00013D813B1002F00F074826B4B4FF4806157
:103BD0001E806A4B67481D8004F0B1FC0F2001F085
:103BE0005BFC0146664805F0A5FA94F800C0BCF1FC
:103BF000050F00F0D1815D4A116811F80C3003F017
:103C0000E002602A40F0AD810CF1020008446144FA
:103C100091F801B05B4A5FFA8BFC1CF0800F1060DA
:103C20001CBF0130106013F0100FCDF808C003F076
:103C30000801554C2FD1D1B91168084630F8015F01
:103C4000A4F801508078E07011F8040B116082082C
:103C500002F00F0141F060012170617802F0300242
:103C600042EA801001F00F01084360702EE01068F6
:103C700060212170014611F8015B03304FEA950E77
:103C80000EF0300E05F00F054EEA05056570098847
:103C9000106061801AE001F0FF0591B911680878A1
:103CA000C0F3830040F06000207011F8010B6580C4
:103CB0004FEA900E0EF0300E4EEA801060701160E8
:103CC00004E06022227000226270628003F004022D
:103CD00002F0FF0103912C4D2AB92A490A6812F813
:103CE000010BA8710A6013F0030303D0274AD35CC9
:103CF000EB7105E0234A136813F8011BE9711360A7
:103D00001BF0400FCBF301134CD0DDF808C01CF0C2
:103D1000800F07D014490A78144909680A4490783A
:103D2000000900E0002003F0FF0183B1184A117878
:103D3000012905D1517881420CBF1146002100E0D4
:103D40000021144A1160002900F026810231124A34
:103D50000F20D25C8DE8060001F09EFB009903461F
:103D60000E4828E0D01D0020DB1D0020E8040020C4
:103D7000D8040020E0040020101700200E170020B7
:103D80005D280020DC040020F40400204899200075
:103D9000D11D0020D404002061992000FC040020E3
:103DA00014170020A54A0F20D25C019201F074FB89
:103DB000A3490346A348019AFFF706FB0BF008004E
:103DC0000BF0030300F0FF010BF00402A8B1002A7E
:103DD00049D19D4A1288ADF814205A1E012A06D8EE
:103DE0009A490A6812F8010B8DF815000A60984A82
:103DF0009848D25C05A9002333E042B3DDF808C03F
:103E00001CF0800F07D094490A78944909680A4445
:103E1000917801F00F01924A1078012805D150786D
:103E200088420CBF1146002100E000218D4A11603C
:103E3000002900F0B1808C4A102012F803B00091E4
:103E400001F02AFB009903460231824808E07B4AD0
:103E5000102012F803B001F01FFB794903467D489A
:103E60005A46FFF7B1FA99F80010784A01F1280391
:103E700089F80030039B002B56D01368187800F0A7
:103E8000F800F02850D11120A871187800F0040E25
:103E900000F0F300F0385FFA8EFE03287CD8DFE8EC
:103EA00000F0020A1622B3F801000533288533F822
:103EB000020C68852CE0B3F801002885D878A0F5BD
:103EC000805080B2000240F0F000688509E0587828
:103ED000A0F5805080B2000240F0F000288558889C
:103EE0006885043314E0587802330009A0F5756042
:103EF00080B2000240F0F000208513F8010C00F0C1
:103F00000F00A0F5756080B2000240F0F0006085FF
:103F10001360BEF1000F04D1136833F8020BE8857B
:103F20001360303189F800104C4B12681B684A4905
:103F3000D31A0B704EB901F0E7F9474B99F80020FE
:103F40001B78C01A8318283B01E0A6F128031A1237
:103F50002A71AA796B71112A444B1DD19A889A85CE
:103F60001AE0412B40F0A5800CF10103DBB20B44B9
:103F70003E4D03F1280E186859682A4603C20833DB
:103F800073451546F7D199F800300CF1290C283308
:103F900084F800C089F8003001F0B6F92E4C23787F
:103FA000834200F2868001F0AFF9237899F800B0DF
:103FB0002F4AC51A0BEBCA0A15600AEB050140F23D
:103FC0001452914275D8254A284811685044194422
:103FD0002A4604F077F8DFF8AC90264C6EB11FB19A
:103FE00023889B44A4F800B0B8F1000F01D02680CC
:103FF00006E023881D44258002E05D44A9F80050B6
:1040000023881BB1B9F800209A4252D1B9F8005068
:10401000194816492A4604F055F8184B1D8000230C
:104020002380174CA9F80030236823B1FFF728F943
:1040300023685B68984700F069F83AE04C992000E3
:1040400050992000FC04002046992000DC04002048
:10405000529920000C050020DB1D0020E804002000
:10406000D11D0020D404002061992000F404002018
:10407000EC04002014170020141F0020041F00204F
:10408000080A002010170020BBF800307BB177B180
:104090000F2001F001FA0146074805F050F818B961
:1040A000064B1880064B188001273B466AE5012322
:1040B00068E507B0BDE8F08F5D28002010170020EC
:1040C0001417002008B5034B1B680BB1984708BDB7
:1040D000184608BD1C0A0020014B1860704700BF3D
:1040E0001C0A002007B5074B8DF80700186828B197
:1040F000054B0DF107021978FEF7C0F903B05DF822
:1041000004FB00BF3C2400206628002008B50022E4
:1041100004480221FEF7B2F9034A00231380034A40
:10412000137008BDE4000020041F0020CB1D0020F8
:10413000F8B5424E3388002B7ED0B3F5A06F71D80E
:104140003F4B1A8B72B95A8B62B99A8B52B9DA8B80
:1041500042B91A8C32B95A8C22B99A8C12B9DA8CBB
:10416000002A5FD01B7EFF2B5FD0364802F086FA14
:10417000C8B9344802F0D6FC044620B902F056FE15
:10418000054688B94EE002F0B9FC054660B9E3691E
:1041900023B11B6A93F88C0004F039FC2046BDE87B
:1041A000F84002F0F1BC274D284600F063FD0746B9
:1041B000002837D1284602F0BBFE0446F8B928464D
:1041C00021462246234602F07BFE054650B31E4898
:1041D00002F074FA014608B11B4821462A46FEF750
:1041E0007DFF1A4B05F1180019694FF47A73B1FB82
:1041F000F3F105F0CDF8012385F82030F8BD90F8F3
:1042000022307BB1022B08D1032380F82230052114
:10421000103005F0BDF884F82070204602F080FED2
:10422000FFF750FF00233380F8BD0020FFF74AFF5F
:10423000074A002333801370F8BD00BF041F00201D
:10424000141F00202C1F00201C1F0020B826002057
:10425000CB1D002038B50388054614463BB140F21B
:104260003A32934218D000230380032038BDFEF772
:1042700061F8274B1870FEF75DF8264B4021187047
:10428000254804F039F9FEF79BFA00F0FBFD40F2F7
:104290003A332B80012038BD02290CD11F4C2388D2
:1042A000002BF4D00120FEF7D7FA2388002BEED0A4
:1042B000FFF73EFFEBE709D80129E8D1002CE6D053
:1042C000174B05201C60FEF7C7FAF1E7872912D0CB
:1042D0008829DCD1104B9C4202D1204604F01EF903
:1042E000104B9C42D3D1204604F018F90028CED0C0
:1042F00002F0C4FADCE70C4B9A692033A24204BFF7
:10430000002223F8102C094A9342F5D1BFE700BFE1
:1043100065280020662800200C0A0020041F0020C9
:104320003024002014280020482400208825002064
:10433000074B1B680BB1283302E0064B1B68183390
:10434000186820B1044A11785A68FEF797B8704788
:1043500038240020302400206528002070B50C4649
:10436000054658B18169A14208D0054E306800F079
:1043700051FF3068214600F043FFAC6170BD00BFC3
:10438000F400002038B510220D460021044603F049
:1043900075FF2A7D294607322046D20803F092FE97
:1043A00020460249BDE8384005F078B80C1F0020CF
:1043B00008B502F0BDFD02F0B3FD034B01461868DD
:1043C000BDE8084004F097BEF400002008B5074B94
:1043D0000146186804F0A8FE014628B1044B18688D
:1043E000BDE8084004F087BE08BD00BFF40000200F
:1043F000B8010020024B0349186800F031BE00BF2D
:10440000F4000020C3892000024B0146186804F024
:1044100072BE00BFF400002008B5044B01461868C6
:1044200004F082FEBDE8084005F062B8F400002008
:1044300038B50B4C054694F88D1071B94FF4927253
:10444000204603F01BFF0123204684F88C5084F89B
:104450008D3000F0A5FA204638BD002038BD00BFE1
:104460008C25002070B5064610460D4605F042F832
:10447000014608B9002413E00A4B186800F01EFE3C
:1044800004460028F6D0FFF7A1FF66606B8A2381FF
:104490006B7E237420B1838C13B94FF40073838433
:1044A000204670BDF4000020F8B5194F0546386865
:1044B00000F0EAFD00260446BCB16368AB420ED1B1
:1044C00022894FF6FF739A4209D03EB12B6A3046DB
:1044D0009B6821469B689847064600E02646214691
:1044E000386804F0F1FD0446E6E75EB1284631463F
:1044F000FFF734FF2B6AA8699B6821461B69984720
:10450000A88302E04FF6FF73AB833046F8BD00BFCF
:10451000F400002010B5044604F02FFA034B2146A6
:104520001868BDE8104000F055BE00BFF400002040
:1045300070B5094D0646286800F0A6FD044650B146
:1045400063689E4202D12046FFF7E4FF28682146B7
:1045500004F0BAFDF2E770BDF4000020044B93F8BC
:104560008D0020B1D868837D002B08BF00207047E4
:104570008C250020064B93F88D2032B193F88C20C7
:1045800082420CBF1846002070471046704700BF9B
:104590008C250020034B1A8B82420CBF184600204A
:1045A000704700BF080100202DE9F8438146087ECE
:1045B0000D4604F050FA0646002800F08280294695
:1045C0004A46046AFFF74EFF074618B984F88D0083
:1045D000BDE8F8836B7E0374288AFFF7DBFF804613
:1045E00030B93846FFF796FF84F88D80BDE8F88330
:1045F00095F851305B0604D5002005F13C0104F02C
:1046000072F80123B375AB7D05F1100133752B7D75
:10461000F374EB7DB374C4F808806B7DE66084F8B6
:104620008F30F02384F88E302B8CA4F898306B8C6C
:10463000A4F89A30AB7E84F89030EA7E134484F874
:10464000912084F894302B7F324684F892306B7F2F
:1046500084F89330EB8BA4F89C302B4653F8040B72
:104660008B4242F8040BF9D105F13C0306F1240218
:10467000543553F8041BAB4242F8041BF9D13946B8
:104680003046FFF76BFEA36820465B699847A36836
:1046900038461B69002198470B4BB0831A6830825B
:1046A00002B91C60204604F0F9FB2046494604F09C
:1046B0007DF894F88F3023B12046BDE8F84304F02C
:1046C000FBBBBDE8F88300BF882500202DE9F04141
:1046D000064628B300F110040227637D43B9013F69
:1046E00004F13C04F9D13046BDE8F04104F0D6BBFA
:1046F0004FF6FF73DFF82C80A383D8F8000000F09A
:10470000C3FC05460028EAD06B689C4202D12846CB
:1047100004F033F9D8F80000294604F0D5FCF0E79E
:10472000BDE8F081F400002038B50D4D286800F098
:10473000ABFC044690B163685BB11A6A4AB1627C13
:10474000D10706D522F001026274186A214604F0EE
:10475000A6F92868214604F0B7FCEAE738BD00BF97
:10476000F4000020024B0146186800F049BD00BF6C
:10477000F400002070B590F89460012505FA06F663
:104780004FF47A73F601B6FBF3F6C0F8A060044666
:10479000EE40FDF747FF70434FF6FF73B0FBF3F1B8
:1047A000D4F8A03031445B1AC4F8A030002384F858
:1047B000963084F8955004F1C4002346024ABDE8BF
:1047C0007040FDF7EFBC00BF4148200010B50B4C16
:1047D00000F0DAFAFFF7A8FF238801332380FFF700
:1047E000BDFE28B922883B2A02D9208002F0D6FDDE
:1047F000BDE810400248FDF7F5BC00BF16170020C9
:10480000B00B002010B5044600F0B8FA012813D010
:10481000B4F89C104FF6FF7399420DD094F8933082
:10482000FF2B09D0594304F5827023468901034ABE
:10483000BDE81040FDF7B6BC10BD00BF1549200013
:1048400070B51D4D04462B7853B9012001F04CFF83
:1048500010B101232B7003E004F1C400802114E0A7
:1048600094F89530BBB194F892303BB194F896200F
:104870009A4203D22046002102F0BAFD0023D4F868
:10488000A01084F8953004F1C40023460B4ABDE81B
:104890007040FDF787BC94F8911094F8902094F83C
:1048A00094300A449342BCBF013384F894302046CC
:1048B000BDE87040FFF75EBFDC1D002041482000CE
:1048C00070B505460C4600F059FA01281ED005F1D6
:1048D000E806304603F028FE304603F01FFEA8B17C
:1048E00044B1FDF79FFEB0FBF4F101FB140000EBB7
:1048F000540100E0214605F1E4002B46044AFDF78F
:1049000051FC2846BDE87040FFF77CBF70BD00BF7A
:104910001549200070B5134B04461B7800F1E405DF
:104920005BB9012001F0E0FE38B92846234680211A
:104930000D4ABDE87040FDF735BCE368986918B1D1
:1049400094F8931002F0E6FE2846FDF767FC04F5A4
:10495000847003F0E3FD20B12046BDE87040FFF70E
:1049600051BF70BDDC1D00201549200010B5FDF7BA
:1049700059FE3C2358434FF6FF72B0FBF2F3054A51
:104980001933138004488021044A0023BDE81040F5
:10499000FDF708BC16170020B00B0020CD47200003
:1049A00010B50446FDF73EFE4FF47053B0FBF3F133
:1049B00001FB130081B2234604F1A40001F5F0517C
:1049C000024ABDE81040FDF7EDBB00BFD149200011
:1049D0002DE9F0478046C568FBF7BCFFB0F5163FF0
:1049E0008CBFA0F59637012755B32B6A43B3AC694A
:1049F00034B3E368BB4218D3FDF714FE10F0010690
:104A00000BD1DFF89CA04FF6FF79DAF8000000F038
:104A10003BFB0446CCB9002E3FD1214E0024306828
:104A200000F032FB014641BB54B12046FFF7F4FCD5
:104A300030B12046FFF7F0FC0146404602F0D8FCBA
:104A40004046BDE8F047FFF7ABBF6368AB420DD10E
:104A5000E368BB420AD22B6A20469B6800211B698F
:104A600098470EB1484501D2814626462146DAF8DC
:104A7000000004F029FB0446CCE74B68AB4207D1A9
:104A80002CB1CA68E3689A4238BF0C4600E00C4675
:104A9000306804F019FB0146C5E73446C5E700BF9E
:104AA000F4000020F8B5234F234C3A78064628320C
:104AB00013195B78002B37D102441319125D632A56
:104AC00032D15A78042A2FD1D878FFF753FD054602
:104AD00050B33A78283232442244937803F02001CC
:104AE00001F0FF0639B104F1180002F01BF8C0B163
:104AF00002F04AF815E0C168887DA8B19088898BDA
:104B000040BA80B2814294BF00200120190602D52C
:104B100010B13046F8BD60B103F0400101F0FF0074
:104B200021B1284604F0BAF90120F8BD43F0400352
:104B30009370F8BDCB1D0020141F00202DE9F84F05
:104B4000484C494D94F806A04FF000082E782F46A7
:104B500085F80080BAF1000F1AD194F82980B8F1D5
:104B6000000F7AD194F82A30632B76D194F82B3049
:104B7000042B72D194F82D00FFF7FCFC00286FD0B5
:104B800090F88D309BB3C268907D98BBBDE8F88FDC
:104B9000DFF8DCB040F20C53BBF8009099455CDCC8
:104BA00004F12805A9F1280204F13000294603F098
:104BB000FFFA6323C4F8288084F82A30042384F899
:104BC0002B30637909F1080903F10802D2B29A4245
:104BD000C4F82C8084F828A084F80680ABF80090F4
:104BE000627102D223790133237108363E700020AE
:104BF000BDE8F88F29782A310B19095D63292CD17A
:104C0000928B04F1180052BA9A8093F90230002B6B
:104C100015DA01F087FF0028E8D12B780F202A331E
:104C200023449A7842F020029A7000F035FCFFF796
:104C3000EBFBA0B10D49002202F0FAFC0FE001F0FD
:104C400071FF2B782A3323449A7810B902F07F023F
:104C500001E062F07F029A70C8E72E70C7E701207A
:104C6000BDE8F88F141F0020CB1D00202C1F002052
:104C7000041F0020F8B51D4A1D4B977900260146F8
:104C80001D46187814461E705FBB92F829200AB1A1
:104C9000187026E094F82A30632B22D1E38D03BBF1
:104CA000144A13681646F3B193F88D20DAB1D86828
:104CB000827DC2B103F09BFD18B143689B699842A5
:104CC00004D02B788022234483F82C202B782A339D
:104CD0001C44336893F88C20E270DB689B8B5BBAD2
:104CE000A3800020F8BD0120F8BD00BF141F0020E4
:104CF000CB1D002088250020F8B5174D174CA8794A
:104D000000232678237010B126701846F8BD95F858
:104D10002A30632B1DD195F82C3095F82D0023F007
:104D20007F0383F0800385F82C30FFF723FCC368F2
:104D30009F8B23783F022A331D44E878FFF71AFC43
:104D4000C368BFB29B8B267047EA1327AF80082049
:104D5000F8BD2670F8BD00BF141F0020CB1D002039
:104D6000044B1B682BB1044B1B7EFF2B01D0FFF7BC
:104D7000E5BE704788250020141F0020014B1878DD
:104D8000704700BFDD1D00207FB501F0C5FE30B1CA
:104D900083690BB1013B836104F0A4FBF7E701F0E9
:104DA000BBFE0446F4B1A669C6B904F108030FCBF3
:104DB0008DE80F00204601F0E7FE01F0ADFE0A4B42
:104DC00004461A68D368B2F89A20998B9142E9D0C8
:104DD00098696946324602F02BFC03E0204604F055
:104DE00081FBDEE704B070BD88250020F0B548F2F5
:104DF000FE0385B00446184DADF800300F46002381
:104E000068462146ADF80230ADF80430ADF8063002
:104E1000ADF80830ADF80A30ADF80C30ADF80E3012
:104E2000164604F03BFB95F88D30012B12D1284635
:104E3000694603F0E7FC044660B1437C43F001039C
:104E40004374AB685B682BB1394632469847FBF731
:104E500081FDE06005B0F0BD8C25002008B501465D
:104E6000074890F88D20012A09D103F0CBFC30B11E
:104E70004FF6FF730381437C43F00103437408BD85
:104E80008C2500201FB5134B00241C60FFF7B2FADD
:104E9000FFF76CFD02F09AFD40F2FF23ADF8003001
:104EA00068464FF4D053ADF80E30ADF80240ADF87F
:104EB0000440ADF80640ADF80840ADF80A40ADF842
:104EC0000C4001F031FC044B20461B68984704B0AD
:104ED00010BD00BF882500200801002008B5044847
:104EE00004F05DFABDE80840024804F058BA00BF7B
:104EF0003001002024010020014804F098BA00BFCE
:104F00002401002038B50E4804F059FA0546A8B12E
:104F10000C4804F054FA0446286028B92946084889
:104F200004F061FA204638BD00F098F904F1A001C0
:104F3000A4F8800004F1820000F060FA284638BD31
:104F4000240100203001002010B504462146074806
:104F500004F05FFA48B12168054804F044FA21469C
:104F60000248BDE8104004F03EBA10BD2401002004
:104F70003001002010B504462146094804F049FAE2
:104F800068B12468B4F88010204600F021FA04F1DA
:104F9000820004F1A001BDE8104000F049BA10BD44
:104FA0002401002030B1054B9B68C01A044B8010CF
:104FB000584370474FF0FF30704700BF3C0100205E
:104FC000ABAAAAAA38B50D4D002818BF05460C4853
:104FD00003F0DAFA044668B12846211D04F0AFF860
:104FE00020B12046BDE83840FFF7DCBF204603F083
:104FF00007FBEFE74FF0FF3038BD00BF729920008C
:10500000F00B002080B161B1C3684268C91A91FBFE
:10501000F2F14B1C07D0054B0C209B6800FB0130C4
:105020007047084670470020704700BF3C010020D1
:1050300090B171B1C368C91A436891FBF3F14B1C7D
:1050400009D0064B5A5C036842FA03F000F00100F5
:105050007047084670470020704700BF161E0020AA
:1050600010B5074A1368072B08D85C1C1460054A62
:105070000360816042F82300012010BD002010BDB4
:10508000040D0020E40C002038B504460A4803F063
:105090007BFA0146204604F006F8054629462046DC
:1050A000FFF7C6FF28B920462946BDE8384004F07E
:1050B0000BB8284638BD00BFF00B00203F4B2DE950
:1050C000F047002914BF8846984605464046FFF73A
:1050D00079FF074601306ED1394804F070F9064671
:1050E0000446002844D1374803F04EFA37460446B8
:1050F000C4B12046FFF756FF334B1B5C6BB9334AF4
:10510000125C22B1D10748BF01335210F9E70EB14A
:10511000BB4202DA4BB126461F46204603F070FA26
:105120000446E5E7002E43D034460026284BF758C6
:105130008FB1D7F80890B9F1000F0CD0214638464E
:1051400003F0B1FF824651463846FFF771FF012850
:1051500001D15046C8470436202EE7D12046FFF73C
:1051600021FF1A4B00221A542146164803F015FA63
:105170002146144803F025FA2046FFF713FF414665
:105180000746201D03F0D6FF0DB9002605E07B1C65
:10519000FBD06E68EB6806FB073600216A68304674
:1051A00003F06CF8094829463246012303F061FFF9
:1051B0003046BDE8F087002DEBD1E6E7729920007C
:1051C0003C010020F00B0020021E0020161E0020D3
:1051D000E40C002070B505460C4622462946002303
:1051E000054803F046FF29460646224600230348A9
:1051F00003F03FFF304670BD161E0020021E002047
:1052000003460A4602481946012303F032BF00BF95
:10521000021E002003460A4602481946002303F0F6
:1052200028BF00BF021E002030B5094B1A8818465F
:105230006AB1084B1C8830233034A34205DA064992
:105240008D18ED5C5D540133F7E70023038030BD1A
:105250009A1C0020981C00200C0D0020F8B50E4B65
:105260000E4A1B781688C3F13005AC19802C07460E
:105270000EDC0B492A46194402F024FF094A0A4B66
:1052800011681B8878191944324602F01BFF00E0B0
:1052900000242046F8BD00BF2A1E0020981C0020D4
:1052A0000C0D0020080D00209A1C002010B5074BA3
:1052B0001A88824208DB064980B20C880444101A1E
:1052C00018800C80012010BD002010BD981C00200B
:1052D0009A1C0020014B1880704700BF981C0020CA
:1052E000024B1888024B1844704700BF9A1C0020DC
:1052F0003C0D0020024B03481B781844704700BF48
:105300002A1E00200C0D0020014B1888704700BF9A
:10531000981C0020044B1878C0F1300010F0FF00FA
:1053200004BF024B187870472A1E00209A1C0020E8
:1053300008B5FFF7EFFF024B1B88184480B208BD89
:10534000981C002070B5084D04462E78864208DB74
:10535000FFF7EEFF2044802803DC341B2C70012073
:1053600070BD002070BD00BF2A1E002008B50023BC
:10537000074A0021995202331E2BF9D105480649EC
:1053800003F0D8FEBDE808400448034903F0D2BE4C
:105390003428002024280020729920002C28002086
:1053A000064A00231380064A1380064B30221A70E7
:1053B000054A064B1A60FFF7D9BF00BF9A1C0020B0
:1053C000981C00202A1E00203C0D0020080D002003
:1053D00038B505460C46FFF7E3FF064B802C28BF87
:1053E000802418682946224602F06CFE024B2046B3
:1053F0001C8038BD080D0020981C002010B50A4BF9
:1054000003F11C0253F8044B934240F8044BF9D1CA
:105410001B880380054B03F1100253F8040B9342E1
:1054200041F8040BF9D110BD3428002024280020B5
:1054300010B50A4B00F11C0250F8044B904243F89F
:10544000044BF9D102881A80054B01F1100251F882
:10545000040B914243F8040BF9D110BD342800200D
:1054600024280020024B23F810100120704700BFB1
:1054700034280020014B33F81000704734280020F6
:1054800008B5044B0F3803EBC00003F053FE0120B6
:1054900008BD00BF24280020024B0F3803EBC000DA
:1054A000704700BF242800200148024903F047BE8E
:1054B0002C2800207299200008B5064B1B689847DD
:1054C000054B5B689847054B5B689847044B5B68E6
:1054D000984708BD0896200008972000EC96200009
:1054E000D096200030B591B03C220546002101A89D
:1054F00002F0C4FE3C4B1A782AB901221A70FDF75B
:1055000091F83A4B18700E20FFF7B4FF8DF8140095
:105510000D20FFF7AFFF8DF81600FFF7C5FF18B19C
:1055200000238DF8173004E00B20FFF7A3FF8DF860
:105530001700002301248DF818308DF81A40ADB102
:105540000A20FFF797FF28B10A20FFF793FF8DF895
:105550001C000BE0254B1A7802B91C7019780A2040
:105560004A1C1A708DF81C10FFF77CFF03244AF6C2
:10557000CD338DF81B40ADF81E30FFF795FF40B1DD
:1055800002238DF81930FF238DF804308DF8053093
:1055900008E01020FFF780FF014601A803F0CAFDD4
:1055A0008DF819404AF6CD33114903A8ADF82030E3
:1055B00003F0C0FDFFF794FE0E90FFF7A5FE0F90DD
:1055C00001A803F04CFE044645B1FFF7BBFE38B11D
:1055D000FFF790FE014601A803F057FE204601E0C8
:1055E0004FF0FF3011B030BD2C1E00202B1E0020CC
:1055F0006728002008B5024B1B69984708BD00BF0B
:105600002897200008B5024B5B69984708BD00BF8A
:105610000897200008B5024B9B69984708BD00BF5A
:105620000897200008B5024BD86900B1804708BD33
:105630000897200010B5044648B1406B02F0A4FF63
:10564000024620B1024B03482146DB68984710BD53
:1056500008972000555820002DE9F04107461020FA
:105660008846FFF719FF474B05461A78464C22B982
:1056700001221A70FCF7D6FF2080238813B9424B11
:1056800001221A8021880A204B1C2380FFF7EAFEA2
:105690003E4802F079FF044640B1201D294603F040
:1056A0004EFDF0B9204602F0ABFFF4E7384803F0B6
:1056B00086FE044600285BD02946201D03F03AFDF3
:1056C000002304F13000606384F82C3084F82D301E
:1056D00084F82E30236302F054FF2C48214602F058
:1056E00070FF606B02F085FF072841DC294803F05A
:1056F00066FE054680B3284803F061FEA86038B313
:10570000FFF700FC6860F8B10920AE68FFF7B2FE51
:1057100010B90323337203E00920FFF7ABFE3072A8
:1057200086E880012946606B02F04BFF606B02F057
:105730002BFF854224D104F10C0023460021174A97
:10574000BDE8F041FCF72EBD1348A96803F04BFEFD
:105750001048294603F047FE606B02F04AFF38B953
:105760000A48214602F019FF0948214603F03BFE92
:105770003846414604220123BDE8F04103F0E6BD6E
:10578000BDE8F0813D1E00209C1C00201C0E002066
:1057900054010020600100204801002035562000FF
:1057A00008B5054803F0FBFD044803F0F8FDBDE82B
:1057B0000840034803F0F3BD6001002048010020C9
:1057C0005401002070B504460D46002935D0406BC9
:1057D00002F0E3FE6868FFF7B7FBA968174803F01B
:1057E00002FE2946164803F0FEFD606B02F0CCFE77
:1057F00004F10C05A0B1002384F82C3084F82D307E
:1058000084F82E300F4BDB6998472346002814BFDD
:10581000014610210C4A2846BDE87040FCF7C2BC86
:105820002846FCF7FBFC2146084802F0B6FE21465C
:105830000748BDE8704003F0D6BD70BD48010020A8
:105840006001002008972000355620001C0E002023
:10585000540100202DE9F14F0E46044600286DD07A
:10586000032914D8DFE801F00208020E90F82C306A
:105870001A4480F82C200AE090F82D301A4480F861
:105880002D2004E090F82E301A4480F82E20606B12
:1058900002F07AFE0546002850D00A21686803F01D
:1058A000E2FB07460A20FFF7E5FD874203D02846C2
:1058B00002F0A6FEEEE7AF68002F3FD0731E012B6B
:1058C000D7F800A0D7F8049094F82C8029D81D4B65
:1058D000DB699847002814BF83464FF0100BFCF794
:1058E000A1FE94F82C203B7A9A421AD2B8F1030F09
:1058F000A8BF4FF00308012303FA08F808FB0BF8D0
:10590000B0FBF8F308FB13010F4A04F10C005944F3
:105910002346FCF747FC686801B0BDE8F04F03F090
:105920008EBB20462946FFF74DFF5046494632467A
:10593000434601B0BDE8F04F03F008BD01B0BDE83B
:10594000F08F00BF089720003556200002292DE96E
:10595000F0470646894614467CDD0378427803F01A
:1059600007012174C3F3C001C3F3801AC2F3810895
:1059700097096174C2F30112C3F30011C3F340131A
:10598000A174E37484F814A084F81580A275E775F7
:1059900083782376B8F1000F20D00279C378B8F16C
:1059A000020F03EB0223638300F1050509D12046B2
:1059B0002A4903F0BFFBB379F51D23707379637037
:1059C00013E0B8F1030F10D10023EA1AD279E254A0
:1059D0000133082BF9D106F10D0506E0C51C1F495E
:1059E000204603F0A7FBA4F81A8017B3BAF1000F02
:1059F00005D16A7815F8023B03EB022300E0638BC4
:105A0000022FA3830AD104F10800144903F092FB8A
:105A10006B78237215F8023B637210E0032F0ED1EE
:105A20000723E95CE21A13F1FF33D173F9D2083589
:105A300005E004F10800094903F07CFBA783AE1BD5
:105A4000C6EB0903A36365634E45D4BF304600200F
:105A5000BDE8F0870020BDE8F08700BF7299200004
:105A6000094B10B55B689847041E0ADBFFF7DCFBA7
:105A7000064BDB689847002814BF20464FF0FF30E4
:105A800010BD204610BD00BFDC96200028972000E6
:105A90000A4B13B500241C70094B1C80FAF792FFC7
:105AA000009400F580510122064B0748FCF714FDD5
:105AB000064B01221A7002B010BD00BF411E00202B
:105AC0009E1C0020695F2000F80E0020451E00206B
:105AD00008B5064B1B783BB1054B1A7822B9012259
