:020000040020DA
:10000000AC3B00208D02200077C6200075C6200082
:1000100075C6200075C6200075C6200000000000CF
:1000200000000000000000000000000075C6200075
:1000300075C620000000000075C62000CDD6200047
:10004000EFD62000F5D62000FBD6200001D72000F7
:1000500000000000D3D62000D9D6200075C62000AD
:1000600075C6200000000000000000000000000035
:10007000000000000000000075C620000000000025
:10008000000000000000000075C6200075C62000BA
:1000900075C6200075C6200075C6200075C62000F4
:1000A00075C6200075C6200075C6200075C62000E4
:1000B00075C6200075C6200075C6200075C62000D4
:1000C00075C6200075C6200075C6200075C62000C4
:1000D00075C62000000000000000000000000000C5
:1000E0000000000000000000000000000000000010
:1000F000000000000000000091582000A1582000DE
:1001000000000000000000000000000000000000EF
:1001100000000000000000000000000000000000DF
:1001200000000000000000000000000000000000CF
:1001300000000000000000000000000000000000BF
:1001400000000000000000000000000000000000AF
:10015000000000000000000000000000000000009F
:10016000000000000000000000000000000000008F
:10017000000000000000000000000000000000007F
:10018000000000000000000000000000000000006F
:10019000000000000000000000000000000000005F
:1001A000000000000000000000000000000000004F
:1001B000000000000000000000000000000000003F
:1001C000000000000000000000000000000000002F
:1001D000000000000000000000000000000000001F
:1001E000000000000000000000000000000000000F
:1001F00000000000000000000000000000000000FF
:1002000000000000000000000000000000000000EE
:1002100000000000000000000000000000000000DE
:1002200000000000000000000000000000000000CE
:1002300000000000000000000000000000000000BE
:1002400000000000000000000000000000000000AE
:10025000000000000000000000000000000000009E
:10026000000000000000000000000000000000008E
:1002700075C620008157200099572000E1502000CA
:1002800075C62000394C200075C6200010B5094BFA
:10029000FF221A600848094A4824E3690849121AEB
:1002A00098470848084AA3690021121A984704F0A1
:1002B000B9F9FEE7B4200D4040000020A60200205E
:1002C000D01C2100A8020020AB330020014B0020ED
:1002D000136070477CE820002DE9F843046B9846D2
:1002E0000F4691468D1CA64601F1120328686968E5
:1002F000764603C608359D42B646F7D17B8A0F483D
:10030000638205F0B5FB204608F0AAFD608A0DF077
:1003100003FC01460A4805F0ABFB2046494642462D
:1003200008F0D0FD2046002110220CF02BF900230C
:10033000A374E3744046BDE8F88300BF3C0121008C
:100340004501210070B5012A049E059C069D02D03E
:10035000022A13D02EE00E2D01D819481EE0194BA9
:1003600003F10C0253F8041B934244F8041BF9D127
:100370001A880F2022809B78A37070BD0F2E05D1A4
:100380001048194632460BF0EDFF20B10E480DF033
:10039000DCF90E4870BD082D03D80D480DF0D5F9D5
:1003A0000CE00C4B09201A6822605A6862601B7AC4
:1003B000237270BD0848114605F05AFB074870BD0E
:1003C0004A0121008402002076012100D1FDFFFFB7
:1003D0009C01210064020020BF012100B0FDFFFF4D
:1003E00070B5044626480DF0B0F9264805F040FBEC
:1003F000254D05F1600615F8022C2B7C3AB1012B36
:1004000005D8284608F02CFD0A200DF085F9203586
:10041000B542F0D1122323704FF64E4363824AF661
:10042000AA23638002230021A51C63814FF48073FB
:100430000A46A180E1802181A181E18123822846B1
:1004400008F06CFD114E638A30600382104805F09D
:100450000FFB284608F004FD608A0DF05DFB0146A5
:100460000C4805F005FB062004F062F8306802F045
:10047000C5FC094B186008B1084B436370BD00BF51
:10048000DD012100F1012100622A0020BC060020CC
:1004900009022100A514210084060020400000204C
:1004A0002DE9F8439146028805463AB1B2F59E7FA0
:1004B00016D0002303800320BDE8F8830CF0A2F9D6
:1004C0004748FFF78DFF06F0BBF9464B1C68002C30
:1004D00041D145480DF039F92C800220BDE8F88360
:1004E000424A12788A423CD13E4BD3F80080404BBE
:1004F0001B789B072BD53F4C3F4A04F1100623463F
:1005000003CBB342106051601C4602F10802F6D1E1
:100510003A4B3B4C1B8D3B4E3B4F63821223328840
:1005200023703B6800219954384805F0A1FAA01CBB
:1005300008F096FC608A0DF0EFFA0146344805F0A9
:1005400097FA404621463A68338802F01DF9314B4C
:100550001A68984622BB4FF49E732B800120BDE899
:10056000F8832D4A12788A42F1D148460CF054F8AB
:10057000284C2A4F26684946C6F1C808404538BF6E
:1005800080464246B8190BF021FF08EB0602C62A46
:1005900001D92260DBE7531C23600A23BB54D6E752
:1005A0001F4C104F226832B938680D4902F0B6FC72
:1005B000C043C00F2060194E094938683246D8F848
:1005C00000300CF0A1F9011E124CC4DB2768304644
:1005D0007F1A3A4631440BF06FFF2760BBE700BF3C
:1005E000A40600208406002024022100A13300205C
:1005F000D8300020CC2B00208E060020C42B0020F9
:100600008C060020B42B0020E43000203A022100A8
:10061000A5142100880600209833002024270020FC
:100620008006002008B503785A1C8A4208BF1B18B0
:1006300001D0074808E0984205D010F8012F022A9F
:10064000F9D1002008BD03480DF07FF8024808BD2D
:10065000CA02210019032100D8FDFFFF70B50478FC
:10066000042C01D01B4803E04478032C04D01A4822
:100670000DF06BF8194870BD8678C4788D1E44EA79
:100680000624A54201D216480CE00479302C01D092
:10069000144807E044790539A142F4D3817902294D
:1006A00004D011480DF051F8104870BDC17900F127
:1006B0000804A1F12005254415606218615C022937
:1006C000EFD1911C5278A2F120040C440A441C6022
:1006D000101A70BD3D0321006C032100D8FDFFFFFF
:1006E0009F032100B6032100DC032100CEFDFFFFA4
:1006F0002DE9F74F1D46836A012A0190009308D81F
:10070000B3F8BA204CF2AE039A4200F0A580002064
:10071000AAE008784B78023A43EA00239A42C0F0F4
:100720009B8000248B1C26462746A246002A76D0B2
:10073000032A40F2918018785978A2F1040B41EA1B
:100740000021DA78987803F1040842EA0029CB45C1
:10075000C0F08280A1F10A000C2858D8DFE800F030
:10076000073F57575757575757273357530019794C
:10077000981D5B7943EA01218B1C4B4501D03C4815
:100780003EE00023C3EB010CBCF1000F0DDDC218ED
:1007900010F803A092F801C002334CEA0A2CBCF115
:1007A000170FEFD14FF0010A34E0324828E02DB1A5
:1007B00040464946FFF736FF18B14EE01B79022B41
:1007C0004FD1012726E02DB140464946FFF72AFFC9
:1007D00018B142E01B79022B43D101261AE0591DC2
:1007E0001B79581C484501D0234809E00B44994225
:1007F00005D011F8010B0028F9D101240AE01F48A7
:100800000CF0A3FF28E01E480CF09FFF02E01D48FB
:1008100005F02EF908EB0903C9EB0B0286E7009BF4
:10082000B3F8BA204CF2AE039A427FF470AF5DB1D8
:10083000BAF1000F04D01FB116B1002C7FF467AFDE
:1008400011480CF082FF08E017B1002E7FF45FAF73
:100850000E480CF07AFF04E01DB1019A537F0C2B77
:1008600001D00B4800E00B4803B0BDE8F08F00BF9B
:10087000010421004E04210070042100BE04210067
:10088000E104210004052100230521005905210070
:10089000D8FDFFFF9CFEFFFF10B5044620B90748B6
:1008A00040F2AB4106F02EF805480CF04EFFA06A6E
:1008B000BDE81040503002F0EBBF00BF8F052100B3
:1008C000C70521002DE9F04F91B0DDF87490079332
:1008D000D9F8003082460C2B0F461C9E04D81946CE
:1008E000804805F0C5F876E0FE237370FD23327072
:1008F000B37006F10308F9B18B8806F10B0B1A0AE5
:10090000F2703371D1E90223100E40EA0320F07136
:10091000100C40EA03403072100A1C0A40EA0360DF
:100920007471B3717072B272D1E90223013243F172
:100930000003C1E9022305E0404608220BF022FE35
:1009400006F10B0B1A9D00238BF800308BF8013059
:100950000BF10204043D0FB17B88DBB94FF00008B6
:1009600047461B9B984500F0B2806A6807F10D016D
:10097000D9F8003011448B422AD3079B204653F804
:1009800028100BF023FD55F8043F08F101081C4422
:100990001F44E6E74CF2A802934201D1524805E019
:1009A0004CF2AE0293420CBF504851480CF0CDFEC1
:1009B000D8F800300BF10A0B2360D8F80430CDF8DA
:1009C00018B06360DC462B464FF0000B08251DE095
:1009D00048480CF0BAFE484881E0D3F804E005F13D
:1009E0000D00D9F8001070448142F1D3079A604697
:1009F00052F82B10724605930BF0E8FC059B8446D9
:100A000053F8042F0BF1010B944415441B9A9345A2
:100A1000E3D10CA8002110220BF0B4FD9AF80030AD
:100A200013B907F1300301E007F134031868616876
:100A30000C9020684FF0000B0DAB03C30CAA1023E1
:100A4000CDF800B006202D4903F092FD9AF8002061
:100A50005B4612B907F1100201E007F12002009392
:100A600006202749102303F083FDD8F80000D8F8AA
:100A7000041008AA134603C33188B378ADF82810D0
:100A8000A5F108018DF82A308BB2180A8DF82C30A8
:100A90009AF800308DF82B000BB9103700E02037A2
:100AA0001023069801930D230292039300970246A8
:100AB0000CAB02F0F1FA002811DB00F1080700236B
:100AC000009306200F4922463B4603F051FDC7F331
:100AD000072337730D37F3720020C9F8007011B087
:100AE000BDE8F08FD1052100220621006206210019
:100AF000AA062100F7052100B0FDFFFFDE06210058
:100B0000E5062100EA0621002DE9F04F9B46BBB027
:100B1000C8230693469B9DF810710093479B459E02
:100B2000019308AC06AB039305468A4601F11C000D
:100B30009146114602943A463346FFF7C3FE002819
:100B4000C0F29580012300932246062049490D23D7
:100B500003F00EFD0024DDF818C1A046479B984520
:100B600013D00122DCF80030009256F8282006202D
:100B70004149CDF814C003F0FBFCDDF814C008F1C6
:100B800001085CF8043B1C44E8E7162F04D13368E5
:100B90001B78032B02D159E0142F57D1204603F0C4
:100BA000F9F8804600284ED007A80CF03DFD079BC1
:100BB0004FF4807203F58073C8F80430002388F87E
:100BC0001330C8F80820C8F80CA0B9F1000F02D003
:100BD000B9F8042000E01A46DDF8189188F8127080
:100BE000A8F81020C8F814300027479B9F4212D065
:100BF000D8F8140056F827101830D9F800204044CF
:100C00000BF0E4FBD8F8143059F8042B01371344E7
:100C1000C8F81430E9E7E86A414603F08FF830B9C4
:100C200016480CF092FD404603F0C8F80EE0144E52
:100C3000144B376805F11800D8F8081033600CF031
:100C4000E9FD376002E010480CF07FFD6B6B63B18B
:100C50001E6856B12846594608AA069BB047002888
:100C600005DD069BE41A204401E04FF0FF303BB065
:100C7000BDE8F08FF3062100FF06210010072100D8
:100C8000DC0D002068000020370721002DE9F0432B
:100C90000C46BBB00646002875D0002973D0CB7C2B
:100CA000062B6AD8CA68C8230493156A4B6901F1F8
:100CB00018090693CDF814900B8A15B1A9889942AA
:100CC00005D0556A1DB1AA889A4218BF002507A809
:100CD0000CF0AAFCE37CA2680133DBB2E37402FAF5
:100CE00003F3079A21461A446260F06A03F026F87B
:100CF000A37C162B0CD1059B24481B78142B96BF84
:100D0000234A244952F823101A4604F0B1FE02E0A7
:100D100021480CF01AFDE06806AB00934FF0010883
:100D200004AB08AF03932946A27CCDF80480029758
:100D30001C3005ABFFF7C6FD011E03DA174804F0AF
:100D400097FE20E0062016493A460D23CDF8008094
:100D500003F00EFC6369CDF80080062011494A4675
:100D600003F006FC736B73B11D6865B1E168304632
:100D700004313A46049BA84705E00B480CF0E5FC1B
:100D8000204603F01BF83BB0BDE8F0835607210076
:100D90008CE820004E072100870721009C072100D6
:100DA000C0072100D2072100E9072100F8B5038818
:100DB000064633B1B3F58A5F0BD0002303800320CE
:100DC000F8BD1B480CF0C1FC4FF48A53338001205E
:100DD000F8BD8829F8D1174C04F118000CF02CFD4F
:100DE0000028F1D0E06A0CF055FD054603F0AEFE98
:100DF0000746B5B16B6883420BD8E06A0CF053FD2F
:100E000001462046FFF742FFE06A0CF043FD05462D
:100E100038B169680848B9428CBFC7EB01010121AC
:100E200002E005484FF6FF710CF0F4FCCCE700BF80
:100E300000082100C0060020D806002073B500235A
:100E40000D461446064600932A46062006492346C8
:100E500003F08EFB306829465030224602B0BDE8D0
:100E6000704002F00DBE00BF210821002DE9F04FB7
:100E70008146506A95B00C4615469B4608B102F073
:100E8000D5F802F0BBF8686200284CD02B6A9B882A
:100E9000013383806E6A002E45D0B4F8BA304CF22C
:100EA000A802934206F1100704D04CF2AE0293421E
:100EB0003BD04BE0D9F83430ABB1DD689DB1B4F82C
:100EC000BE300DF120084FF0200A0093CDF80480C9
:100ED000CDF808A048465946022204F1C003A847AD
:100EE000051E06DA01E04FF0FF3566480CF02DFCD8
:100EF000C4E029463A46282340460BF036FE01233B
:100F0000814600930620604942462B4603F030FBA1
:100F10004046002152460BF035FBB9F1000F17DABD
:100F20005A480CF012FC5A48A9E028230193009774
:100F300004F1BE0004F1DE0104F1FE0220230BF0F7
:100F400087FEB0F1000903DA5248EAE75248E8E7C1
:100F50004FF0000804F1200B0620504922462023C0
:100F6000CDF8008003F004FB06204D495A462023AB
:100F7000CDF8008003F0FCFA06204A493A464B4679
:100F8000CDF8008003F0F4FA4FF0200C0DEB0C05C7
:100F90004FF0300ACDF804C0CDF80CC04946424AA3
:100FA0000D230094CDF808B00495CDF814A0384670
:100FB000CDF81CC00BF0B7FD06203C492A4653462D
:100FC000CDF8008003F0D4FADDF81CC02823059387
:100FD000374ACDF800B0CDF804C00294CDF80CC06B
:100FE0000497284651460D230BF09DFD22460DF136
:100FF000500E2B4603CB7345106051601D4602F125
:101000000802F6D1002528212A4804F031FD0620E7
:1010100029493A462B46009503F0AAFA06202749AB
:101020003A462B46009503F0A3FA062024493A4697
:101030001023009503F09CFA0620224906F12002B5
:101040001023009503F094FA06201F4906F13002A0
:101050000423009503F08CFA06F134020423009572
:1010600006201A4903F084FAB4F8BA3000227380DB
:1010700094F8B83033700023C6E90223284615B02F
:10108000BDE8F08F2E0821004F08210053082100F1
:10109000B0FDFFFF83082100B5082100D908210019
:1010A000E7082100F5082100B2022100F90821001B
:1010B0006A182100070921001E09210032092100B8
:1010C00046092100590921006C09210078092100F5
:1010D0002DE9F04F8DB0834692461E46169F179D10
:1010E0000C4611B1D1F8208000E08846C5F3074EC8
:1010F000C5F30720E9B28DF824608DF825E08DF85E
:1011000026008DF827106CB1A36A5BB1B3F84820B4
:101110004FEA122C8DF8292001328DF828C0A3F84F
:10112000482002E00023ADF8283000238DF82A3053
:101130008DF82B308DF82C30189B8DF82DE08DF824
:101140002E008DF82F100DF124092BB104F1280089
:1011500049460C22FFF772FE0C23CDF8149007933A
:101160005FB1189B2BB104F1280039462A46FFF7DE
:1011700065FE08950697022500E00125142E96BF0E
:101180000B4B0C4953F8261032460B4804F070FC08
:101190001623009305AB019307AB029303955846C2
:1011A000214642465346FFF7AFFC0DB0BDE8F08F35
:1011B0008CE820004E072100840921002DE9F04F22
:1011C0008846A3B01E468C6A0746002800F0C580FA
:1011D000436B002B00F0C580D968002900F0C18066
:1011E0004FF0010B002B00F0B9805B69002B00F081
:1011F000B58001250423BBF1000F0CBF4FF0000A9E
:101200004FF0020A9A44002D4FF0FE030CBF4FF03E
:1012100000094FF01C098DF82030202E4FF0FD03FF
:101220008DF8213004D952480CF08FFA51489BE0D8
:101230008EB907A805920CF0F7F9079BD80FD909CA
:101240002070D80DDB0B6070E170A370201D1C2195
:101250000BF02EFA059A0DF1220304F1200154F847
:10126000040B8C4243F8040BF9D100238DF8423073
:101270008DF843603EB1114611A8324611AC0BF017
:10128000A5F8344400E011AC0023AAF1020A23704F
:1012900084F801A00DB9023404E0C023A370AE238A
:1012A000E3700434BBF1000F04D0C0232370A823E3
:1012B000637002340123237000236370B9F1000FBF
:1012C00001D1023409E0A9F102091FFA89F94FEAB4
:1012D0001923A37084F8039004341DB31421E17121
:1012E0000A21617304211323E173172100250122D0
:1012F0006370E17402230B212570A570E3702271E5
:101300006371A57125726372A272E3722573A5736E
:1013100025746374A57425756175A575E3752276CA
:1013200065761A3408AD641B682C04D9124840F65F
:10133000662105F0E7FA16B14046FFF7ADFA003630
:1013400018BF01260095019402963846414608F1DF
:1013500004020123FFF7BCFE06E0834600250223BA
:1013600049E74FF0000B3DE723B0BDE8F08F00BF29
:10137000AC092100D8FDFFFF8F05210070B50023C7
:101380009CB08DF80C308DF80D308DF80F308DF845
:1013900010305B238DF81130174B5E248DF80E4012
:1013A00003F118050DF1120453F8046BAB4244F835
:1013B000046BF9D11D889B782580A37093680DF18B
:1013C0002D0403F1200553F8046BAB4244F8046B81
:1013D000F9D1D3680DF14D0203F1200453F8045BF9
:1013E000A34242F8045BF9D1612300930B2203ABC3
:1013F0000BF0FAF91CB070BD781821002DE9F04708
:101400008146C4B090461AA80C228A4649461C461A
:101410004C9F01F0B9FE1AA808F1020198F80020CB
:1014200001F09EFE94F82E6006F123052F36BE4291
:1014300001D9514D9BE004F10C012A461AA801F094
:101440008FFEA35D1D4405F10D01B942F1D8A27ACA
:10145000637A120242EA0342E37A1AA81A43013A73
:101460002144521B01F07CFE1AA80AA901F0E4FEF7
:101470000F28064608D80DF1170030440021C6F1A8
:1014800010020BF07FF800E010260AA932460DF199
:10149000170000250AF09AFF0095062037490DF144
:1014A0001702334603F064F8102E04D0344840F29B
:1014B000AE6105F027FA2E2F23D9637B227B43EA06
:1014C000022212B26FF481739A421AD194F82E104C
:1014D0002E3F4B1C9F4204F12E0212D3D45C7F1A84
:1014E000D618013F631C9F420BD3002301360093A3
:1014F000062024493246234603F03AF8102C0FD137
:1015000004E00021204804F0B3FA30E030460DF149
:10151000170122460AF026FF054610B91B4824E0B1
:1015200044B100230093062019493246234603F0B4
:101530001FF802E017480CF008F9FE238DF814306C
:10154000FD238DF8153010238DF8163005AB009370
:101550001323019300230293484651464246032336
:10156000FFF7B6FD051E02DA0B480CF0EEF8284630
:1015700044B0BDE8F08700BFD8FDFFFFC3092100DC
:101580008F052100D1092100E50921000F0A210062
:10159000250A2100340A2100450A21002DE9F041E5
:1015A0000E46896AB4B00AAC074690461AA868226B
:1015B00050310AF00BFF20461AA902F0BFFA114B76
:1015C0000C250093092301930294202307AC039375
:1015D000424604940595B06A302106230BF0A3FA25
:1015E0000023009322462B460620074902F0C0FF45
:1015F000009538463146142223460BF0F5F834B0F6
:10160000BDE8F081C0022100650A21002DE9F0410A
:101610000D46896ACAB0144650316822804630A807
:101620000AF0D4FE14AE03A830A90BAF02F086FA7C
:1016300001962021009720680B4603AA1DAC0BF0F1
:1016400030FB3246204639460BF050F8061B4C2E34
:1016500004D9074840F6AB1105F054F9009640460E
:1016600029460F2223460BF0BFF84AB0BDE8F081AF
:101670008F0521002DE9F04FCDB0064692469946E0
:101680009DF85881579D589F0C4611B12C300BF096
:101690006AF82A78AC48142A96BFAC4BAC4953F888
:1016A000221004F0E5F92978142900F2AA87DFE86E
:1016B00011F07C07A7042C001500A807A807A807AD
:1016C000A807A807A807A80796001001DD02FE01D9
:1016D0005B040404A807A807A8077203B8F1080F61
:1016E00040F092870E2F40F2AC873046214605F13C
:1016F0000F02AB7BFFF762FDB0F1000980F2878734
:1017000094480CF022F800F09EBFB8F1080F40F0AA
:101710007B87172FD4F828B040F29B873A4604F114
:1017200028002946FFF78AFB6B7B2A7B43EA0222CB
:1017300012B26FF481739A4205D087480CF005F815
:10174000DFF854923DE005F10E080BF1200305F19E
:101750002E0258F8041B904543F8041BF9D195F864
:101760002EA0A7F12E030AF101094B45C0F07187A5
:1017700008EB090518F809106B78304643EA012197
:10178000ABF8BA1001220BF00EF830B918F80910B6
:101790006A78724804F06CF905E0AB7833B17048B0
:1017A000194604F065F9DFF8F4910AE0A7F1320276
:1017B0002046E91CCAEB0202FEF79AFFB0F10009CD
:1017C00002DA684800F040BFA36AB3F8BA204CF2CE
:1017D000AE039A4240F06881092300F010BFB9F1CE
:1017E000000F02D1B8F1090F04E0B9F1010F03D1E4
:1017F000B8F1020F40F00887204650F8288F3A468B
:101800002946FFF71BFBB8F8BA204CF2AE039A4208
:1018100004D0554840F6D72105F074F86B7B2A7B3D
:101820001B0243EA0243AA7B13435E2B01D04F48BD
:1018300012E02B7CEA7B1B0243EA02436A7C1343DF
:101840005B2B01D04A4807E005F1120049491B22F1
:101850000AF088FD28B148480BF077FFDFF8408197
:1018600028E008F58F7205F12D01134605F14D00B2
:1018700051F8047B814243F8047BF9D108F59F734A
:1018800018466D3551F8047BA94240F8047BF9D124
:10189000716B51B14D6945B1202100913046211D38
:1018A000A847B0F1000808DA01E04FF0FF383348EC
:1018B0000BF04BFF324800F0D3BEB9F1000F02D15C
:1018C0000A2300F09CBEB9F1010F40F0AC8603235F
:1018D00094E3A66A4CF2AE03B6F8BA90994540F08C
:1018E0009D80B8F10A0F40F08F8604F12800294648
:1018F0003A46FFF7A3FAB6F8BA304B4504D01A4877
:1019000040F6133104F0FEFF9A2F01D81D4815E070
:101910002B7B032B01D01C487BE06A7BAB7B43EA2B
:101920000223172B01D0194873E0EB7B412B01D028
:1019300017486EE02B7C042B34D016480BF005FFC3
:10194000DFF85C906CE000BF790A21008CE8200091
:101950004E072100A30A2100BB0A2100D00A210062
:10196000F20A2100190B21008F0521003E0B2100F6
:10197000770B210078182100A10B2100CD0B21004D
:10198000EE0B2100190C2100470C2100630C2100F3
:10199000770C21009B0C2100BAFDFFFFB9FDFFFF72
:1019A000CEFDFFFF05F1110006F1DE0305F1310266
:1019B00050F8041B904243F8041BF9D106F1FE03D2
:1019C00005F1510250F8041B904243F8041BF9D171
:1019D000A7F1450116AA26ABFEF740FEB0F10009BB
:1019E0001EDB2022B318019305F10C03039345235A
:1019F0000493169B00920593269B0292069306F58C
:101A00008F7006F59F7133460BF0BAF9002805DA9E
:101A1000B6480BF09AFEDFF8189301E04FF000098A
:101A2000A66A4CF2A803B6F8BAA09A4536D1B8F126
:101A30000B0F40F0E98504F1280029463A46FFF7EC
:101A4000FDF9B6F8BA30534504D0A94840F66E31D6
:101A500004F058FF0D2F01D8A64809E02A7B6B7BC4
:101A60000E3F43EA0222BA4205F10E0105D0A24818
:101A70000BF06BFEDFF8BC9213E0202A05D99F48DB
:101A80000BF063FEDFF8B0920BE0A6F8BE2006F183
:101A9000C0000AF09BFC4FF0000905E0B9F1000F0F
:101AA00002D0974800F0D0BD0B2300F0A8BDB8F1DC
:101AB0000B0F40F0A985204650F8288F29463A465A
:101AC000FFF7BCF998F8BC30D90718D5736B4BB148
:101AD0001B693BB13046211D16AA9847B0F1000999
:101AE00004DA01E04FF0FF398648A9E0304621468C
:101AF000169AFFF743FCB0F10009C0F28880A56A8E
:101B00004CF2A802B5F8BA30934215D04CF2AE02AE
:101B1000934253D141238DF8983004238DF89930A6
:101B200005F1BE000DF19A010DF1BA02202301F07A
:101B300085FA0DF1DA0747E0736BBBB1D3F80CC03F
:101B4000BCF1000F12D0B5F8BE3005F1C00A009309
:101B50000DF19A072023029301973046211D01229F
:101B60005346E047B0F1000906DA01E04FF0FF39D3
:101B700065480BF0EAFD38E009F10203422B07D972
:101B800005F1BE00002122220AF0FCFC5F4816E0AD
:101B900039464A46A5F8BE9050460AF017FCB5F8FB
:101BA000BE203846130A51468DF898308DF899209A
:101BB0000AF00CFCB5F8BE301F4405E054480BF0A9
:101BC000C4FDDFF8749113E026AD7F1B422F04D9CA
:101BD000474840F6871104F095FE009730462146AD
:101BE00010222B460AF000FE8146B9F1000F01DAFF
:101BF000484825E098F8BC30DA070AD5169A3046EE
:101C000021460432FFF702FDB0F1000901DA424833
:101C100016E0304641462246231DFFF727F9B0F172
:101C2000000920DB01224CAB03F8982D30460092CE
:101C3000214614220AF086FDB0F1000903DA374884
:101C40000BF083FD09E0626A236A30462262636218
:101C50002146334AFFF7A2FC8146B9F1000FA8BF25
:101C6000052380F2CC842F4800F0EEBCB8F10B0FB6
:101C700040F0CA843A4604F128002946FFF7DEF80E
:101C8000A36AB3F8BA204CF2AE039A4204D01848C3
:101C900040F69B3104F036FE102F01D815484EE077
:101CA0002B7B05F10D015A1CBA4203D80C35E818FC
:101CB000002208E01C4842E015F8016F402E02D1D6
:101CC000002A08BF40228542F6D1402A01EB0300DA
:101CD00001D0164850E0CD5C437843EA05256B1CE3
:101CE000BB422BD800220346114633E0BE0C210034
:101CF0008F052100190C2100CE0C2100FE0C2100C3
:101D0000280D2100540D2100B50D2100CF0D21001B
:101D1000EC0D2100010E2100800D2100210E21007B
:101D200063182100390E2100620E2100850E21006A
:101D3000D8FDFFFFCEFDFFFFB0FDFFFFB2480BF067
:101D400004FDDFF8148300F088BC9F78DE78042F50
:101D500004D0023346199E42F7D108E0002AF8D198
:101D6000032EF6D10029F4D13A463146F1E7042A90
:101D700001D1032906D0A5480BF0E7FCDFF8DC828F
:101D800000F06BBCA36A93F8BC2042F0010283F818
:101D9000BC2000F048BCB8F1060F40F03584172F86
:101DA00004D8DFF8B8829A4800F05ABCA36A0DF153
:101DB000980A503319466822504609930AF006FBE8
:101DC000099B0DF1580B1946584601F0B7FEA06A61
:101DD0005146682250300AF0F9FA8E4B94F81CE014
:101DE0000093092301932023CDF808B003934FF00B
:101DF0000C0B894B894ACDF810A0CDF814B0BEF178
:101E0000000F08BF1A4630214346A06A0AF08BFE35
:101E1000002100914046824905EB0B025B4602F02F
:101E2000A7FB0023009352465B4640467D4902F0E3
:101E30009FFB01220023E918087B1AF803100133E5
:101E4000884214BF002202F001020C2BF3D1002AB9
:101E5000A7D0B9F1010F22D104F1280029463A4652
:101E6000FEF7ECFFCDF80090304621461422534691
:101E70008DF898900AF066FCB0F1000801DA6A4823
:101E800088E3626A236A3046226263622146624ABC
:101E9000FFF784FBB0F1000803DA64487AE34FF0FF
:101EA0000008A06A01F09AF80023A36260480BF0D2
:101EB0004CFC0C23637700F00FBCB8F1030F40F02B
:101EC000A383A06A4CF2AE03B0F8BA209A4224D1A0
:101ED0004D2F01D8574834E02B7B412B01D0564879
:101EE0002FE06B7B042B01D054482AE005F10E0152
:101EF00000F1DE0305F12E0251F804EB914243F8A4
:101F000004EBF9D100F1FE0305F14E0251F804EBA8
:101F1000914243F804EBF9D100E02946B0F8BA2029
:101F20004CF2A8039A4240F09F830D2FD2D94B7BED
:101F30000A7B0E3143EA022202F10E03BB4205D0B6
:101F40003F480BF002FCDFF8148188E3202A05DD0E
:101F50003C480BF0FAFBDFF8088180E3A0F8BE20D4
:101F6000C0300AF033FA7FE3B8F1040F40F04C833D
:101F7000A66A4CF2AE03B6F8BA209A4204D03248B0
:101F800040F2497104F0BEFC552F05F10C0005D854
:101F90002E480BF0DAFBDFF8C08026E039460CAAA9
:101FA0000DABFEF75BFB00281EDBA16A68225031F7
:101FB00026A80AF00BFA16A826A901F0BFFD0C9B73
:101FC000202201930D9B06F59F710293009206F566
:101FD0008F7016AB0AF0ADFE011E08DA1C4803F044
:101FE00047FDDFF8788000E080461A4838E304F1C6
:101FF000280029463A46FEF721FF0523637712E3BE
:1020000084B3B8F10C0F2FE0BB0E2100ED0E2100C0
:102010001E0F2100C0022100AB0221006318210025
:10202000180F21001B0F2100210E21003F0F21005E
:102030005E0F2100710F2100770C21009B0C210005
:10204000960F2100B60F21008F052100190C2100E9
:10205000DB0F2100F40F2100CEFDFFFFD8FDFFFFB5
:10206000B0FDFFFFB8F1010F40F0CE82009730467F
:10207000214652462B46FFF7C1F9B0F1000901DABB
:10208000B948E1E203D0B9480BF05FFBBFE29CB96D
:10209000504602F0FDF9044618B9B5480BF055FB5F
:1020A00013E0016A0123037701220023C1E902231F
:1020B000214670690BF011FCD4F82880B8F1000FAC
:1020C0001BD100F06DFFA06210B9DFF8C08203E3FE
:1020D00000F140034364A36AC3F84080A36A586CCC
:1020E0000BF0D5FB29796A79A36A42EA0122A3F8A9
:1020F0004A20A36A0122A3F848202046FEF7CCFB21
:10210000D4F82880D4F820A0B8F1000F04D1994861
:1021100040F2DF3104F0F6FB2E2F04D895484FF43F
:10212000787104F0EFFB05F10E03424605F12E0134
:1021300053F8040B8B4242F8040BF9D195F82E109A
:10214000A7F12E004A1C904270D3401A99189B5C4C
:1021500001385A1C904269D3C31A013B0B938B1868
:1021600011F802C05A780B9942EA0C2C0CF10202C9
:10217000914209D2BAF1000F58D0BAF80230002BC0
:1021800054D0A8F8BA302CE0E346023300221846B7
:10219000BBF1000F06D1E2B9A8F8BA2076480BF0DF
:1021A000D4FA43E00233A2B913F8020C13F8011C6D
:1021B000ABF1020B41EA0021A8F8BA1030460993AE
:1021C000CDF828C00AF0EFFADDF828C00246099BD6
:1021D000DDE70B9B9A1EB2EB0C0C0AD1BAF1000F93
:1021E00004D09AF8003088F8B8302AE088F8B8A00F
:1021F00027E010F80B2000EB0B01531C9C4515D376
:1022000001318818002381428E460DD0002B00F04A
:102210000D82C2EB0C022046013A0123FEF768FA58
:10222000B0F100080DDA0AE0002BF2D194F81D801D
:10223000524B534AB8F10C0F0CBF90469846514888
:10224000A8E129463A4604F12800FEF7F7FDA76AFF
:102250004CF2AE03B7F8BA8016ADB8EB0303D3F176
:10226000000858EB0308FE23B8F1000F8DF89830F2
:1022700028464FF0FD030CBF4FF0000A4FF0120A42
:102280008DF899300BF0D0F9169B07F12400D90F87
:10229000DA0987F82010D90DDB0B87F8211087F8B1
:1022A000223087F823201C210AF002FA07F12003CC
:1022B0000DF19A0203F1200153F8040B8B4242F80E
:1022C000040BF9D100228DF8BA20B7F8BA304BB11F
:1022D000190A8DF8BD208DF8BB108DF8BC300DF1BA
:1022E000BE0201E00DF1BB02BAF1000F09D0AAF164
:1022F000020A1FFA8AFA4FEA1A23137082F801A021
:102300000232B8F1000F16D0132114270023022047
:102310005170977101210B2713709370D170107158
:102320005371D371117250729372D77213735073C9
:102330009173D373103226AFC7EB0208B8F1400F88
:1023400004D90C4840F2CC7104F0DCFACDF80080DE
:102350003046214602223B460AF046FAB0F1000818
:1023600016DA094816E100BF2610210049102100A5
:10237000661021008F05210079102100D8FDFFFF94
:102380009CFEFFFF92102100B5102100B0FDFFFF61
:10239000A36AB3F8BA204CF2AE039A4240F094809C
:1023A000736B4BB11B693BB13046211D0CAA98479A
:1023B000B0F1000804DA01E04FF0FF38B548E9E079
:1023C000304621460C9AFEF7D9FFB0F1000801DA39
:1023D000B148DFE00323D4F828808DF8983000233B
:1023E0008DF8993017238DF89A3041238DF89B3062
:1023F000042308F1BE008DF89C300DF19D010DF114
:10240000BD022023DDF830B000F018FE08F12003F3
:10241000202100930DF1340A452301910393029783
:10242000CDF810A0059542460B46DBF804000AF0F3
:1024300058FC0DF1DD0051462A460AF057F9C7EB6A
:102440000008B8F1910F04D9944840F66C0104F0EB
:1024500059FACDF80080304621460C223B460AF05E
:10246000C3F9B0F1000801DA8D4893E0A36AB3F82C
:10247000BA204CF2AE039A4226D130460AF00CF94B
:1024800010B301238DF89830022240238DF8993043
:102490008DF89B20002304228DF89A308DF89C2023
:1024A0008DF89E3003228DF89F3008238DF89D20F3
:1024B0000093304621460D223B460AF095F9B0F1D3
:1024C000000801DA774865E0A36AB3F8BA204CF255
:1024D000A8039A424BD1736BA3B1D3F80CC0BCF1E3
:1024E000000F0FD04FF0000A20230293CDF800A078
:1024F00001953046211D52465346E047B0F1000891
:1025000004DA01E04FF0FF38674843E02FD0B8F11C
:10251000200F0AD9614840F67D0104F0F3F96348C1
:102520000BF013F9DFF8A4811FE0294642460DF1B4
:102530009A008DF899808DF898A009F047FF0DF169
:102540009A018844C7EB0805222D04D9534840F668
:102550008B0104F0D7F90095304621460C223B460A
:102560000AF042F9B0F1000801DA514812E0002304
:102570000093304621460E220AF036F9B0F10008E9
:1025800007DBA36AB3F8BA204CF2AE039A420AD131
:1025900003E048480BF0D9F89EE030460AF07CF89A
:1025A00008B102232BE0032329E0B8F10C0F37D147
:1025B000B4B1A56AA5B900F0F3FCA06200283FF40D
:1025C00084AD00F140034364A36A1D64A36A586CA0
:1025D0000BF05DF9A36AA3F84A50A36AA3F8485028
:1025E0000022134630462146FEF7E8FDB0F100090F
:1025F000A8BF082303DA30480BF0A7F827E0637779
:1026000006E02E4803F034FADFF8C48064E0F4B149
:10261000A36AE3B1B3F84A200132A3F84A2016E0D6
:102620004FF0000858E04FF00009F1E79EF800E095
:102630000131BEF1000F7FF4E6AD88F8B830012318
:10264000E1E5DFF890901E48494603F011FAC846CC
:1026500042E0DFF88090FFF7B4B81A4800E01A486B
:10266000414603F005FA37E03A4604F128002946CE
:10267000FEF7E4FBA36AB3F8BA204CF2AE039A4229
:102680007FF4BBAC30460AF007F800283FF4B5AC45
:102690000423B3E4540D2100800D21008F05210097
:1026A000EA10210027112100641121009711210057
:1026B000B5112100FA112100A30A210033122100D3
:1026C000491221007D122100A9122100B0FDFFFF57
:1026D000F6FDFFFFCEFDFFFF40464DB0BDE8F08F99
:1026E00070B54B7F05460D3B012B0C46164602D9B3
:1026F00004310AF0DCF846B1686921460BF0D9F8DC
:1027000006200449221D01F019FF2046BDE8704053
:1027100001F0AABED412210030B585B005460AF0FA
:102720007CF8044610B94FF0FF3028E0437F0C2BB3
:10273000F9D100F035FCA0620028F4D00023A0F805
:102740004A30A26AA2F84830227F72B92846214650
:102750001346FEF733FD051E03DA0A480AF0F5FFBB
:1027600001E008236377284609E0012ADBD10093C2
:102770000193029328462146221DFEF7A9FC05B0CD
:1027800030BD00BFA30A21002DE9F04F91B00646ED
:102790008946174607930AF040F8044640B9AD4809
:1027A0000AF0D3FF0620AC494A4601F0C7FE16E006
:1027B000AA480AF0CAFF12E0B8F1000F00F0038344
:1027C0002B78012B40F0FF82237F012B00F0258125
:1027D00006236377069B07991F44C91A0791079A36
:1027E0000C2A0FD97B78FE2B0CD1BB78FD2B09D19D
:1027F000FA7A3B7B43EA0223079A03F10D019142E7
:10280000069101D90025EDE2BB461BF80D1B94484B
:10281000069A059303F02CF9059B002C00F0C98063
:10282000F9783A79D4F820A042EA0121BAF1000FF0
:1028300003D0BAF804208A420AD0D4F824A0BAF10E
:10284000000F05D0BAF804208A4218BF4FF0000AE2
:102850005D469846BAF1000F03D1824803F008F9AB
:102860008DE0BAF80220002A00F09E800F2B40F382
:102870008680002110220CA8059309F083FE227F98
:10288000DBF80410012A0CBF0AF130020AF134020D
:102890001068059B0C90DBF800000DAA4FF0000BB0
:1028A00003C2A3F108080CAA06206F491023CDF833
:1028B00000B001F05DFE237F07F11505012B0CBF71
:1028C0000AF110020AF12002062068491023CDF80F
:1028D00000B001F04DFE4346062065492A46CDF87A
:1028E00000B001F045FE3A4652F8030F0DF1200EFC
:1028F0005168734603C3BB783A888DF82A30A8F133
:1029000008039BB2ADF828208DF82C301A0A237FDB
:102910008DF82B20012B0CBF0AF110030AF12003C4
:102920000093102301930D2303934146CDF808E053
:1029300028462A460CAB00F0E1FBB0F1000803DAB0
:102940004C480AF002FF17E04B48414603F090F86C
:10295000236A606A43B138B19A8883889A4203D364
:1029600000F064FB002363620023009306204349C8
:102970002A46434601F0FCFDB8F1000F14DA404846
:102980000AF0E3FE637F0B2B00F21B822146221D1F
:1029900030463C4B09F053FF0E2363773046214607
:1029A0000122FFF79DFE0CE294F81CA094F81DB0E4
:1029B00004E05D464FF0010B9846DA464FF0010CFB
:1029C000CDF800C0062030493A460D23CDF814C09A
:1029D00001F0CEFDDDF814C02C494346CDF800C00F
:1029E00006202A4601F0C4FD3978A1F11403032B17
:1029F00000F2E381DFE813F004001B00AC00940157
:102A000024B106F12C00214609F0ADFE637FA16AD6
:102A1000052B3FF4D1AE1E4819E030462246231D57
:102A2000FEF724FA0028BFF6D3AE0546CCE124B168
:102A300006F12C00214609F096FEB8F1010F7DD970
:102A4000144829786A7803F013F83CBB12480AF05E
:102A50007CFEBFE6E1122100051321000F132100C7
:102A60000C1721002F132100521321004C192100B3
:102A7000581321006313210075132100A1132100B5
:102A8000AB132100CDFDFFFFC3132100D2132100A2
:102A9000E613210011142100351421002B786978E8
:102AA000022B00D0B1B9A34802F0E2FF21467069C1
:102AB0000AF0FFFEA04802F0DBFFA01D06F0D0F9EF
:102AC000E08A0BF029F801469C4802F0D1FF4FF054
:102AD000010801E04FF00008736B4BB1D3F808C058
:102AE000BCF1000F04D03046211D2A786B78E047F6
:102AF0006B789BB9627F0D2A0ED00D22627702227D
:102B00008DF830208DF83130009230462146152264
:102B10000CAB09F017FE01E00E236377B8F1000F4C
:102B20003FF458AE06F12C00214609F01CFE304659
:102B300021460022FFF7D4FD012500E0804D8148A9
:102B40000AF003FEB5F1FF3FA8BF4FF0FF3549E1A2
:102B50009CB1236AFA7899883B79BAF1010F43EA6C
:102B6000022204D1BBF1060F04BF013189B29142A8
:102B700003D0754802F07CFF2CE6B8F10B0F04D8A7
:102B800072480AF0E2FD6E4DA5E02A787048142ADA
:102B900096BF704B704953F8221002F069FF0CB1D8
:102BA000A36ADBB92B78012B07D024B96B480AF054
:102BB000CCFD6B4D8FE0012B0ED80195CDF800B008
:102BC000CDF80880304621464A465346FEF752FD6E
:102BD000051E80F28A807EE0624840E029796A79A9
:102BE00042EA0122B3F84A108A4203D25E4802F058
:102BF0003FFF7DE036D9B8F1C80F01D95B482EE020
:102C0000586C0AF072FA70B1027F437F297943EA67
:102C100002236A7942EA01229A4201D154481EE015
:102C20000AF067FAEFE7404601F0B4F8824608B9C7
:102C3000504814E0C460C0F8148029461830424659
:102C400009F0C4FBA36A5146586C01F077F828B923
:102C500049480AF07AFD504601F0B0F847480AF0BA
:102C600074FD45E02DD1CDF800B00195CDF8088078
:102C7000304621464A465346FEF7FCFCB0F10008B8
:102C800028DBA36A1BB3586C0AF02FFA0546F0B193
:102C9000A36A287F6A7FB3F84A1042EA0022914271
:102CA0000BD1586C29460AF028FA637F009305F18E
:102CB000180301936B690293DAE728460AF019FAC0
:102CC000E4E72F484FF46E6103F01CFE10E0B8F10A
:102CD000000F0DDA45462B480AF037FD30462146F5
:102CE0004A462B4609F0ABFD7CE0002C3FF472AD68
:102CF000637F0C2B7FF46EAD06F12C00214609F0AA
:102D000032FD736B002B3FF465AD9D68002D3FF4E1
:102D100061AD3046211D00224FF4EF73A84759E5FD
:102D200019480AF012FD9CBB18480AF00EFD4FF03E
:102D3000FF3557E08114210095142100A4142100CF
:102D4000CEFDFFFFAA142100D4142100F7142100A6
:102D5000131521008CE820004E0721003F152100AB
:102D6000D8FDFFFF6F15210093152100D315210019
:102D7000FE152100331621004D162100701621008A
:102D80008F0521008C162100B2162100C7162100E4
:102D900006F12C00214609F0E6FC736B002B3FF492
:102DA00019ADD3F804C0BCF1000F3FF413AD3046A9
:102DB000211D2A464346E0470CE50C4802F058FE28
:102DC00008E50B4D0EE00B4D0B480AF0BEFC21460A
:102DD0004A4630462B4609F032FD30462146012254
:102DE000FFF77EFC284611B0BDE8F08FE816210001
:102DF000CDFDFFFFCEFDFFFF26172100F7B51D4CCF
:102E0000054601A80AF010FC4FF48072002120460C
:102E100009F0B8FB184E04F128002563E062174D55
:102E20000AF035FD002304F11000236160610AF00F
:102E30002EFD3046214603F04BFC2F6804F11800AC
:102E40004FF6FF712E600AF0E5FC20460C212F6042
:102E500009F02EFC054618B1019B2046E36006E010
:102E600007480AF072FC204609F03CFD284603B0F2
:102E7000F0BD00BFC006002068000020DC0D00206F
:102E80005417210070B506460C4691B9204841F20E
:102E90008D0103F037FD09E0002525777069214693
:102EA0000AF01BFD00F07CF8A06288B94FF0FF30FB
:102EB00070BD0D1D294609F0B0FC8442ECD11548C7
:102EC0000AF043FC30462946BDE87040FFF724BCB9
:102ED000A0F84A50A36AA3F84850A36A03F140023D
:102EE0005A64A36A1D64A36A586C0AF0D0FC2A468F
:102EF0002B4630462146FEF761F9051E03DA0648E7
:102F00000AF023FC01E008236377284670BD00BF68
:102F10008F0521006F172100A30A2100F8B506468E
:102F20000C4609F07AFC054650B9204601F0B0FA8B
:102F3000054628B912480AF008FC4FF0FF30F8BDEA
:102F400030462946FFF79EFF041E09DD736B93B1DF
:102F50009F6887B13046291D00224FF4EE7309E0C7
:102F600009D1706B50B187683FB13046291D2246A8
:102F700040F2DF13B8472046F8BD3846F8BD00BF21
:102F80008D17210008B504480AF0D1FCBDE80840BF
:102F900002480AF0CCBC00BF84000020780000206A
:102FA00010B50B480AF0D3FC044618B909480AF0DA
:102FB000CCFB0BE000214FF4B07209F0E3FA0648B5
:102FC0000AF0C3FB04F1500000F062FC204610BD83
:102FD0008400002093182100B718210010B5044682
:102FE00040B1406C00F0F2FE21460348BDE81040BD
:102FF0000AF0C1BC10BD00BF8400002010B5094814
:103000000AF0A5FC044618B907480AF09EFB06E042
:103010000021382209F0B6FA00236380237020468D
:1030200010BD00BF78000020D7182100014610B164
:1030300001480AF0A0BC7047780000202DE9F0415B
:1030400080469AB00F4616461C4602A8214609F053
:1030500092FC02A801F0ECF90028F6D012AD0AAB00
:1030600002AA00950A480B490AF071FA02A8214603
:10307000424609F09EFC0AA821463A4609F099FC0E
:1030800028462146324609F094FC1AB0BDE8F0818A
:10309000D0FE2000F0FE20002DE9F0471446099AEA
:1030A00006460D4613480899D2001F46DDF82890C1
:1030B000DDF82C8009F08EFEB0F1000A14DBA64288
:1030C00004D0204631462A4609F0F6F908940995BD
:1030D000CDF82890CDF82C803B46064808210322E5
:1030E000BDE8F04709F0CABE03480AF02EFB50467F
:1030F000BDE8F087C0070020381921002DE9F0470E
:103100001446099A06460D4613480899D2001F46F0
:10311000DDF82890DDF82C8009F05CFEB0F1000AA3
:1031200014DBA64204D0204631462A4609F0C4F9F1
:1031300008940995CDF82890CDF82C803B46064898
:1031400008210322BDE8F04709F02EBF03480AF02A
:10315000FCFA5046BDE8F087C0070020381921006E
:1031600070B50D461646044618B906484E2103F0C0
:10317000C9FB04F1400029463246BDE8704000F02A
:103180007FBC00BF50192100F8B50F461546044614
:1031900018B91C48612103F0B5FB20460021A82284
:1031A00009F0F0F9402D0ED904F14006304600F048
:1031B0006FFB304639462A4600F062FC2046314615
:1031C00000F0BCFC04E0204639462A4609F0FEF82F
:1031D0000025635D83F0360363550135402DF8D13A
:1031E00004F1400000F054FB204621462A46FFF738
:1031F000B7FF0023E25C82F06A02E2540133402B05
:10320000F8D1F8BD5019210070B5064605480D46A5
:103210000AF09DFB044618B131462A46FFF7B4FF79
:10322000204670BD90000020014610B101480AF010
:10323000A2BB70479000002070B50E4688B00546CE
:1032400018B91148832103F05DFB1EB90E48842193
:1032500003F058FB05F140042146684600F06EFC7F
:10326000204600F015FB20462946402200F008FCCD
:1032700020466946202200F003FC3046214600F03B
:103280005DFC202008B070BD50192100F0B54B78CE
:103290000C781B0443EA0463CC78802A83EA040395
:1032A0008C7843EA042303604B790C794FEA03439B
:1032B00043EA0463CC7983EA04038C7943EA042368
:1032C00043604B7A0C7A4FEA034343EA0463CC7AB7
:1032D00083EA04038C7A43EA042383604B7B0C7BF0
:1032E0004FEA034343EA0463CC7B83EA04038C7B09
:1032F00043EA0423C36035D100228449C36855588A
:103300000168DCB24D408249043251F82440282A39
:1033100004F47F4485EA04054FEA136411F824405D
:1033200085EA0405C3F3074451F8244004F07F44C0
:1033300085EA0405C3F3072451F8244004F47F040C
:1033400085EA04014468016181EA040184684161FD
:1033500081EA040181EA03038161C36100F0CD8049
:103360001030CAE74B7C0C7C1B0443EA0463CC7C22
:10337000C02A83EA04038C7C43EA042303614B7D67
:103380000C7D4FEA034343EA0463CC7D83EA0403E4
:103390008C7D43EA042343613AD100225B494369AF
:1033A00055580168DCB24D405949043251F8244067
:1033B000202A04F47F4485EA04054FEA136411F8D7
:1033C000244085EA0405C3F3074451F8244004F07F
:1033D0007F4485EA0405C3F3072451F8244004F42C
:1033E0007F0485EA04014468816181EA04018468FC
:1033F000C16181EA0401C468016281EA0401416299
:103400007DD00469183061404B4001614361C5E7DC
:103410004B7E0C7E1B0443EA0463CC7EB2F5807FB6
:1034200083EA04038C7E43EA042383614B7F0C7F91
:103430004FEA034343EA0463CC7F897F83EA0403B2
:1034400043EA0123C3615CD10024304BC269E558D3
:103450000368D1B25D402E4B043453F821101C2C6C
:1034600001F47F4185EA01014FEA126513F8255006
:1034700081EA0501C2F3074553F8255005F07F4561
:1034800081EA0501C2F3072553F8255005F47F05AD
:1034900081EA05014568016281EA050185684162AA
:1034A00081EA0501C568816281EA0501C1622AD00D
:1034B0000D0E53F82560CDB213F8257006F07F4647
:1034C00005697E407540C1F3074653F82660C1F395
:1034D000072153F8211006F47F0601F47F4175405F
:1034E00085EA0103416903634B40816943634B40B3
:1034F0005A408363C2632030A7E70A20F0BD0C2046
:10350000F0BD0020F0BD0E20F0BD00BFE0E82000BF
:1035100008F920002DE9F04FD578046897786C40C1
:10352000157892F807A084EA0564557887B084EA94
:10353000054484EA0727446803978AEA040492F85A
:1035400004A0977984EA0A6492F805A092F80F80A3
:1035500084EA0A4A8AEA072A8468D77A49107C40B2
:10356000177A059184EA0764577A049184EA074739
:10357000947A87EA0427C46888EA040492F80C80E5
:1035800084EA086492F80D80927B84EA084888EA0D
:1035900002280246039DDFF8F4C2B84E2C0E5FFAF3
:1035A00088F156F821105CF82440B54D4C40116963
:1035B000DDF80CB06140CAF3074455F82440B14D22
:1035C0006140C7F3072455F82440203281EA0409FA
:1035D0004FEA1A645FFA8BF156F821105CF8244028
:1035E0004C4052F80C1C84EA010BA549C7F3074470
:1035F00051F824408BEA0401C8F3072455F824400D
:103600004FEA176B61405FFA8AF456F824405CF881
:103610002BB0FFB28BEA040B52F8084C56F8277017
:103620008BEA04040194C8F30744A3464FEA1868E0
:10363000934C5CF8288054F82B40DDF804B088EAFD
:10364000070852F8047C8BEA0404DDF80CB00294FD
:1036500088EA0707CBF30724DDF808B00297039F39
:1036600055F82440C7F30748854FCAF3072A57F88F
:1036700028808BEA0404DDF808B055F82A708BEA3C
:10368000080888EA0708049F5FFA88FA013F049750
:103690004FEA196766D05CF8277056F82AA0C1F384
:1036A000074B87EA0A0A17688AEA070A744F57F82D
:1036B0002BB0C4F3072755F827708AEA0B0A8AEA69
:1036C000070703974FEA116A5FFA89F756F82770E0
:1036D0005CF82AA0C4F3074B8AEA070A57688AEA0B
:1036E000070A674F57F82BB0C8F3072755F827701C
:1036F0008AEA0B0A8AEA070A4FEA146BCFB256F835
:1037000027705CF82BB0E4B28BEA070B976856F889
:1037100024408BEA0707C8F3074B4FEA18685CF8A8
:1037200028C00197564F8CEA040CD46857F82B70C8
:10373000534EDDF804B08CEA040CC9F307448BEA5D
:10374000070B56F82440C9F30727C1F3072155F8A2
:10375000277055F821108CEA04088BEA070788EADD
:10376000010817E7484ADDF814B052F8277012F83C
:103770002AC04FEA4B16851907F07F47865987EA1A
:103780000C0787EA0600C1F3074652F8266006F4E4
:103790007F067040C4F3072652F8266006F47F4681
:1037A0007040060E1E70060C5E70D870060A080E79
:1037B0009E7052F820605FFA89F012F8207006F0CF
:1037C0007F4668687E407040C4F3074652F8266022
:1037D00006F47F067040C8F3072652F8266006F408
:1037E0007F467040060E1E71060C5E71D871060A87
:1037F000200E9E7152F82060C8B212F8207006F0B8
:103800007F46A8687E407040C8F3074652F826609D
:103810004FEA186806F47F067040C9F3072652F88D
:103820002660E4B206F47F467040060E1E72060C57
:103830005E72D872060A52F8280012F824409E726E
:1038400000F07F406040EC68C1F307216040C9F39D
:10385000074452F8244052F8211004F47F046040D9
:1038600001F47F4180EA0102110E1973110C5973A2
:10387000110A9973DA7307B0BDE8F08F08F52000DC
:1038800008ED200008F1200008F9200008E92000D8
:1038900070B50446B0B10C4D024605F120062B462A
:1038A00003CBB342106051601D4602F10802F6D10D
:1038B000402204F12800002108F064FE00220023C9
:1038C000C4E9082370BD00BF08FD20002DE9F04FBA
:1038D00090E82400836889B0C468866903934769C7
:1038E0000369D0F81C9000F1280C059404964FF061
:1038F0000008DFF888A151F8084058F80AA04FEAFC
:10390000B31B26BA8BEAF32B049C4CF808608BEAB5
:10391000736B564406EB0B0A24EA030607EA030B13
:10392000039C86EA0B065644B14484EA050604EA81
:10393000050A164086EA0A064FEAB20A8AEA723A8D
:103940008AEAB25A059C08F104085644B8F1400FBF
:103950004C444E440AD0DDF8109004971F4623468D
:10396000039C0395059415463246C2E74FF0100BB1
:103970000BF1010909F00F08CDF804905CF82890CC
:103980004FEAF91888EAB948CDF814800BF10E080F
:1039900008F00F085CF828804FEA784A8AEAF84A6B
:1039A000CDF818A0DFF8D4A05AF82B100BF00F0AAE
:1039B0000BF1090B07910BF00F015CF821108B46FE
:1039C0005CF82A108B44059981EAD9095946494483
:1039D000DDF8189089EA982801EB080B4FEAB41833
:1039E0004CF82AB088EAF42827EA040A03EA040912
:1039F00088EA74688AEA09090799C1448944D94464
:103A0000DDF810B085EA0208CB4408EA060805EAAA
:103A1000020988EA09084FEAB60989EA7639019964
:103A200089EAB659DDF80CA0C8444029DA44D844E4
:103A300009D0049703951F461546234632468B4608
:103A40005446464694E701684144016041680E448B
:103A5000816846600A448260C26815440269C56094
:103A6000524402614269144482694461134483618F
:103A7000C3691F44C76109B0BDE8F08F28FD20006D
:103A80002DE9F843064688461746002A51D000B172
:103A900021B9294840F2332102F034FF326A736AB7
:103AA000D40844EA437414F03F0419D0C4F140052B
:103AB00004F12800AF42304441462FD32A4608F093
:103AC00085FCD6E90801EB00C01841F10001C6E908
:103AD0000801304606F128017F1BA844FFF7F6FED7
:103AE000B94608EB0701B9F13F0FC9EB01010DD948
:103AF0003046FFF7EBFED6E9084514F5007445F1B2
:103B00000005C6E90845A9F14009EAE727F03F01A9
:103B100017F03F0741440CD006F128003A46FF0059
:103B200008F054FCD6E90845E41945F10005C6E95A
:103B30000845BDE8F88300BF881921002DE9F84346
:103B40008046894621B92E4840F25F2102F0DAFE14
:103B5000B8F1000F06D1484600216822BDE8F843BD
:103B600008F010BDD9E90845E20842EA457227BAD3
:103B70002EBA12F03F02C9E9086709F1280422D0E1
:103B8000531C09EB02018020382B81F8280006D84D
:103B900002F1290048440021C2F1370210E0402B15
:103BA00007D002F1290048440021C2F13F0208F089
:103BB000E9FC48462146FFF789FE204600213822CD
:103BC00008F0E0FC07E011462046382208F0DAFC55
:103BD000802389F82830D9E908234846C9E9182301
:103BE0002146FFF773FE002359F8032012BA49F863
:103BF000032048F803200433202BF5D1ABE700BFA6
:103C0000881921002DE9F84F0B9F0E468346C1F11C
:103C1000100015460021384432469946DDF828A0A8
:103C2000DDF83080012408F0ADFCF3009C400D4924
:103C3000013C2C400C600F2564B90C605846394695
:103C4000424609F0D3F8484641465246BDE8F84F8F
:103C500009F0D7B8B542F0D97B5D23437B55240AE0
:103C6000013DE9E7740800202DE9F047089D16465C
:103C70001C462A4689461946804609F0B7F8204670
:103C80000021102208F07EFC002E4DD0B6F57F4FAB
:103C900003D32648752102F035FEC6F307230E2E06
:103CA00034BF37460E27237049463A466670A01C3B
:103CB00008F08CFB20462946102209F0A2F8404665
:103CC00021462A4609F092F8F61BB944374609EB1B
:103CD000060A102FC7EB0A0A0FD900231AF803109F
:103CE000EA5C4A40E2540133102BF7D140462146AA
:103CF0002A46103F09F07AF8E9E7AFB120460021E3
:103D0000102208F03FFC51463A46204608F05EFB80
:103D100020462946102209F074F8404621462A46DA
:103D2000BDE8F04709F062B8BDE8F087D619210078
:103D3000014809F0FCBD00BF9C00002070B50D4695
:103D4000064618B91248402102F0DCFD1DB91048A2
:103D5000412102F0D7FD304609F09CFD044680B1B8
:103D600042686B689A4206D809F0DEFD18B1204619
:103D700009F0DAFDF2E7304621462A4609F0CCFD8B
:103D800003E03046294609F0B7FD012070BD00BFB1
:103D9000111A210010B5074809F0D9FD044618B9D9
:103DA000054809F0D2FC03E00021E02208F0EAFB1C
:103DB000204610BD9C000020491A2100014610B188
:103DC000014809F0D8BD70479C00002010B504469A
:103DD00000B910BD204609F066FD014618B1024841
:103DE00009F0C9FDF6E710BD9C00002070B5082A57
:103DF0009EB005460C4616460FD1204909F0DAF967
:103E000000280ADCA54236D005F1200355F8042B22
:103E10009D4244F8042BF9D12DE00723314600934D
:103E2000284603AA092309F0ACF9092603A90CAA1C
:103E30000923134809F00AFA0CA8122103AA08233F
:103E4000009609F09EF90D490CAA082303A809F071
:103E5000FDF928460CA92246334609F074F920469C
:103E60000649092209F0A6F9002804DB2046034987
:103E700022460923F1E71EB070BD00BF6CFE200092
:103E800028FE200030B5082389B0154609F03AF91C
:103E9000A8B16846082109F0D5F928466A460949BB
:103EA000082309F02FF96C462A4608AD234603CBB8
:103EB000AB42106051601C4602F10802F6D10020AE
:103EC00009B030BD90FE2000F0B591B00C4606461A
:103ED0000821684608AF09F0B5F90821384609F00D
:103EE000B1F92346324604F1200153F8040B8B420A
:103EF00042F8040BF9D10023009301930293E218D6
:103F000000A91944D26A0433142BCA60F7D1694658
:103F10003A463046FFF7B6FF694632463846FFF765
:103F2000B1FF236B00250393636B69460493A36B76
:103F30003A460593E36B304606930095019502954A
:103F40000795FFF79FFF694632463846FFF79AFF0D
:103F5000236A69460093636A3A460193A36A30462E
:103F60000293A36B03950693E36B04950793059562
:103F7000FFF788FF636AA26B0093A36A0492019320
:103F8000E36AE26B0293636B059203930693236AE1
:103F90006946324638460793FFF774FFE36A69467D
:103FA0000093236B324A0193636B30460293236A7A
:103FB00003950693A36A049507933B46059509F07C
:103FC000D7F9236B69460093636B294A0193A36B6E
:103FD00038460293E36B04950393636A0595069351
:103FE000E36A0793334609F0C3F9636B69460093AC
:103FF000A36B1F4A0193E36B30460293236A069535
:104000000393636A0493A36A0593236B07933B4668
:1040100009F0AEF9A36B69460093E36B144A019370
:10402000636A38460393A36A02950493E36A06958C
:104030000593636B0793334609F09AF930460C49B0
:10404000082209F0B7F8A8420FDB094930460A46B2
:104050006B4609F08DF96A46134603CBBB423060CC
:1040600071601A4606F10806F6D111B0F0BD00BF26
:104070004CFE2000F0B5A9B004460D4616461F467A
:1040800009F0C2F8A0B1284609F0BEF880B104F1E9
:10409000200354F8042B9C4246F8042BF9D105F177
:1040A000200355F8042B9D4247F8042BF9D162E018
:1040B00018AA08232146204609F0C8F8684618A91E
:1040C000FFF702FF08A8082109F0BCF801230893B4
:1040D00008A92A4A10AB684609F04AF9032318AA2E
:1040E000089308A9082310A809F0B0F8684618A991
:1040F000FFF7EAFE294608AA2846FFF7C3FE08A8EC
:104100001E491F4A10AB09F055F918AA082310A937
:10411000684609F09BF808A818A9FFF7D5FE08A87B
:1041200018AA0823014609F091F810A818A9FFF76A
:10413000CBFE2146114A6B4610A809F019F9214619
:104140000E4A3346684609F013F931460B4A6B466E
:10415000204609F00DF918AA0823694608A809F0B5
:1041600075F810A818A9FFF7AFFE10A82946034A52
:104170003B4609F0FDF829B0F0BD00BF4CFE200021
:1041800090FE20002DE9F043A9B0804689461546EF
:104190001F46309C319E09F037F8A0B1484609F01F
:1041A00033F880B105F1200355F8042B9D4244F803
:1041B000042BF9D107F1200357F8042B9F4246F84E
:1041C000042BF9D17EE0284609F01EF8B0B138463C
:1041D00009F01AF890B1434608F1200253F8041B85
:1041E000934244F8041BF9D14B4609F1200253F8DD
:1041F000041B934246F8041BF9D163E0404629466C
:10420000202208F0AFF8A8B948463946202208F025
:10421000A9F840B12046082109F014F830460821D9
:1042200009F010F84EE04046494622463346FFF773
:1042300021FF47E03946254A6B46484609F098F881
:104240002946224A08AB404609F092F808A80346DE
:104250001E491F4A09F0AEF818AA082308A96846A3
:1042600008F0F4FF10A818A9FFF72EFE10A818AA4E
:104270000823014608F0EAFF684618A9FFF724FE64
:104280004146124A08AB684609F072F829460F4ABF
:10429000234608A809F06CF821460C4A08AB2846CA
:1042A00009F066F818AA082308A910A808F0CEFF9C
:1042B00010A818A9FFF708FE10A83946034A33468C
:1042C00009F056F829B0BDE8F08300BF4CFE20008D
:1042D00090FE20002DE9F0438146A5B010468846A7
:1042E00016461D462C9F08F08FFF10B14FF0FF308F
:1042F00040E014AC2148224932462B46009409F094
:1043000026F9284629460822FFF770FD284608F0BE
:104310007BFF0028EAD1082349462246284608F0B8
:1043200095FF204602A91022FFF760FD082302A98D
:104330002246404608F0E6FE0BA91C9009222046C2
:10434000FFF754FD30460F490F4A02AB09F032F82F
:1043500008230BA9224602A808F078FF2046394618
:104360001022FFF743FD384608F04EFF003018BF1B
:104370000120404225B0BDE8F08300BFD0FE200000
:10438000F0FE20006CFE2000B0FE20002DE9F04180
:10439000DCB01C4680460D461646629802AB2049AA
:1043A000204A09F007F802A94CAA0823304608F071
:1043B0004DFF4CA83AA91022FFF718FD02A94CAAFC
:1043C0000823204608F042FF12AF4CA843A9102250
:1043D000FFF70CFD22AE3AAA0AAB00971248134928
:1043E00009F0B5F84046294643AA1AAB009609F0F1
:1043F000AEF82AAD32AB01930AA839461AAA334661
:104400000095FFF7BFFE28462146202207F0AAFFAD
:10441000003018BF012040425CB0BDE8F08100BF11
:104420006CFE2000B0FE2000D0FE2000F0FE200038
:1044300008B501460822034808F0BCFE431E584256
:10444000584108BD6CFE200008B500F055FB00F097
:104450007DFB014B186008BD3C2A0020014809F093
:1044600066BA00BFA800002010B50446806AFEF7B7
:10447000B5FD206AFEF7DAFD606AFEF7D7FD21463A
:104480000248BDE8104009F076BA00BFA80000203D
:1044900070B50546114809F05AFA0446E0B100210A
:1044A0002C2208F06FF82B46221D05F1180153F855
:1044B000040B8B4242F8040BF9D1FEF79FFD064630
:1044C000206220B92046FFF7CFFF344604E00620E3
:1044D00003492A4600F032F8204670BDA8000020AB
:1044E0005F1A210038B50C46054618B90F4851210E
:1044F00002F008FA1CB90D48512102F003FA2A789B
:1045000023789A420FD16A8A638A9A420BD1A81CF7
:10451000A11C102207F026FF28B968696369C31A35
:104520005842584138BD002038BD00BF6D1A2100E7
:10453000014B1860704700BFB400002030B595B043
:10454000508A0D4609F0E8FA01AC024606492046B9
:1045500001F09EFA2044A04204D004482946224695
:1045600001F086FA15B030BDC81A2100CC1A21001E
:104570002DE9F0411E46234B04461B680F4683423B
:104580001546DDF818803BDB00F0E0FA062C05D874
:104590001D4B1E4853F8241001F06AFAB8F1000FC1
:1045A00020D01B483946324601F062FA0024B4425A
:1045B00013D0210703D11748214601F059FA295D8C
:1045C0001548013401F054FA6207F0D123070CBFFB
:1045D0000A20202009F0A0F8E9E70A20BDE8F04110
:1045E00009F09AB832460D48394601F041FA2E4496
:1045F000B542F2D015F8011B094801F039FAF7E786
:10460000BDE8F081B400002010FF2000D41A210082
:10461000D81A2100B71A2100BD1A2100EA1A210078
:10462000FC1A2100F7B500F04DFC00F0F5FC00F09D
:1046300091FC00F061FA01F0D1F909F00CF900F0F9
:10464000E3FC06F0C3FC022008F0F4FF01F09AFF3F
:1046500000F024FC00F0E6F9002000F047FB012008
:1046600000F044FB4449002000F002FC02F0E8F8AE
:1046700009F035F8042008F0DDFF404809F065F83E
:104680003F4809F062F83F4801F0F2F93E4B3F4DD8
:10469000186809F05AF83E4801F0EAF93D4B002449
:1046A000186809F052F83C4801F0E2F93B4B2E46FD
:1046B000186809F04AF8002002F0E6F801F082F8E4
:1046C0003748002102F004F801F06CFE684608212A
:1046D00001F096F99DF807309DF8067043EA072728
:1046E0006B4603CB28602F48696001F0C1F9315D4A
:1046F0002D48013401F0BCF9072C244DF7D12B4E85
:10470000E9792B4801F0B4F9F46A4AF6CD31022078
:10471000A04739460320A04719210120A047694638
:10472000736B08220920984705F0E0FD214A2B68A9
:1047300013606B68536005F0EBFA1F48002101F02D
:10474000C7FF00F08BFC00211C4801F0C1FF09F0FD
:1047500060F81B4809F053F800F0A6FB082008F0A9
:1047600069FF00F0A7FB01F025FF10F0FF0FF8D163
:1047700001F0CCF8F5E700BFFD672000241B210005
:104780003E1B2100561B2100AC002100A33300205A
:104790005D1B2100C8002100641B2100E4002100F2
:1047A000040100206B1B2100891B2100E4FF200075
:1047B000130B2100BC2B002094010020B800002026
:1047C00074E8200070B505880446772D30D07E2D22
:1047D00040D0002D4ED101F0CDFE294B1870294B51
:1047E0001D601E463368284A264D52F823204AB1E0
:1047F00026480021C1549368802098472A680132D6
:104800002A60EFE7224A1370772321E01F4AD2562D
:10481000002A13DB1B4B1A6801321A60194B1C4A21
:104820001B6812789342F1DB1A4B1B68002BEBD00C
:10483000184A00231360134A1360EFE7104A002060
:104840001178114A52F8232001F016FF30B97E2367
:10485000238013E00A4B1B788B420FD1094B0B4A84
:104860001B68D15C01F07F01D1540A4B1A680132F8
:104870001A60CFE700230380032070BD012070BDC4
:104880008E330020040D0020C80000208F3300204C
:10489000F8270020080D0020094B1A7800239342C6
:1048A00004DA084951F82310814207D1064A074823
:1048B000D15C61F07F01D15401F022BF0133EEE7FA
:1048C000F8270020C80000208F330020B800002007
:1048D00008B50948082108F0D7FE0321042200206A
:1048E00000F0A8FB002000F00BFB0448002103228D
:1048F00000F044FB012008BD00900D40C14920009C
:1049000008B50948102108F0BFFE04210A4602201C
:1049100000F090FB022000F0F3FA04480221042288
:1049200000F02CFB012008BD00B00D40C149200063
:1049300008B50948202108F0A7FE0521042202201D
:1049400000F078FB022000F0DBFA04480221052287
:1049500000F014FB012008BD00B00D40C14920004B
:1049600008B50948402108F08FFE062104220220E4
:1049700000F060FB022000F0C3FA04480221062286
:1049800000F0FCFA012008BD00B00D40C149200034
:1049900008B50948802108F077FE0721042202208B
:1049A00000F048FB022000F0ABFA04480221072285
:1049B00000F0E4FA012008BD00B00D40C14920001C
:1049C00038B5054611480C4608F053FFE8B10F48CA
:1049D000102108F042FF1DB9032C16D10C4810E03D
:1049E000022D12D1042C01D10A480AE0052C01D174
:1049F000094806E0062C01D1084802E0072C04D142
:104A00000748BDE83840FFF747BF38BD0C0D002010
:104A10002CFF20004CFF20005CFF20003CFF20000A
:104A20006CFF20000148002108F017BF0C0D00208A
:104A300010B5074CFF2323604FF4FA6000F09AF89A
:104A400000213022062000F011FB0023236010BD5E
:104A500000920D40802870B51ED1104E104D336865
:104A6000002423F0800333602B68204643F080034A
:104A70002B600C4B07211C60224600F0DBFA3368E8
:104A8000204623F0400333602B68062123F04003C7
:104A90002B60012200F0CEFA002070BD20940D4062
:104AA00000940D4000920D40F8B500F087F8104ECC
:104AB0000022D6E90045A042294638BF691C0F46AE
:104AC000B64642EA0006CEE900670A49D1E900236A
:104AD000121B63EB0503921943EB0703C1E90023A3
:104AE00001F0FEFB18B1BDE8F84001F089BBF8BD4C
:104AF0007006002078060020114B124A1A6053F805
:104B0000042C42F0050243F8042C53F8042C42F024
:104B1000020243F8042C0C4B1A6842F001021A609E
:104B2000A3F52123A3F6FC7300221A60042243F8A4
:104B30000C2C012243F8082C0F22DA62704700BFC8
:104B400014E000E047E8010008200D40034BD3E9E2
:104B50000023100A40EA0360704700BF700600207F
:104B6000034BD3E90023D00B40EA4340704700BF1A
:104B700078060020054B18601C3B1A6842F00102C1
:104B80001A601A68D207FCD4704700BF280003409F
:104B900010B5064C236823F001032360FFF784FF60
:104BA000236843F00103236010BD00BF10E000E064
:104BB000014B1868704700BF140D0020064B1A689F
:104BC000596808331B681B0443EA01231343034A53
:104BD000106843EA0060704740500D404C500D4053
:104BE00010B50446114B1B68DB07FBD508F07BFDB5
:104BF000FFF7E4FF231A062BD8BFC41D0C4B220E6F
:104C00001A60C4F3074243F8042CC4F3072243F8A4
:104C1000082CE2B243F80C2C08F061FD054B912002
:104C20001C60BDE8104000F06BB900BF50500D4053
:104C30004C500D40140D002008B500F04DFE064B01
:104C4000002291201A6000F077F9912000F066F9B7
:104C5000BDE8084001F072BD140D00200023084A91
:104C60001068084A9958084205D01A44D2689069D9
:104C700010F0800003D02C33582BF0D10120704766
:104C800028200D408CFF200038B5164B2C2202FB4B
:104C90000033DC684FF6BF72236C62649BB213F082
:104CA000500205460DD0A369DB0609D40E4B53F81C
:104CB00025301BB12068C0B29847F4E72368F2E7BB
:104CC00038BD13F4D06F0BD04FF440732363FF2330
:104CD0006360E36AE262E362236B43F001032363F0
:104CE00038BD00BF8CFF2000180D0020012870B5D2
:104CF00000F2B1802C254543574E741994F92030A9
:104D0000002BC0F2A88094F92230002BC0F2A380BF
:104D1000524800F053FE524B7259196800260A435C
:104D20001A60596862680A435A609968A2680A431F
:104D30009A60E368C3F8C86F94F9201094F92120B1
:104D4000236902EBC1021A6094F8220094F8231040
:104D5000227D00F079F994F8220094F823100822BB
:104D600000F068F994F92300012101FA00F094F9A8
:104D700022203C4B1203D5582843D05094F92100EF
:104D800094F9202001FA00F01203D5582843D0509E
:104D9000E26850209063E2681D46906B40F4D0605A
:104DA0009063E26802205063E2684FF44070106341
:104DB000E268A0695062E268E0699062E26870208F
:104DC000D06294F92420B2421ADB94F9253043EAE8
:104DD000C202254B1A6094F9250094F924308140D1
:104DE0001B035A5911435951324694F8240094F840
:104DF000251000F01FF91D4B1A6842F400421A609A
:104E000094F8260003061BD494F82710012200F022
:104E10001BF994F92720012000FA02F294F92630B8
:104E20001B0359590A435A5194F82600082294F852
:104E3000271000F0FFF80D4B1A6842F480421A6008
:104E4000E3681A6B42F001021A6394F82800BDE887
:104E5000704000F055B870BD8CFF20005D4C200004
:104E600028200D4020940D4004410D4030D00040DA
:104E700001289CBF014B43F820107047180D0020FB
:104E8000012808D8044B2C2202FB0030C3689A6921
:104E90009206FCD4196070478CFF2000014B002261
:104EA0001A60704700500D40014B08221A6070478D
:104EB00000500D40024BA0221A6050221A60704729
:104EC00000500D40084A094B1A60094B80321A60A5
:104ED000084B80321A60084B80321A60074B4FF43F
:104EE00000121A60704700BF00E100E02C0D0020A6
:104EF000200D0020240D0020280D002008ED00E0EA
:104F00004209012100F01F0001FA00F0024B1B686A
:104F100043F82200704700BF2C0D002042090121F8
:104F200000F01F0001FA00F0024B1B6843F822005A
:104F3000704700BF200D00204209012100F01F0032
:104F400001FA00F0024B1B6843F82200704700BFD3
:104F5000280D0020054A064B1A60064B1A68064BBE
:104F60001340B3F1807FF8D1704700BF0101020107
:104F700000200D4004200D4000000101024B02EB17
:104F8000C10243F822007047300D0020F8B50A4EE8
:104F900007460D4606EB4116002447FA04F3DB07EB
:104FA000E1B204D556F824300BB1284698470134B5
:104FB000082CF2D1F8BD00BF300D00202DE9F047DC
:104FC000064635030F4F05F1804404F5592400F0DF
:104FD00083FCD4F818A4EB594FEAC60823FA08F961
:104FE0004AEA0900C0B23146FFF7D0FF5FFA89F9FB
:104FF0005FFA8AF3C4F81C3409FA08F3EB51BDE8F0
:10500000F08700BF18970D4002480021802207F06A
:10501000B9BA00BF300D0020034A044B1A60044B9C
:10502000803A1A60704700BF80400D40B40D0020E8
:10503000B00D0020034B01EBC0011B6843F8212099
:10504000704700BFB40D0020034B01EBC0011B688B
:1050500043F82120704700BFB00D0020024B1A68B2
:1050600042F030021A60704700700D400E2870B593
:105070000BD1154C236843F002052560134D2C68B5
:1050800024F03F0646F001062E60114D2E6826F0F2
:10509000FF0632431143014329600E4A126812068B
:1050A000FBD50D4A0D491268096802F0FC0242EA7C
:1050B000012292B20E2892B203D104490C60024937
:1050C0000B6010B270BD00BF34000144F48608408C
:1050D00008700D4000700D400C700D4010700D40B8
:1050E00010B58F20064CFFF727FF8F20FFF716FF24
:1050F000206818B101F004FB0023236010BD00BF3D
:10510000B80D0020084B93F90020002A09DB074A5C
:10511000ED2111601160E32111601A7862F07F02C5
:105120001A700120704700BFF92700203888084016
:10513000094B1B689B07FBD4084BED221A601A60D1
:10514000074A12680AB1EF221A60064B01201A784A
:1051500002F07F021A7070474C8608403888084079
:105160002C860840F927002038B5A0F10B05EBB2DA
:105170000F2B044613D80B4B1B6813F03F0302D0D0
:10518000FFF7D6FF012305EB8505074A0B351560B0
:105190000BB1FFF7B7FF054BE0B21C7000E0FF203A
:1051A00040B238BD488608403C860840A402002032
:1051B00010B50B4B1B68990603D1FFF7A3FF012322
:1051C00000E00023074A1268D207FBD5064A14689C
:1051D000C4F300140BB1FFF7ABFF204610BD00BFB6
:1051E00048860840648608404C860840044B18688E
:1051F00000F02200B0F1200358425841704700BF30
:105200004C860840024B186800F04000704700BF11
:105210004C86084038B50C4600296CD00D286CD857
:10522000DFE800F0070D181A216B3142476B5E6012
:105230006265334B1B68003318BF012358E0314BC4
:1052400005221B6803F07F030B3B93FBF2F30B3348
:10525000DBB24DE02C4B00E02C4B1A68043B1B6882
:1052600043EA022344E00023294A0B60126802F05B
:1052700001020A602749086810F020003ED042F081
:105280000202226035E0244B19680023C9B2234A88
:1052900002EBC3000079884202D852F8333027E08D
:1052A00001330E2BF3D11FE01D4B1B685BB2493B52
:1052B0001EE01C4B1B68990603D1FFF723FF012357
:1052C00000E00023184A1268D207FBD5174A156878
:1052D000493DEDB20BB1FFF72BFF6DB2256008E041
:1052E0000B2305E01A2303E06FF0170300E0072308
:1052F0002360002038BD022038BD012038BD00BF2A
:105300002C8608403C860840CC850840D48508405F
:105310000086084024860840408608401C00210082
:1053200058860840488608406486084060860840E1
:1053300038B505460C46134B1B689B07FBD4124B34
:1053400093F90030002B01DBFFF7DCFE0F4BEE2260
:105350001A60691E1A60A21C43F8102C2144022016
:1053600000F048FA013C0A4924012143022000F0E0
:1053700053FA022000F05AFA022000F06FFA0020DF
:1053800038BD00BF4C860840F92700203888084007
:1053900002C001C0F8B51F4B93F90030002B0CDBA5
:1053A000FFF70CFC0446FFF7ADFEFFF707FC6FF0BC
:1053B00009031B1BC342F8D401E0002600E00126CC
:1053C000FFF7F6FE10B3144D2B6899061ED4134C4C
:1053D000E923236004272B689A0707D4013F17F0BD
:1053E000FF0703D00620FFF7C5FBF4E72B689B07F8
:1053F00004D4EE2323602360012403E02C6814F01E
:105400000204FBD126B1FFF793FE01E00220F8BDB4
:105410002046F8BDF92700204C860840388808400F
:10542000044B1A6810B142F0010201E022F00102BF
:105430001A6070470086084038B50C46072855D8D2
:10544000DFE800F0040F1B1F26543B4F012902D157
:10545000FFF758FE4EE000294AD1FFF769FE2046CB
:1054600038BDA1F10B030F2B42D8C8B2FFF77CFE69
:10547000013014BF0020032038BD8CB2E2B21E4BB5
:1054800002E08CB21D4BE2B2240A1A605C6031E08B
:1054900031F003052CD101F00100FFF7C1FF184BDB
:1054A00014F002001A6804D042F020021A60284664
:1054B00038BD22F020021A6038BD01F118031F2BFD
:1054C00016D80D230F4AD80052F833108C4204DC52
:1054D000024412790C4B1A600CE013F1FF33F1D245
:1054E00008E0CCB2094B49341C6003E0012038BD10
:1054F000022038BD002038BDC8850840D08508404E
:10550000248608401C002100408608405886084038
:1055100009280CD1082A0CD159B1084B013953F88C
:10552000042D01F8012F064A9342F8D103E001202F
:105530007047022070470020704700BFC8850840B0
:10554000A885084009280CD1082A0CD159B1084B6C
:10555000083111F8012D43F8042F064A9342F8D17F
:1055600003E001207047022070470020704700BF11
:10557000A4850840C485084070B52C4E336813F0EC
:10558000400342D02A4C2368DDB21B0639D4042DD7
:1055900037D9023D8D4234DCEDB2032D1BD04119C9
:1055A0000139032000F02EF96B1E22491B01032054
:1055B000194300F031F9032000F038F9032000F01E
:1055C0004DF9032000F056F90028FAD1216824682B
:1055D000200616D506E0236803702368437023680D
:1055E0008370F3E7493949B289B2042004F054FECC
:1055F000032004F07F0104F04FFE33685A0606D4FE
:1056000011E00D4BED221A601A60002070BD074BAF
:105610001B681B0603D5094801F072F803E0064B2E
:10562000ED221A601A60284670BD00BF4C86084003
:105630002888084002C0010C38880840EC0000208F
:10564000F8B52B4D2E7816F001064ED1294B0124CA
:105650001C605C609C60A3F59323A3F51473F8228F
:105660001A600922C3F89021152270331A6003F5DD
:105670009B230B2203F59E731A60A3F59B23A3F5CE
:10568000F07340221A601A687F2742F020021A60E5
:10569000D52243F81C6CDF62DA61174B1878FFF7EC
:1056A00063FD164B8D201A6842F004021A60FFF762
:1056B00027FC134B8E201F60FFF722FC022000F016
:1056C000C1F81049022000F09DF8032000F0BAF85C
:1056D00003200C4900F08EF80B48314600F0F8FF2B
:1056E0002B78204623432B70F8BD0020F8BD00BF67
:1056F000F9270020A8200D40A40200208C86084035
:105700009486084028880840EC00002038B50388BB
:105710000446E3B140F2B932934203D00023038040
:10572000032038BD822915D104F054FD04F0F2FCA9
:105730008021FFF721FF002805DD80B204F0E4FCA2
:105740000C4B1B6998470C4B1A78520604D440F254
:10575000B9332380012038BD00221A70074B1D6821
:10576000FFF7E6FCFFF76CFFAB06F0D0FFF7CAFCD3
:10577000EDE700BFE4002100F9270020488608403B
:1057800008B5034800F0BCFF024B00221A6008BDB8
:10579000EC00002034880840074B1A68042A1A4697
:1057A00004D0064B197841F04001197000231360B2
:1057B000034800F0A5BF00BF2C880840F92700204F
:1057C000EC00002010B5094C00212046402206F0D4
:1057D000D9FE074B01221A602E205C60FFF790FB78
:1057E000BDE810402F20FFF78BBB00BF000000205A
:1057F00004F00F40032802D8014B000119507047F4
:1058000000000020032803D8024B03EB0010416086
:10581000704700BF00000020032803D8024B03EBB1
:1058200000108160704700BF00000020032806D8E8
:10583000012101FA00F0024B1A681043186070470A
:1058400028F00F40032806D8012101FA00F0024B8E
:105850001A6810431860704720F00F40032806D8DC
:10586000012101FA00F0024B1A68104318607047DA
:1058700014F00F40032806D8044B03EB0010806897
:1058800000F0070070470020704700BF00000020B4
:10589000024B4FF0FF321A60704700BF04F50F4013
:1058A000014B01221A6070474CF00F40094B1A68F7
:1058B000194612F4801FF9D1043B1A6822F4803291
:1058C0001A600A68D203FCD41A6842F400321A60E3
:1058D000704700BF04200D4010B50A4B1A681C46E3
:1058E00012F0030F0CD0084A13685901FBD4136857
:1058F0005B01FCD5FFF74CF9FFF7D8FF00232360CD
:1059000010BD00BF58200D4004200D4038B5254B78
:105910001C6814F03F0413D1234BE35823B198477C
:1059200070B104340C2CF7D1204B1A781D463AB1D3
:10593000FFF73EF90446FFF741F9201A092801D87C
:1059400030BF38BD002CFBD0194B1A6822F400324E
:105950001A60184A1168C902FBD4196841F48031F1
:1059600019601368DB03FCD5FFF728F9201A092812
:1059700003D8BDE83840FFF799BF63280E4C02D921
:105980002B78022B00D00123236000F06BFE20B1A6
:10599000FFF78CFF0023236038BDFFF709F90028CB
:1059A000CED1F5E748860840BC0D0020FA2700203C
:1059B00000200D4004200D4058200D400023064AD1
:1059C00052F82310814206D011B942F823007047E3
:1059D0000133032BF3D17047BC0D0020054B00228F
:1059E0001A60054B1A6842F004021A60034B012248
:1059F0001A70704758200D4010ED00E0FA27002083
:105A000030B5184B1B783BB9174A1278122A03D1CC
:105A1000164A12784B2A01D0002317E04A08934215
:105A200007DA02F520142734E41A2478C454013329
:105A3000F5E70023934208DA01F520142734E41A2D
:105A400025788418E5540133F4E730BD8B4207DA3A
:105A500001F520122732D21A1278C2540133F5E729
:105A600030BD00BF2B0028002A0028002900280094
:105A70000FB407B504AA52F8041B0448019200F0C1
:105A800037F803B05DF804EB04B07047FC00002069
:105A90000EB43FB5094B07AA52F8041B01900493BA
:105AA00004A801AB0392059300F022F8019B0022A9
:105AB0001A7006B05DF804EB03B07047E9D7200018
:105AC00038B505460C46102C07D92B68686807497D
:105AD0001022984748B9103CF5E72CB12B6868684C
